{"contracts/cngn.sol":{"cngn":{"abi":[{"inputs":[],"stateMutability":"nonpayable","type":"constructor"},{"anonymous":false,"inputs":[{"indexed":false,"internalType":"address","name":"_user","type":"address"}],"name":"AddedBlackList","type":"event"},{"anonymous":false,"inputs":[{"indexed":true,"internalType":"address","name":"owner","type":"address"},{"indexed":true,"internalType":"address","name":"spender","type":"address"},{"indexed":false,"internalType":"uint256","name":"value","type":"uint256"}],"name":"Approval","type":"event"},{"anonymous":false,"inputs":[{"indexed":false,"internalType":"address","name":"_blackListedUser","type":"address"},{"indexed":false,"internalType":"uint256","name":"_balance","type":"uint256"}],"name":"DestroyedBlackFunds","type":"event"},{"anonymous":false,"inputs":[{"indexed":false,"internalType":"uint8","name":"version","type":"uint8"}],"name":"Initialized","type":"event"},{"anonymous":false,"inputs":[{"indexed":true,"internalType":"address","name":"previousOwner","type":"address"},{"indexed":true,"internalType":"address","name":"newOwner","type":"address"}],"name":"OwnershipTransferred","type":"event"},{"anonymous":false,"inputs":[{"indexed":false,"internalType":"address","name":"account","type":"address"}],"name":"Paused","type":"event"},{"anonymous":false,"inputs":[{"indexed":false,"internalType":"address","name":"_user","type":"address"}],"name":"RemovedBlackList","type":"event"},{"anonymous":false,"inputs":[{"indexed":true,"internalType":"address","name":"from","type":"address"},{"indexed":true,"internalType":"address","name":"to","type":"address"},{"indexed":false,"internalType":"uint256","name":"value","type":"uint256"}],"name":"Transfer","type":"event"},{"anonymous":false,"inputs":[{"indexed":false,"internalType":"address","name":"account","type":"address"}],"name":"Unpaused","type":"event"},{"inputs":[{"internalType":"address","name":"_evilUser","type":"address"}],"name":"addBlackList","outputs":[{"internalType":"bool","name":"","type":"bool"}],"stateMutability":"nonpayable","type":"function"},{"inputs":[{"internalType":"address","name":"owner","type":"address"},{"internalType":"address","name":"spender","type":"address"}],"name":"allowance","outputs":[{"internalType":"uint256","name":"","type":"uint256"}],"stateMutability":"view","type":"function"},{"inputs":[{"internalType":"address","name":"spender","type":"address"},{"internalType":"uint256","name":"amount","type":"uint256"}],"name":"approve","outputs":[{"internalType":"bool","name":"","type":"bool"}],"stateMutability":"nonpayable","type":"function"},{"inputs":[{"internalType":"address","name":"account","type":"address"}],"name":"balanceOf","outputs":[{"internalType":"uint256","name":"","type":"uint256"}],"stateMutability":"view","type":"function"},{"inputs":[{"internalType":"uint256","name":"_amount","type":"uint256"}],"name":"burn","outputs":[{"internalType":"bool","name":"","type":"bool"}],"stateMutability":"nonpayable","type":"function"},{"inputs":[],"name":"decimals","outputs":[{"internalType":"uint8","name":"","type":"uint8"}],"stateMutability":"view","type":"function"},{"inputs":[{"internalType":"address","name":"spender","type":"address"},{"internalType":"uint256","name":"subtractedValue","type":"uint256"}],"name":"decreaseAllowance","outputs":[{"internalType":"bool","name":"","type":"bool"}],"stateMutability":"nonpayable","type":"function"},{"inputs":[{"internalType":"address","name":"_blackListedUser","type":"address"}],"name":"destroyBlackFunds","outputs":[{"internalType":"bool","name":"","type":"bool"}],"stateMutability":"nonpayable","type":"function"},{"inputs":[{"internalType":"address","name":"_maker","type":"address"}],"name":"getBlackListStatus","outputs":[{"internalType":"bool","name":"","type":"bool"}],"stateMutability":"view","type":"function"},{"inputs":[{"internalType":"address","name":"spender","type":"address"},{"internalType":"uint256","name":"addedValue","type":"uint256"}],"name":"increaseAllowance","outputs":[{"internalType":"bool","name":"","type":"bool"}],"stateMutability":"nonpayable","type":"function"},{"inputs":[],"name":"initialize","outputs":[],"stateMutability":"nonpayable","type":"function"},{"inputs":[{"internalType":"uint256","name":"_amount","type":"uint256"},{"internalType":"address","name":"_mintTo","type":"address"}],"name":"mint","outputs":[{"internalType":"bool","name":"","type":"bool"}],"stateMutability":"nonpayable","type":"function"},{"inputs":[],"name":"name","outputs":[{"internalType":"string","name":"","type":"string"}],"stateMutability":"view","type":"function"},{"inputs":[],"name":"owner","outputs":[{"internalType":"address","name":"","type":"address"}],"stateMutability":"view","type":"function"},{"inputs":[],"name":"pause","outputs":[{"internalType":"bool","name":"","type":"bool"}],"stateMutability":"nonpayable","type":"function"},{"inputs":[],"name":"paused","outputs":[{"internalType":"bool","name":"","type":"bool"}],"stateMutability":"view","type":"function"},{"inputs":[{"internalType":"address","name":"_clearedUser","type":"address"}],"name":"removeBlackList","outputs":[{"internalType":"bool","name":"","type":"bool"}],"stateMutability":"nonpayable","type":"function"},{"inputs":[],"name":"renounceOwnership","outputs":[],"stateMutability":"nonpayable","type":"function"},{"inputs":[],"name":"symbol","outputs":[{"internalType":"string","name":"","type":"string"}],"stateMutability":"view","type":"function"},{"inputs":[],"name":"totalSupply","outputs":[{"internalType":"uint256","name":"","type":"uint256"}],"stateMutability":"view","type":"function"},{"inputs":[{"internalType":"address","name":"to","type":"address"},{"internalType":"uint256","name":"amount","type":"uint256"}],"name":"transfer","outputs":[{"internalType":"bool","name":"","type":"bool"}],"stateMutability":"nonpayable","type":"function"},{"inputs":[{"internalType":"address","name":"from","type":"address"},{"internalType":"address","name":"to","type":"address"},{"internalType":"uint256","name":"amount","type":"uint256"}],"name":"transferFrom","outputs":[{"internalType":"bool","name":"","type":"bool"}],"stateMutability":"nonpayable","type":"function"},{"inputs":[{"internalType":"address","name":"newOwner","type":"address"}],"name":"transferOwnership","outputs":[],"stateMutability":"nonpayable","type":"function"},{"inputs":[],"name":"unPause","outputs":[{"internalType":"bool","name":"","type":"bool"}],"stateMutability":"nonpayable","type":"function"}],"evm":{"bytecode":{"linkReferences":{},"object":"608060405234801562000010575f80fd5b50620000216200002760201b60201c565b620001c7565b5f60019054906101000a900460ff161562000079576040517f08c379a000000000000000000000000000000000000000000000000000000000815260040162000070906200016f565b60405180910390fd5b60ff80165f8054906101000a900460ff1660ff161015620000e95760ff5f806101000a81548160ff021916908360ff1602179055507f7f26b83ff96e1f2b6a682f133852f6798a09c465da95921460cefb384740249860ff604051620000e09190620001ac565b60405180910390a15b565b5f82825260208201905092915050565b7f496e697469616c697a61626c653a20636f6e747261637420697320696e6974695f8201527f616c697a696e6700000000000000000000000000000000000000000000000000602082015250565b5f62000157602783620000eb565b91506200016482620000fb565b604082019050919050565b5f6020820190508181035f830152620001888162000149565b9050919050565b5f60ff82169050919050565b620001a6816200018f565b82525050565b5f602082019050620001c15f8301846200019b565b92915050565b612c2080620001d55f395ff3fe608060405234801561000f575f80fd5b5060043610610156575f3560e01c80638129fc1c116100c1578063a9059cbb1161007a578063a9059cbb146103f0578063dd62ed3e14610420578063e4997dc514610450578063f2fde38b14610480578063f3bdc2281461049c578063f7b188a5146104cc57610156565b80638129fc1c1461032c5780638456cb59146103365780638da5cb5b1461035457806394bf804d1461037257806395d89b41146103a2578063a457c2d7146103c057610156565b80633950935111610113578063395093511461024457806342966c681461027457806359bf1abe146102a45780635c975abb146102d457806370a08231146102f2578063715018a61461032257610156565b806306fdde031461015a578063095ea7b3146101785780630ecb93c0146101a857806318160ddd146101d857806323b872dd146101f6578063313ce56714610226575b5f80fd5b6101626104ea565b60405161016f9190611cfe565b60405180910390f35b610192600480360381019061018d9190611daf565b61057a565b60405161019f9190611e07565b60405180910390f35b6101c260048036038101906101bd9190611e20565b61059c565b6040516101cf9190611e07565b60405180910390f35b6101e061063a565b6040516101ed9190611e5a565b60405180910390f35b610210600480360381019061020b9190611e73565b610643565b60405161021d9190611e07565b60405180910390f35b61022e610772565b60405161023b9190611ede565b60405180910390f35b61025e60048036038101906102599190611daf565b61077a565b60405161026b9190611e07565b60405180910390f35b61028e60048036038101906102899190611ef7565b6107b0565b60405161029b9190611e07565b60405180910390f35b6102be60048036038101906102b99190611e20565b6107cc565b6040516102cb9190611e07565b60405180910390f35b6102dc61081e565b6040516102e99190611e07565b60405180910390f35b61030c60048036038101906103079190611e20565b610833565b6040516103199190611e5a565b60405180910390f35b61032a610879565b005b61033461088c565b005b61033e610a40565b60405161034b9190611e07565b60405180910390f35b61035c610a60565b6040516103699190611f31565b60405180910390f35b61038c60048036038101906103879190611f4a565b610a88565b6040516103999190611e07565b60405180910390f35b6103aa610af8565b6040516103b79190611cfe565b60405180910390f35b6103da60048036038101906103d59190611daf565b610b88565b6040516103e79190611e07565b60405180910390f35b61040a60048036038101906104059190611daf565b610bfd565b6040516104179190611e07565b60405180910390f35b61043a60048036038101906104359190611f88565b610ccd565b6040516104479190611e5a565b60405180910390f35b61046a60048036038101906104659190611e20565b610d4f565b6040516104779190611e07565b60405180910390f35b61049a60048036038101906104959190611e20565b610dec565b005b6104b660048036038101906104b19190611e20565b610e6e565b6040516104c39190611e07565b60405180910390f35b6104d4610f72565b6040516104e19190611e07565b60405180910390f35b6060609b80546104f990611ff3565b80601f016020809104026020016040519081016040528092919081815260200182805461052590611ff3565b80156105705780601f1061054757610100808354040283529160200191610570565b820191905f5260205f20905b81548152906001019060200180831161055357829003601f168201915b5050505050905090565b5f80610584610f92565b9050610591818585610f99565b600191505092915050565b5f6105a561115c565b600160995f8473ffffffffffffffffffffffffffffffffffffffff1673ffffffffffffffffffffffffffffffffffffffff1681526020019081526020015f205f6101000a81548160ff0219169083151502179055507f42e160154868087d6bfdc0ca23d96a1c1cfa32f1b72ba9ba27b69b98a0d819dc826040516106299190611f31565b60405180910390a160019050919050565b5f609a54905090565b5f61064c6111da565b60995f3373ffffffffffffffffffffffffffffffffffffffff1673ffffffffffffffffffffffffffffffffffffffff1681526020019081526020015f205f9054906101000a900460ff161561069f575f80fd5b60995f8573ffffffffffffffffffffffffffffffffffffffff1673ffffffffffffffffffffffffffffffffffffffff1681526020019081526020015f205f9054906101000a900460ff16156106f2575f80fd5b60995f8473ffffffffffffffffffffffffffffffffffffffff1673ffffffffffffffffffffffffffffffffffffffff1681526020019081526020015f205f9054906101000a900460ff1615610745575f80fd5b5f61074e610f92565b905061075b858285611224565b6107668585856112af565b60019150509392505050565b5f6012905090565b5f80610784610f92565b90506107a58185856107968589610ccd565b6107a09190612050565b610f99565b600191505092915050565b5f6107b961115c565b6107c3338361151e565b60019050919050565b5f60995f8373ffffffffffffffffffffffffffffffffffffffff1673ffffffffffffffffffffffffffffffffffffffff1681526020019081526020015f205f9054906101000a900460ff169050919050565b5f60655f9054906101000a900460ff16905090565b5f60975f8373ffffffffffffffffffffffffffffffffffffffff1673ffffffffffffffffffffffffffffffffffffffff1681526020019081526020015f20549050919050565b61088161115c565b61088a5f6116e3565b565b5f8060019054906101000a900460ff161590508080156108bb575060015f8054906101000a900460ff1660ff16105b806108e757506108ca306117a6565b1580156108e6575060015f8054906101000a900460ff1660ff16145b5b610926576040517f08c379a000000000000000000000000000000000000000000000000000000000815260040161091d906120f3565b60405180910390fd5b60015f806101000a81548160ff021916908360ff16021790555080156109615760015f60016101000a81548160ff0219169083151502179055505b6109d56040518060400160405280600481526020017f634e474e000000000000000000000000000000000000000000000000000000008152506040518060400160405280600481526020017f634e474e000000000000000000000000000000000000000000000000000000008152506117c8565b6109dd611824565b6109e561187c565b8015610a3d575f8060016101000a81548160ff0219169083151502179055507f7f26b83ff96e1f2b6a682f133852f6798a09c465da95921460cefb38474024986001604051610a349190612153565b60405180910390a15b50565b5f610a4961115c565b610a516111da565b610a596118d4565b6001905090565b5f60335f9054906101000a900473ffffffffffffffffffffffffffffffffffffffff16905090565b5f610a9161115c565b60995f8373ffffffffffffffffffffffffffffffffffffffff1673ffffffffffffffffffffffffffffffffffffffff1681526020019081526020015f205f9054906101000a900460ff1615610ae4575f80fd5b610aee8284611936565b6001905092915050565b6060609c8054610b0790611ff3565b80601f0160208091040260200160405190810160405280929190818152602001828054610b3390611ff3565b8015610b7e5780601f10610b5557610100808354040283529160200191610b7e565b820191905f5260205f20905b815481529060010190602001808311610b6157829003601f168201915b5050505050905090565b5f80610b92610f92565b90505f610b9f8286610ccd565b905083811015610be4576040517f08c379a0000000000000000000000000000000000000000000000000000000008152600401610bdb906121dc565b60405180910390fd5b610bf18286868403610f99565b60019250505092915050565b5f610c066111da565b60995f3373ffffffffffffffffffffffffffffffffffffffff1673ffffffffffffffffffffffffffffffffffffffff1681526020019081526020015f205f9054906101000a900460ff1615610c59575f80fd5b60995f8473ffffffffffffffffffffffffffffffffffffffff1673ffffffffffffffffffffffffffffffffffffffff1681526020019081526020015f205f9054906101000a900460ff1615610cac575f80fd5b5f610cb5610f92565b9050610cc28185856112af565b600191505092915050565b5f60985f8473ffffffffffffffffffffffffffffffffffffffff1673ffffffffffffffffffffffffffffffffffffffff1681526020019081526020015f205f8373ffffffffffffffffffffffffffffffffffffffff1673ffffffffffffffffffffffffffffffffffffffff1681526020019081526020015f2054905092915050565b5f610d5861115c565b5f60995f8473ffffffffffffffffffffffffffffffffffffffff1673ffffffffffffffffffffffffffffffffffffffff1681526020019081526020015f205f6101000a81548160ff0219169083151502179055507fd7e9ec6e6ecd65492dce6bf513cd6867560d49544421d0783ddf06e76c24470c82604051610ddb9190611f31565b60405180910390a160019050919050565b610df461115c565b5f73ffffffffffffffffffffffffffffffffffffffff168173ffffffffffffffffffffffffffffffffffffffff1603610e62576040517f08c379a0000000000000000000000000000000000000000000000000000000008152600401610e599061226a565b60405180910390fd5b610e6b816116e3565b50565b5f610e7761115c565b60995f8373ffffffffffffffffffffffffffffffffffffffff1673ffffffffffffffffffffffffffffffffffffffff1681526020019081526020015f205f9054906101000a900460ff16610ec9575f80fd5b5f610ed383610833565b90505f60975f8573ffffffffffffffffffffffffffffffffffffffff1673ffffffffffffffffffffffffffffffffffffffff1681526020019081526020015f208190555080609a5f828254610f289190612288565b925050819055507f61e6e66b0d6339b2980aecc6ccc0039736791f0ccde9ed512e789a7fbdd698c68382604051610f609291906122bb565b60405180910390a16001915050919050565b5f610f7b61115c565b610f83611a85565b610f8b611ace565b6001905090565b5f33905090565b5f73ffffffffffffffffffffffffffffffffffffffff168373ffffffffffffffffffffffffffffffffffffffff1603611007576040517f08c379a0000000000000000000000000000000000000000000000000000000008152600401610ffe90612352565b60405180910390fd5b5f73ffffffffffffffffffffffffffffffffffffffff168273ffffffffffffffffffffffffffffffffffffffff1603611075576040517f08c379a000000000000000000000000000000000000000000000000000000000815260040161106c906123e0565b60405180910390fd5b8060985f8573ffffffffffffffffffffffffffffffffffffffff1673ffffffffffffffffffffffffffffffffffffffff1681526020019081526020015f205f8473ffffffffffffffffffffffffffffffffffffffff1673ffffffffffffffffffffffffffffffffffffffff1681526020019081526020015f20819055508173ffffffffffffffffffffffffffffffffffffffff168373ffffffffffffffffffffffffffffffffffffffff167f8c5be1e5ebec7d5bd14f71427d1e84f3dd0314c0f7b2291e5b200ac8c7c3b9258360405161114f9190611e5a565b60405180910390a3505050565b611164610f92565b73ffffffffffffffffffffffffffffffffffffffff16611182610a60565b73ffffffffffffffffffffffffffffffffffffffff16146111d8576040517f08c379a00000000000000000000000000000000000000000000000000000000081526004016111cf90612448565b60405180910390fd5b565b6111e261081e565b15611222576040517f08c379a0000000000000000000000000000000000000000000000000000000008152600401611219906124b0565b60405180910390fd5b565b5f61122f8484610ccd565b90507fffffffffffffffffffffffffffffffffffffffffffffffffffffffffffffffff81146112a9578181101561129b576040517f08c379a000000000000000000000000000000000000000000000000000000000815260040161129290612518565b60405180910390fd5b6112a88484848403610f99565b5b50505050565b5f73ffffffffffffffffffffffffffffffffffffffff168373ffffffffffffffffffffffffffffffffffffffff160361131d576040517f08c379a0000000000000000000000000000000000000000000000000000000008152600401611314906125a6565b60405180910390fd5b5f73ffffffffffffffffffffffffffffffffffffffff168273ffffffffffffffffffffffffffffffffffffffff160361138b576040517f08c379a000000000000000000000000000000000000000000000000000000000815260040161138290612634565b60405180910390fd5b611396838383611b2f565b5f60975f8573ffffffffffffffffffffffffffffffffffffffff1673ffffffffffffffffffffffffffffffffffffffff1681526020019081526020015f205490508181101561141a576040517f08c379a0000000000000000000000000000000000000000000000000000000008152600401611411906126c2565b60405180910390fd5b81810360975f8673ffffffffffffffffffffffffffffffffffffffff1673ffffffffffffffffffffffffffffffffffffffff1681526020019081526020015f20819055508160975f8573ffffffffffffffffffffffffffffffffffffffff1673ffffffffffffffffffffffffffffffffffffffff1681526020019081526020015f205f82825401925050819055508273ffffffffffffffffffffffffffffffffffffffff168473ffffffffffffffffffffffffffffffffffffffff167fddf252ad1be2c89b69c2b068fc378daa952ba7f163c4a11628f55a4df523b3ef846040516115059190611e5a565b60405180910390a3611518848484611b34565b50505050565b5f73ffffffffffffffffffffffffffffffffffffffff168273ffffffffffffffffffffffffffffffffffffffff160361158c576040517f08c379a000000000000000000000000000000000000000000000000000000000815260040161158390612750565b60405180910390fd5b611597825f83611b2f565b5f60975f8473ffffffffffffffffffffffffffffffffffffffff1673ffffffffffffffffffffffffffffffffffffffff1681526020019081526020015f205490508181101561161b576040517f08c379a0000000000000000000000000000000000000000000000000000000008152600401611612906127de565b60405180910390fd5b81810360975f8573ffffffffffffffffffffffffffffffffffffffff1673ffffffffffffffffffffffffffffffffffffffff1681526020019081526020015f208190555081609a5f82825403925050819055505f73ffffffffffffffffffffffffffffffffffffffff168373ffffffffffffffffffffffffffffffffffffffff167fddf252ad1be2c89b69c2b068fc378daa952ba7f163c4a11628f55a4df523b3ef846040516116cb9190611e5a565b60405180910390a36116de835f84611b34565b505050565b5f60335f9054906101000a900473ffffffffffffffffffffffffffffffffffffffff1690508160335f6101000a81548173ffffffffffffffffffffffffffffffffffffffff021916908373ffffffffffffffffffffffffffffffffffffffff1602179055508173ffffffffffffffffffffffffffffffffffffffff168173ffffffffffffffffffffffffffffffffffffffff167f8be0079c531659141344cd1fd0a4f28419497f9722a3daafe3b4186f6b6457e060405160405180910390a35050565b5f808273ffffffffffffffffffffffffffffffffffffffff163b119050919050565b5f60019054906101000a900460ff16611816576040517f08c379a000000000000000000000000000000000000000000000000000000000815260040161180d9061286c565b60405180910390fd5b6118208282611b39565b5050565b5f60019054906101000a900460ff16611872576040517f08c379a00000000000000000000000000000000000000000000000000000000081526004016118699061286c565b60405180910390fd5b61187a611bab565b565b5f60019054906101000a900460ff166118ca576040517f08c379a00000000000000000000000000000000000000000000000000000000081526004016118c19061286c565b60405180910390fd5b6118d2611c0b565b565b6118dc6111da565b600160655f6101000a81548160ff0219169083151502179055507f62e78cea01bee320cd4e420270b5ea74000d11b0c9f74754ebdbfc544b05a25861191f610f92565b60405161192c9190611f31565b60405180910390a1565b5f73ffffffffffffffffffffffffffffffffffffffff168273ffffffffffffffffffffffffffffffffffffffff16036119a4576040517f08c379a000000000000000000000000000000000000000000000000000000000815260040161199b906128d4565b60405180910390fd5b6119af5f8383611b2f565b80609a5f8282546119c09190612050565b925050819055508060975f8473ffffffffffffffffffffffffffffffffffffffff1673ffffffffffffffffffffffffffffffffffffffff1681526020019081526020015f205f82825401925050819055508173ffffffffffffffffffffffffffffffffffffffff165f73ffffffffffffffffffffffffffffffffffffffff167fddf252ad1be2c89b69c2b068fc378daa952ba7f163c4a11628f55a4df523b3ef83604051611a6e9190611e5a565b60405180910390a3611a815f8383611b34565b5050565b611a8d61081e565b611acc576040517f08c379a0000000000000000000000000000000000000000000000000000000008152600401611ac39061293c565b60405180910390fd5b565b611ad6611a85565b5f60655f6101000a81548160ff0219169083151502179055507f5db9ee0a495bf2e6ff9c91a7834c1ba4fdd244a5e8aa4e537bd38aeae4b073aa611b18610f92565b604051611b259190611f31565b60405180910390a1565b505050565b505050565b5f60019054906101000a900460ff16611b87576040517f08c379a0000000000000000000000000000000000000000000000000000000008152600401611b7e9061286c565b60405180910390fd5b81609b9081611b969190612b1b565b5080609c9081611ba69190612b1b565b505050565b5f60019054906101000a900460ff16611bf9576040517f08c379a0000000000000000000000000000000000000000000000000000000008152600401611bf09061286c565b60405180910390fd5b611c09611c04610f92565b6116e3565b565b5f60019054906101000a900460ff16611c59576040517f08c379a0000000000000000000000000000000000000000000000000000000008152600401611c509061286c565b60405180910390fd5b5f60655f6101000a81548160ff021916908315150217905550565b5f81519050919050565b5f82825260208201905092915050565b5f5b83811015611cab578082015181840152602081019050611c90565b5f8484015250505050565b5f601f19601f8301169050919050565b5f611cd082611c74565b611cda8185611c7e565b9350611cea818560208601611c8e565b611cf381611cb6565b840191505092915050565b5f6020820190508181035f830152611d168184611cc6565b905092915050565b5f80fd5b5f73ffffffffffffffffffffffffffffffffffffffff82169050919050565b5f611d4b82611d22565b9050919050565b611d5b81611d41565b8114611d65575f80fd5b50565b5f81359050611d7681611d52565b92915050565b5f819050919050565b611d8e81611d7c565b8114611d98575f80fd5b50565b5f81359050611da981611d85565b92915050565b5f8060408385031215611dc557611dc4611d1e565b5b5f611dd285828601611d68565b9250506020611de385828601611d9b565b9150509250929050565b5f8115159050919050565b611e0181611ded565b82525050565b5f602082019050611e1a5f830184611df8565b92915050565b5f60208284031215611e3557611e34611d1e565b5b5f611e4284828501611d68565b91505092915050565b611e5481611d7c565b82525050565b5f602082019050611e6d5f830184611e4b565b92915050565b5f805f60608486031215611e8a57611e89611d1e565b5b5f611e9786828701611d68565b9350506020611ea886828701611d68565b9250506040611eb986828701611d9b565b9150509250925092565b5f60ff82169050919050565b611ed881611ec3565b82525050565b5f602082019050611ef15f830184611ecf565b92915050565b5f60208284031215611f0c57611f0b611d1e565b5b5f611f1984828501611d9b565b91505092915050565b611f2b81611d41565b82525050565b5f602082019050611f445f830184611f22565b92915050565b5f8060408385031215611f6057611f5f611d1e565b5b5f611f6d85828601611d9b565b9250506020611f7e85828601611d68565b9150509250929050565b5f8060408385031215611f9e57611f9d611d1e565b5b5f611fab85828601611d68565b9250506020611fbc85828601611d68565b9150509250929050565b7f4e487b71000000000000000000000000000000000000000000000000000000005f52602260045260245ffd5b5f600282049050600182168061200a57607f821691505b60208210810361201d5761201c611fc6565b5b50919050565b7f4e487b71000000000000000000000000000000000000000000000000000000005f52601160045260245ffd5b5f61205a82611d7c565b915061206583611d7c565b925082820190508082111561207d5761207c612023565b5b92915050565b7f496e697469616c697a61626c653a20636f6e747261637420697320616c7265615f8201527f647920696e697469616c697a6564000000000000000000000000000000000000602082015250565b5f6120dd602e83611c7e565b91506120e882612083565b604082019050919050565b5f6020820190508181035f83015261210a816120d1565b9050919050565b5f819050919050565b5f819050919050565b5f61213d61213861213384612111565b61211a565b611ec3565b9050919050565b61214d81612123565b82525050565b5f6020820190506121665f830184612144565b92915050565b7f45524332303a2064656372656173656420616c6c6f77616e63652062656c6f775f8201527f207a65726f000000000000000000000000000000000000000000000000000000602082015250565b5f6121c6602583611c7e565b91506121d18261216c565b604082019050919050565b5f6020820190508181035f8301526121f3816121ba565b9050919050565b7f4f776e61626c653a206e6577206f776e657220697320746865207a65726f20615f8201527f6464726573730000000000000000000000000000000000000000000000000000602082015250565b5f612254602683611c7e565b915061225f826121fa565b604082019050919050565b5f6020820190508181035f83015261228181612248565b9050919050565b5f61229282611d7c565b915061229d83611d7c565b92508282039050818111156122b5576122b4612023565b5b92915050565b5f6040820190506122ce5f830185611f22565b6122db6020830184611e4b565b9392505050565b7f45524332303a20617070726f76652066726f6d20746865207a65726f206164645f8201527f7265737300000000000000000000000000000000000000000000000000000000602082015250565b5f61233c602483611c7e565b9150612347826122e2565b604082019050919050565b5f6020820190508181035f83015261236981612330565b9050919050565b7f45524332303a20617070726f766520746f20746865207a65726f2061646472655f8201527f7373000000000000000000000000000000000000000000000000000000000000602082015250565b5f6123ca602283611c7e565b91506123d582612370565b604082019050919050565b5f6020820190508181035f8301526123f7816123be565b9050919050565b7f4f776e61626c653a2063616c6c6572206973206e6f7420746865206f776e65725f82015250565b5f612432602083611c7e565b915061243d826123fe565b602082019050919050565b5f6020820190508181035f83015261245f81612426565b9050919050565b7f5061757361626c653a20706175736564000000000000000000000000000000005f82015250565b5f61249a601083611c7e565b91506124a582612466565b602082019050919050565b5f6020820190508181035f8301526124c78161248e565b9050919050565b7f45524332303a20696e73756666696369656e7420616c6c6f77616e63650000005f82015250565b5f612502601d83611c7e565b915061250d826124ce565b602082019050919050565b5f6020820190508181035f83015261252f816124f6565b9050919050565b7f45524332303a207472616e736665722066726f6d20746865207a65726f2061645f8201527f6472657373000000000000000000000000000000000000000000000000000000602082015250565b5f612590602583611c7e565b915061259b82612536565b604082019050919050565b5f6020820190508181035f8301526125bd81612584565b9050919050565b7f45524332303a207472616e7366657220746f20746865207a65726f20616464725f8201527f6573730000000000000000000000000000000000000000000000000000000000602082015250565b5f61261e602383611c7e565b9150612629826125c4565b604082019050919050565b5f6020820190508181035f83015261264b81612612565b9050919050565b7f45524332303a207472616e7366657220616d6f756e74206578636565647320625f8201527f616c616e63650000000000000000000000000000000000000000000000000000602082015250565b5f6126ac602683611c7e565b91506126b782612652565b604082019050919050565b5f6020820190508181035f8301526126d9816126a0565b9050919050565b7f45524332303a206275726e2066726f6d20746865207a65726f206164647265735f8201527f7300000000000000000000000000000000000000000000000000000000000000602082015250565b5f61273a602183611c7e565b9150612745826126e0565b604082019050919050565b5f6020820190508181035f8301526127678161272e565b9050919050565b7f45524332303a206275726e20616d6f756e7420657863656564732062616c616e5f8201527f6365000000000000000000000000000000000000000000000000000000000000602082015250565b5f6127c8602283611c7e565b91506127d38261276e565b604082019050919050565b5f6020820190508181035f8301526127f5816127bc565b9050919050565b7f496e697469616c697a61626c653a20636f6e7472616374206973206e6f7420695f8201527f6e697469616c697a696e67000000000000000000000000000000000000000000602082015250565b5f612856602b83611c7e565b9150612861826127fc565b604082019050919050565b5f6020820190508181035f8301526128838161284a565b9050919050565b7f45524332303a206d696e7420746f20746865207a65726f2061646472657373005f82015250565b5f6128be601f83611c7e565b91506128c98261288a565b602082019050919050565b5f6020820190508181035f8301526128eb816128b2565b9050919050565b7f5061757361626c653a206e6f74207061757365640000000000000000000000005f82015250565b5f612926601483611c7e565b9150612931826128f2565b602082019050919050565b5f6020820190508181035f8301526129538161291a565b9050919050565b7f4e487b71000000000000000000000000000000000000000000000000000000005f52604160045260245ffd5b5f819050815f5260205f209050919050565b5f6020601f8301049050919050565b5f82821b905092915050565b5f600883026129e37fffffffffffffffffffffffffffffffffffffffffffffffffffffffffffffffff826129a8565b6129ed86836129a8565b95508019841693508086168417925050509392505050565b5f612a1f612a1a612a1584611d7c565b61211a565b611d7c565b9050919050565b5f819050919050565b612a3883612a05565b612a4c612a4482612a26565b8484546129b4565b825550505050565b5f90565b612a60612a54565b612a6b818484612a2f565b505050565b5b81811015612a8e57612a835f82612a58565b600181019050612a71565b5050565b601f821115612ad357612aa481612987565b612aad84612999565b81016020851015612abc578190505b612ad0612ac885612999565b830182612a70565b50505b505050565b5f82821c905092915050565b5f612af35f1984600802612ad8565b1980831691505092915050565b5f612b0b8383612ae4565b9150826002028217905092915050565b612b2482611c74565b67ffffffffffffffff811115612b3d57612b3c61295a565b5b612b478254611ff3565b612b52828285612a92565b5f60209050601f831160018114612b83575f8415612b71578287015190505b612b7b8582612b00565b865550612be2565b601f198416612b9186612987565b5f5b82811015612bb857848901518255600182019150602085019450602081019050612b93565b86831015612bd55784890151612bd1601f891682612ae4565b8355505b6001600288020188555050505b50505050505056fea26469706673582212203ae58e3c68f58dbf8d95b689dc2ce9f81c036c6eaf5d94b7cf50e88af658a4cc64736f6c63430008170033","opcodes":"PUSH1 0x80 PUSH1 0x40 MSTORE CALLVALUE DUP1 ISZERO PUSH3 0x10 JUMPI PUSH0 DUP1 REVERT JUMPDEST POP PUSH3 0x21 PUSH3 0x27 PUSH1 0x20 SHL PUSH1 0x20 SHR JUMP JUMPDEST PUSH3 0x1C7 JUMP JUMPDEST PUSH0 PUSH1 0x1 SWAP1 SLOAD SWAP1 PUSH2 0x100 EXP SWAP1 DIV PUSH1 0xFF AND ISZERO PUSH3 0x79 JUMPI PUSH1 0x40 MLOAD PUSH32 0x8C379A000000000000000000000000000000000000000000000000000000000 DUP2 MSTORE PUSH1 0x4 ADD PUSH3 0x70 SWAP1 PUSH3 0x16F JUMP JUMPDEST PUSH1 0x40 MLOAD DUP1 SWAP2 SUB SWAP1 REVERT JUMPDEST PUSH1 0xFF DUP1 AND PUSH0 DUP1 SLOAD SWAP1 PUSH2 0x100 EXP SWAP1 DIV PUSH1 0xFF AND PUSH1 0xFF AND LT ISZERO PUSH3 0xE9 JUMPI PUSH1 0xFF PUSH0 DUP1 PUSH2 0x100 EXP DUP2 SLOAD DUP2 PUSH1 0xFF MUL NOT AND SWAP1 DUP4 PUSH1 0xFF AND MUL OR SWAP1 SSTORE POP PUSH32 0x7F26B83FF96E1F2B6A682F133852F6798A09C465DA95921460CEFB3847402498 PUSH1 0xFF PUSH1 0x40 MLOAD PUSH3 0xE0 SWAP2 SWAP1 PUSH3 0x1AC JUMP JUMPDEST PUSH1 0x40 MLOAD DUP1 SWAP2 SUB SWAP1 LOG1 JUMPDEST JUMP JUMPDEST PUSH0 DUP3 DUP3 MSTORE PUSH1 0x20 DUP3 ADD SWAP1 POP SWAP3 SWAP2 POP POP JUMP JUMPDEST PUSH32 0x496E697469616C697A61626C653A20636F6E747261637420697320696E697469 PUSH0 DUP3 ADD MSTORE PUSH32 0x616C697A696E6700000000000000000000000000000000000000000000000000 PUSH1 0x20 DUP3 ADD MSTORE POP JUMP JUMPDEST PUSH0 PUSH3 0x157 PUSH1 0x27 DUP4 PUSH3 0xEB JUMP JUMPDEST SWAP2 POP PUSH3 0x164 DUP3 PUSH3 0xFB JUMP JUMPDEST PUSH1 0x40 DUP3 ADD SWAP1 POP SWAP2 SWAP1 POP JUMP JUMPDEST PUSH0 PUSH1 0x20 DUP3 ADD SWAP1 POP DUP2 DUP2 SUB PUSH0 DUP4 ADD MSTORE PUSH3 0x188 DUP2 PUSH3 0x149 JUMP JUMPDEST SWAP1 POP SWAP2 SWAP1 POP JUMP JUMPDEST PUSH0 PUSH1 0xFF DUP3 AND SWAP1 POP SWAP2 SWAP1 POP JUMP JUMPDEST PUSH3 0x1A6 DUP2 PUSH3 0x18F JUMP JUMPDEST DUP3 MSTORE POP POP JUMP JUMPDEST PUSH0 PUSH1 0x20 DUP3 ADD SWAP1 POP PUSH3 0x1C1 PUSH0 DUP4 ADD DUP5 PUSH3 0x19B JUMP JUMPDEST SWAP3 SWAP2 POP POP JUMP JUMPDEST PUSH2 0x2C20 DUP1 PUSH3 0x1D5 PUSH0 CODECOPY PUSH0 RETURN INVALID PUSH1 0x80 PUSH1 0x40 MSTORE CALLVALUE DUP1 ISZERO PUSH2 0xF JUMPI PUSH0 DUP1 REVERT JUMPDEST POP PUSH1 0x4 CALLDATASIZE LT PUSH2 0x156 JUMPI PUSH0 CALLDATALOAD PUSH1 0xE0 SHR DUP1 PUSH4 0x8129FC1C GT PUSH2 0xC1 JUMPI DUP1 PUSH4 0xA9059CBB GT PUSH2 0x7A JUMPI DUP1 PUSH4 0xA9059CBB EQ PUSH2 0x3F0 JUMPI DUP1 PUSH4 0xDD62ED3E EQ PUSH2 0x420 JUMPI DUP1 PUSH4 0xE4997DC5 EQ PUSH2 0x450 JUMPI DUP1 PUSH4 0xF2FDE38B EQ PUSH2 0x480 JUMPI DUP1 PUSH4 0xF3BDC228 EQ PUSH2 0x49C JUMPI DUP1 PUSH4 0xF7B188A5 EQ PUSH2 0x4CC JUMPI PUSH2 0x156 JUMP JUMPDEST DUP1 PUSH4 0x8129FC1C EQ PUSH2 0x32C JUMPI DUP1 PUSH4 0x8456CB59 EQ PUSH2 0x336 JUMPI DUP1 PUSH4 0x8DA5CB5B EQ PUSH2 0x354 JUMPI DUP1 PUSH4 0x94BF804D EQ PUSH2 0x372 JUMPI DUP1 PUSH4 0x95D89B41 EQ PUSH2 0x3A2 JUMPI DUP1 PUSH4 0xA457C2D7 EQ PUSH2 0x3C0 JUMPI PUSH2 0x156 JUMP JUMPDEST DUP1 PUSH4 0x39509351 GT PUSH2 0x113 JUMPI DUP1 PUSH4 0x39509351 EQ PUSH2 0x244 JUMPI DUP1 PUSH4 0x42966C68 EQ PUSH2 0x274 JUMPI DUP1 PUSH4 0x59BF1ABE EQ PUSH2 0x2A4 JUMPI DUP1 PUSH4 0x5C975ABB EQ PUSH2 0x2D4 JUMPI DUP1 PUSH4 0x70A08231 EQ PUSH2 0x2F2 JUMPI DUP1 PUSH4 0x715018A6 EQ PUSH2 0x322 JUMPI PUSH2 0x156 JUMP JUMPDEST DUP1 PUSH4 0x6FDDE03 EQ PUSH2 0x15A JUMPI DUP1 PUSH4 0x95EA7B3 EQ PUSH2 0x178 JUMPI DUP1 PUSH4 0xECB93C0 EQ PUSH2 0x1A8 JUMPI DUP1 PUSH4 0x18160DDD EQ PUSH2 0x1D8 JUMPI DUP1 PUSH4 0x23B872DD EQ PUSH2 0x1F6 JUMPI DUP1 PUSH4 0x313CE567 EQ PUSH2 0x226 JUMPI JUMPDEST PUSH0 DUP1 REVERT JUMPDEST PUSH2 0x162 PUSH2 0x4EA JUMP JUMPDEST PUSH1 0x40 MLOAD PUSH2 0x16F SWAP2 SWAP1 PUSH2 0x1CFE JUMP JUMPDEST PUSH1 0x40 MLOAD DUP1 SWAP2 SUB SWAP1 RETURN JUMPDEST PUSH2 0x192 PUSH1 0x4 DUP1 CALLDATASIZE SUB DUP2 ADD SWAP1 PUSH2 0x18D SWAP2 SWAP1 PUSH2 0x1DAF JUMP JUMPDEST PUSH2 0x57A JUMP JUMPDEST PUSH1 0x40 MLOAD PUSH2 0x19F SWAP2 SWAP1 PUSH2 0x1E07 JUMP JUMPDEST PUSH1 0x40 MLOAD DUP1 SWAP2 SUB SWAP1 RETURN JUMPDEST PUSH2 0x1C2 PUSH1 0x4 DUP1 CALLDATASIZE SUB DUP2 ADD SWAP1 PUSH2 0x1BD SWAP2 SWAP1 PUSH2 0x1E20 JUMP JUMPDEST PUSH2 0x59C JUMP JUMPDEST PUSH1 0x40 MLOAD PUSH2 0x1CF SWAP2 SWAP1 PUSH2 0x1E07 JUMP JUMPDEST PUSH1 0x40 MLOAD DUP1 SWAP2 SUB SWAP1 RETURN JUMPDEST PUSH2 0x1E0 PUSH2 0x63A JUMP JUMPDEST PUSH1 0x40 MLOAD PUSH2 0x1ED SWAP2 SWAP1 PUSH2 0x1E5A JUMP JUMPDEST PUSH1 0x40 MLOAD DUP1 SWAP2 SUB SWAP1 RETURN JUMPDEST PUSH2 0x210 PUSH1 0x4 DUP1 CALLDATASIZE SUB DUP2 ADD SWAP1 PUSH2 0x20B SWAP2 SWAP1 PUSH2 0x1E73 JUMP JUMPDEST PUSH2 0x643 JUMP JUMPDEST PUSH1 0x40 MLOAD PUSH2 0x21D SWAP2 SWAP1 PUSH2 0x1E07 JUMP JUMPDEST PUSH1 0x40 MLOAD DUP1 SWAP2 SUB SWAP1 RETURN JUMPDEST PUSH2 0x22E PUSH2 0x772 JUMP JUMPDEST PUSH1 0x40 MLOAD PUSH2 0x23B SWAP2 SWAP1 PUSH2 0x1EDE JUMP JUMPDEST PUSH1 0x40 MLOAD DUP1 SWAP2 SUB SWAP1 RETURN JUMPDEST PUSH2 0x25E PUSH1 0x4 DUP1 CALLDATASIZE SUB DUP2 ADD SWAP1 PUSH2 0x259 SWAP2 SWAP1 PUSH2 0x1DAF JUMP JUMPDEST PUSH2 0x77A JUMP JUMPDEST PUSH1 0x40 MLOAD PUSH2 0x26B SWAP2 SWAP1 PUSH2 0x1E07 JUMP JUMPDEST PUSH1 0x40 MLOAD DUP1 SWAP2 SUB SWAP1 RETURN JUMPDEST PUSH2 0x28E PUSH1 0x4 DUP1 CALLDATASIZE SUB DUP2 ADD SWAP1 PUSH2 0x289 SWAP2 SWAP1 PUSH2 0x1EF7 JUMP JUMPDEST PUSH2 0x7B0 JUMP JUMPDEST PUSH1 0x40 MLOAD PUSH2 0x29B SWAP2 SWAP1 PUSH2 0x1E07 JUMP JUMPDEST PUSH1 0x40 MLOAD DUP1 SWAP2 SUB SWAP1 RETURN JUMPDEST PUSH2 0x2BE PUSH1 0x4 DUP1 CALLDATASIZE SUB DUP2 ADD SWAP1 PUSH2 0x2B9 SWAP2 SWAP1 PUSH2 0x1E20 JUMP JUMPDEST PUSH2 0x7CC JUMP JUMPDEST PUSH1 0x40 MLOAD PUSH2 0x2CB SWAP2 SWAP1 PUSH2 0x1E07 JUMP JUMPDEST PUSH1 0x40 MLOAD DUP1 SWAP2 SUB SWAP1 RETURN JUMPDEST PUSH2 0x2DC PUSH2 0x81E JUMP JUMPDEST PUSH1 0x40 MLOAD PUSH2 0x2E9 SWAP2 SWAP1 PUSH2 0x1E07 JUMP JUMPDEST PUSH1 0x40 MLOAD DUP1 SWAP2 SUB SWAP1 RETURN JUMPDEST PUSH2 0x30C PUSH1 0x4 DUP1 CALLDATASIZE SUB DUP2 ADD SWAP1 PUSH2 0x307 SWAP2 SWAP1 PUSH2 0x1E20 JUMP JUMPDEST PUSH2 0x833 JUMP JUMPDEST PUSH1 0x40 MLOAD PUSH2 0x319 SWAP2 SWAP1 PUSH2 0x1E5A JUMP JUMPDEST PUSH1 0x40 MLOAD DUP1 SWAP2 SUB SWAP1 RETURN JUMPDEST PUSH2 0x32A PUSH2 0x879 JUMP JUMPDEST STOP JUMPDEST PUSH2 0x334 PUSH2 0x88C JUMP JUMPDEST STOP JUMPDEST PUSH2 0x33E PUSH2 0xA40 JUMP JUMPDEST PUSH1 0x40 MLOAD PUSH2 0x34B SWAP2 SWAP1 PUSH2 0x1E07 JUMP JUMPDEST PUSH1 0x40 MLOAD DUP1 SWAP2 SUB SWAP1 RETURN JUMPDEST PUSH2 0x35C PUSH2 0xA60 JUMP JUMPDEST PUSH1 0x40 MLOAD PUSH2 0x369 SWAP2 SWAP1 PUSH2 0x1F31 JUMP JUMPDEST PUSH1 0x40 MLOAD DUP1 SWAP2 SUB SWAP1 RETURN JUMPDEST PUSH2 0x38C PUSH1 0x4 DUP1 CALLDATASIZE SUB DUP2 ADD SWAP1 PUSH2 0x387 SWAP2 SWAP1 PUSH2 0x1F4A JUMP JUMPDEST PUSH2 0xA88 JUMP JUMPDEST PUSH1 0x40 MLOAD PUSH2 0x399 SWAP2 SWAP1 PUSH2 0x1E07 JUMP JUMPDEST PUSH1 0x40 MLOAD DUP1 SWAP2 SUB SWAP1 RETURN JUMPDEST PUSH2 0x3AA PUSH2 0xAF8 JUMP JUMPDEST PUSH1 0x40 MLOAD PUSH2 0x3B7 SWAP2 SWAP1 PUSH2 0x1CFE JUMP JUMPDEST PUSH1 0x40 MLOAD DUP1 SWAP2 SUB SWAP1 RETURN JUMPDEST PUSH2 0x3DA PUSH1 0x4 DUP1 CALLDATASIZE SUB DUP2 ADD SWAP1 PUSH2 0x3D5 SWAP2 SWAP1 PUSH2 0x1DAF JUMP JUMPDEST PUSH2 0xB88 JUMP JUMPDEST PUSH1 0x40 MLOAD PUSH2 0x3E7 SWAP2 SWAP1 PUSH2 0x1E07 JUMP JUMPDEST PUSH1 0x40 MLOAD DUP1 SWAP2 SUB SWAP1 RETURN JUMPDEST PUSH2 0x40A PUSH1 0x4 DUP1 CALLDATASIZE SUB DUP2 ADD SWAP1 PUSH2 0x405 SWAP2 SWAP1 PUSH2 0x1DAF JUMP JUMPDEST PUSH2 0xBFD JUMP JUMPDEST PUSH1 0x40 MLOAD PUSH2 0x417 SWAP2 SWAP1 PUSH2 0x1E07 JUMP JUMPDEST PUSH1 0x40 MLOAD DUP1 SWAP2 SUB SWAP1 RETURN JUMPDEST PUSH2 0x43A PUSH1 0x4 DUP1 CALLDATASIZE SUB DUP2 ADD SWAP1 PUSH2 0x435 SWAP2 SWAP1 PUSH2 0x1F88 JUMP JUMPDEST PUSH2 0xCCD JUMP JUMPDEST PUSH1 0x40 MLOAD PUSH2 0x447 SWAP2 SWAP1 PUSH2 0x1E5A JUMP JUMPDEST PUSH1 0x40 MLOAD DUP1 SWAP2 SUB SWAP1 RETURN JUMPDEST PUSH2 0x46A PUSH1 0x4 DUP1 CALLDATASIZE SUB DUP2 ADD SWAP1 PUSH2 0x465 SWAP2 SWAP1 PUSH2 0x1E20 JUMP JUMPDEST PUSH2 0xD4F JUMP JUMPDEST PUSH1 0x40 MLOAD PUSH2 0x477 SWAP2 SWAP1 PUSH2 0x1E07 JUMP JUMPDEST PUSH1 0x40 MLOAD DUP1 SWAP2 SUB SWAP1 RETURN JUMPDEST PUSH2 0x49A PUSH1 0x4 DUP1 CALLDATASIZE SUB DUP2 ADD SWAP1 PUSH2 0x495 SWAP2 SWAP1 PUSH2 0x1E20 JUMP JUMPDEST PUSH2 0xDEC JUMP JUMPDEST STOP JUMPDEST PUSH2 0x4B6 PUSH1 0x4 DUP1 CALLDATASIZE SUB DUP2 ADD SWAP1 PUSH2 0x4B1 SWAP2 SWAP1 PUSH2 0x1E20 JUMP JUMPDEST PUSH2 0xE6E JUMP JUMPDEST PUSH1 0x40 MLOAD PUSH2 0x4C3 SWAP2 SWAP1 PUSH2 0x1E07 JUMP JUMPDEST PUSH1 0x40 MLOAD DUP1 SWAP2 SUB SWAP1 RETURN JUMPDEST PUSH2 0x4D4 PUSH2 0xF72 JUMP JUMPDEST PUSH1 0x40 MLOAD PUSH2 0x4E1 SWAP2 SWAP1 PUSH2 0x1E07 JUMP JUMPDEST PUSH1 0x40 MLOAD DUP1 SWAP2 SUB SWAP1 RETURN JUMPDEST PUSH1 0x60 PUSH1 0x9B DUP1 SLOAD PUSH2 0x4F9 SWAP1 PUSH2 0x1FF3 JUMP JUMPDEST DUP1 PUSH1 0x1F ADD PUSH1 0x20 DUP1 SWAP2 DIV MUL PUSH1 0x20 ADD PUSH1 0x40 MLOAD SWAP1 DUP2 ADD PUSH1 0x40 MSTORE DUP1 SWAP3 SWAP2 SWAP1 DUP2 DUP2 MSTORE PUSH1 0x20 ADD DUP3 DUP1 SLOAD PUSH2 0x525 SWAP1 PUSH2 0x1FF3 JUMP JUMPDEST DUP1 ISZERO PUSH2 0x570 JUMPI DUP1 PUSH1 0x1F LT PUSH2 0x547 JUMPI PUSH2 0x100 DUP1 DUP4 SLOAD DIV MUL DUP4 MSTORE SWAP2 PUSH1 0x20 ADD SWAP2 PUSH2 0x570 JUMP JUMPDEST DUP3 ADD SWAP2 SWAP1 PUSH0 MSTORE PUSH1 0x20 PUSH0 KECCAK256 SWAP1 JUMPDEST DUP2 SLOAD DUP2 MSTORE SWAP1 PUSH1 0x1 ADD SWAP1 PUSH1 0x20 ADD DUP1 DUP4 GT PUSH2 0x553 JUMPI DUP3 SWAP1 SUB PUSH1 0x1F AND DUP3 ADD SWAP2 JUMPDEST POP POP POP POP POP SWAP1 POP SWAP1 JUMP JUMPDEST PUSH0 DUP1 PUSH2 0x584 PUSH2 0xF92 JUMP JUMPDEST SWAP1 POP PUSH2 0x591 DUP2 DUP6 DUP6 PUSH2 0xF99 JUMP JUMPDEST PUSH1 0x1 SWAP2 POP POP SWAP3 SWAP2 POP POP JUMP JUMPDEST PUSH0 PUSH2 0x5A5 PUSH2 0x115C JUMP JUMPDEST PUSH1 0x1 PUSH1 0x99 PUSH0 DUP5 PUSH20 0xFFFFFFFFFFFFFFFFFFFFFFFFFFFFFFFFFFFFFFFF AND PUSH20 0xFFFFFFFFFFFFFFFFFFFFFFFFFFFFFFFFFFFFFFFF AND DUP2 MSTORE PUSH1 0x20 ADD SWAP1 DUP2 MSTORE PUSH1 0x20 ADD PUSH0 KECCAK256 PUSH0 PUSH2 0x100 EXP DUP2 SLOAD DUP2 PUSH1 0xFF MUL NOT AND SWAP1 DUP4 ISZERO ISZERO MUL OR SWAP1 SSTORE POP PUSH32 0x42E160154868087D6BFDC0CA23D96A1C1CFA32F1B72BA9BA27B69B98A0D819DC DUP3 PUSH1 0x40 MLOAD PUSH2 0x629 SWAP2 SWAP1 PUSH2 0x1F31 JUMP JUMPDEST PUSH1 0x40 MLOAD DUP1 SWAP2 SUB SWAP1 LOG1 PUSH1 0x1 SWAP1 POP SWAP2 SWAP1 POP JUMP JUMPDEST PUSH0 PUSH1 0x9A SLOAD SWAP1 POP SWAP1 JUMP JUMPDEST PUSH0 PUSH2 0x64C PUSH2 0x11DA JUMP JUMPDEST PUSH1 0x99 PUSH0 CALLER PUSH20 0xFFFFFFFFFFFFFFFFFFFFFFFFFFFFFFFFFFFFFFFF AND PUSH20 0xFFFFFFFFFFFFFFFFFFFFFFFFFFFFFFFFFFFFFFFF AND DUP2 MSTORE PUSH1 0x20 ADD SWAP1 DUP2 MSTORE PUSH1 0x20 ADD PUSH0 KECCAK256 PUSH0 SWAP1 SLOAD SWAP1 PUSH2 0x100 EXP SWAP1 DIV PUSH1 0xFF AND ISZERO PUSH2 0x69F JUMPI PUSH0 DUP1 REVERT JUMPDEST PUSH1 0x99 PUSH0 DUP6 PUSH20 0xFFFFFFFFFFFFFFFFFFFFFFFFFFFFFFFFFFFFFFFF AND PUSH20 0xFFFFFFFFFFFFFFFFFFFFFFFFFFFFFFFFFFFFFFFF AND DUP2 MSTORE PUSH1 0x20 ADD SWAP1 DUP2 MSTORE PUSH1 0x20 ADD PUSH0 KECCAK256 PUSH0 SWAP1 SLOAD SWAP1 PUSH2 0x100 EXP SWAP1 DIV PUSH1 0xFF AND ISZERO PUSH2 0x6F2 JUMPI PUSH0 DUP1 REVERT JUMPDEST PUSH1 0x99 PUSH0 DUP5 PUSH20 0xFFFFFFFFFFFFFFFFFFFFFFFFFFFFFFFFFFFFFFFF AND PUSH20 0xFFFFFFFFFFFFFFFFFFFFFFFFFFFFFFFFFFFFFFFF AND DUP2 MSTORE PUSH1 0x20 ADD SWAP1 DUP2 MSTORE PUSH1 0x20 ADD PUSH0 KECCAK256 PUSH0 SWAP1 SLOAD SWAP1 PUSH2 0x100 EXP SWAP1 DIV PUSH1 0xFF AND ISZERO PUSH2 0x745 JUMPI PUSH0 DUP1 REVERT JUMPDEST PUSH0 PUSH2 0x74E PUSH2 0xF92 JUMP JUMPDEST SWAP1 POP PUSH2 0x75B DUP6 DUP3 DUP6 PUSH2 0x1224 JUMP JUMPDEST PUSH2 0x766 DUP6 DUP6 DUP6 PUSH2 0x12AF JUMP JUMPDEST PUSH1 0x1 SWAP2 POP POP SWAP4 SWAP3 POP POP POP JUMP JUMPDEST PUSH0 PUSH1 0x12 SWAP1 POP SWAP1 JUMP JUMPDEST PUSH0 DUP1 PUSH2 0x784 PUSH2 0xF92 JUMP JUMPDEST SWAP1 POP PUSH2 0x7A5 DUP2 DUP6 DUP6 PUSH2 0x796 DUP6 DUP10 PUSH2 0xCCD JUMP JUMPDEST PUSH2 0x7A0 SWAP2 SWAP1 PUSH2 0x2050 JUMP JUMPDEST PUSH2 0xF99 JUMP JUMPDEST PUSH1 0x1 SWAP2 POP POP SWAP3 SWAP2 POP POP JUMP JUMPDEST PUSH0 PUSH2 0x7B9 PUSH2 0x115C JUMP JUMPDEST PUSH2 0x7C3 CALLER DUP4 PUSH2 0x151E JUMP JUMPDEST PUSH1 0x1 SWAP1 POP SWAP2 SWAP1 POP JUMP JUMPDEST PUSH0 PUSH1 0x99 PUSH0 DUP4 PUSH20 0xFFFFFFFFFFFFFFFFFFFFFFFFFFFFFFFFFFFFFFFF AND PUSH20 0xFFFFFFFFFFFFFFFFFFFFFFFFFFFFFFFFFFFFFFFF AND DUP2 MSTORE PUSH1 0x20 ADD SWAP1 DUP2 MSTORE PUSH1 0x20 ADD PUSH0 KECCAK256 PUSH0 SWAP1 SLOAD SWAP1 PUSH2 0x100 EXP SWAP1 DIV PUSH1 0xFF AND SWAP1 POP SWAP2 SWAP1 POP JUMP JUMPDEST PUSH0 PUSH1 0x65 PUSH0 SWAP1 SLOAD SWAP1 PUSH2 0x100 EXP SWAP1 DIV PUSH1 0xFF AND SWAP1 POP SWAP1 JUMP JUMPDEST PUSH0 PUSH1 0x97 PUSH0 DUP4 PUSH20 0xFFFFFFFFFFFFFFFFFFFFFFFFFFFFFFFFFFFFFFFF AND PUSH20 0xFFFFFFFFFFFFFFFFFFFFFFFFFFFFFFFFFFFFFFFF AND DUP2 MSTORE PUSH1 0x20 ADD SWAP1 DUP2 MSTORE PUSH1 0x20 ADD PUSH0 KECCAK256 SLOAD SWAP1 POP SWAP2 SWAP1 POP JUMP JUMPDEST PUSH2 0x881 PUSH2 0x115C JUMP JUMPDEST PUSH2 0x88A PUSH0 PUSH2 0x16E3 JUMP JUMPDEST JUMP JUMPDEST PUSH0 DUP1 PUSH1 0x1 SWAP1 SLOAD SWAP1 PUSH2 0x100 EXP SWAP1 DIV PUSH1 0xFF AND ISZERO SWAP1 POP DUP1 DUP1 ISZERO PUSH2 0x8BB JUMPI POP PUSH1 0x1 PUSH0 DUP1 SLOAD SWAP1 PUSH2 0x100 EXP SWAP1 DIV PUSH1 0xFF AND PUSH1 0xFF AND LT JUMPDEST DUP1 PUSH2 0x8E7 JUMPI POP PUSH2 0x8CA ADDRESS PUSH2 0x17A6 JUMP JUMPDEST ISZERO DUP1 ISZERO PUSH2 0x8E6 JUMPI POP PUSH1 0x1 PUSH0 DUP1 SLOAD SWAP1 PUSH2 0x100 EXP SWAP1 DIV PUSH1 0xFF AND PUSH1 0xFF AND EQ JUMPDEST JUMPDEST PUSH2 0x926 JUMPI PUSH1 0x40 MLOAD PUSH32 0x8C379A000000000000000000000000000000000000000000000000000000000 DUP2 MSTORE PUSH1 0x4 ADD PUSH2 0x91D SWAP1 PUSH2 0x20F3 JUMP JUMPDEST PUSH1 0x40 MLOAD DUP1 SWAP2 SUB SWAP1 REVERT JUMPDEST PUSH1 0x1 PUSH0 DUP1 PUSH2 0x100 EXP DUP2 SLOAD DUP2 PUSH1 0xFF MUL NOT AND SWAP1 DUP4 PUSH1 0xFF AND MUL OR SWAP1 SSTORE POP DUP1 ISZERO PUSH2 0x961 JUMPI PUSH1 0x1 PUSH0 PUSH1 0x1 PUSH2 0x100 EXP DUP2 SLOAD DUP2 PUSH1 0xFF MUL NOT AND SWAP1 DUP4 ISZERO ISZERO MUL OR SWAP1 SSTORE POP JUMPDEST PUSH2 0x9D5 PUSH1 0x40 MLOAD DUP1 PUSH1 0x40 ADD PUSH1 0x40 MSTORE DUP1 PUSH1 0x4 DUP2 MSTORE PUSH1 0x20 ADD PUSH32 0x634E474E00000000000000000000000000000000000000000000000000000000 DUP2 MSTORE POP PUSH1 0x40 MLOAD DUP1 PUSH1 0x40 ADD PUSH1 0x40 MSTORE DUP1 PUSH1 0x4 DUP2 MSTORE PUSH1 0x20 ADD PUSH32 0x634E474E00000000000000000000000000000000000000000000000000000000 DUP2 MSTORE POP PUSH2 0x17C8 JUMP JUMPDEST PUSH2 0x9DD PUSH2 0x1824 JUMP JUMPDEST PUSH2 0x9E5 PUSH2 0x187C JUMP JUMPDEST DUP1 ISZERO PUSH2 0xA3D JUMPI PUSH0 DUP1 PUSH1 0x1 PUSH2 0x100 EXP DUP2 SLOAD DUP2 PUSH1 0xFF MUL NOT AND SWAP1 DUP4 ISZERO ISZERO MUL OR SWAP1 SSTORE POP PUSH32 0x7F26B83FF96E1F2B6A682F133852F6798A09C465DA95921460CEFB3847402498 PUSH1 0x1 PUSH1 0x40 MLOAD PUSH2 0xA34 SWAP2 SWAP1 PUSH2 0x2153 JUMP JUMPDEST PUSH1 0x40 MLOAD DUP1 SWAP2 SUB SWAP1 LOG1 JUMPDEST POP JUMP JUMPDEST PUSH0 PUSH2 0xA49 PUSH2 0x115C JUMP JUMPDEST PUSH2 0xA51 PUSH2 0x11DA JUMP JUMPDEST PUSH2 0xA59 PUSH2 0x18D4 JUMP JUMPDEST PUSH1 0x1 SWAP1 POP SWAP1 JUMP JUMPDEST PUSH0 PUSH1 0x33 PUSH0 SWAP1 SLOAD SWAP1 PUSH2 0x100 EXP SWAP1 DIV PUSH20 0xFFFFFFFFFFFFFFFFFFFFFFFFFFFFFFFFFFFFFFFF AND SWAP1 POP SWAP1 JUMP JUMPDEST PUSH0 PUSH2 0xA91 PUSH2 0x115C JUMP JUMPDEST PUSH1 0x99 PUSH0 DUP4 PUSH20 0xFFFFFFFFFFFFFFFFFFFFFFFFFFFFFFFFFFFFFFFF AND PUSH20 0xFFFFFFFFFFFFFFFFFFFFFFFFFFFFFFFFFFFFFFFF AND DUP2 MSTORE PUSH1 0x20 ADD SWAP1 DUP2 MSTORE PUSH1 0x20 ADD PUSH0 KECCAK256 PUSH0 SWAP1 SLOAD SWAP1 PUSH2 0x100 EXP SWAP1 DIV PUSH1 0xFF AND ISZERO PUSH2 0xAE4 JUMPI PUSH0 DUP1 REVERT JUMPDEST PUSH2 0xAEE DUP3 DUP5 PUSH2 0x1936 JUMP JUMPDEST PUSH1 0x1 SWAP1 POP SWAP3 SWAP2 POP POP JUMP JUMPDEST PUSH1 0x60 PUSH1 0x9C DUP1 SLOAD PUSH2 0xB07 SWAP1 PUSH2 0x1FF3 JUMP JUMPDEST DUP1 PUSH1 0x1F ADD PUSH1 0x20 DUP1 SWAP2 DIV MUL PUSH1 0x20 ADD PUSH1 0x40 MLOAD SWAP1 DUP2 ADD PUSH1 0x40 MSTORE DUP1 SWAP3 SWAP2 SWAP1 DUP2 DUP2 MSTORE PUSH1 0x20 ADD DUP3 DUP1 SLOAD PUSH2 0xB33 SWAP1 PUSH2 0x1FF3 JUMP JUMPDEST DUP1 ISZERO PUSH2 0xB7E JUMPI DUP1 PUSH1 0x1F LT PUSH2 0xB55 JUMPI PUSH2 0x100 DUP1 DUP4 SLOAD DIV MUL DUP4 MSTORE SWAP2 PUSH1 0x20 ADD SWAP2 PUSH2 0xB7E JUMP JUMPDEST DUP3 ADD SWAP2 SWAP1 PUSH0 MSTORE PUSH1 0x20 PUSH0 KECCAK256 SWAP1 JUMPDEST DUP2 SLOAD DUP2 MSTORE SWAP1 PUSH1 0x1 ADD SWAP1 PUSH1 0x20 ADD DUP1 DUP4 GT PUSH2 0xB61 JUMPI DUP3 SWAP1 SUB PUSH1 0x1F AND DUP3 ADD SWAP2 JUMPDEST POP POP POP POP POP SWAP1 POP SWAP1 JUMP JUMPDEST PUSH0 DUP1 PUSH2 0xB92 PUSH2 0xF92 JUMP JUMPDEST SWAP1 POP PUSH0 PUSH2 0xB9F DUP3 DUP7 PUSH2 0xCCD JUMP JUMPDEST SWAP1 POP DUP4 DUP2 LT ISZERO PUSH2 0xBE4 JUMPI PUSH1 0x40 MLOAD PUSH32 0x8C379A000000000000000000000000000000000000000000000000000000000 DUP2 MSTORE PUSH1 0x4 ADD PUSH2 0xBDB SWAP1 PUSH2 0x21DC JUMP JUMPDEST PUSH1 0x40 MLOAD DUP1 SWAP2 SUB SWAP1 REVERT JUMPDEST PUSH2 0xBF1 DUP3 DUP7 DUP7 DUP5 SUB PUSH2 0xF99 JUMP JUMPDEST PUSH1 0x1 SWAP3 POP POP POP SWAP3 SWAP2 POP POP JUMP JUMPDEST PUSH0 PUSH2 0xC06 PUSH2 0x11DA JUMP JUMPDEST PUSH1 0x99 PUSH0 CALLER PUSH20 0xFFFFFFFFFFFFFFFFFFFFFFFFFFFFFFFFFFFFFFFF AND PUSH20 0xFFFFFFFFFFFFFFFFFFFFFFFFFFFFFFFFFFFFFFFF AND DUP2 MSTORE PUSH1 0x20 ADD SWAP1 DUP2 MSTORE PUSH1 0x20 ADD PUSH0 KECCAK256 PUSH0 SWAP1 SLOAD SWAP1 PUSH2 0x100 EXP SWAP1 DIV PUSH1 0xFF AND ISZERO PUSH2 0xC59 JUMPI PUSH0 DUP1 REVERT JUMPDEST PUSH1 0x99 PUSH0 DUP5 PUSH20 0xFFFFFFFFFFFFFFFFFFFFFFFFFFFFFFFFFFFFFFFF AND PUSH20 0xFFFFFFFFFFFFFFFFFFFFFFFFFFFFFFFFFFFFFFFF AND DUP2 MSTORE PUSH1 0x20 ADD SWAP1 DUP2 MSTORE PUSH1 0x20 ADD PUSH0 KECCAK256 PUSH0 SWAP1 SLOAD SWAP1 PUSH2 0x100 EXP SWAP1 DIV PUSH1 0xFF AND ISZERO PUSH2 0xCAC JUMPI PUSH0 DUP1 REVERT JUMPDEST PUSH0 PUSH2 0xCB5 PUSH2 0xF92 JUMP JUMPDEST SWAP1 POP PUSH2 0xCC2 DUP2 DUP6 DUP6 PUSH2 0x12AF JUMP JUMPDEST PUSH1 0x1 SWAP2 POP POP SWAP3 SWAP2 POP POP JUMP JUMPDEST PUSH0 PUSH1 0x98 PUSH0 DUP5 PUSH20 0xFFFFFFFFFFFFFFFFFFFFFFFFFFFFFFFFFFFFFFFF AND PUSH20 0xFFFFFFFFFFFFFFFFFFFFFFFFFFFFFFFFFFFFFFFF AND DUP2 MSTORE PUSH1 0x20 ADD SWAP1 DUP2 MSTORE PUSH1 0x20 ADD PUSH0 KECCAK256 PUSH0 DUP4 PUSH20 0xFFFFFFFFFFFFFFFFFFFFFFFFFFFFFFFFFFFFFFFF AND PUSH20 0xFFFFFFFFFFFFFFFFFFFFFFFFFFFFFFFFFFFFFFFF AND DUP2 MSTORE PUSH1 0x20 ADD SWAP1 DUP2 MSTORE PUSH1 0x20 ADD PUSH0 KECCAK256 SLOAD SWAP1 POP SWAP3 SWAP2 POP POP JUMP JUMPDEST PUSH0 PUSH2 0xD58 PUSH2 0x115C JUMP JUMPDEST PUSH0 PUSH1 0x99 PUSH0 DUP5 PUSH20 0xFFFFFFFFFFFFFFFFFFFFFFFFFFFFFFFFFFFFFFFF AND PUSH20 0xFFFFFFFFFFFFFFFFFFFFFFFFFFFFFFFFFFFFFFFF AND DUP2 MSTORE PUSH1 0x20 ADD SWAP1 DUP2 MSTORE PUSH1 0x20 ADD PUSH0 KECCAK256 PUSH0 PUSH2 0x100 EXP DUP2 SLOAD DUP2 PUSH1 0xFF MUL NOT AND SWAP1 DUP4 ISZERO ISZERO MUL OR SWAP1 SSTORE POP PUSH32 0xD7E9EC6E6ECD65492DCE6BF513CD6867560D49544421D0783DDF06E76C24470C DUP3 PUSH1 0x40 MLOAD PUSH2 0xDDB SWAP2 SWAP1 PUSH2 0x1F31 JUMP JUMPDEST PUSH1 0x40 MLOAD DUP1 SWAP2 SUB SWAP1 LOG1 PUSH1 0x1 SWAP1 POP SWAP2 SWAP1 POP JUMP JUMPDEST PUSH2 0xDF4 PUSH2 0x115C JUMP JUMPDEST PUSH0 PUSH20 0xFFFFFFFFFFFFFFFFFFFFFFFFFFFFFFFFFFFFFFFF AND DUP2 PUSH20 0xFFFFFFFFFFFFFFFFFFFFFFFFFFFFFFFFFFFFFFFF AND SUB PUSH2 0xE62 JUMPI PUSH1 0x40 MLOAD PUSH32 0x8C379A000000000000000000000000000000000000000000000000000000000 DUP2 MSTORE PUSH1 0x4 ADD PUSH2 0xE59 SWAP1 PUSH2 0x226A JUMP JUMPDEST PUSH1 0x40 MLOAD DUP1 SWAP2 SUB SWAP1 REVERT JUMPDEST PUSH2 0xE6B DUP2 PUSH2 0x16E3 JUMP JUMPDEST POP JUMP JUMPDEST PUSH0 PUSH2 0xE77 PUSH2 0x115C JUMP JUMPDEST PUSH1 0x99 PUSH0 DUP4 PUSH20 0xFFFFFFFFFFFFFFFFFFFFFFFFFFFFFFFFFFFFFFFF AND PUSH20 0xFFFFFFFFFFFFFFFFFFFFFFFFFFFFFFFFFFFFFFFF AND DUP2 MSTORE PUSH1 0x20 ADD SWAP1 DUP2 MSTORE PUSH1 0x20 ADD PUSH0 KECCAK256 PUSH0 SWAP1 SLOAD SWAP1 PUSH2 0x100 EXP SWAP1 DIV PUSH1 0xFF AND PUSH2 0xEC9 JUMPI PUSH0 DUP1 REVERT JUMPDEST PUSH0 PUSH2 0xED3 DUP4 PUSH2 0x833 JUMP JUMPDEST SWAP1 POP PUSH0 PUSH1 0x97 PUSH0 DUP6 PUSH20 0xFFFFFFFFFFFFFFFFFFFFFFFFFFFFFFFFFFFFFFFF AND PUSH20 0xFFFFFFFFFFFFFFFFFFFFFFFFFFFFFFFFFFFFFFFF AND DUP2 MSTORE PUSH1 0x20 ADD SWAP1 DUP2 MSTORE PUSH1 0x20 ADD PUSH0 KECCAK256 DUP2 SWAP1 SSTORE POP DUP1 PUSH1 0x9A PUSH0 DUP3 DUP3 SLOAD PUSH2 0xF28 SWAP2 SWAP1 PUSH2 0x2288 JUMP JUMPDEST SWAP3 POP POP DUP2 SWAP1 SSTORE POP PUSH32 0x61E6E66B0D6339B2980AECC6CCC0039736791F0CCDE9ED512E789A7FBDD698C6 DUP4 DUP3 PUSH1 0x40 MLOAD PUSH2 0xF60 SWAP3 SWAP2 SWAP1 PUSH2 0x22BB JUMP JUMPDEST PUSH1 0x40 MLOAD DUP1 SWAP2 SUB SWAP1 LOG1 PUSH1 0x1 SWAP2 POP POP SWAP2 SWAP1 POP JUMP JUMPDEST PUSH0 PUSH2 0xF7B PUSH2 0x115C JUMP JUMPDEST PUSH2 0xF83 PUSH2 0x1A85 JUMP JUMPDEST PUSH2 0xF8B PUSH2 0x1ACE JUMP JUMPDEST PUSH1 0x1 SWAP1 POP SWAP1 JUMP JUMPDEST PUSH0 CALLER SWAP1 POP SWAP1 JUMP JUMPDEST PUSH0 PUSH20 0xFFFFFFFFFFFFFFFFFFFFFFFFFFFFFFFFFFFFFFFF AND DUP4 PUSH20 0xFFFFFFFFFFFFFFFFFFFFFFFFFFFFFFFFFFFFFFFF AND SUB PUSH2 0x1007 JUMPI PUSH1 0x40 MLOAD PUSH32 0x8C379A000000000000000000000000000000000000000000000000000000000 DUP2 MSTORE PUSH1 0x4 ADD PUSH2 0xFFE SWAP1 PUSH2 0x2352 JUMP JUMPDEST PUSH1 0x40 MLOAD DUP1 SWAP2 SUB SWAP1 REVERT JUMPDEST PUSH0 PUSH20 0xFFFFFFFFFFFFFFFFFFFFFFFFFFFFFFFFFFFFFFFF AND DUP3 PUSH20 0xFFFFFFFFFFFFFFFFFFFFFFFFFFFFFFFFFFFFFFFF AND SUB PUSH2 0x1075 JUMPI PUSH1 0x40 MLOAD PUSH32 0x8C379A000000000000000000000000000000000000000000000000000000000 DUP2 MSTORE PUSH1 0x4 ADD PUSH2 0x106C SWAP1 PUSH2 0x23E0 JUMP JUMPDEST PUSH1 0x40 MLOAD DUP1 SWAP2 SUB SWAP1 REVERT JUMPDEST DUP1 PUSH1 0x98 PUSH0 DUP6 PUSH20 0xFFFFFFFFFFFFFFFFFFFFFFFFFFFFFFFFFFFFFFFF AND PUSH20 0xFFFFFFFFFFFFFFFFFFFFFFFFFFFFFFFFFFFFFFFF AND DUP2 MSTORE PUSH1 0x20 ADD SWAP1 DUP2 MSTORE PUSH1 0x20 ADD PUSH0 KECCAK256 PUSH0 DUP5 PUSH20 0xFFFFFFFFFFFFFFFFFFFFFFFFFFFFFFFFFFFFFFFF AND PUSH20 0xFFFFFFFFFFFFFFFFFFFFFFFFFFFFFFFFFFFFFFFF AND DUP2 MSTORE PUSH1 0x20 ADD SWAP1 DUP2 MSTORE PUSH1 0x20 ADD PUSH0 KECCAK256 DUP2 SWAP1 SSTORE POP DUP2 PUSH20 0xFFFFFFFFFFFFFFFFFFFFFFFFFFFFFFFFFFFFFFFF AND DUP4 PUSH20 0xFFFFFFFFFFFFFFFFFFFFFFFFFFFFFFFFFFFFFFFF AND PUSH32 0x8C5BE1E5EBEC7D5BD14F71427D1E84F3DD0314C0F7B2291E5B200AC8C7C3B925 DUP4 PUSH1 0x40 MLOAD PUSH2 0x114F SWAP2 SWAP1 PUSH2 0x1E5A JUMP JUMPDEST PUSH1 0x40 MLOAD DUP1 SWAP2 SUB SWAP1 LOG3 POP POP POP JUMP JUMPDEST PUSH2 0x1164 PUSH2 0xF92 JUMP JUMPDEST PUSH20 0xFFFFFFFFFFFFFFFFFFFFFFFFFFFFFFFFFFFFFFFF AND PUSH2 0x1182 PUSH2 0xA60 JUMP JUMPDEST PUSH20 0xFFFFFFFFFFFFFFFFFFFFFFFFFFFFFFFFFFFFFFFF AND EQ PUSH2 0x11D8 JUMPI PUSH1 0x40 MLOAD PUSH32 0x8C379A000000000000000000000000000000000000000000000000000000000 DUP2 MSTORE PUSH1 0x4 ADD PUSH2 0x11CF SWAP1 PUSH2 0x2448 JUMP JUMPDEST PUSH1 0x40 MLOAD DUP1 SWAP2 SUB SWAP1 REVERT JUMPDEST JUMP JUMPDEST PUSH2 0x11E2 PUSH2 0x81E JUMP JUMPDEST ISZERO PUSH2 0x1222 JUMPI PUSH1 0x40 MLOAD PUSH32 0x8C379A000000000000000000000000000000000000000000000000000000000 DUP2 MSTORE PUSH1 0x4 ADD PUSH2 0x1219 SWAP1 PUSH2 0x24B0 JUMP JUMPDEST PUSH1 0x40 MLOAD DUP1 SWAP2 SUB SWAP1 REVERT JUMPDEST JUMP JUMPDEST PUSH0 PUSH2 0x122F DUP5 DUP5 PUSH2 0xCCD JUMP JUMPDEST SWAP1 POP PUSH32 0xFFFFFFFFFFFFFFFFFFFFFFFFFFFFFFFFFFFFFFFFFFFFFFFFFFFFFFFFFFFFFFFF DUP2 EQ PUSH2 0x12A9 JUMPI DUP2 DUP2 LT ISZERO PUSH2 0x129B JUMPI PUSH1 0x40 MLOAD PUSH32 0x8C379A000000000000000000000000000000000000000000000000000000000 DUP2 MSTORE PUSH1 0x4 ADD PUSH2 0x1292 SWAP1 PUSH2 0x2518 JUMP JUMPDEST PUSH1 0x40 MLOAD DUP1 SWAP2 SUB SWAP1 REVERT JUMPDEST PUSH2 0x12A8 DUP5 DUP5 DUP5 DUP5 SUB PUSH2 0xF99 JUMP JUMPDEST JUMPDEST POP POP POP POP JUMP JUMPDEST PUSH0 PUSH20 0xFFFFFFFFFFFFFFFFFFFFFFFFFFFFFFFFFFFFFFFF AND DUP4 PUSH20 0xFFFFFFFFFFFFFFFFFFFFFFFFFFFFFFFFFFFFFFFF AND SUB PUSH2 0x131D JUMPI PUSH1 0x40 MLOAD PUSH32 0x8C379A000000000000000000000000000000000000000000000000000000000 DUP2 MSTORE PUSH1 0x4 ADD PUSH2 0x1314 SWAP1 PUSH2 0x25A6 JUMP JUMPDEST PUSH1 0x40 MLOAD DUP1 SWAP2 SUB SWAP1 REVERT JUMPDEST PUSH0 PUSH20 0xFFFFFFFFFFFFFFFFFFFFFFFFFFFFFFFFFFFFFFFF AND DUP3 PUSH20 0xFFFFFFFFFFFFFFFFFFFFFFFFFFFFFFFFFFFFFFFF AND SUB PUSH2 0x138B JUMPI PUSH1 0x40 MLOAD PUSH32 0x8C379A000000000000000000000000000000000000000000000000000000000 DUP2 MSTORE PUSH1 0x4 ADD PUSH2 0x1382 SWAP1 PUSH2 0x2634 JUMP JUMPDEST PUSH1 0x40 MLOAD DUP1 SWAP2 SUB SWAP1 REVERT JUMPDEST PUSH2 0x1396 DUP4 DUP4 DUP4 PUSH2 0x1B2F JUMP JUMPDEST PUSH0 PUSH1 0x97 PUSH0 DUP6 PUSH20 0xFFFFFFFFFFFFFFFFFFFFFFFFFFFFFFFFFFFFFFFF AND PUSH20 0xFFFFFFFFFFFFFFFFFFFFFFFFFFFFFFFFFFFFFFFF AND DUP2 MSTORE PUSH1 0x20 ADD SWAP1 DUP2 MSTORE PUSH1 0x20 ADD PUSH0 KECCAK256 SLOAD SWAP1 POP DUP2 DUP2 LT ISZERO PUSH2 0x141A JUMPI PUSH1 0x40 MLOAD PUSH32 0x8C379A000000000000000000000000000000000000000000000000000000000 DUP2 MSTORE PUSH1 0x4 ADD PUSH2 0x1411 SWAP1 PUSH2 0x26C2 JUMP JUMPDEST PUSH1 0x40 MLOAD DUP1 SWAP2 SUB SWAP1 REVERT JUMPDEST DUP2 DUP2 SUB PUSH1 0x97 PUSH0 DUP7 PUSH20 0xFFFFFFFFFFFFFFFFFFFFFFFFFFFFFFFFFFFFFFFF AND PUSH20 0xFFFFFFFFFFFFFFFFFFFFFFFFFFFFFFFFFFFFFFFF AND DUP2 MSTORE PUSH1 0x20 ADD SWAP1 DUP2 MSTORE PUSH1 0x20 ADD PUSH0 KECCAK256 DUP2 SWAP1 SSTORE POP DUP2 PUSH1 0x97 PUSH0 DUP6 PUSH20 0xFFFFFFFFFFFFFFFFFFFFFFFFFFFFFFFFFFFFFFFF AND PUSH20 0xFFFFFFFFFFFFFFFFFFFFFFFFFFFFFFFFFFFFFFFF AND DUP2 MSTORE PUSH1 0x20 ADD SWAP1 DUP2 MSTORE PUSH1 0x20 ADD PUSH0 KECCAK256 PUSH0 DUP3 DUP3 SLOAD ADD SWAP3 POP POP DUP2 SWAP1 SSTORE POP DUP3 PUSH20 0xFFFFFFFFFFFFFFFFFFFFFFFFFFFFFFFFFFFFFFFF AND DUP5 PUSH20 0xFFFFFFFFFFFFFFFFFFFFFFFFFFFFFFFFFFFFFFFF AND PUSH32 0xDDF252AD1BE2C89B69C2B068FC378DAA952BA7F163C4A11628F55A4DF523B3EF DUP5 PUSH1 0x40 MLOAD PUSH2 0x1505 SWAP2 SWAP1 PUSH2 0x1E5A JUMP JUMPDEST PUSH1 0x40 MLOAD DUP1 SWAP2 SUB SWAP1 LOG3 PUSH2 0x1518 DUP5 DUP5 DUP5 PUSH2 0x1B34 JUMP JUMPDEST POP POP POP POP JUMP JUMPDEST PUSH0 PUSH20 0xFFFFFFFFFFFFFFFFFFFFFFFFFFFFFFFFFFFFFFFF AND DUP3 PUSH20 0xFFFFFFFFFFFFFFFFFFFFFFFFFFFFFFFFFFFFFFFF AND SUB PUSH2 0x158C JUMPI PUSH1 0x40 MLOAD PUSH32 0x8C379A000000000000000000000000000000000000000000000000000000000 DUP2 MSTORE PUSH1 0x4 ADD PUSH2 0x1583 SWAP1 PUSH2 0x2750 JUMP JUMPDEST PUSH1 0x40 MLOAD DUP1 SWAP2 SUB SWAP1 REVERT JUMPDEST PUSH2 0x1597 DUP3 PUSH0 DUP4 PUSH2 0x1B2F JUMP JUMPDEST PUSH0 PUSH1 0x97 PUSH0 DUP5 PUSH20 0xFFFFFFFFFFFFFFFFFFFFFFFFFFFFFFFFFFFFFFFF AND PUSH20 0xFFFFFFFFFFFFFFFFFFFFFFFFFFFFFFFFFFFFFFFF AND DUP2 MSTORE PUSH1 0x20 ADD SWAP1 DUP2 MSTORE PUSH1 0x20 ADD PUSH0 KECCAK256 SLOAD SWAP1 POP DUP2 DUP2 LT ISZERO PUSH2 0x161B JUMPI PUSH1 0x40 MLOAD PUSH32 0x8C379A000000000000000000000000000000000000000000000000000000000 DUP2 MSTORE PUSH1 0x4 ADD PUSH2 0x1612 SWAP1 PUSH2 0x27DE JUMP JUMPDEST PUSH1 0x40 MLOAD DUP1 SWAP2 SUB SWAP1 REVERT JUMPDEST DUP2 DUP2 SUB PUSH1 0x97 PUSH0 DUP6 PUSH20 0xFFFFFFFFFFFFFFFFFFFFFFFFFFFFFFFFFFFFFFFF AND PUSH20 0xFFFFFFFFFFFFFFFFFFFFFFFFFFFFFFFFFFFFFFFF AND DUP2 MSTORE PUSH1 0x20 ADD SWAP1 DUP2 MSTORE PUSH1 0x20 ADD PUSH0 KECCAK256 DUP2 SWAP1 SSTORE POP DUP2 PUSH1 0x9A PUSH0 DUP3 DUP3 SLOAD SUB SWAP3 POP POP DUP2 SWAP1 SSTORE POP PUSH0 PUSH20 0xFFFFFFFFFFFFFFFFFFFFFFFFFFFFFFFFFFFFFFFF AND DUP4 PUSH20 0xFFFFFFFFFFFFFFFFFFFFFFFFFFFFFFFFFFFFFFFF AND PUSH32 0xDDF252AD1BE2C89B69C2B068FC378DAA952BA7F163C4A11628F55A4DF523B3EF DUP5 PUSH1 0x40 MLOAD PUSH2 0x16CB SWAP2 SWAP1 PUSH2 0x1E5A JUMP JUMPDEST PUSH1 0x40 MLOAD DUP1 SWAP2 SUB SWAP1 LOG3 PUSH2 0x16DE DUP4 PUSH0 DUP5 PUSH2 0x1B34 JUMP JUMPDEST POP POP POP JUMP JUMPDEST PUSH0 PUSH1 0x33 PUSH0 SWAP1 SLOAD SWAP1 PUSH2 0x100 EXP SWAP1 DIV PUSH20 0xFFFFFFFFFFFFFFFFFFFFFFFFFFFFFFFFFFFFFFFF AND SWAP1 POP DUP2 PUSH1 0x33 PUSH0 PUSH2 0x100 EXP DUP2 SLOAD DUP2 PUSH20 0xFFFFFFFFFFFFFFFFFFFFFFFFFFFFFFFFFFFFFFFF MUL NOT AND SWAP1 DUP4 PUSH20 0xFFFFFFFFFFFFFFFFFFFFFFFFFFFFFFFFFFFFFFFF AND MUL OR SWAP1 SSTORE POP DUP2 PUSH20 0xFFFFFFFFFFFFFFFFFFFFFFFFFFFFFFFFFFFFFFFF AND DUP2 PUSH20 0xFFFFFFFFFFFFFFFFFFFFFFFFFFFFFFFFFFFFFFFF AND PUSH32 0x8BE0079C531659141344CD1FD0A4F28419497F9722A3DAAFE3B4186F6B6457E0 PUSH1 0x40 MLOAD PUSH1 0x40 MLOAD DUP1 SWAP2 SUB SWAP1 LOG3 POP POP JUMP JUMPDEST PUSH0 DUP1 DUP3 PUSH20 0xFFFFFFFFFFFFFFFFFFFFFFFFFFFFFFFFFFFFFFFF AND EXTCODESIZE GT SWAP1 POP SWAP2 SWAP1 POP JUMP JUMPDEST PUSH0 PUSH1 0x1 SWAP1 SLOAD SWAP1 PUSH2 0x100 EXP SWAP1 DIV PUSH1 0xFF AND PUSH2 0x1816 JUMPI PUSH1 0x40 MLOAD PUSH32 0x8C379A000000000000000000000000000000000000000000000000000000000 DUP2 MSTORE PUSH1 0x4 ADD PUSH2 0x180D SWAP1 PUSH2 0x286C JUMP JUMPDEST PUSH1 0x40 MLOAD DUP1 SWAP2 SUB SWAP1 REVERT JUMPDEST PUSH2 0x1820 DUP3 DUP3 PUSH2 0x1B39 JUMP JUMPDEST POP POP JUMP JUMPDEST PUSH0 PUSH1 0x1 SWAP1 SLOAD SWAP1 PUSH2 0x100 EXP SWAP1 DIV PUSH1 0xFF AND PUSH2 0x1872 JUMPI PUSH1 0x40 MLOAD PUSH32 0x8C379A000000000000000000000000000000000000000000000000000000000 DUP2 MSTORE PUSH1 0x4 ADD PUSH2 0x1869 SWAP1 PUSH2 0x286C JUMP JUMPDEST PUSH1 0x40 MLOAD DUP1 SWAP2 SUB SWAP1 REVERT JUMPDEST PUSH2 0x187A PUSH2 0x1BAB JUMP JUMPDEST JUMP JUMPDEST PUSH0 PUSH1 0x1 SWAP1 SLOAD SWAP1 PUSH2 0x100 EXP SWAP1 DIV PUSH1 0xFF AND PUSH2 0x18CA JUMPI PUSH1 0x40 MLOAD PUSH32 0x8C379A000000000000000000000000000000000000000000000000000000000 DUP2 MSTORE PUSH1 0x4 ADD PUSH2 0x18C1 SWAP1 PUSH2 0x286C JUMP JUMPDEST PUSH1 0x40 MLOAD DUP1 SWAP2 SUB SWAP1 REVERT JUMPDEST PUSH2 0x18D2 PUSH2 0x1C0B JUMP JUMPDEST JUMP JUMPDEST PUSH2 0x18DC PUSH2 0x11DA JUMP JUMPDEST PUSH1 0x1 PUSH1 0x65 PUSH0 PUSH2 0x100 EXP DUP2 SLOAD DUP2 PUSH1 0xFF MUL NOT AND SWAP1 DUP4 ISZERO ISZERO MUL OR SWAP1 SSTORE POP PUSH32 0x62E78CEA01BEE320CD4E420270B5EA74000D11B0C9F74754EBDBFC544B05A258 PUSH2 0x191F PUSH2 0xF92 JUMP JUMPDEST PUSH1 0x40 MLOAD PUSH2 0x192C SWAP2 SWAP1 PUSH2 0x1F31 JUMP JUMPDEST PUSH1 0x40 MLOAD DUP1 SWAP2 SUB SWAP1 LOG1 JUMP JUMPDEST PUSH0 PUSH20 0xFFFFFFFFFFFFFFFFFFFFFFFFFFFFFFFFFFFFFFFF AND DUP3 PUSH20 0xFFFFFFFFFFFFFFFFFFFFFFFFFFFFFFFFFFFFFFFF AND SUB PUSH2 0x19A4 JUMPI PUSH1 0x40 MLOAD PUSH32 0x8C379A000000000000000000000000000000000000000000000000000000000 DUP2 MSTORE PUSH1 0x4 ADD PUSH2 0x199B SWAP1 PUSH2 0x28D4 JUMP JUMPDEST PUSH1 0x40 MLOAD DUP1 SWAP2 SUB SWAP1 REVERT JUMPDEST PUSH2 0x19AF PUSH0 DUP4 DUP4 PUSH2 0x1B2F JUMP JUMPDEST DUP1 PUSH1 0x9A PUSH0 DUP3 DUP3 SLOAD PUSH2 0x19C0 SWAP2 SWAP1 PUSH2 0x2050 JUMP JUMPDEST SWAP3 POP POP DUP2 SWAP1 SSTORE POP DUP1 PUSH1 0x97 PUSH0 DUP5 PUSH20 0xFFFFFFFFFFFFFFFFFFFFFFFFFFFFFFFFFFFFFFFF AND PUSH20 0xFFFFFFFFFFFFFFFFFFFFFFFFFFFFFFFFFFFFFFFF AND DUP2 MSTORE PUSH1 0x20 ADD SWAP1 DUP2 MSTORE PUSH1 0x20 ADD PUSH0 KECCAK256 PUSH0 DUP3 DUP3 SLOAD ADD SWAP3 POP POP DUP2 SWAP1 SSTORE POP DUP2 PUSH20 0xFFFFFFFFFFFFFFFFFFFFFFFFFFFFFFFFFFFFFFFF AND PUSH0 PUSH20 0xFFFFFFFFFFFFFFFFFFFFFFFFFFFFFFFFFFFFFFFF AND PUSH32 0xDDF252AD1BE2C89B69C2B068FC378DAA952BA7F163C4A11628F55A4DF523B3EF DUP4 PUSH1 0x40 MLOAD PUSH2 0x1A6E SWAP2 SWAP1 PUSH2 0x1E5A JUMP JUMPDEST PUSH1 0x40 MLOAD DUP1 SWAP2 SUB SWAP1 LOG3 PUSH2 0x1A81 PUSH0 DUP4 DUP4 PUSH2 0x1B34 JUMP JUMPDEST POP POP JUMP JUMPDEST PUSH2 0x1A8D PUSH2 0x81E JUMP JUMPDEST PUSH2 0x1ACC JUMPI PUSH1 0x40 MLOAD PUSH32 0x8C379A000000000000000000000000000000000000000000000000000000000 DUP2 MSTORE PUSH1 0x4 ADD PUSH2 0x1AC3 SWAP1 PUSH2 0x293C JUMP JUMPDEST PUSH1 0x40 MLOAD DUP1 SWAP2 SUB SWAP1 REVERT JUMPDEST JUMP JUMPDEST PUSH2 0x1AD6 PUSH2 0x1A85 JUMP JUMPDEST PUSH0 PUSH1 0x65 PUSH0 PUSH2 0x100 EXP DUP2 SLOAD DUP2 PUSH1 0xFF MUL NOT AND SWAP1 DUP4 ISZERO ISZERO MUL OR SWAP1 SSTORE POP PUSH32 0x5DB9EE0A495BF2E6FF9C91A7834C1BA4FDD244A5E8AA4E537BD38AEAE4B073AA PUSH2 0x1B18 PUSH2 0xF92 JUMP JUMPDEST PUSH1 0x40 MLOAD PUSH2 0x1B25 SWAP2 SWAP1 PUSH2 0x1F31 JUMP JUMPDEST PUSH1 0x40 MLOAD DUP1 SWAP2 SUB SWAP1 LOG1 JUMP JUMPDEST POP POP POP JUMP JUMPDEST POP POP POP JUMP JUMPDEST PUSH0 PUSH1 0x1 SWAP1 SLOAD SWAP1 PUSH2 0x100 EXP SWAP1 DIV PUSH1 0xFF AND PUSH2 0x1B87 JUMPI PUSH1 0x40 MLOAD PUSH32 0x8C379A000000000000000000000000000000000000000000000000000000000 DUP2 MSTORE PUSH1 0x4 ADD PUSH2 0x1B7E SWAP1 PUSH2 0x286C JUMP JUMPDEST PUSH1 0x40 MLOAD DUP1 SWAP2 SUB SWAP1 REVERT JUMPDEST DUP2 PUSH1 0x9B SWAP1 DUP2 PUSH2 0x1B96 SWAP2 SWAP1 PUSH2 0x2B1B JUMP JUMPDEST POP DUP1 PUSH1 0x9C SWAP1 DUP2 PUSH2 0x1BA6 SWAP2 SWAP1 PUSH2 0x2B1B JUMP JUMPDEST POP POP POP JUMP JUMPDEST PUSH0 PUSH1 0x1 SWAP1 SLOAD SWAP1 PUSH2 0x100 EXP SWAP1 DIV PUSH1 0xFF AND PUSH2 0x1BF9 JUMPI PUSH1 0x40 MLOAD PUSH32 0x8C379A000000000000000000000000000000000000000000000000000000000 DUP2 MSTORE PUSH1 0x4 ADD PUSH2 0x1BF0 SWAP1 PUSH2 0x286C JUMP JUMPDEST PUSH1 0x40 MLOAD DUP1 SWAP2 SUB SWAP1 REVERT JUMPDEST PUSH2 0x1C09 PUSH2 0x1C04 PUSH2 0xF92 JUMP JUMPDEST PUSH2 0x16E3 JUMP JUMPDEST JUMP JUMPDEST PUSH0 PUSH1 0x1 SWAP1 SLOAD SWAP1 PUSH2 0x100 EXP SWAP1 DIV PUSH1 0xFF AND PUSH2 0x1C59 JUMPI PUSH1 0x40 MLOAD PUSH32 0x8C379A000000000000000000000000000000000000000000000000000000000 DUP2 MSTORE PUSH1 0x4 ADD PUSH2 0x1C50 SWAP1 PUSH2 0x286C JUMP JUMPDEST PUSH1 0x40 MLOAD DUP1 SWAP2 SUB SWAP1 REVERT JUMPDEST PUSH0 PUSH1 0x65 PUSH0 PUSH2 0x100 EXP DUP2 SLOAD DUP2 PUSH1 0xFF MUL NOT AND SWAP1 DUP4 ISZERO ISZERO MUL OR SWAP1 SSTORE POP JUMP JUMPDEST PUSH0 DUP2 MLOAD SWAP1 POP SWAP2 SWAP1 POP JUMP JUMPDEST PUSH0 DUP3 DUP3 MSTORE PUSH1 0x20 DUP3 ADD SWAP1 POP SWAP3 SWAP2 POP POP JUMP JUMPDEST PUSH0 JUMPDEST DUP4 DUP2 LT ISZERO PUSH2 0x1CAB JUMPI DUP1 DUP3 ADD MLOAD DUP2 DUP5 ADD MSTORE PUSH1 0x20 DUP2 ADD SWAP1 POP PUSH2 0x1C90 JUMP JUMPDEST PUSH0 DUP5 DUP5 ADD MSTORE POP POP POP POP JUMP JUMPDEST PUSH0 PUSH1 0x1F NOT PUSH1 0x1F DUP4 ADD AND SWAP1 POP SWAP2 SWAP1 POP JUMP JUMPDEST PUSH0 PUSH2 0x1CD0 DUP3 PUSH2 0x1C74 JUMP JUMPDEST PUSH2 0x1CDA DUP2 DUP6 PUSH2 0x1C7E JUMP JUMPDEST SWAP4 POP PUSH2 0x1CEA DUP2 DUP6 PUSH1 0x20 DUP7 ADD PUSH2 0x1C8E JUMP JUMPDEST PUSH2 0x1CF3 DUP2 PUSH2 0x1CB6 JUMP JUMPDEST DUP5 ADD SWAP2 POP POP SWAP3 SWAP2 POP POP JUMP JUMPDEST PUSH0 PUSH1 0x20 DUP3 ADD SWAP1 POP DUP2 DUP2 SUB PUSH0 DUP4 ADD MSTORE PUSH2 0x1D16 DUP2 DUP5 PUSH2 0x1CC6 JUMP JUMPDEST SWAP1 POP SWAP3 SWAP2 POP POP JUMP JUMPDEST PUSH0 DUP1 REVERT JUMPDEST PUSH0 PUSH20 0xFFFFFFFFFFFFFFFFFFFFFFFFFFFFFFFFFFFFFFFF DUP3 AND SWAP1 POP SWAP2 SWAP1 POP JUMP JUMPDEST PUSH0 PUSH2 0x1D4B DUP3 PUSH2 0x1D22 JUMP JUMPDEST SWAP1 POP SWAP2 SWAP1 POP JUMP JUMPDEST PUSH2 0x1D5B DUP2 PUSH2 0x1D41 JUMP JUMPDEST DUP2 EQ PUSH2 0x1D65 JUMPI PUSH0 DUP1 REVERT JUMPDEST POP JUMP JUMPDEST PUSH0 DUP2 CALLDATALOAD SWAP1 POP PUSH2 0x1D76 DUP2 PUSH2 0x1D52 JUMP JUMPDEST SWAP3 SWAP2 POP POP JUMP JUMPDEST PUSH0 DUP2 SWAP1 POP SWAP2 SWAP1 POP JUMP JUMPDEST PUSH2 0x1D8E DUP2 PUSH2 0x1D7C JUMP JUMPDEST DUP2 EQ PUSH2 0x1D98 JUMPI PUSH0 DUP1 REVERT JUMPDEST POP JUMP JUMPDEST PUSH0 DUP2 CALLDATALOAD SWAP1 POP PUSH2 0x1DA9 DUP2 PUSH2 0x1D85 JUMP JUMPDEST SWAP3 SWAP2 POP POP JUMP JUMPDEST PUSH0 DUP1 PUSH1 0x40 DUP4 DUP6 SUB SLT ISZERO PUSH2 0x1DC5 JUMPI PUSH2 0x1DC4 PUSH2 0x1D1E JUMP JUMPDEST JUMPDEST PUSH0 PUSH2 0x1DD2 DUP6 DUP3 DUP7 ADD PUSH2 0x1D68 JUMP JUMPDEST SWAP3 POP POP PUSH1 0x20 PUSH2 0x1DE3 DUP6 DUP3 DUP7 ADD PUSH2 0x1D9B JUMP JUMPDEST SWAP2 POP POP SWAP3 POP SWAP3 SWAP1 POP JUMP JUMPDEST PUSH0 DUP2 ISZERO ISZERO SWAP1 POP SWAP2 SWAP1 POP JUMP JUMPDEST PUSH2 0x1E01 DUP2 PUSH2 0x1DED JUMP JUMPDEST DUP3 MSTORE POP POP JUMP JUMPDEST PUSH0 PUSH1 0x20 DUP3 ADD SWAP1 POP PUSH2 0x1E1A PUSH0 DUP4 ADD DUP5 PUSH2 0x1DF8 JUMP JUMPDEST SWAP3 SWAP2 POP POP JUMP JUMPDEST PUSH0 PUSH1 0x20 DUP3 DUP5 SUB SLT ISZERO PUSH2 0x1E35 JUMPI PUSH2 0x1E34 PUSH2 0x1D1E JUMP JUMPDEST JUMPDEST PUSH0 PUSH2 0x1E42 DUP5 DUP3 DUP6 ADD PUSH2 0x1D68 JUMP JUMPDEST SWAP2 POP POP SWAP3 SWAP2 POP POP JUMP JUMPDEST PUSH2 0x1E54 DUP2 PUSH2 0x1D7C JUMP JUMPDEST DUP3 MSTORE POP POP JUMP JUMPDEST PUSH0 PUSH1 0x20 DUP3 ADD SWAP1 POP PUSH2 0x1E6D PUSH0 DUP4 ADD DUP5 PUSH2 0x1E4B JUMP JUMPDEST SWAP3 SWAP2 POP POP JUMP JUMPDEST PUSH0 DUP1 PUSH0 PUSH1 0x60 DUP5 DUP7 SUB SLT ISZERO PUSH2 0x1E8A JUMPI PUSH2 0x1E89 PUSH2 0x1D1E JUMP JUMPDEST JUMPDEST PUSH0 PUSH2 0x1E97 DUP7 DUP3 DUP8 ADD PUSH2 0x1D68 JUMP JUMPDEST SWAP4 POP POP PUSH1 0x20 PUSH2 0x1EA8 DUP7 DUP3 DUP8 ADD PUSH2 0x1D68 JUMP JUMPDEST SWAP3 POP POP PUSH1 0x40 PUSH2 0x1EB9 DUP7 DUP3 DUP8 ADD PUSH2 0x1D9B JUMP JUMPDEST SWAP2 POP POP SWAP3 POP SWAP3 POP SWAP3 JUMP JUMPDEST PUSH0 PUSH1 0xFF DUP3 AND SWAP1 POP SWAP2 SWAP1 POP JUMP JUMPDEST PUSH2 0x1ED8 DUP2 PUSH2 0x1EC3 JUMP JUMPDEST DUP3 MSTORE POP POP JUMP JUMPDEST PUSH0 PUSH1 0x20 DUP3 ADD SWAP1 POP PUSH2 0x1EF1 PUSH0 DUP4 ADD DUP5 PUSH2 0x1ECF JUMP JUMPDEST SWAP3 SWAP2 POP POP JUMP JUMPDEST PUSH0 PUSH1 0x20 DUP3 DUP5 SUB SLT ISZERO PUSH2 0x1F0C JUMPI PUSH2 0x1F0B PUSH2 0x1D1E JUMP JUMPDEST JUMPDEST PUSH0 PUSH2 0x1F19 DUP5 DUP3 DUP6 ADD PUSH2 0x1D9B JUMP JUMPDEST SWAP2 POP POP SWAP3 SWAP2 POP POP JUMP JUMPDEST PUSH2 0x1F2B DUP2 PUSH2 0x1D41 JUMP JUMPDEST DUP3 MSTORE POP POP JUMP JUMPDEST PUSH0 PUSH1 0x20 DUP3 ADD SWAP1 POP PUSH2 0x1F44 PUSH0 DUP4 ADD DUP5 PUSH2 0x1F22 JUMP JUMPDEST SWAP3 SWAP2 POP POP JUMP JUMPDEST PUSH0 DUP1 PUSH1 0x40 DUP4 DUP6 SUB SLT ISZERO PUSH2 0x1F60 JUMPI PUSH2 0x1F5F PUSH2 0x1D1E JUMP JUMPDEST JUMPDEST PUSH0 PUSH2 0x1F6D DUP6 DUP3 DUP7 ADD PUSH2 0x1D9B JUMP JUMPDEST SWAP3 POP POP PUSH1 0x20 PUSH2 0x1F7E DUP6 DUP3 DUP7 ADD PUSH2 0x1D68 JUMP JUMPDEST SWAP2 POP POP SWAP3 POP SWAP3 SWAP1 POP JUMP JUMPDEST PUSH0 DUP1 PUSH1 0x40 DUP4 DUP6 SUB SLT ISZERO PUSH2 0x1F9E JUMPI PUSH2 0x1F9D PUSH2 0x1D1E JUMP JUMPDEST JUMPDEST PUSH0 PUSH2 0x1FAB DUP6 DUP3 DUP7 ADD PUSH2 0x1D68 JUMP JUMPDEST SWAP3 POP POP PUSH1 0x20 PUSH2 0x1FBC DUP6 DUP3 DUP7 ADD PUSH2 0x1D68 JUMP JUMPDEST SWAP2 POP POP SWAP3 POP SWAP3 SWAP1 POP JUMP JUMPDEST PUSH32 0x4E487B7100000000000000000000000000000000000000000000000000000000 PUSH0 MSTORE PUSH1 0x22 PUSH1 0x4 MSTORE PUSH1 0x24 PUSH0 REVERT JUMPDEST PUSH0 PUSH1 0x2 DUP3 DIV SWAP1 POP PUSH1 0x1 DUP3 AND DUP1 PUSH2 0x200A JUMPI PUSH1 0x7F DUP3 AND SWAP2 POP JUMPDEST PUSH1 0x20 DUP3 LT DUP2 SUB PUSH2 0x201D JUMPI PUSH2 0x201C PUSH2 0x1FC6 JUMP JUMPDEST JUMPDEST POP SWAP2 SWAP1 POP JUMP JUMPDEST PUSH32 0x4E487B7100000000000000000000000000000000000000000000000000000000 PUSH0 MSTORE PUSH1 0x11 PUSH1 0x4 MSTORE PUSH1 0x24 PUSH0 REVERT JUMPDEST PUSH0 PUSH2 0x205A DUP3 PUSH2 0x1D7C JUMP JUMPDEST SWAP2 POP PUSH2 0x2065 DUP4 PUSH2 0x1D7C JUMP JUMPDEST SWAP3 POP DUP3 DUP3 ADD SWAP1 POP DUP1 DUP3 GT ISZERO PUSH2 0x207D JUMPI PUSH2 0x207C PUSH2 0x2023 JUMP JUMPDEST JUMPDEST SWAP3 SWAP2 POP POP JUMP JUMPDEST PUSH32 0x496E697469616C697A61626C653A20636F6E747261637420697320616C726561 PUSH0 DUP3 ADD MSTORE PUSH32 0x647920696E697469616C697A6564000000000000000000000000000000000000 PUSH1 0x20 DUP3 ADD MSTORE POP JUMP JUMPDEST PUSH0 PUSH2 0x20DD PUSH1 0x2E DUP4 PUSH2 0x1C7E JUMP JUMPDEST SWAP2 POP PUSH2 0x20E8 DUP3 PUSH2 0x2083 JUMP JUMPDEST PUSH1 0x40 DUP3 ADD SWAP1 POP SWAP2 SWAP1 POP JUMP JUMPDEST PUSH0 PUSH1 0x20 DUP3 ADD SWAP1 POP DUP2 DUP2 SUB PUSH0 DUP4 ADD MSTORE PUSH2 0x210A DUP2 PUSH2 0x20D1 JUMP JUMPDEST SWAP1 POP SWAP2 SWAP1 POP JUMP JUMPDEST PUSH0 DUP2 SWAP1 POP SWAP2 SWAP1 POP JUMP JUMPDEST PUSH0 DUP2 SWAP1 POP SWAP2 SWAP1 POP JUMP JUMPDEST PUSH0 PUSH2 0x213D PUSH2 0x2138 PUSH2 0x2133 DUP5 PUSH2 0x2111 JUMP JUMPDEST PUSH2 0x211A JUMP JUMPDEST PUSH2 0x1EC3 JUMP JUMPDEST SWAP1 POP SWAP2 SWAP1 POP JUMP JUMPDEST PUSH2 0x214D DUP2 PUSH2 0x2123 JUMP JUMPDEST DUP3 MSTORE POP POP JUMP JUMPDEST PUSH0 PUSH1 0x20 DUP3 ADD SWAP1 POP PUSH2 0x2166 PUSH0 DUP4 ADD DUP5 PUSH2 0x2144 JUMP JUMPDEST SWAP3 SWAP2 POP POP JUMP JUMPDEST PUSH32 0x45524332303A2064656372656173656420616C6C6F77616E63652062656C6F77 PUSH0 DUP3 ADD MSTORE PUSH32 0x207A65726F000000000000000000000000000000000000000000000000000000 PUSH1 0x20 DUP3 ADD MSTORE POP JUMP JUMPDEST PUSH0 PUSH2 0x21C6 PUSH1 0x25 DUP4 PUSH2 0x1C7E JUMP JUMPDEST SWAP2 POP PUSH2 0x21D1 DUP3 PUSH2 0x216C JUMP JUMPDEST PUSH1 0x40 DUP3 ADD SWAP1 POP SWAP2 SWAP1 POP JUMP JUMPDEST PUSH0 PUSH1 0x20 DUP3 ADD SWAP1 POP DUP2 DUP2 SUB PUSH0 DUP4 ADD MSTORE PUSH2 0x21F3 DUP2 PUSH2 0x21BA JUMP JUMPDEST SWAP1 POP SWAP2 SWAP1 POP JUMP JUMPDEST PUSH32 0x4F776E61626C653A206E6577206F776E657220697320746865207A65726F2061 PUSH0 DUP3 ADD MSTORE PUSH32 0x6464726573730000000000000000000000000000000000000000000000000000 PUSH1 0x20 DUP3 ADD MSTORE POP JUMP JUMPDEST PUSH0 PUSH2 0x2254 PUSH1 0x26 DUP4 PUSH2 0x1C7E JUMP JUMPDEST SWAP2 POP PUSH2 0x225F DUP3 PUSH2 0x21FA JUMP JUMPDEST PUSH1 0x40 DUP3 ADD SWAP1 POP SWAP2 SWAP1 POP JUMP JUMPDEST PUSH0 PUSH1 0x20 DUP3 ADD SWAP1 POP DUP2 DUP2 SUB PUSH0 DUP4 ADD MSTORE PUSH2 0x2281 DUP2 PUSH2 0x2248 JUMP JUMPDEST SWAP1 POP SWAP2 SWAP1 POP JUMP JUMPDEST PUSH0 PUSH2 0x2292 DUP3 PUSH2 0x1D7C JUMP JUMPDEST SWAP2 POP PUSH2 0x229D DUP4 PUSH2 0x1D7C JUMP JUMPDEST SWAP3 POP DUP3 DUP3 SUB SWAP1 POP DUP2 DUP2 GT ISZERO PUSH2 0x22B5 JUMPI PUSH2 0x22B4 PUSH2 0x2023 JUMP JUMPDEST JUMPDEST SWAP3 SWAP2 POP POP JUMP JUMPDEST PUSH0 PUSH1 0x40 DUP3 ADD SWAP1 POP PUSH2 0x22CE PUSH0 DUP4 ADD DUP6 PUSH2 0x1F22 JUMP JUMPDEST PUSH2 0x22DB PUSH1 0x20 DUP4 ADD DUP5 PUSH2 0x1E4B JUMP JUMPDEST SWAP4 SWAP3 POP POP POP JUMP JUMPDEST PUSH32 0x45524332303A20617070726F76652066726F6D20746865207A65726F20616464 PUSH0 DUP3 ADD MSTORE PUSH32 0x7265737300000000000000000000000000000000000000000000000000000000 PUSH1 0x20 DUP3 ADD MSTORE POP JUMP JUMPDEST PUSH0 PUSH2 0x233C PUSH1 0x24 DUP4 PUSH2 0x1C7E JUMP JUMPDEST SWAP2 POP PUSH2 0x2347 DUP3 PUSH2 0x22E2 JUMP JUMPDEST PUSH1 0x40 DUP3 ADD SWAP1 POP SWAP2 SWAP1 POP JUMP JUMPDEST PUSH0 PUSH1 0x20 DUP3 ADD SWAP1 POP DUP2 DUP2 SUB PUSH0 DUP4 ADD MSTORE PUSH2 0x2369 DUP2 PUSH2 0x2330 JUMP JUMPDEST SWAP1 POP SWAP2 SWAP1 POP JUMP JUMPDEST PUSH32 0x45524332303A20617070726F766520746F20746865207A65726F206164647265 PUSH0 DUP3 ADD MSTORE PUSH32 0x7373000000000000000000000000000000000000000000000000000000000000 PUSH1 0x20 DUP3 ADD MSTORE POP JUMP JUMPDEST PUSH0 PUSH2 0x23CA PUSH1 0x22 DUP4 PUSH2 0x1C7E JUMP JUMPDEST SWAP2 POP PUSH2 0x23D5 DUP3 PUSH2 0x2370 JUMP JUMPDEST PUSH1 0x40 DUP3 ADD SWAP1 POP SWAP2 SWAP1 POP JUMP JUMPDEST PUSH0 PUSH1 0x20 DUP3 ADD SWAP1 POP DUP2 DUP2 SUB PUSH0 DUP4 ADD MSTORE PUSH2 0x23F7 DUP2 PUSH2 0x23BE JUMP JUMPDEST SWAP1 POP SWAP2 SWAP1 POP JUMP JUMPDEST PUSH32 0x4F776E61626C653A2063616C6C6572206973206E6F7420746865206F776E6572 PUSH0 DUP3 ADD MSTORE POP JUMP JUMPDEST PUSH0 PUSH2 0x2432 PUSH1 0x20 DUP4 PUSH2 0x1C7E JUMP JUMPDEST SWAP2 POP PUSH2 0x243D DUP3 PUSH2 0x23FE JUMP JUMPDEST PUSH1 0x20 DUP3 ADD SWAP1 POP SWAP2 SWAP1 POP JUMP JUMPDEST PUSH0 PUSH1 0x20 DUP3 ADD SWAP1 POP DUP2 DUP2 SUB PUSH0 DUP4 ADD MSTORE PUSH2 0x245F DUP2 PUSH2 0x2426 JUMP JUMPDEST SWAP1 POP SWAP2 SWAP1 POP JUMP JUMPDEST PUSH32 0x5061757361626C653A2070617573656400000000000000000000000000000000 PUSH0 DUP3 ADD MSTORE POP JUMP JUMPDEST PUSH0 PUSH2 0x249A PUSH1 0x10 DUP4 PUSH2 0x1C7E JUMP JUMPDEST SWAP2 POP PUSH2 0x24A5 DUP3 PUSH2 0x2466 JUMP JUMPDEST PUSH1 0x20 DUP3 ADD SWAP1 POP SWAP2 SWAP1 POP JUMP JUMPDEST PUSH0 PUSH1 0x20 DUP3 ADD SWAP1 POP DUP2 DUP2 SUB PUSH0 DUP4 ADD MSTORE PUSH2 0x24C7 DUP2 PUSH2 0x248E JUMP JUMPDEST SWAP1 POP SWAP2 SWAP1 POP JUMP JUMPDEST PUSH32 0x45524332303A20696E73756666696369656E7420616C6C6F77616E6365000000 PUSH0 DUP3 ADD MSTORE POP JUMP JUMPDEST PUSH0 PUSH2 0x2502 PUSH1 0x1D DUP4 PUSH2 0x1C7E JUMP JUMPDEST SWAP2 POP PUSH2 0x250D DUP3 PUSH2 0x24CE JUMP JUMPDEST PUSH1 0x20 DUP3 ADD SWAP1 POP SWAP2 SWAP1 POP JUMP JUMPDEST PUSH0 PUSH1 0x20 DUP3 ADD SWAP1 POP DUP2 DUP2 SUB PUSH0 DUP4 ADD MSTORE PUSH2 0x252F DUP2 PUSH2 0x24F6 JUMP JUMPDEST SWAP1 POP SWAP2 SWAP1 POP JUMP JUMPDEST PUSH32 0x45524332303A207472616E736665722066726F6D20746865207A65726F206164 PUSH0 DUP3 ADD MSTORE PUSH32 0x6472657373000000000000000000000000000000000000000000000000000000 PUSH1 0x20 DUP3 ADD MSTORE POP JUMP JUMPDEST PUSH0 PUSH2 0x2590 PUSH1 0x25 DUP4 PUSH2 0x1C7E JUMP JUMPDEST SWAP2 POP PUSH2 0x259B DUP3 PUSH2 0x2536 JUMP JUMPDEST PUSH1 0x40 DUP3 ADD SWAP1 POP SWAP2 SWAP1 POP JUMP JUMPDEST PUSH0 PUSH1 0x20 DUP3 ADD SWAP1 POP DUP2 DUP2 SUB PUSH0 DUP4 ADD MSTORE PUSH2 0x25BD DUP2 PUSH2 0x2584 JUMP JUMPDEST SWAP1 POP SWAP2 SWAP1 POP JUMP JUMPDEST PUSH32 0x45524332303A207472616E7366657220746F20746865207A65726F2061646472 PUSH0 DUP3 ADD MSTORE PUSH32 0x6573730000000000000000000000000000000000000000000000000000000000 PUSH1 0x20 DUP3 ADD MSTORE POP JUMP JUMPDEST PUSH0 PUSH2 0x261E PUSH1 0x23 DUP4 PUSH2 0x1C7E JUMP JUMPDEST SWAP2 POP PUSH2 0x2629 DUP3 PUSH2 0x25C4 JUMP JUMPDEST PUSH1 0x40 DUP3 ADD SWAP1 POP SWAP2 SWAP1 POP JUMP JUMPDEST PUSH0 PUSH1 0x20 DUP3 ADD SWAP1 POP DUP2 DUP2 SUB PUSH0 DUP4 ADD MSTORE PUSH2 0x264B DUP2 PUSH2 0x2612 JUMP JUMPDEST SWAP1 POP SWAP2 SWAP1 POP JUMP JUMPDEST PUSH32 0x45524332303A207472616E7366657220616D6F756E7420657863656564732062 PUSH0 DUP3 ADD MSTORE PUSH32 0x616C616E63650000000000000000000000000000000000000000000000000000 PUSH1 0x20 DUP3 ADD MSTORE POP JUMP JUMPDEST PUSH0 PUSH2 0x26AC PUSH1 0x26 DUP4 PUSH2 0x1C7E JUMP JUMPDEST SWAP2 POP PUSH2 0x26B7 DUP3 PUSH2 0x2652 JUMP JUMPDEST PUSH1 0x40 DUP3 ADD SWAP1 POP SWAP2 SWAP1 POP JUMP JUMPDEST PUSH0 PUSH1 0x20 DUP3 ADD SWAP1 POP DUP2 DUP2 SUB PUSH0 DUP4 ADD MSTORE PUSH2 0x26D9 DUP2 PUSH2 0x26A0 JUMP JUMPDEST SWAP1 POP SWAP2 SWAP1 POP JUMP JUMPDEST PUSH32 0x45524332303A206275726E2066726F6D20746865207A65726F20616464726573 PUSH0 DUP3 ADD MSTORE PUSH32 0x7300000000000000000000000000000000000000000000000000000000000000 PUSH1 0x20 DUP3 ADD MSTORE POP JUMP JUMPDEST PUSH0 PUSH2 0x273A PUSH1 0x21 DUP4 PUSH2 0x1C7E JUMP JUMPDEST SWAP2 POP PUSH2 0x2745 DUP3 PUSH2 0x26E0 JUMP JUMPDEST PUSH1 0x40 DUP3 ADD SWAP1 POP SWAP2 SWAP1 POP JUMP JUMPDEST PUSH0 PUSH1 0x20 DUP3 ADD SWAP1 POP DUP2 DUP2 SUB PUSH0 DUP4 ADD MSTORE PUSH2 0x2767 DUP2 PUSH2 0x272E JUMP JUMPDEST SWAP1 POP SWAP2 SWAP1 POP JUMP JUMPDEST PUSH32 0x45524332303A206275726E20616D6F756E7420657863656564732062616C616E PUSH0 DUP3 ADD MSTORE PUSH32 0x6365000000000000000000000000000000000000000000000000000000000000 PUSH1 0x20 DUP3 ADD MSTORE POP JUMP JUMPDEST PUSH0 PUSH2 0x27C8 PUSH1 0x22 DUP4 PUSH2 0x1C7E JUMP JUMPDEST SWAP2 POP PUSH2 0x27D3 DUP3 PUSH2 0x276E JUMP JUMPDEST PUSH1 0x40 DUP3 ADD SWAP1 POP SWAP2 SWAP1 POP JUMP JUMPDEST PUSH0 PUSH1 0x20 DUP3 ADD SWAP1 POP DUP2 DUP2 SUB PUSH0 DUP4 ADD MSTORE PUSH2 0x27F5 DUP2 PUSH2 0x27BC JUMP JUMPDEST SWAP1 POP SWAP2 SWAP1 POP JUMP JUMPDEST PUSH32 0x496E697469616C697A61626C653A20636F6E7472616374206973206E6F742069 PUSH0 DUP3 ADD MSTORE PUSH32 0x6E697469616C697A696E67000000000000000000000000000000000000000000 PUSH1 0x20 DUP3 ADD MSTORE POP JUMP JUMPDEST PUSH0 PUSH2 0x2856 PUSH1 0x2B DUP4 PUSH2 0x1C7E JUMP JUMPDEST SWAP2 POP PUSH2 0x2861 DUP3 PUSH2 0x27FC JUMP JUMPDEST PUSH1 0x40 DUP3 ADD SWAP1 POP SWAP2 SWAP1 POP JUMP JUMPDEST PUSH0 PUSH1 0x20 DUP3 ADD SWAP1 POP DUP2 DUP2 SUB PUSH0 DUP4 ADD MSTORE PUSH2 0x2883 DUP2 PUSH2 0x284A JUMP JUMPDEST SWAP1 POP SWAP2 SWAP1 POP JUMP JUMPDEST PUSH32 0x45524332303A206D696E7420746F20746865207A65726F206164647265737300 PUSH0 DUP3 ADD MSTORE POP JUMP JUMPDEST PUSH0 PUSH2 0x28BE PUSH1 0x1F DUP4 PUSH2 0x1C7E JUMP JUMPDEST SWAP2 POP PUSH2 0x28C9 DUP3 PUSH2 0x288A JUMP JUMPDEST PUSH1 0x20 DUP3 ADD SWAP1 POP SWAP2 SWAP1 POP JUMP JUMPDEST PUSH0 PUSH1 0x20 DUP3 ADD SWAP1 POP DUP2 DUP2 SUB PUSH0 DUP4 ADD MSTORE PUSH2 0x28EB DUP2 PUSH2 0x28B2 JUMP JUMPDEST SWAP1 POP SWAP2 SWAP1 POP JUMP JUMPDEST PUSH32 0x5061757361626C653A206E6F7420706175736564000000000000000000000000 PUSH0 DUP3 ADD MSTORE POP JUMP JUMPDEST PUSH0 PUSH2 0x2926 PUSH1 0x14 DUP4 PUSH2 0x1C7E JUMP JUMPDEST SWAP2 POP PUSH2 0x2931 DUP3 PUSH2 0x28F2 JUMP JUMPDEST PUSH1 0x20 DUP3 ADD SWAP1 POP SWAP2 SWAP1 POP JUMP JUMPDEST PUSH0 PUSH1 0x20 DUP3 ADD SWAP1 POP DUP2 DUP2 SUB PUSH0 DUP4 ADD MSTORE PUSH2 0x2953 DUP2 PUSH2 0x291A JUMP JUMPDEST SWAP1 POP SWAP2 SWAP1 POP JUMP JUMPDEST PUSH32 0x4E487B7100000000000000000000000000000000000000000000000000000000 PUSH0 MSTORE PUSH1 0x41 PUSH1 0x4 MSTORE PUSH1 0x24 PUSH0 REVERT JUMPDEST PUSH0 DUP2 SWAP1 POP DUP2 PUSH0 MSTORE PUSH1 0x20 PUSH0 KECCAK256 SWAP1 POP SWAP2 SWAP1 POP JUMP JUMPDEST PUSH0 PUSH1 0x20 PUSH1 0x1F DUP4 ADD DIV SWAP1 POP SWAP2 SWAP1 POP JUMP JUMPDEST PUSH0 DUP3 DUP3 SHL SWAP1 POP SWAP3 SWAP2 POP POP JUMP JUMPDEST PUSH0 PUSH1 0x8 DUP4 MUL PUSH2 0x29E3 PUSH32 0xFFFFFFFFFFFFFFFFFFFFFFFFFFFFFFFFFFFFFFFFFFFFFFFFFFFFFFFFFFFFFFFF DUP3 PUSH2 0x29A8 JUMP JUMPDEST PUSH2 0x29ED DUP7 DUP4 PUSH2 0x29A8 JUMP JUMPDEST SWAP6 POP DUP1 NOT DUP5 AND SWAP4 POP DUP1 DUP7 AND DUP5 OR SWAP3 POP POP POP SWAP4 SWAP3 POP POP POP JUMP JUMPDEST PUSH0 PUSH2 0x2A1F PUSH2 0x2A1A PUSH2 0x2A15 DUP5 PUSH2 0x1D7C JUMP JUMPDEST PUSH2 0x211A JUMP JUMPDEST PUSH2 0x1D7C JUMP JUMPDEST SWAP1 POP SWAP2 SWAP1 POP JUMP JUMPDEST PUSH0 DUP2 SWAP1 POP SWAP2 SWAP1 POP JUMP JUMPDEST PUSH2 0x2A38 DUP4 PUSH2 0x2A05 JUMP JUMPDEST PUSH2 0x2A4C PUSH2 0x2A44 DUP3 PUSH2 0x2A26 JUMP JUMPDEST DUP5 DUP5 SLOAD PUSH2 0x29B4 JUMP JUMPDEST DUP3 SSTORE POP POP POP POP JUMP JUMPDEST PUSH0 SWAP1 JUMP JUMPDEST PUSH2 0x2A60 PUSH2 0x2A54 JUMP JUMPDEST PUSH2 0x2A6B DUP2 DUP5 DUP5 PUSH2 0x2A2F JUMP JUMPDEST POP POP POP JUMP JUMPDEST JUMPDEST DUP2 DUP2 LT ISZERO PUSH2 0x2A8E JUMPI PUSH2 0x2A83 PUSH0 DUP3 PUSH2 0x2A58 JUMP JUMPDEST PUSH1 0x1 DUP2 ADD SWAP1 POP PUSH2 0x2A71 JUMP JUMPDEST POP POP JUMP JUMPDEST PUSH1 0x1F DUP3 GT ISZERO PUSH2 0x2AD3 JUMPI PUSH2 0x2AA4 DUP2 PUSH2 0x2987 JUMP JUMPDEST PUSH2 0x2AAD DUP5 PUSH2 0x2999 JUMP JUMPDEST DUP2 ADD PUSH1 0x20 DUP6 LT ISZERO PUSH2 0x2ABC JUMPI DUP2 SWAP1 POP JUMPDEST PUSH2 0x2AD0 PUSH2 0x2AC8 DUP6 PUSH2 0x2999 JUMP JUMPDEST DUP4 ADD DUP3 PUSH2 0x2A70 JUMP JUMPDEST POP POP JUMPDEST POP POP POP JUMP JUMPDEST PUSH0 DUP3 DUP3 SHR SWAP1 POP SWAP3 SWAP2 POP POP JUMP JUMPDEST PUSH0 PUSH2 0x2AF3 PUSH0 NOT DUP5 PUSH1 0x8 MUL PUSH2 0x2AD8 JUMP JUMPDEST NOT DUP1 DUP4 AND SWAP2 POP POP SWAP3 SWAP2 POP POP JUMP JUMPDEST PUSH0 PUSH2 0x2B0B DUP4 DUP4 PUSH2 0x2AE4 JUMP JUMPDEST SWAP2 POP DUP3 PUSH1 0x2 MUL DUP3 OR SWAP1 POP SWAP3 SWAP2 POP POP JUMP JUMPDEST PUSH2 0x2B24 DUP3 PUSH2 0x1C74 JUMP JUMPDEST PUSH8 0xFFFFFFFFFFFFFFFF DUP2 GT ISZERO PUSH2 0x2B3D JUMPI PUSH2 0x2B3C PUSH2 0x295A JUMP JUMPDEST JUMPDEST PUSH2 0x2B47 DUP3 SLOAD PUSH2 0x1FF3 JUMP JUMPDEST PUSH2 0x2B52 DUP3 DUP3 DUP6 PUSH2 0x2A92 JUMP JUMPDEST PUSH0 PUSH1 0x20 SWAP1 POP PUSH1 0x1F DUP4 GT PUSH1 0x1 DUP2 EQ PUSH2 0x2B83 JUMPI PUSH0 DUP5 ISZERO PUSH2 0x2B71 JUMPI DUP3 DUP8 ADD MLOAD SWAP1 POP JUMPDEST PUSH2 0x2B7B DUP6 DUP3 PUSH2 0x2B00 JUMP JUMPDEST DUP7 SSTORE POP PUSH2 0x2BE2 JUMP JUMPDEST PUSH1 0x1F NOT DUP5 AND PUSH2 0x2B91 DUP7 PUSH2 0x2987 JUMP JUMPDEST PUSH0 JUMPDEST DUP3 DUP2 LT ISZERO PUSH2 0x2BB8 JUMPI DUP5 DUP10 ADD MLOAD DUP3 SSTORE PUSH1 0x1 DUP3 ADD SWAP2 POP PUSH1 0x20 DUP6 ADD SWAP5 POP PUSH1 0x20 DUP2 ADD SWAP1 POP PUSH2 0x2B93 JUMP JUMPDEST DUP7 DUP4 LT ISZERO PUSH2 0x2BD5 JUMPI DUP5 DUP10 ADD MLOAD PUSH2 0x2BD1 PUSH1 0x1F DUP10 AND DUP3 PUSH2 0x2AE4 JUMP JUMPDEST DUP4 SSTORE POP JUMPDEST PUSH1 0x1 PUSH1 0x2 DUP9 MUL ADD DUP9 SSTORE POP POP POP JUMPDEST POP POP POP POP POP POP JUMP INVALID LOG2 PUSH5 0x6970667358 0x22 SLT KECCAK256 GASPRICE 0xE5 DUP15 EXTCODECOPY PUSH9 0xF58DBF8D95B689DC2C 0xE9 0xF8 SHR SUB PUSH13 0x6EAF5D94B7CF50E88AF658A4CC PUSH5 0x736F6C6343 STOP ADDMOD OR STOP CALLER "},"methodIdentifiers":{"addBlackList(address)":"0ecb93c0","allowance(address,address)":"dd62ed3e","approve(address,uint256)":"095ea7b3","balanceOf(address)":"70a08231","burn(uint256)":"42966c68","decimals()":"313ce567","decreaseAllowance(address,uint256)":"a457c2d7","destroyBlackFunds(address)":"f3bdc228","getBlackListStatus(address)":"59bf1abe","increaseAllowance(address,uint256)":"39509351","initialize()":"8129fc1c","mint(uint256,address)":"94bf804d","name()":"06fdde03","owner()":"8da5cb5b","pause()":"8456cb59","paused()":"5c975abb","removeBlackList(address)":"e4997dc5","renounceOwnership()":"715018a6","symbol()":"95d89b41","totalSupply()":"18160ddd","transfer(address,uint256)":"a9059cbb","transferFrom(address,address,uint256)":"23b872dd","transferOwnership(address)":"f2fde38b","unPause()":"f7b188a5"}},"storageLayout":{"storage":[{"astId":138,"contract":"contracts/cngn.sol:cngn","label":"_initialized","offset":0,"slot":"0","type":"t_uint8"},{"astId":141,"contract":"contracts/cngn.sol:cngn","label":"_initializing","offset":1,"slot":"0","type":"t_bool"},{"astId":855,"contract":"contracts/cngn.sol:cngn","label":"__gap","offset":0,"slot":"1","type":"t_array(t_uint256)50_storage"},{"astId":10,"contract":"contracts/cngn.sol:cngn","label":"_owner","offset":0,"slot":"51","type":"t_address"},{"astId":130,"contract":"contracts/cngn.sol:cngn","label":"__gap","offset":0,"slot":"52","type":"t_array(t_uint256)49_storage"},{"astId":321,"contract":"contracts/cngn.sol:cngn","label":"_paused","offset":0,"slot":"101","type":"t_bool"},{"astId":426,"contract":"contracts/cngn.sol:cngn","label":"__gap","offset":0,"slot":"102","type":"t_array(t_uint256)49_storage"},{"astId":877,"contract":"contracts/cngn.sol:cngn","label":"_balances","offset":0,"slot":"151","type":"t_mapping(t_address,t_uint256)"},{"astId":883,"contract":"contracts/cngn.sol:cngn","label":"_allowances","offset":0,"slot":"152","type":"t_mapping(t_address,t_mapping(t_address,t_uint256))"},{"astId":887,"contract":"contracts/cngn.sol:cngn","label":"isBlackListed","offset":0,"slot":"153","type":"t_mapping(t_address,t_bool)"},{"astId":889,"contract":"contracts/cngn.sol:cngn","label":"_totalSupply","offset":0,"slot":"154","type":"t_uint256"},{"astId":891,"contract":"contracts/cngn.sol:cngn","label":"_name","offset":0,"slot":"155","type":"t_string_storage"},{"astId":893,"contract":"contracts/cngn.sol:cngn","label":"_symbol","offset":0,"slot":"156","type":"t_string_storage"},{"astId":1702,"contract":"contracts/cngn.sol:cngn","label":"__gap","offset":0,"slot":"157","type":"t_array(t_uint256)45_storage"}],"types":{"t_address":{"encoding":"inplace","label":"address","numberOfBytes":"20"},"t_array(t_uint256)45_storage":{"base":"t_uint256","encoding":"inplace","label":"uint256[45]","numberOfBytes":"1440"},"t_array(t_uint256)49_storage":{"base":"t_uint256","encoding":"inplace","label":"uint256[49]","numberOfBytes":"1568"},"t_array(t_uint256)50_storage":{"base":"t_uint256","encoding":"inplace","label":"uint256[50]","numberOfBytes":"1600"},"t_bool":{"encoding":"inplace","label":"bool","numberOfBytes":"1"},"t_mapping(t_address,t_bool)":{"encoding":"mapping","key":"t_address","label":"mapping(address => bool)","numberOfBytes":"32","value":"t_bool"},"t_mapping(t_address,t_mapping(t_address,t_uint256))":{"encoding":"mapping","key":"t_address","label":"mapping(address => mapping(address => uint256))","numberOfBytes":"32","value":"t_mapping(t_address,t_uint256)"},"t_mapping(t_address,t_uint256)":{"encoding":"mapping","key":"t_address","label":"mapping(address => uint256)","numberOfBytes":"32","value":"t_uint256"},"t_string_storage":{"encoding":"bytes","label":"string","numberOfBytes":"32"},"t_uint256":{"encoding":"inplace","label":"uint256","numberOfBytes":"32"},"t_uint8":{"encoding":"inplace","label":"uint8","numberOfBytes":"1"}}}}}}