{
  "contractName": "Admin",
  "abi": [
    {
      "inputs": [],
      "stateMutability": "nonpayable",
      "type": "constructor"
    },
    {
      "anonymous": false,
      "inputs": [
        {
          "indexed": true,
          "internalType": "address",
          "name": "_user",
          "type": "address"
        }
      ],
      "name": "AddedBlackList",
      "type": "event"
    },
    {
      "anonymous": false,
      "inputs": [
        {
          "indexed": false,
          "internalType": "address",
          "name": "previousAdmin",
          "type": "address"
        },
        {
          "indexed": false,
          "internalType": "address",
          "name": "newAdmin",
          "type": "address"
        }
      ],
      "name": "AdminChanged",
      "type": "event"
    },
    {
      "anonymous": false,
      "inputs": [
        {
          "indexed": true,
          "internalType": "address",
          "name": "beacon",
          "type": "address"
        }
      ],
      "name": "BeaconUpgraded",
      "type": "event"
    },
    {
      "anonymous": false,
      "inputs": [
        {
          "indexed": true,
          "internalType": "address",
          "name": "_user",
          "type": "address"
        }
      ],
      "name": "BlackListedContract",
      "type": "event"
    },
    {
      "anonymous": false,
      "inputs": [
        {
          "indexed": true,
          "internalType": "address",
          "name": "_user",
          "type": "address"
        }
      ],
      "name": "BlackListedExternalSender",
      "type": "event"
    },
    {
      "anonymous": false,
      "inputs": [
        {
          "indexed": true,
          "internalType": "address",
          "name": "_user",
          "type": "address"
        }
      ],
      "name": "BlackListedForwarder",
      "type": "event"
    },
    {
      "anonymous": false,
      "inputs": [
        {
          "indexed": true,
          "internalType": "address",
          "name": "_user",
          "type": "address"
        }
      ],
      "name": "BlackListedInternalUser",
      "type": "event"
    },
    {
      "anonymous": false,
      "inputs": [
        {
          "indexed": true,
          "internalType": "address",
          "name": "_user",
          "type": "address"
        }
      ],
      "name": "BlackListedMinter",
      "type": "event"
    },
    {
      "anonymous": false,
      "inputs": [
        {
          "indexed": false,
          "internalType": "uint8",
          "name": "version",
          "type": "uint8"
        }
      ],
      "name": "Initialized",
      "type": "event"
    },
    {
      "anonymous": false,
      "inputs": [
        {
          "indexed": true,
          "internalType": "address",
          "name": "_user",
          "type": "address"
        }
      ],
      "name": "MintAmountAdded",
      "type": "event"
    },
    {
      "anonymous": false,
      "inputs": [
        {
          "indexed": true,
          "internalType": "address",
          "name": "_user",
          "type": "address"
        }
      ],
      "name": "MintAmountRemoved",
      "type": "event"
    },
    {
      "anonymous": false,
      "inputs": [
        {
          "indexed": true,
          "internalType": "address",
          "name": "previousOwner",
          "type": "address"
        },
        {
          "indexed": true,
          "internalType": "address",
          "name": "newOwner",
          "type": "address"
        }
      ],
      "name": "OwnershipTransferred",
      "type": "event"
    },
    {
      "anonymous": false,
      "inputs": [
        {
          "indexed": true,
          "internalType": "address",
          "name": "_user",
          "type": "address"
        }
      ],
      "name": "RemovedBlackList",
      "type": "event"
    },
    {
      "anonymous": false,
      "inputs": [
        {
          "indexed": true,
          "internalType": "address",
          "name": "implementation",
          "type": "address"
        }
      ],
      "name": "Upgraded",
      "type": "event"
    },
    {
      "anonymous": false,
      "inputs": [
        {
          "indexed": true,
          "internalType": "address",
          "name": "_user",
          "type": "address"
        }
      ],
      "name": "WhitelistedContract",
      "type": "event"
    },
    {
      "anonymous": false,
      "inputs": [
        {
          "indexed": true,
          "internalType": "address",
          "name": "_user",
          "type": "address"
        }
      ],
      "name": "WhitelistedExternalSender",
      "type": "event"
    },
    {
      "anonymous": false,
      "inputs": [
        {
          "indexed": true,
          "internalType": "address",
          "name": "_user",
          "type": "address"
        }
      ],
      "name": "WhitelistedForwarder",
      "type": "event"
    },
    {
      "anonymous": false,
      "inputs": [
        {
          "indexed": true,
          "internalType": "address",
          "name": "_user",
          "type": "address"
        }
      ],
      "name": "WhitelistedInternalUser",
      "type": "event"
    },
    {
      "anonymous": false,
      "inputs": [
        {
          "indexed": true,
          "internalType": "address",
          "name": "_user",
          "type": "address"
        }
      ],
      "name": "WhitelistedMinter",
      "type": "event"
    },
    {
      "inputs": [
        {
          "internalType": "address",
          "name": "_evilUser",
          "type": "address"
        }
      ],
      "name": "addBlackList",
      "outputs": [],
      "stateMutability": "nonpayable",
      "type": "function"
    },
    {
      "inputs": [
        {
          "internalType": "address",
          "name": "_User",
          "type": "address"
        }
      ],
      "name": "addCanForward",
      "outputs": [
        {
          "internalType": "bool",
          "name": "",
          "type": "bool"
        }
      ],
      "stateMutability": "nonpayable",
      "type": "function"
    },
    {
      "inputs": [
        {
          "internalType": "address",
          "name": "_User",
          "type": "address"
        }
      ],
      "name": "addCanMint",
      "outputs": [
        {
          "internalType": "bool",
          "name": "",
          "type": "bool"
        }
      ],
      "stateMutability": "nonpayable",
      "type": "function"
    },
    {
      "inputs": [
        {
          "internalType": "address",
          "name": "_User",
          "type": "address"
        },
        {
          "internalType": "uint256",
          "name": "_Amount",
          "type": "uint256"
        }
      ],
      "name": "addMintAmount",
      "outputs": [
        {
          "internalType": "bool",
          "name": "",
          "type": "bool"
        }
      ],
      "stateMutability": "nonpayable",
      "type": "function"
    },
    {
      "inputs": [
        {
          "internalType": "address",
          "name": "_trustedContract",
          "type": "address"
        }
      ],
      "name": "addTrustedContract",
      "outputs": [
        {
          "internalType": "bool",
          "name": "",
          "type": "bool"
        }
      ],
      "stateMutability": "nonpayable",
      "type": "function"
    },
    {
      "inputs": [
        {
          "internalType": "address",
          "name": "_User",
          "type": "address"
        }
      ],
      "name": "blacklistExternalSender",
      "outputs": [
        {
          "internalType": "bool",
          "name": "",
          "type": "bool"
        }
      ],
      "stateMutability": "nonpayable",
      "type": "function"
    },
    {
      "inputs": [
        {
          "internalType": "address",
          "name": "_User",
          "type": "address"
        }
      ],
      "name": "blacklistInternalUser",
      "outputs": [
        {
          "internalType": "bool",
          "name": "",
          "type": "bool"
        }
      ],
      "stateMutability": "nonpayable",
      "type": "function"
    },
    {
      "inputs": [
        {
          "internalType": "address",
          "name": "",
          "type": "address"
        }
      ],
      "name": "canForward",
      "outputs": [
        {
          "internalType": "bool",
          "name": "",
          "type": "bool"
        }
      ],
      "stateMutability": "view",
      "type": "function"
    },
    {
      "inputs": [
        {
          "internalType": "address",
          "name": "",
          "type": "address"
        }
      ],
      "name": "canMint",
      "outputs": [
        {
          "internalType": "bool",
          "name": "",
          "type": "bool"
        }
      ],
      "stateMutability": "view",
      "type": "function"
    },
    {
      "inputs": [],
      "name": "initialize",
      "outputs": [],
      "stateMutability": "nonpayable",
      "type": "function"
    },
    {
      "inputs": [
        {
          "internalType": "address",
          "name": "",
          "type": "address"
        }
      ],
      "name": "isBlackListed",
      "outputs": [
        {
          "internalType": "bool",
          "name": "",
          "type": "bool"
        }
      ],
      "stateMutability": "view",
      "type": "function"
    },
    {
      "inputs": [
        {
          "internalType": "address",
          "name": "",
          "type": "address"
        }
      ],
      "name": "isExternalSenderWhitelisted",
      "outputs": [
        {
          "internalType": "bool",
          "name": "",
          "type": "bool"
        }
      ],
      "stateMutability": "view",
      "type": "function"
    },
    {
      "inputs": [
        {
          "internalType": "address",
          "name": "",
          "type": "address"
        }
      ],
      "name": "isInternalUserWhitelisted",
      "outputs": [
        {
          "internalType": "bool",
          "name": "",
          "type": "bool"
        }
      ],
      "stateMutability": "view",
      "type": "function"
    },
    {
      "inputs": [
        {
          "internalType": "address",
          "name": "",
          "type": "address"
        }
      ],
      "name": "mintAmount",
      "outputs": [
        {
          "internalType": "uint256",
          "name": "",
          "type": "uint256"
        }
      ],
      "stateMutability": "view",
      "type": "function"
    },
    {
      "inputs": [],
      "name": "owner",
      "outputs": [
        {
          "internalType": "address",
          "name": "",
          "type": "address"
        }
      ],
      "stateMutability": "view",
      "type": "function"
    },
    {
      "inputs": [],
      "name": "proxiableUUID",
      "outputs": [
        {
          "internalType": "bytes32",
          "name": "",
          "type": "bytes32"
        }
      ],
      "stateMutability": "view",
      "type": "function"
    },
    {
      "inputs": [
        {
          "internalType": "address",
          "name": "_clearedUser",
          "type": "address"
        }
      ],
      "name": "removeBlackList",
      "outputs": [
        {
          "internalType": "bool",
          "name": "",
          "type": "bool"
        }
      ],
      "stateMutability": "nonpayable",
      "type": "function"
    },
    {
      "inputs": [
        {
          "internalType": "address",
          "name": "_User",
          "type": "address"
        }
      ],
      "name": "removeCanForward",
      "outputs": [
        {
          "internalType": "bool",
          "name": "",
          "type": "bool"
        }
      ],
      "stateMutability": "nonpayable",
      "type": "function"
    },
    {
      "inputs": [
        {
          "internalType": "address",
          "name": "_User",
          "type": "address"
        }
      ],
      "name": "removeCanMint",
      "outputs": [
        {
          "internalType": "bool",
          "name": "",
          "type": "bool"
        }
      ],
      "stateMutability": "nonpayable",
      "type": "function"
    },
    {
      "inputs": [
        {
          "internalType": "address",
          "name": "_User",
          "type": "address"
        }
      ],
      "name": "removeMintAmount",
      "outputs": [
        {
          "internalType": "bool",
          "name": "",
          "type": "bool"
        }
      ],
      "stateMutability": "nonpayable",
      "type": "function"
    },
    {
      "inputs": [
        {
          "internalType": "address",
          "name": "_trustedContract",
          "type": "address"
        }
      ],
      "name": "removeTrustedContract",
      "outputs": [
        {
          "internalType": "bool",
          "name": "",
          "type": "bool"
        }
      ],
      "stateMutability": "nonpayable",
      "type": "function"
    },
    {
      "inputs": [],
      "name": "renounceOwnership",
      "outputs": [],
      "stateMutability": "nonpayable",
      "type": "function"
    },
    {
      "inputs": [
        {
          "internalType": "address",
          "name": "newOwner",
          "type": "address"
        }
      ],
      "name": "transferOwnership",
      "outputs": [],
      "stateMutability": "nonpayable",
      "type": "function"
    },
    {
      "inputs": [
        {
          "internalType": "address",
          "name": "",
          "type": "address"
        }
      ],
      "name": "trustedContract",
      "outputs": [
        {
          "internalType": "bool",
          "name": "",
          "type": "bool"
        }
      ],
      "stateMutability": "view",
      "type": "function"
    },
    {
      "inputs": [
        {
          "internalType": "address",
          "name": "newImplementation",
          "type": "address"
        }
      ],
      "name": "upgradeTo",
      "outputs": [],
      "stateMutability": "nonpayable",
      "type": "function"
    },
    {
      "inputs": [
        {
          "internalType": "address",
          "name": "newImplementation",
          "type": "address"
        },
        {
          "internalType": "bytes",
          "name": "data",
          "type": "bytes"
        }
      ],
      "name": "upgradeToAndCall",
      "outputs": [],
      "stateMutability": "payable",
      "type": "function"
    },
    {
      "inputs": [
        {
          "internalType": "address",
          "name": "_User",
          "type": "address"
        }
      ],
      "name": "whitelistExternalSender",
      "outputs": [
        {
          "internalType": "bool",
          "name": "",
          "type": "bool"
        }
      ],
      "stateMutability": "nonpayable",
      "type": "function"
    },
    {
      "inputs": [
        {
          "internalType": "address",
          "name": "_User",
          "type": "address"
        }
      ],
      "name": "whitelistInternalUser",
      "outputs": [
        {
          "internalType": "bool",
          "name": "",
          "type": "bool"
        }
      ],
      "stateMutability": "nonpayable",
      "type": "function"
    }
  ],
  "bytecode": "0x60a06040523073ffffffffffffffffffffffffffffffffffffffff1660809073ffffffffffffffffffffffffffffffffffffffff168152503480156200004457600080fd5b50d380156200005257600080fd5b50d280156200006057600080fd5b5060008060019054906101000a900460ff16159050808015620000935750600160008054906101000a900460ff1660ff16105b80620000cf5750620000b030620001b260201b6200248d1760201c565b158015620000ce5750600160008054906101000a900460ff1660ff16145b5b62000111576040517f08c379a000000000000000000000000000000000000000000000000000000000815260040162000108906200025c565b60405180910390fd5b60016000806101000a81548160ff021916908360ff16021790555080156200014f576001600060016101000a81548160ff0219169083151502179055505b8015620001ab5760008060016101000a81548160ff0219169083151502179055507f7f26b83ff96e1f2b6a682f133852f6798a09c465da95921460cefb38474024986001604051620001a29190620002d8565b60405180910390a15b50620002f5565b6000808273ffffffffffffffffffffffffffffffffffffffff163b119050919050565b600082825260208201905092915050565b7f496e697469616c697a61626c653a20636f6e747261637420697320616c72656160008201527f647920696e697469616c697a6564000000000000000000000000000000000000602082015250565b600062000244602e83620001d5565b91506200025182620001e6565b604082019050919050565b60006020820190508181036000830152620002778162000235565b9050919050565b6000819050919050565b600060ff82169050919050565b6000819050919050565b6000620002c0620002ba620002b4846200027e565b62000295565b62000288565b9050919050565b620002d2816200029f565b82525050565b6000602082019050620002ef6000830184620002c7565b92915050565b608051613d206200032d60003960008181610d7001528181610dff01528181610f1a01528181610fa901526110590152613d206000f3fe6080604052600436106101b75760003560e01c80638da5cb5b116100ec578063e160587f1161008a578063e9f2216911610064578063e9f2216914610911578063f0314df014610968578063f0d39ad1146109bf578063f2fde38b14610a16576101b7565b8063e160587f1461080c578063e47d606014610863578063e4997dc5146108ba576101b7565b8063b85282a3116100c6578063b85282a3146106b0578063bf892eaa14610707578063bfc5181b1461075e578063c2ba4744146107b5576101b7565b80638da5cb5b146105bd5780639e1a15f014610602578063b4f76a1014610659576101b7565b8063542f16d411610159578063715018a611610133578063715018a6146104ad5780638061f132146104de5780638129fc1c146105355780638a4e0ace14610566576101b7565b8063542f16d4146103a85780635efd3765146103ff57806365edf61014610456576101b7565b80633659cfe6116101955780633659cfe6146102ad5780633fd0966e146102f05780634f1ef2861461034757806352d1902d14610363576101b7565b8063055d822c146101bc5780630ecb93c014610213578063176583d614610256575b600080fd5b3480156101c857600080fd5b50d380156101d557600080fd5b50d280156101e257600080fd5b506101fd60048036038101906101f89190612ce8565b610a59565b60405161020a9190612d2e565b60405180910390f35b34801561021f57600080fd5b50d3801561022c57600080fd5b50d2801561023957600080fd5b50610254600480360381019061024f9190612ce8565b610a71565b005b34801561026257600080fd5b50d3801561026f57600080fd5b50d2801561027c57600080fd5b5061029760048036038101906102929190612ce8565b610ba4565b6040516102a49190612d64565b60405180910390f35b3480156102b957600080fd5b50d380156102c657600080fd5b50d280156102d357600080fd5b506102ee60048036038101906102e99190612ce8565b610d6e565b005b3480156102fc57600080fd5b50d3801561030957600080fd5b50d2801561031657600080fd5b50610331600480360381019061032c9190612ce8565b610ef7565b60405161033e9190612d64565b60405180910390f35b610361600480360381019061035c9190612ec5565b610f18565b005b34801561036f57600080fd5b50d3801561037c57600080fd5b50d2801561038957600080fd5b50610392611055565b60405161039f9190612f3a565b60405180910390f35b3480156103b457600080fd5b50d380156103c157600080fd5b50d280156103ce57600080fd5b506103e960048036038101906103e49190612ce8565b61110e565b6040516103f69190612d64565b60405180910390f35b34801561040b57600080fd5b50d3801561041857600080fd5b50d2801561042557600080fd5b50610440600480360381019061043b9190612ce8565b61124a565b60405161044d9190612d64565b60405180910390f35b34801561046257600080fd5b50d3801561046f57600080fd5b50d2801561047c57600080fd5b5061049760048036038101906104929190612ce8565b61126b565b6040516104a49190612d64565b60405180910390f35b3480156104b957600080fd5b50d380156104c657600080fd5b50d280156104d357600080fd5b506104dc61128b565b005b3480156104ea57600080fd5b50d380156104f757600080fd5b50d2801561050457600080fd5b5061051f600480360381019061051a9190612ce8565b61129f565b60405161052c9190612d64565b60405180910390f35b34801561054157600080fd5b50d3801561054e57600080fd5b50d2801561055b57600080fd5b506105646112bf565b005b34801561057257600080fd5b50d3801561057f57600080fd5b50d2801561058c57600080fd5b506105a760048036038101906105a29190612ce8565b6114cb565b6040516105b49190612d64565b60405180910390f35b3480156105c957600080fd5b50d380156105d657600080fd5b50d280156105e357600080fd5b506105ec6116d4565b6040516105f99190612f64565b60405180910390f35b34801561060e57600080fd5b50d3801561061b57600080fd5b50d2801561062857600080fd5b50610643600480360381019061063e9190612ce8565b6116fe565b6040516106509190612d64565b60405180910390f35b34801561066557600080fd5b50d3801561067257600080fd5b50d2801561067f57600080fd5b5061069a60048036038101906106959190612ce8565b61183a565b6040516106a79190612d64565b60405180910390f35b3480156106bc57600080fd5b50d380156106c957600080fd5b50d280156106d657600080fd5b506106f160048036038101906106ec9190612ce8565b6118d5565b6040516106fe9190612d64565b60405180910390f35b34801561071357600080fd5b50d3801561072057600080fd5b50d2801561072d57600080fd5b5061074860048036038101906107439190612ce8565b611a12565b6040516107559190612d64565b60405180910390f35b34801561076a57600080fd5b50d3801561077757600080fd5b50d2801561078457600080fd5b5061079f600480360381019061079a9190612ce8565b611b4c565b6040516107ac9190612d64565b60405180910390f35b3480156107c157600080fd5b50d380156107ce57600080fd5b50d280156107db57600080fd5b506107f660048036038101906107f19190612ce8565b611c86565b6040516108039190612d64565b60405180910390f35b34801561081857600080fd5b50d3801561082557600080fd5b50d2801561083257600080fd5b5061084d60048036038101906108489190612ce8565b611ca6565b60405161085a9190612d64565b60405180910390f35b34801561086f57600080fd5b50d3801561087c57600080fd5b50d2801561088957600080fd5b506108a4600480360381019061089f9190612ce8565b611de3565b6040516108b19190612d64565b60405180910390f35b3480156108c657600080fd5b50d380156108d357600080fd5b50d280156108e057600080fd5b506108fb60048036038101906108f69190612ce8565b611e03565b6040516109089190612d64565b60405180910390f35b34801561091d57600080fd5b50d3801561092a57600080fd5b50d2801561093757600080fd5b50610952600480360381019061094d9190612fab565b611f3d565b60405161095f9190612d64565b60405180910390f35b34801561097457600080fd5b50d3801561098157600080fd5b50d2801561098e57600080fd5b506109a960048036038101906109a49190612ce8565b612035565b6040516109b69190612d64565b60405180910390f35b3480156109cb57600080fd5b50d380156109d857600080fd5b50d280156109e557600080fd5b50610a0060048036038101906109fb9190612ce8565b612170565b604051610a0d9190612d64565b60405180910390f35b348015610a2257600080fd5b50d38015610a2f57600080fd5b50d28015610a3c57600080fd5b50610a576004803603810190610a529190612ce8565b612409565b005b60fd6020528060005260406000206000915090505481565b610a796124b0565b60ff60008273ffffffffffffffffffffffffffffffffffffffff1673ffffffffffffffffffffffffffffffffffffffff16815260200190815260200160002060009054906101000a900460ff1615610b06576040517f08c379a0000000000000000000000000000000000000000000000000000000008152600401610afd90613048565b60405180910390fd5b600160ff60008373ffffffffffffffffffffffffffffffffffffffff1673ffffffffffffffffffffffffffffffffffffffff16815260200190815260200160002060006101000a81548160ff0219169083151502179055508073ffffffffffffffffffffffffffffffffffffffff167f42e160154868087d6bfdc0ca23d96a1c1cfa32f1b72ba9ba27b69b98a0d819dc60405160405180910390a250565b6000610bae6124b0565b8160ff60008273ffffffffffffffffffffffffffffffffffffffff1673ffffffffffffffffffffffffffffffffffffffff16815260200190815260200160002060009054906101000a900460ff1615610c3c576040517f08c379a0000000000000000000000000000000000000000000000000000000008152600401610c33906130b4565b60405180910390fd5b60fb60008473ffffffffffffffffffffffffffffffffffffffff1673ffffffffffffffffffffffffffffffffffffffff16815260200190815260200160002060009054906101000a900460ff1615610cc9576040517f08c379a0000000000000000000000000000000000000000000000000000000008152600401610cc090613120565b60405180910390fd5b600160fb60008573ffffffffffffffffffffffffffffffffffffffff1673ffffffffffffffffffffffffffffffffffffffff16815260200190815260200160002060006101000a81548160ff0219169083151502179055508273ffffffffffffffffffffffffffffffffffffffff167f6570102f70c9f7018c7b17caf1de30d3c3861a41bafd23f66ac943e448c50b5c60405160405180910390a26001915050919050565b7f000000000000000000000000000000000000000000000000000000000000000073ffffffffffffffffffffffffffffffffffffffff163073ffffffffffffffffffffffffffffffffffffffff161415610dfd576040517f08c379a0000000000000000000000000000000000000000000000000000000008152600401610df4906131b2565b60405180910390fd5b7f000000000000000000000000000000000000000000000000000000000000000073ffffffffffffffffffffffffffffffffffffffff16610e3c61252e565b73ffffffffffffffffffffffffffffffffffffffff1614610e92576040517f08c379a0000000000000000000000000000000000000000000000000000000008152600401610e8990613244565b60405180910390fd5b610e9b81612585565b610ef481600067ffffffffffffffff811115610eba57610eb9612d9a565b5b6040519080825280601f01601f191660200182016040528015610eec5781602001600182028036833780820191505090505b506000612590565b50565b6101016020528060005260406000206000915054906101000a900460ff1681565b7f000000000000000000000000000000000000000000000000000000000000000073ffffffffffffffffffffffffffffffffffffffff163073ffffffffffffffffffffffffffffffffffffffff161415610fa7576040517f08c379a0000000000000000000000000000000000000000000000000000000008152600401610f9e906131b2565b60405180910390fd5b7f000000000000000000000000000000000000000000000000000000000000000073ffffffffffffffffffffffffffffffffffffffff16610fe661252e565b73ffffffffffffffffffffffffffffffffffffffff161461103c576040517f08c379a000000000000000000000000000000000000000000000000000000000815260040161103390613244565b60405180910390fd5b61104582612585565b61105182826001612590565b5050565b60007f000000000000000000000000000000000000000000000000000000000000000073ffffffffffffffffffffffffffffffffffffffff163073ffffffffffffffffffffffffffffffffffffffff16146110e5576040517f08c379a00000000000000000000000000000000000000000000000000000000081526004016110dc906132d6565b60405180910390fd5b7f360894a13ba1a3210667c828492db98dca3e2076cc3735a920a3ca505d382bbc60001b905090565b60006111186124b0565b61010060008373ffffffffffffffffffffffffffffffffffffffff1673ffffffffffffffffffffffffffffffffffffffff16815260200190815260200160002060009054906101000a900460ff166111a5576040517f08c379a000000000000000000000000000000000000000000000000000000000815260040161119c90613342565b60405180910390fd5b600061010060008473ffffffffffffffffffffffffffffffffffffffff1673ffffffffffffffffffffffffffffffffffffffff16815260200190815260200160002060006101000a81548160ff0219169083151502179055508173ffffffffffffffffffffffffffffffffffffffff167f99af21e3b1fe524ff7364b59a8df3562393f2e5eb5d1377702fe2688e075dad660405160405180910390a260019050919050565b6101006020528060005260406000206000915054906101000a900460ff1681565b60fb6020528060005260406000206000915054906101000a900460ff1681565b6112936124b0565b61129d60006126fe565b565b60fe6020528060005260406000206000915054906101000a900460ff1681565b60008060019054906101000a900460ff161590508080156112f05750600160008054906101000a900460ff1660ff16105b8061131d57506112ff3061248d565b15801561131c5750600160008054906101000a900460ff1660ff16145b5b61135c576040517f08c379a0000000000000000000000000000000000000000000000000000000008152600401611353906133d4565b60405180910390fd5b60016000806101000a81548160ff021916908360ff1602179055508015611399576001600060016101000a81548160ff0219169083151502179055505b6113a16127c4565b6113a961281d565b6113b161286e565b600160fb60006113bf6128c7565b73ffffffffffffffffffffffffffffffffffffffff1673ffffffffffffffffffffffffffffffffffffffff16815260200190815260200160002060006101000a81548160ff021916908315150217905550600160fc600061141e6128c7565b73ffffffffffffffffffffffffffffffffffffffff1673ffffffffffffffffffffffffffffffffffffffff16815260200190815260200160002060006101000a81548160ff02191690831515021790555080156114c85760008060016101000a81548160ff0219169083151502179055507f7f26b83ff96e1f2b6a682f133852f6798a09c465da95921460cefb384740249860016040516114bf9190613446565b60405180910390a15b50565b60006114d56128c7565b73ffffffffffffffffffffffffffffffffffffffff166114f36116d4565b73ffffffffffffffffffffffffffffffffffffffff161480611565575060fe600061151c6128c7565b73ffffffffffffffffffffffffffffffffffffffff1673ffffffffffffffffffffffffffffffffffffffff16815260200190815260200160002060009054906101000a900460ff165b6115a4576040517f08c379a000000000000000000000000000000000000000000000000000000000815260040161159b906134ad565b60405180910390fd5b60fc60008373ffffffffffffffffffffffffffffffffffffffff1673ffffffffffffffffffffffffffffffffffffffff16815260200190815260200160002060009054906101000a900460ff16611630576040517f08c379a000000000000000000000000000000000000000000000000000000000815260040161162790613519565b60405180910390fd5b600060fc60008473ffffffffffffffffffffffffffffffffffffffff1673ffffffffffffffffffffffffffffffffffffffff16815260200190815260200160002060006101000a81548160ff0219169083151502179055508173ffffffffffffffffffffffffffffffffffffffff167fb8d6072435c030a71f32e447622d98725fd3f3540e1dc57720bb54b17ca3af8960405160405180910390a260019050919050565b6000603360009054906101000a900473ffffffffffffffffffffffffffffffffffffffff16905090565b60006117086124b0565b61010160008373ffffffffffffffffffffffffffffffffffffffff1673ffffffffffffffffffffffffffffffffffffffff16815260200190815260200160002060009054906101000a900460ff16611795576040517f08c379a000000000000000000000000000000000000000000000000000000000815260040161178c90613342565b60405180910390fd5b600061010160008473ffffffffffffffffffffffffffffffffffffffff1673ffffffffffffffffffffffffffffffffffffffff16815260200190815260200160002060006101000a81548160ff0219169083151502179055508173ffffffffffffffffffffffffffffffffffffffff167f1add56ac7cce24bb03f68cc192c7e23ff52c253256412380960e1495d16351f660405160405180910390a260019050919050565b60006118446124b0565b600060fd60008473ffffffffffffffffffffffffffffffffffffffff1673ffffffffffffffffffffffffffffffffffffffff168152602001908152602001600020819055508173ffffffffffffffffffffffffffffffffffffffff167f4ceebd8137e5ac28cab2b8449582c83280b976ce1884eb71d861739885f347bc60405160405180910390a260019050919050565b60006118df6124b0565b61010060008373ffffffffffffffffffffffffffffffffffffffff1673ffffffffffffffffffffffffffffffffffffffff16815260200190815260200160002060009054906101000a900460ff161561196d576040517f08c379a000000000000000000000000000000000000000000000000000000000815260040161196490613585565b60405180910390fd5b600161010060008473ffffffffffffffffffffffffffffffffffffffff1673ffffffffffffffffffffffffffffffffffffffff16815260200190815260200160002060006101000a81548160ff0219169083151502179055508173ffffffffffffffffffffffffffffffffffffffff167fbfa7e9dc90e3e7bcecdb459db0f2e3ae408ffbf687e970bb4a957c11d0d79e5460405160405180910390a260019050919050565b6000611a1c6124b0565b60fe60008373ffffffffffffffffffffffffffffffffffffffff1673ffffffffffffffffffffffffffffffffffffffff16815260200190815260200160002060009054906101000a900460ff16611aa8576040517f08c379a0000000000000000000000000000000000000000000000000000000008152600401611a9f906135f1565b60405180910390fd5b600060fe60008473ffffffffffffffffffffffffffffffffffffffff1673ffffffffffffffffffffffffffffffffffffffff16815260200190815260200160002060006101000a81548160ff0219169083151502179055508173ffffffffffffffffffffffffffffffffffffffff167f0d0d357bcf48438779e1fe617697436a250202039825d4d84bf697d9a419ba6a60405160405180910390a260019050919050565b6000611b566124b0565b60fb60008373ffffffffffffffffffffffffffffffffffffffff1673ffffffffffffffffffffffffffffffffffffffff16815260200190815260200160002060009054906101000a900460ff16611be2576040517f08c379a0000000000000000000000000000000000000000000000000000000008152600401611bd99061365d565b60405180910390fd5b600060fb60008473ffffffffffffffffffffffffffffffffffffffff1673ffffffffffffffffffffffffffffffffffffffff16815260200190815260200160002060006101000a81548160ff0219169083151502179055508173ffffffffffffffffffffffffffffffffffffffff167fa7faa16f6ece47894ac31f42e1301d11bd28001e31aaac4e028c4f80757e0dc360405160405180910390a260019050919050565b60fc6020528060005260406000206000915054906101000a900460ff1681565b6000611cb06124b0565b61010160008373ffffffffffffffffffffffffffffffffffffffff1673ffffffffffffffffffffffffffffffffffffffff16815260200190815260200160002060009054906101000a900460ff1615611d3e576040517f08c379a0000000000000000000000000000000000000000000000000000000008152600401611d3590613585565b60405180910390fd5b600161010160008473ffffffffffffffffffffffffffffffffffffffff1673ffffffffffffffffffffffffffffffffffffffff16815260200190815260200160002060006101000a81548160ff0219169083151502179055508173ffffffffffffffffffffffffffffffffffffffff167f4acf47ffbc39e4e8df31ec82d5707f7aa51ce419a915f50eec70e8aa74c82f7d60405160405180910390a260019050919050565b60ff6020528060005260406000206000915054906101000a900460ff1681565b6000611e0d6124b0565b60ff60008373ffffffffffffffffffffffffffffffffffffffff1673ffffffffffffffffffffffffffffffffffffffff16815260200190815260200160002060009054906101000a900460ff16611e99576040517f08c379a0000000000000000000000000000000000000000000000000000000008152600401611e90906136c9565b60405180910390fd5b600060ff60008473ffffffffffffffffffffffffffffffffffffffff1673ffffffffffffffffffffffffffffffffffffffff16815260200190815260200160002060006101000a81548160ff0219169083151502179055508173ffffffffffffffffffffffffffffffffffffffff167fd7e9ec6e6ecd65492dce6bf513cd6867560d49544421d0783ddf06e76c24470c60405160405180910390a260019050919050565b6000611f476124b0565b6001151560fc60008573ffffffffffffffffffffffffffffffffffffffff1673ffffffffffffffffffffffffffffffffffffffff16815260200190815260200160002060009054906101000a900460ff16151514611fa457600080fd5b8160fd60008573ffffffffffffffffffffffffffffffffffffffff1673ffffffffffffffffffffffffffffffffffffffff168152602001908152602001600020819055508273ffffffffffffffffffffffffffffffffffffffff167f36e552943925ad9bcbfaad94a0bb4cd68a1ff6c8759d3b7b04e04808876322e560405160405180910390a26001905092915050565b600061203f6124b0565b60fe60008373ffffffffffffffffffffffffffffffffffffffff1673ffffffffffffffffffffffffffffffffffffffff16815260200190815260200160002060009054906101000a900460ff16156120cc576040517f08c379a00000000000000000000000000000000000000000000000000000000081526004016120c390613735565b60405180910390fd5b600160fe60008473ffffffffffffffffffffffffffffffffffffffff1673ffffffffffffffffffffffffffffffffffffffff16815260200190815260200160002060006101000a81548160ff0219169083151502179055508173ffffffffffffffffffffffffffffffffffffffff167ff3f8e46041656d3246396bd12bf0589e2615cd3b518ac09e1ca7af53f7f4012460405160405180910390a260019050919050565b600061217a6128c7565b73ffffffffffffffffffffffffffffffffffffffff166121986116d4565b73ffffffffffffffffffffffffffffffffffffffff16148061220a575060fe60006121c16128c7565b73ffffffffffffffffffffffffffffffffffffffff1673ffffffffffffffffffffffffffffffffffffffff16815260200190815260200160002060009054906101000a900460ff165b612249576040517f08c379a0000000000000000000000000000000000000000000000000000000008152600401612240906134ad565b60405180910390fd5b8160ff60008273ffffffffffffffffffffffffffffffffffffffff1673ffffffffffffffffffffffffffffffffffffffff16815260200190815260200160002060009054906101000a900460ff16156122d7576040517f08c379a00000000000000000000000000000000000000000000000000000000081526004016122ce906130b4565b60405180910390fd5b60fc60008473ffffffffffffffffffffffffffffffffffffffff1673ffffffffffffffffffffffffffffffffffffffff16815260200190815260200160002060009054906101000a900460ff1615612364576040517f08c379a000000000000000000000000000000000000000000000000000000000815260040161235b906137a1565b60405180910390fd5b600160fc60008573ffffffffffffffffffffffffffffffffffffffff1673ffffffffffffffffffffffffffffffffffffffff16815260200190815260200160002060006101000a81548160ff0219169083151502179055508273ffffffffffffffffffffffffffffffffffffffff167fa7bc6cbcc74fbb036defe7be7aa46cf2177c9dac567d24583c365e420ac5e4a460405160405180910390a26001915050919050565b6124116124b0565b600073ffffffffffffffffffffffffffffffffffffffff168173ffffffffffffffffffffffffffffffffffffffff161415612481576040517f08c379a000000000000000000000000000000000000000000000000000000000815260040161247890613833565b60405180910390fd5b61248a816126fe565b50565b6000808273ffffffffffffffffffffffffffffffffffffffff163b119050919050565b6124b86128c7565b73ffffffffffffffffffffffffffffffffffffffff166124d66116d4565b73ffffffffffffffffffffffffffffffffffffffff161461252c576040517f08c379a00000000000000000000000000000000000000000000000000000000081526004016125239061389f565b60405180910390fd5b565b600061255c7f360894a13ba1a3210667c828492db98dca3e2076cc3735a920a3ca505d382bbc60001b6128cf565b60000160009054906101000a900473ffffffffffffffffffffffffffffffffffffffff16905090565b61258d6124b0565b50565b6125bc7f4910fdfa16fed3260ed0e7147f7cc6da11a60208b5b9406d12a635614ffd914360001b6128d9565b60000160009054906101000a900460ff16156125e0576125db836128e3565b6126f9565b8273ffffffffffffffffffffffffffffffffffffffff166352d1902d6040518163ffffffff1660e01b8152600401602060405180830381865afa92505050801561264857506040513d601f19601f8201168201806040525081019061264591906138eb565b60015b612687576040517f08c379a000000000000000000000000000000000000000000000000000000000815260040161267e9061398a565b60405180910390fd5b7f360894a13ba1a3210667c828492db98dca3e2076cc3735a920a3ca505d382bbc60001b81146126ec576040517f08c379a00000000000000000000000000000000000000000000000000000000081526004016126e390613a1c565b60405180910390fd5b506126f883838361299c565b5b505050565b6000603360009054906101000a900473ffffffffffffffffffffffffffffffffffffffff16905081603360006101000a81548173ffffffffffffffffffffffffffffffffffffffff021916908373ffffffffffffffffffffffffffffffffffffffff1602179055508173ffffffffffffffffffffffffffffffffffffffff168173ffffffffffffffffffffffffffffffffffffffff167f8be0079c531659141344cd1fd0a4f28419497f9722a3daafe3b4186f6b6457e060405160405180910390a35050565b600060019054906101000a900460ff16612813576040517f08c379a000000000000000000000000000000000000000000000000000000000815260040161280a90613aae565b60405180910390fd5b61281b6129c8565b565b600060019054906101000a900460ff1661286c576040517f08c379a000000000000000000000000000000000000000000000000000000000815260040161286390613aae565b60405180910390fd5b565b600060019054906101000a900460ff166128bd576040517f08c379a00000000000000000000000000000000000000000000000000000000081526004016128b490613aae565b60405180910390fd5b6128c5612a29565b565b600033905090565b6000819050919050565b6000819050919050565b6128ec8161248d565b61292b576040517f08c379a000000000000000000000000000000000000000000000000000000000815260040161292290613b40565b60405180910390fd5b806129587f360894a13ba1a3210667c828492db98dca3e2076cc3735a920a3ca505d382bbc60001b6128cf565b60000160006101000a81548173ffffffffffffffffffffffffffffffffffffffff021916908373ffffffffffffffffffffffffffffffffffffffff16021790555050565b6129a583612a82565b6000825111806129b25750805b156129c3576129c18383612ad1565b505b505050565b600060019054906101000a900460ff16612a17576040517f08c379a0000000000000000000000000000000000000000000000000000000008152600401612a0e90613aae565b60405180910390fd5b612a27612a226128c7565b6126fe565b565b600060019054906101000a900460ff16612a78576040517f08c379a0000000000000000000000000000000000000000000000000000000008152600401612a6f90613aae565b60405180910390fd5b600160c981905550565b612a8b816128e3565b8073ffffffffffffffffffffffffffffffffffffffff167fbc7cd75a20ee27fd9adebab32041f755214dbc6bffa90cc0225b39da2e5c2d3b60405160405180910390a250565b6060612af68383604051806060016040528060278152602001613cc460279139612afe565b905092915050565b60606000808573ffffffffffffffffffffffffffffffffffffffff1685604051612b289190613bda565b600060405180830381855af49150503d8060008114612b63576040519150601f19603f3d011682016040523d82523d6000602084013e612b68565b606091505b5091509150612b7986838387612b84565b925050509392505050565b60608315612be757600083511415612bdf57612b9f8561248d565b612bde576040517f08c379a0000000000000000000000000000000000000000000000000000000008152600401612bd590613c3d565b60405180910390fd5b5b829050612bf2565b612bf18383612bfa565b5b949350505050565b600082511115612c0d5781518083602001fd5b806040517f08c379a0000000000000000000000000000000000000000000000000000000008152600401612c419190613ca1565b60405180910390fd5b6000604051905090565b600080fd5b600080fd5b600074ffffffffffffffffffffffffffffffffffffffffff82169050919050565b612c8881612c5e565b8114612c9357600080fd5b50565b600073ffffffffffffffffffffffffffffffffffffffff82169050919050565b6000612cc182612c96565b9050919050565b600081359050612cd781612c7f565b612ce081612cb6565b905092915050565b600060208284031215612cfe57612cfd612c54565b5b6000612d0c84828501612cc8565b91505092915050565b6000819050919050565b612d2881612d15565b82525050565b6000602082019050612d436000830184612d1f565b92915050565b60008115159050919050565b612d5e81612d49565b82525050565b6000602082019050612d796000830184612d55565b92915050565b600080fd5b600080fd5b6000601f19601f8301169050919050565b7f4e487b7100000000000000000000000000000000000000000000000000000000600052604160045260246000fd5b612dd282612d89565b810181811067ffffffffffffffff82111715612df157612df0612d9a565b5b80604052505050565b6000612e04612c4a565b9050612e108282612dc9565b919050565b600067ffffffffffffffff821115612e3057612e2f612d9a565b5b612e3982612d89565b9050602081019050919050565b82818337600083830152505050565b6000612e68612e6384612e15565b612dfa565b905082815260208101848484011115612e8457612e83612d84565b5b612e8f848285612e46565b509392505050565b600082601f830112612eac57612eab612d7f565b5b8135612ebc848260208601612e55565b91505092915050565b60008060408385031215612edc57612edb612c54565b5b6000612eea85828601612cc8565b925050602083013567ffffffffffffffff811115612f0b57612f0a612c59565b5b612f1785828601612e97565b9150509250929050565b6000819050919050565b612f3481612f21565b82525050565b6000602082019050612f4f6000830184612f2b565b92915050565b612f5e81612cb6565b82525050565b6000602082019050612f796000830184612f55565b92915050565b612f8881612d15565b8114612f9357600080fd5b50565b600081359050612fa581612f7f565b92915050565b60008060408385031215612fc257612fc1612c54565b5b6000612fd085828601612cc8565b9250506020612fe185828601612f96565b9150509250929050565b600082825260208201905092915050565b7f5573657220616c726561647920426c61636b4c69737465640000000000000000600082015250565b6000613032601883612feb565b915061303d82612ffc565b602082019050919050565b6000602082019050818103600083015261306181613025565b9050919050565b7f5573657220697320626c61636b6c697374656400000000000000000000000000600082015250565b600061309e601383612feb565b91506130a982613068565b602082019050919050565b600060208201905081810360008301526130cd81613091565b9050919050565b7f5573657220616c726561647920616464656420617320666f7277617264657200600082015250565b600061310a601f83612feb565b9150613115826130d4565b602082019050919050565b60006020820190508181036000830152613139816130fd565b9050919050565b7f46756e6374696f6e206d7573742062652063616c6c6564207468726f7567682060008201527f64656c656761746563616c6c0000000000000000000000000000000000000000602082015250565b600061319c602c83612feb565b91506131a782613140565b604082019050919050565b600060208201905081810360008301526131cb8161318f565b9050919050565b7f46756e6374696f6e206d7573742062652063616c6c6564207468726f7567682060008201527f6163746976652070726f78790000000000000000000000000000000000000000602082015250565b600061322e602c83612feb565b9150613239826131d2565b604082019050919050565b6000602082019050818103600083015261325d81613221565b9050919050565b7f555550535570677261646561626c653a206d757374206e6f742062652063616c60008201527f6c6564207468726f7567682064656c656761746563616c6c0000000000000000602082015250565b60006132c0603883612feb565b91506132cb82613264565b604082019050919050565b600060208201905081810360008301526132ef816132b3565b9050919050565b7f55736572206e6f742077686974656c6973746564000000000000000000000000600082015250565b600061332c601483612feb565b9150613337826132f6565b602082019050919050565b6000602082019050818103600083015261335b8161331f565b9050919050565b7f496e697469616c697a61626c653a20636f6e747261637420697320616c72656160008201527f647920696e697469616c697a6564000000000000000000000000000000000000602082015250565b60006133be602e83612feb565b91506133c982613362565b604082019050919050565b600060208201905081810360008301526133ed816133b1565b9050919050565b6000819050919050565b600060ff82169050919050565b6000819050919050565b600061343061342b613426846133f4565b61340b565b6133fe565b9050919050565b61344081613415565b82525050565b600060208201905061345b6000830184613437565b92915050565b7f4e6f7420617574686f72697a6564000000000000000000000000000000000000600082015250565b6000613497600e83612feb565b91506134a282613461565b602082019050919050565b600060208201905081810360008301526134c68161348a565b9050919050565b7f55736572206973206e6f742061206d696e746572000000000000000000000000600082015250565b6000613503601483612feb565b915061350e826134cd565b602082019050919050565b60006020820190508181036000830152613532816134f6565b9050919050565b7f5573657220616c72656164792077686974656c69737465640000000000000000600082015250565b600061356f601883612feb565b915061357a82613539565b602082019050919050565b6000602082019050818103600083015261359e81613562565b9050919050565b7f436f6e747261637420646f6573206e6f74206578697374000000000000000000600082015250565b60006135db601783612feb565b91506135e6826135a5565b602082019050919050565b6000602082019050818103600083015261360a816135ce565b9050919050565b7f55736572206973206e6f74206120666f72776172646572000000000000000000600082015250565b6000613647601783612feb565b915061365282613611565b602082019050919050565b600060208201905081810360008301526136768161363a565b9050919050565b7f41646472657373206e6f742061204c6973746564205573657200000000000000600082015250565b60006136b3601983612feb565b91506136be8261367d565b602082019050919050565b600060208201905081810360008301526136e2816136a6565b9050919050565b7f436f6e747261637420616c726561647920616464656400000000000000000000600082015250565b600061371f601683612feb565b915061372a826136e9565b602082019050919050565b6000602082019050818103600083015261374e81613712565b9050919050565b7f5573657220616c7265616479206164646564206173206d696e74657200000000600082015250565b600061378b601c83612feb565b915061379682613755565b602082019050919050565b600060208201905081810360008301526137ba8161377e565b9050919050565b7f4f776e61626c653a206e6577206f776e657220697320746865207a65726f206160008201527f6464726573730000000000000000000000000000000000000000000000000000602082015250565b600061381d602683612feb565b9150613828826137c1565b604082019050919050565b6000602082019050818103600083015261384c81613810565b9050919050565b7f4f776e61626c653a2063616c6c6572206973206e6f7420746865206f776e6572600082015250565b6000613889602083612feb565b915061389482613853565b602082019050919050565b600060208201905081810360008301526138b88161387c565b9050919050565b6138c881612f21565b81146138d357600080fd5b50565b6000815190506138e5816138bf565b92915050565b60006020828403121561390157613900612c54565b5b600061390f848285016138d6565b91505092915050565b7f45524331393637557067726164653a206e657720696d706c656d656e7461746960008201527f6f6e206973206e6f742055555053000000000000000000000000000000000000602082015250565b6000613974602e83612feb565b915061397f82613918565b604082019050919050565b600060208201905081810360008301526139a381613967565b9050919050565b7f45524331393637557067726164653a20756e737570706f727465642070726f7860008201527f6961626c65555549440000000000000000000000000000000000000000000000602082015250565b6000613a06602983612feb565b9150613a11826139aa565b604082019050919050565b60006020820190508181036000830152613a35816139f9565b9050919050565b7f496e697469616c697a61626c653a20636f6e7472616374206973206e6f74206960008201527f6e697469616c697a696e67000000000000000000000000000000000000000000602082015250565b6000613a98602b83612feb565b9150613aa382613a3c565b604082019050919050565b60006020820190508181036000830152613ac781613a8b565b9050919050565b7f455243313936373a206e657720696d706c656d656e746174696f6e206973206e60008201527f6f74206120636f6e747261637400000000000000000000000000000000000000602082015250565b6000613b2a602d83612feb565b9150613b3582613ace565b604082019050919050565b60006020820190508181036000830152613b5981613b1d565b9050919050565b600081519050919050565b600081905092915050565b60005b83811015613b94578082015181840152602081019050613b79565b83811115613ba3576000848401525b50505050565b6000613bb482613b60565b613bbe8185613b6b565b9350613bce818560208601613b76565b80840191505092915050565b6000613be68284613ba9565b915081905092915050565b7f416464726573733a2063616c6c20746f206e6f6e2d636f6e7472616374000000600082015250565b6000613c27601d83612feb565b9150613c3282613bf1565b602082019050919050565b60006020820190508181036000830152613c5681613c1a565b9050919050565b600081519050919050565b6000613c7382613c5d565b613c7d8185612feb565b9350613c8d818560208601613b76565b613c9681612d89565b840191505092915050565b60006020820190508181036000830152613cbb8184613c68565b90509291505056fe416464726573733a206c6f772d6c6576656c2064656c65676174652063616c6c206661696c6564a26474726f6e582212201ce97dbc2f7db9a6d7faad0e21fda5b12eb513a010170def1ae0008eedc5002564736f6c634300080b0033",
  "source": "// SPDX-License-Identifier: MIT\npragma solidity ^0.8.7;\n\nimport \"@openzeppelin/contracts-upgradeable/proxy/utils/Initializable.sol\";\nimport \"@openzeppelin/contracts-upgradeable/access/OwnableUpgradeable.sol\";\nimport \"@openzeppelin/contracts-upgradeable/proxy/utils/UUPSUpgradeable.sol\";\nimport \"@openzeppelin/contracts-upgradeable/security/ReentrancyGuardUpgradeable.sol\";\n\ncontract Admin is\n    Initializable,\n    OwnableUpgradeable,\n    UUPSUpgradeable,\n    ReentrancyGuardUpgradeable\n{\n    // Mappings for managing roles\n    mapping(address => bool) public canForward;\n    mapping(address => bool) public canMint;\n    mapping(address => uint256) public mintAmount;\n    mapping(address => bool) public trustedContract;\n    mapping(address => bool) public isBlackListed;\n\n    // Mappings for whitelisting external and internal users\n    mapping(address => bool) public isExternalSenderWhitelisted;\n    mapping(address => bool) public isInternalUserWhitelisted;\n\n    // Events for tracking changes\n    event AddedBlackList(address indexed _user);\n    event RemovedBlackList(address indexed _user);\n    event MintAmountAdded(address indexed _user);\n    event MintAmountRemoved(address indexed _user);\n    event WhitelistedForwarder(address indexed _user);\n    event BlackListedForwarder(address indexed _user);\n    event WhitelistedMinter(address indexed _user);\n    event BlackListedMinter(address indexed _user);\n    event WhitelistedContract(address indexed _user);\n    event BlackListedContract(address indexed _user);\n    event WhitelistedExternalSender(address indexed _user);\n    event BlackListedExternalSender(address indexed _user);\n    event WhitelistedInternalUser(address indexed _user);\n    event BlackListedInternalUser(address indexed _user);\n\n    /// @custom:oz-upgrades-unsafe-allow constructor\n    constructor() initializer {}\n\n    // Initializer function for upgradeable contracts\n    function initialize() public initializer {\n        __Ownable_init();\n        __UUPSUpgradeable_init();\n        __ReentrancyGuard_init();\n\n        // Initialization logic\n        canForward[_msgSender()] = true;\n        canMint[_msgSender()] = true;\n    }\n\n    // Security Measures\n    modifier onlyOwnerOrTrustedContract() {\n        require(\n            owner() == _msgSender() || trustedContract[_msgSender()],\n            \"Not authorized\"\n        );\n        _;\n    }\n\n    modifier notBlacklisted(address _user) {\n        require(!isBlackListed[_user], \"User is blacklisted\");\n        _;\n    }\n\n    function addCanMint(\n        address _User\n    )\n        public\n        onlyOwnerOrTrustedContract\n        notBlacklisted(_User)\n        returns (bool)\n    {\n        require(!canMint[_User], \"User already added as minter\");\n        canMint[_User] = true;\n        emit WhitelistedMinter(_User);\n        return true;\n    }\n\n    function removeCanMint(\n        address _User\n    ) public onlyOwnerOrTrustedContract returns (bool) {\n        require(canMint[_User], \"User is not a minter\");\n        canMint[_User] = false;\n        emit BlackListedMinter(_User);\n        return true;\n    }\n\n    function addMintAmount(\n        address _User,\n        uint256 _Amount\n    ) public onlyOwner returns (bool) {\n        require(canMint[_User] == true);\n        mintAmount[_User] = _Amount;\n\n        emit MintAmountAdded(_User);\n\n        return true;\n    }\n\n    function removeMintAmount(address _User) public onlyOwner returns (bool) {\n        mintAmount[_User] = 0;\n\n        emit MintAmountRemoved(_User);\n\n        return true;\n    }\n\n     // Functions for managing external user whitelist\n    function whitelistExternalSender(\n        address _User\n    ) public onlyOwner returns (bool) {\n        require(\n            !isExternalSenderWhitelisted[_User],\n            \"User already whitelisted\"\n        );\n        isExternalSenderWhitelisted[_User] = true;\n        emit WhitelistedExternalSender(_User);\n        return true;\n    }\n\n    function blacklistExternalSender(\n        address _User\n    ) public onlyOwner returns (bool) {\n        require(isExternalSenderWhitelisted[_User], \"User not whitelisted\");\n        isExternalSenderWhitelisted[_User] = false;\n        emit BlackListedExternalSender(_User);\n        return true;\n    }\n    // Functions for managing forwarders and minters\n    function addCanForward(\n        address _User\n    )\n        public\n        onlyOwner\n        notBlacklisted(_User)\n        returns (bool)\n    {\n        require(!canForward[_User], \"User already added as forwarder\");\n        canForward[_User] = true;\n        emit WhitelistedForwarder(_User);\n        return true;\n    }\n\n    function removeCanForward(\n        address _User\n    ) public onlyOwner returns (bool) {\n        require(canForward[_User], \"User is not a forwarder\");\n        canForward[_User] = false;\n        emit BlackListedForwarder(_User);\n        return true;\n    }\n\n    // Adding trusted contracts\n    function addTrustedContract(\n        address _trustedContract\n    ) public onlyOwner returns (bool) {\n        require(!trustedContract[_trustedContract], \"Contract already added\");\n        trustedContract[_trustedContract] = true;\n        emit WhitelistedContract(_trustedContract);\n        return true;\n    }\n\n    function removeTrustedContract(\n        address _trustedContract\n    ) public onlyOwner returns (bool) {\n        require(trustedContract[_trustedContract], \"Contract does not exist\");\n        trustedContract[_trustedContract] = false;\n         emit BlackListedContract(_trustedContract);\n        return true;\n    }\n\n    function blacklistInternalUser(\n        address _User\n    ) public onlyOwner returns (bool) {\n        require(isInternalUserWhitelisted[_User], \"User not whitelisted\");\n        isInternalUserWhitelisted[_User] = false;\n        emit BlackListedInternalUser(_User);\n        return true;\n    }\n\n    // Functions for managing internal user whitelist\n    function whitelistInternalUser(\n        address _User\n    ) public onlyOwner returns (bool) {\n        require(!isInternalUserWhitelisted[_User], \"User already whitelisted\");\n        isInternalUserWhitelisted[_User] = true;\n        emit WhitelistedInternalUser(_User);\n        return true;\n    }\n\n    function addBlackList(address _evilUser) public onlyOwner {\n        require(!isBlackListed[_evilUser], \"User already BlackListed\");\n\n        isBlackListed[_evilUser] = true;\n\n        emit AddedBlackList(_evilUser);\n    }\n\n    function removeBlackList(\n        address _clearedUser\n    ) public onlyOwner returns (bool) {\n        require(isBlackListed[_clearedUser], \"Address not a Listed User\");\n\n        isBlackListed[_clearedUser] = false;\n\n        emit RemovedBlackList(_clearedUser);\n\n        return true;\n    }\n\n    // Authorize upgrades for UUPS proxy pattern\n    function _authorizeUpgrade(\n        address newImplementation\n    ) internal override onlyOwner {}\n}\n",
  "sourcePath": "/Users/charlesokaformbah/Projects/stablecoin-cngn/tron-contract/contracts/Operations.sol",
  "compiler": {
    "name": "solc",
    "version": "0.8.11+commit.b01f3284.mod.Emscripten.clang"
  },
  "schemaVersion": "2.0.1",
  "updatedAt": "2024-12-14T15:38:16.796Z"
}