{
  "contractName": "Admin",
  "abi": [
    {
      "anonymous": false,
      "inputs": [
        {
          "indexed": true,
          "internalType": "address",
          "name": "_user",
          "type": "address"
        }
      ],
      "name": "AddedBlackList",
      "type": "event"
    },
    {
      "anonymous": false,
      "inputs": [
        {
          "indexed": false,
          "internalType": "address",
          "name": "previousAdmin",
          "type": "address"
        },
        {
          "indexed": false,
          "internalType": "address",
          "name": "newAdmin",
          "type": "address"
        }
      ],
      "name": "AdminChanged",
      "type": "event"
    },
    {
      "anonymous": false,
      "inputs": [
        {
          "indexed": true,
          "internalType": "address",
          "name": "beacon",
          "type": "address"
        }
      ],
      "name": "BeaconUpgraded",
      "type": "event"
    },
    {
      "anonymous": false,
      "inputs": [
        {
          "indexed": true,
          "internalType": "address",
          "name": "_user",
          "type": "address"
        }
      ],
      "name": "BlackListedContract",
      "type": "event"
    },
    {
      "anonymous": false,
      "inputs": [
        {
          "indexed": true,
          "internalType": "address",
          "name": "_user",
          "type": "address"
        }
      ],
      "name": "BlackListedExternalSender",
      "type": "event"
    },
    {
      "anonymous": false,
      "inputs": [
        {
          "indexed": true,
          "internalType": "address",
          "name": "_user",
          "type": "address"
        }
      ],
      "name": "BlackListedForwarder",
      "type": "event"
    },
    {
      "anonymous": false,
      "inputs": [
        {
          "indexed": true,
          "internalType": "address",
          "name": "_user",
          "type": "address"
        }
      ],
      "name": "BlackListedInternalUser",
      "type": "event"
    },
    {
      "anonymous": false,
      "inputs": [
        {
          "indexed": true,
          "internalType": "address",
          "name": "_user",
          "type": "address"
        }
      ],
      "name": "BlackListedMinter",
      "type": "event"
    },
    {
      "anonymous": false,
      "inputs": [
        {
          "indexed": false,
          "internalType": "uint8",
          "name": "version",
          "type": "uint8"
        }
      ],
      "name": "Initialized",
      "type": "event"
    },
    {
      "anonymous": false,
      "inputs": [
        {
          "indexed": true,
          "internalType": "address",
          "name": "_user",
          "type": "address"
        }
      ],
      "name": "MintAmountAdded",
      "type": "event"
    },
    {
      "anonymous": false,
      "inputs": [
        {
          "indexed": true,
          "internalType": "address",
          "name": "_user",
          "type": "address"
        }
      ],
      "name": "MintAmountRemoved",
      "type": "event"
    },
    {
      "anonymous": false,
      "inputs": [
        {
          "indexed": true,
          "internalType": "address",
          "name": "previousOwner",
          "type": "address"
        },
        {
          "indexed": true,
          "internalType": "address",
          "name": "newOwner",
          "type": "address"
        }
      ],
      "name": "OwnershipTransferred",
      "type": "event"
    },
    {
      "anonymous": false,
      "inputs": [
        {
          "indexed": true,
          "internalType": "address",
          "name": "_user",
          "type": "address"
        }
      ],
      "name": "RemovedBlackList",
      "type": "event"
    },
    {
      "anonymous": false,
      "inputs": [
        {
          "indexed": true,
          "internalType": "address",
          "name": "implementation",
          "type": "address"
        }
      ],
      "name": "Upgraded",
      "type": "event"
    },
    {
      "anonymous": false,
      "inputs": [
        {
          "indexed": true,
          "internalType": "address",
          "name": "_user",
          "type": "address"
        }
      ],
      "name": "WhitelistedContract",
      "type": "event"
    },
    {
      "anonymous": false,
      "inputs": [
        {
          "indexed": true,
          "internalType": "address",
          "name": "_user",
          "type": "address"
        }
      ],
      "name": "WhitelistedExternalSender",
      "type": "event"
    },
    {
      "anonymous": false,
      "inputs": [
        {
          "indexed": true,
          "internalType": "address",
          "name": "_user",
          "type": "address"
        }
      ],
      "name": "WhitelistedForwarder",
      "type": "event"
    },
    {
      "anonymous": false,
      "inputs": [
        {
          "indexed": true,
          "internalType": "address",
          "name": "_user",
          "type": "address"
        }
      ],
      "name": "WhitelistedInternalUser",
      "type": "event"
    },
    {
      "anonymous": false,
      "inputs": [
        {
          "indexed": true,
          "internalType": "address",
          "name": "_user",
          "type": "address"
        }
      ],
      "name": "WhitelistedMinter",
      "type": "event"
    },
    {
      "inputs": [
        {
          "internalType": "address",
          "name": "_evilUser",
          "type": "address"
        }
      ],
      "name": "addBlackList",
      "outputs": [],
      "stateMutability": "nonpayable",
      "type": "function"
    },
    {
      "inputs": [
        {
          "internalType": "address",
          "name": "_User",
          "type": "address"
        }
      ],
      "name": "addCanForward",
      "outputs": [
        {
          "internalType": "bool",
          "name": "",
          "type": "bool"
        }
      ],
      "stateMutability": "nonpayable",
      "type": "function"
    },
    {
      "inputs": [
        {
          "internalType": "address",
          "name": "_User",
          "type": "address"
        }
      ],
      "name": "addCanMint",
      "outputs": [
        {
          "internalType": "bool",
          "name": "",
          "type": "bool"
        }
      ],
      "stateMutability": "nonpayable",
      "type": "function"
    },
    {
      "inputs": [
        {
          "internalType": "address",
          "name": "_User",
          "type": "address"
        },
        {
          "internalType": "uint256",
          "name": "_Amount",
          "type": "uint256"
        }
      ],
      "name": "addMintAmount",
      "outputs": [
        {
          "internalType": "bool",
          "name": "",
          "type": "bool"
        }
      ],
      "stateMutability": "nonpayable",
      "type": "function"
    },
    {
      "inputs": [
        {
          "internalType": "address",
          "name": "_trustedContract",
          "type": "address"
        }
      ],
      "name": "addTrustedContract",
      "outputs": [
        {
          "internalType": "bool",
          "name": "",
          "type": "bool"
        }
      ],
      "stateMutability": "nonpayable",
      "type": "function"
    },
    {
      "inputs": [
        {
          "internalType": "address",
          "name": "_User",
          "type": "address"
        }
      ],
      "name": "blacklistExternalSender",
      "outputs": [
        {
          "internalType": "bool",
          "name": "",
          "type": "bool"
        }
      ],
      "stateMutability": "nonpayable",
      "type": "function"
    },
    {
      "inputs": [
        {
          "internalType": "address",
          "name": "_User",
          "type": "address"
        }
      ],
      "name": "blacklistInternalUser",
      "outputs": [
        {
          "internalType": "bool",
          "name": "",
          "type": "bool"
        }
      ],
      "stateMutability": "nonpayable",
      "type": "function"
    },
    {
      "inputs": [
        {
          "internalType": "address",
          "name": "",
          "type": "address"
        }
      ],
      "name": "canForward",
      "outputs": [
        {
          "internalType": "bool",
          "name": "",
          "type": "bool"
        }
      ],
      "stateMutability": "view",
      "type": "function"
    },
    {
      "inputs": [
        {
          "internalType": "address",
          "name": "",
          "type": "address"
        }
      ],
      "name": "canMint",
      "outputs": [
        {
          "internalType": "bool",
          "name": "",
          "type": "bool"
        }
      ],
      "stateMutability": "view",
      "type": "function"
    },
    {
      "inputs": [],
      "name": "initialize",
      "outputs": [],
      "stateMutability": "nonpayable",
      "type": "function"
    },
    {
      "inputs": [
        {
          "internalType": "address",
          "name": "",
          "type": "address"
        }
      ],
      "name": "isBlackListed",
      "outputs": [
        {
          "internalType": "bool",
          "name": "",
          "type": "bool"
        }
      ],
      "stateMutability": "view",
      "type": "function"
    },
    {
      "inputs": [
        {
          "internalType": "address",
          "name": "",
          "type": "address"
        }
      ],
      "name": "isExternalSenderWhitelisted",
      "outputs": [
        {
          "internalType": "bool",
          "name": "",
          "type": "bool"
        }
      ],
      "stateMutability": "view",
      "type": "function"
    },
    {
      "inputs": [
        {
          "internalType": "address",
          "name": "",
          "type": "address"
        }
      ],
      "name": "isInternalUserWhitelisted",
      "outputs": [
        {
          "internalType": "bool",
          "name": "",
          "type": "bool"
        }
      ],
      "stateMutability": "view",
      "type": "function"
    },
    {
      "inputs": [
        {
          "internalType": "address",
          "name": "",
          "type": "address"
        }
      ],
      "name": "mintAmount",
      "outputs": [
        {
          "internalType": "uint256",
          "name": "",
          "type": "uint256"
        }
      ],
      "stateMutability": "view",
      "type": "function"
    },
    {
      "inputs": [],
      "name": "owner",
      "outputs": [
        {
          "internalType": "address",
          "name": "",
          "type": "address"
        }
      ],
      "stateMutability": "view",
      "type": "function"
    },
    {
      "inputs": [],
      "name": "proxiableUUID",
      "outputs": [
        {
          "internalType": "bytes32",
          "name": "",
          "type": "bytes32"
        }
      ],
      "stateMutability": "view",
      "type": "function"
    },
    {
      "inputs": [
        {
          "internalType": "address",
          "name": "_clearedUser",
          "type": "address"
        }
      ],
      "name": "removeBlackList",
      "outputs": [
        {
          "internalType": "bool",
          "name": "",
          "type": "bool"
        }
      ],
      "stateMutability": "nonpayable",
      "type": "function"
    },
    {
      "inputs": [
        {
          "internalType": "address",
          "name": "_User",
          "type": "address"
        }
      ],
      "name": "removeCanForward",
      "outputs": [
        {
          "internalType": "bool",
          "name": "",
          "type": "bool"
        }
      ],
      "stateMutability": "nonpayable",
      "type": "function"
    },
    {
      "inputs": [
        {
          "internalType": "address",
          "name": "_User",
          "type": "address"
        }
      ],
      "name": "removeCanMint",
      "outputs": [
        {
          "internalType": "bool",
          "name": "",
          "type": "bool"
        }
      ],
      "stateMutability": "nonpayable",
      "type": "function"
    },
    {
      "inputs": [
        {
          "internalType": "address",
          "name": "_User",
          "type": "address"
        }
      ],
      "name": "removeMintAmount",
      "outputs": [
        {
          "internalType": "bool",
          "name": "",
          "type": "bool"
        }
      ],
      "stateMutability": "nonpayable",
      "type": "function"
    },
    {
      "inputs": [
        {
          "internalType": "address",
          "name": "_trustedContract",
          "type": "address"
        }
      ],
      "name": "removeTrustedContract",
      "outputs": [
        {
          "internalType": "bool",
          "name": "",
          "type": "bool"
        }
      ],
      "stateMutability": "nonpayable",
      "type": "function"
    },
    {
      "inputs": [],
      "name": "renounceOwnership",
      "outputs": [],
      "stateMutability": "nonpayable",
      "type": "function"
    },
    {
      "inputs": [
        {
          "internalType": "address",
          "name": "newOwner",
          "type": "address"
        }
      ],
      "name": "transferOwnership",
      "outputs": [],
      "stateMutability": "nonpayable",
      "type": "function"
    },
    {
      "inputs": [
        {
          "internalType": "address",
          "name": "",
          "type": "address"
        }
      ],
      "name": "trustedContract",
      "outputs": [
        {
          "internalType": "bool",
          "name": "",
          "type": "bool"
        }
      ],
      "stateMutability": "view",
      "type": "function"
    },
    {
      "inputs": [
        {
          "internalType": "address",
          "name": "newImplementation",
          "type": "address"
        }
      ],
      "name": "upgradeTo",
      "outputs": [],
      "stateMutability": "nonpayable",
      "type": "function"
    },
    {
      "inputs": [
        {
          "internalType": "address",
          "name": "newImplementation",
          "type": "address"
        },
        {
          "internalType": "bytes",
          "name": "data",
          "type": "bytes"
        }
      ],
      "name": "upgradeToAndCall",
      "outputs": [],
      "stateMutability": "payable",
      "type": "function"
    },
    {
      "inputs": [
        {
          "internalType": "address",
          "name": "_User",
          "type": "address"
        }
      ],
      "name": "whitelistExternalSender",
      "outputs": [
        {
          "internalType": "bool",
          "name": "",
          "type": "bool"
        }
      ],
      "stateMutability": "nonpayable",
      "type": "function"
    },
    {
      "inputs": [
        {
          "internalType": "address",
          "name": "_User",
          "type": "address"
        }
      ],
      "name": "whitelistInternalUser",
      "outputs": [
        {
          "internalType": "bool",
          "name": "",
          "type": "bool"
        }
      ],
      "stateMutability": "nonpayable",
      "type": "function"
    }
  ],
  "bytecode": "0x60a06040523073ffffffffffffffffffffffffffffffffffffffff1660809073ffffffffffffffffffffffffffffffffffffffff16815250348015610042575f80fd5b50d3801561004e575f80fd5b50d2801561005a575f80fd5b50608051613a9f620000905f395f8181610d0a01528181610d9801528181610eae01528181610f3c0152610feb0152613a9f5ff3fe6080604052600436106101b6575f3560e01c80638da5cb5b116100eb578063e160587f11610089578063e9f2216911610063578063e9f22169146108ca578063f0314df01461091e578063f0d39ad114610972578063f2fde38b146109c6576101b6565b8063e160587f146107ce578063e47d606014610822578063e4997dc514610876576101b6565b8063b85282a3116100c5578063b85282a31461067e578063bf892eaa146106d2578063bfc5181b14610726578063c2ba47441461077a576101b6565b80638da5cb5b146105945780639e1a15f0146105d6578063b4f76a101461062a576101b6565b8063542f16d411610158578063715018a611610132578063715018a6146104905780638061f132146104be5780638129fc1c146105125780638a4e0ace14610540576101b6565b8063542f16d4146103945780635efd3765146103e857806365edf6101461043c576101b6565b80633659cfe6116101945780633659cfe6146102a25780633fd0966e146102e25780634f1ef2861461033657806352d1902d14610352576101b6565b8063055d822c146101ba5780630ecb93c01461020e578063176583d61461024e575b5f80fd5b3480156101c5575f80fd5b50d380156101d1575f80fd5b50d280156101dd575f80fd5b506101f860048036038101906101f39190612afe565b610a06565b6040516102059190612b41565b60405180910390f35b348015610219575f80fd5b50d38015610225575f80fd5b50d28015610231575f80fd5b5061024c60048036038101906102479190612afe565b610a1b565b005b348015610259575f80fd5b50d38015610265575f80fd5b50d28015610271575f80fd5b5061028c60048036038101906102879190612afe565b610b48565b6040516102999190612b74565b60405180910390f35b3480156102ad575f80fd5b50d380156102b9575f80fd5b50d280156102c5575f80fd5b506102e060048036038101906102db9190612afe565b610d08565b005b3480156102ed575f80fd5b50d380156102f9575f80fd5b50d28015610305575f80fd5b50610320600480360381019061031b9190612afe565b610e8e565b60405161032d9190612b74565b60405180910390f35b610350600480360381019061034b9190612cc9565b610eac565b005b34801561035d575f80fd5b50d38015610369575f80fd5b50d28015610375575f80fd5b5061037e610fe8565b60405161038b9190612d3b565b60405180910390f35b34801561039f575f80fd5b50d380156103ab575f80fd5b50d280156103b7575f80fd5b506103d260048036038101906103cd9190612afe565b61109f565b6040516103df9190612b74565b60405180910390f35b3480156103f3575f80fd5b50d380156103ff575f80fd5b50d2801561040b575f80fd5b5061042660048036038101906104219190612afe565b6111d3565b6040516104339190612b74565b60405180910390f35b348015610447575f80fd5b50d38015610453575f80fd5b50d2801561045f575f80fd5b5061047a60048036038101906104759190612afe565b6111f1565b6040516104879190612b74565b60405180910390f35b34801561049b575f80fd5b50d380156104a7575f80fd5b50d280156104b3575f80fd5b506104bc61120e565b005b3480156104c9575f80fd5b50d380156104d5575f80fd5b50d280156104e1575f80fd5b506104fc60048036038101906104f79190612afe565b611221565b6040516105099190612b74565b60405180910390f35b34801561051d575f80fd5b50d38015610529575f80fd5b50d28015610535575f80fd5b5061053e61123e565b005b34801561054b575f80fd5b50d38015610557575f80fd5b50d28015610563575f80fd5b5061057e60048036038101906105799190612afe565b61143e565b60405161058b9190612b74565b60405180910390f35b34801561059f575f80fd5b50d380156105ab575f80fd5b50d280156105b7575f80fd5b506105c0611568565b6040516105cd9190612d63565b60405180910390f35b3480156105e1575f80fd5b50d380156105ed575f80fd5b50d280156105f9575f80fd5b50610614600480360381019061060f9190612afe565b611590565b6040516106219190612b74565b60405180910390f35b348015610635575f80fd5b50d38015610641575f80fd5b50d2801561064d575f80fd5b5061066860048036038101906106639190612afe565b6116c4565b6040516106759190612b74565b60405180910390f35b348015610689575f80fd5b50d38015610695575f80fd5b50d280156106a1575f80fd5b506106bc60048036038101906106b79190612afe565b61175b565b6040516106c99190612b74565b60405180910390f35b3480156106dd575f80fd5b50d380156106e9575f80fd5b50d280156106f5575f80fd5b50610710600480360381019061070b9190612afe565b611891565b60405161071d9190612b74565b60405180910390f35b348015610731575f80fd5b50d3801561073d575f80fd5b50d28015610749575f80fd5b50610764600480360381019061075f9190612afe565b6119c3565b6040516107719190612b74565b60405180910390f35b348015610785575f80fd5b50d38015610791575f80fd5b50d2801561079d575f80fd5b506107b860048036038101906107b39190612afe565b611af5565b6040516107c59190612b74565b60405180910390f35b3480156107d9575f80fd5b50d380156107e5575f80fd5b50d280156107f1575f80fd5b5061080c60048036038101906108079190612afe565b611b12565b6040516108199190612b74565b60405180910390f35b34801561082d575f80fd5b50d38015610839575f80fd5b50d28015610845575f80fd5b50610860600480360381019061085b9190612afe565b611c48565b60405161086d9190612b74565b60405180910390f35b348015610881575f80fd5b50d3801561088d575f80fd5b50d28015610899575f80fd5b506108b460048036038101906108af9190612afe565b611c65565b6040516108c19190612b74565b60405180910390f35b3480156108d5575f80fd5b50d380156108e1575f80fd5b50d280156108ed575f80fd5b5061090860048036038101906109039190612da6565b611d97565b6040516109159190612b74565b60405180910390f35b348015610929575f80fd5b50d38015610935575f80fd5b50d28015610941575f80fd5b5061095c60048036038101906109579190612afe565b611e88565b6040516109699190612b74565b60405180910390f35b34801561097d575f80fd5b50d38015610989575f80fd5b50d28015610995575f80fd5b506109b060048036038101906109ab9190612afe565b611fbc565b6040516109bd9190612b74565b60405180910390f35b3480156109d1575f80fd5b50d380156109dd575f80fd5b50d280156109e9575f80fd5b50610a0460048036038101906109ff9190612afe565b612248565b005b60fd602052805f5260405f205f915090505481565b610a236122ca565b60ff5f8273ffffffffffffffffffffffffffffffffffffffff1673ffffffffffffffffffffffffffffffffffffffff1681526020019081526020015f205f9054906101000a900460ff1615610aad576040517f08c379a0000000000000000000000000000000000000000000000000000000008152600401610aa490612e3e565b60405180910390fd5b600160ff5f8373ffffffffffffffffffffffffffffffffffffffff1673ffffffffffffffffffffffffffffffffffffffff1681526020019081526020015f205f6101000a81548160ff0219169083151502179055508073ffffffffffffffffffffffffffffffffffffffff167f42e160154868087d6bfdc0ca23d96a1c1cfa32f1b72ba9ba27b69b98a0d819dc60405160405180910390a250565b5f610b516122ca565b8160ff5f8273ffffffffffffffffffffffffffffffffffffffff1673ffffffffffffffffffffffffffffffffffffffff1681526020019081526020015f205f9054906101000a900460ff1615610bdc576040517f08c379a0000000000000000000000000000000000000000000000000000000008152600401610bd390612ea6565b60405180910390fd5b60fb5f8473ffffffffffffffffffffffffffffffffffffffff1673ffffffffffffffffffffffffffffffffffffffff1681526020019081526020015f205f9054906101000a900460ff1615610c66576040517f08c379a0000000000000000000000000000000000000000000000000000000008152600401610c5d90612f0e565b60405180910390fd5b600160fb5f8573ffffffffffffffffffffffffffffffffffffffff1673ffffffffffffffffffffffffffffffffffffffff1681526020019081526020015f205f6101000a81548160ff0219169083151502179055508273ffffffffffffffffffffffffffffffffffffffff167f6570102f70c9f7018c7b17caf1de30d3c3861a41bafd23f66ac943e448c50b5c60405160405180910390a26001915050919050565b7f000000000000000000000000000000000000000000000000000000000000000073ffffffffffffffffffffffffffffffffffffffff163073ffffffffffffffffffffffffffffffffffffffff1603610d96576040517f08c379a0000000000000000000000000000000000000000000000000000000008152600401610d8d90612f9c565b60405180910390fd5b7f000000000000000000000000000000000000000000000000000000000000000073ffffffffffffffffffffffffffffffffffffffff16610dd5612348565b73ffffffffffffffffffffffffffffffffffffffff1614610e2b576040517f08c379a0000000000000000000000000000000000000000000000000000000008152600401610e229061302a565b60405180910390fd5b610e348161239b565b610e8b815f67ffffffffffffffff811115610e5257610e51612ba5565b5b6040519080825280601f01601f191660200182016040528015610e845781602001600182028036833780820191505090505b505f6123a6565b50565b610101602052805f5260405f205f915054906101000a900460ff1681565b7f000000000000000000000000000000000000000000000000000000000000000073ffffffffffffffffffffffffffffffffffffffff163073ffffffffffffffffffffffffffffffffffffffff1603610f3a576040517f08c379a0000000000000000000000000000000000000000000000000000000008152600401610f3190612f9c565b60405180910390fd5b7f000000000000000000000000000000000000000000000000000000000000000073ffffffffffffffffffffffffffffffffffffffff16610f79612348565b73ffffffffffffffffffffffffffffffffffffffff1614610fcf576040517f08c379a0000000000000000000000000000000000000000000000000000000008152600401610fc69061302a565b60405180910390fd5b610fd88261239b565b610fe4828260016123a6565b5050565b5f7f000000000000000000000000000000000000000000000000000000000000000073ffffffffffffffffffffffffffffffffffffffff163073ffffffffffffffffffffffffffffffffffffffff1614611077576040517f08c379a000000000000000000000000000000000000000000000000000000000815260040161106e906130b8565b60405180910390fd5b7f360894a13ba1a3210667c828492db98dca3e2076cc3735a920a3ca505d382bbc5f1b905090565b5f6110a86122ca565b6101005f8373ffffffffffffffffffffffffffffffffffffffff1673ffffffffffffffffffffffffffffffffffffffff1681526020019081526020015f205f9054906101000a900460ff16611132576040517f08c379a000000000000000000000000000000000000000000000000000000000815260040161112990613120565b60405180910390fd5b5f6101005f8473ffffffffffffffffffffffffffffffffffffffff1673ffffffffffffffffffffffffffffffffffffffff1681526020019081526020015f205f6101000a81548160ff0219169083151502179055508173ffffffffffffffffffffffffffffffffffffffff167f99af21e3b1fe524ff7364b59a8df3562393f2e5eb5d1377702fe2688e075dad660405160405180910390a260019050919050565b610100602052805f5260405f205f915054906101000a900460ff1681565b60fb602052805f5260405f205f915054906101000a900460ff1681565b6112166122ca565b61121f5f612510565b565b60fe602052805f5260405f205f915054906101000a900460ff1681565b5f8060019054906101000a900460ff1615905080801561126d575060015f8054906101000a900460ff1660ff16105b80611299575061127c306125d3565b158015611298575060015f8054906101000a900460ff1660ff16145b5b6112d8576040517f08c379a00000000000000000000000000000000000000000000000000000000081526004016112cf906131ae565b60405180910390fd5b60015f806101000a81548160ff021916908360ff16021790555080156113135760015f60016101000a81548160ff0219169083151502179055505b61131b6125f5565b61132361264d565b61132b6126a5565b600160fb5f6113386126f5565b73ffffffffffffffffffffffffffffffffffffffff1673ffffffffffffffffffffffffffffffffffffffff1681526020019081526020015f205f6101000a81548160ff021916908315150217905550600160fc5f6113946126f5565b73ffffffffffffffffffffffffffffffffffffffff1673ffffffffffffffffffffffffffffffffffffffff1681526020019081526020015f205f6101000a81548160ff021916908315150217905550801561143b575f8060016101000a81548160ff0219169083151502179055507f7f26b83ff96e1f2b6a682f133852f6798a09c465da95921460cefb38474024986001604051611432919061321a565b60405180910390a15b50565b5f60fc5f8373ffffffffffffffffffffffffffffffffffffffff1673ffffffffffffffffffffffffffffffffffffffff1681526020019081526020015f205f9054906101000a900460ff166114c8576040517f08c379a00000000000000000000000000000000000000000000000000000000081526004016114bf9061327d565b60405180910390fd5b5f60fc5f8473ffffffffffffffffffffffffffffffffffffffff1673ffffffffffffffffffffffffffffffffffffffff1681526020019081526020015f205f6101000a81548160ff0219169083151502179055508173ffffffffffffffffffffffffffffffffffffffff167fb8d6072435c030a71f32e447622d98725fd3f3540e1dc57720bb54b17ca3af8960405160405180910390a260019050919050565b5f60335f9054906101000a900473ffffffffffffffffffffffffffffffffffffffff16905090565b5f6115996122ca565b6101015f8373ffffffffffffffffffffffffffffffffffffffff1673ffffffffffffffffffffffffffffffffffffffff1681526020019081526020015f205f9054906101000a900460ff16611623576040517f08c379a000000000000000000000000000000000000000000000000000000000815260040161161a90613120565b60405180910390fd5b5f6101015f8473ffffffffffffffffffffffffffffffffffffffff1673ffffffffffffffffffffffffffffffffffffffff1681526020019081526020015f205f6101000a81548160ff0219169083151502179055508173ffffffffffffffffffffffffffffffffffffffff167f1add56ac7cce24bb03f68cc192c7e23ff52c253256412380960e1495d16351f660405160405180910390a260019050919050565b5f6116cd6122ca565b5f60fd5f8473ffffffffffffffffffffffffffffffffffffffff1673ffffffffffffffffffffffffffffffffffffffff1681526020019081526020015f20819055508173ffffffffffffffffffffffffffffffffffffffff167f4ceebd8137e5ac28cab2b8449582c83280b976ce1884eb71d861739885f347bc60405160405180910390a260019050919050565b5f6117646122ca565b6101005f8373ffffffffffffffffffffffffffffffffffffffff1673ffffffffffffffffffffffffffffffffffffffff1681526020019081526020015f205f9054906101000a900460ff16156117ef576040517f08c379a00000000000000000000000000000000000000000000000000000000081526004016117e6906132e5565b60405180910390fd5b60016101005f8473ffffffffffffffffffffffffffffffffffffffff1673ffffffffffffffffffffffffffffffffffffffff1681526020019081526020015f205f6101000a81548160ff0219169083151502179055508173ffffffffffffffffffffffffffffffffffffffff167fbfa7e9dc90e3e7bcecdb459db0f2e3ae408ffbf687e970bb4a957c11d0d79e5460405160405180910390a260019050919050565b5f61189a6122ca565b60fe5f8373ffffffffffffffffffffffffffffffffffffffff1673ffffffffffffffffffffffffffffffffffffffff1681526020019081526020015f205f9054906101000a900460ff16611923576040517f08c379a000000000000000000000000000000000000000000000000000000000815260040161191a9061334d565b60405180910390fd5b5f60fe5f8473ffffffffffffffffffffffffffffffffffffffff1673ffffffffffffffffffffffffffffffffffffffff1681526020019081526020015f205f6101000a81548160ff0219169083151502179055508173ffffffffffffffffffffffffffffffffffffffff167f0d0d357bcf48438779e1fe617697436a250202039825d4d84bf697d9a419ba6a60405160405180910390a260019050919050565b5f6119cc6122ca565b60fb5f8373ffffffffffffffffffffffffffffffffffffffff1673ffffffffffffffffffffffffffffffffffffffff1681526020019081526020015f205f9054906101000a900460ff16611a55576040517f08c379a0000000000000000000000000000000000000000000000000000000008152600401611a4c906133b5565b60405180910390fd5b5f60fb5f8473ffffffffffffffffffffffffffffffffffffffff1673ffffffffffffffffffffffffffffffffffffffff1681526020019081526020015f205f6101000a81548160ff0219169083151502179055508173ffffffffffffffffffffffffffffffffffffffff167fa7faa16f6ece47894ac31f42e1301d11bd28001e31aaac4e028c4f80757e0dc360405160405180910390a260019050919050565b60fc602052805f5260405f205f915054906101000a900460ff1681565b5f611b1b6122ca565b6101015f8373ffffffffffffffffffffffffffffffffffffffff1673ffffffffffffffffffffffffffffffffffffffff1681526020019081526020015f205f9054906101000a900460ff1615611ba6576040517f08c379a0000000000000000000000000000000000000000000000000000000008152600401611b9d906132e5565b60405180910390fd5b60016101015f8473ffffffffffffffffffffffffffffffffffffffff1673ffffffffffffffffffffffffffffffffffffffff1681526020019081526020015f205f6101000a81548160ff0219169083151502179055508173ffffffffffffffffffffffffffffffffffffffff167f4acf47ffbc39e4e8df31ec82d5707f7aa51ce419a915f50eec70e8aa74c82f7d60405160405180910390a260019050919050565b60ff602052805f5260405f205f915054906101000a900460ff1681565b5f611c6e6122ca565b60ff5f8373ffffffffffffffffffffffffffffffffffffffff1673ffffffffffffffffffffffffffffffffffffffff1681526020019081526020015f205f9054906101000a900460ff16611cf7576040517f08c379a0000000000000000000000000000000000000000000000000000000008152600401611cee9061341d565b60405180910390fd5b5f60ff5f8473ffffffffffffffffffffffffffffffffffffffff1673ffffffffffffffffffffffffffffffffffffffff1681526020019081526020015f205f6101000a81548160ff0219169083151502179055508173ffffffffffffffffffffffffffffffffffffffff167fd7e9ec6e6ecd65492dce6bf513cd6867560d49544421d0783ddf06e76c24470c60405160405180910390a260019050919050565b5f611da06122ca565b6001151560fc5f8573ffffffffffffffffffffffffffffffffffffffff1673ffffffffffffffffffffffffffffffffffffffff1681526020019081526020015f205f9054906101000a900460ff16151514611df9575f80fd5b8160fd5f8573ffffffffffffffffffffffffffffffffffffffff1673ffffffffffffffffffffffffffffffffffffffff1681526020019081526020015f20819055508273ffffffffffffffffffffffffffffffffffffffff167f36e552943925ad9bcbfaad94a0bb4cd68a1ff6c8759d3b7b04e04808876322e560405160405180910390a26001905092915050565b5f611e916122ca565b60fe5f8373ffffffffffffffffffffffffffffffffffffffff1673ffffffffffffffffffffffffffffffffffffffff1681526020019081526020015f205f9054906101000a900460ff1615611f1b576040517f08c379a0000000000000000000000000000000000000000000000000000000008152600401611f1290613485565b60405180910390fd5b600160fe5f8473ffffffffffffffffffffffffffffffffffffffff1673ffffffffffffffffffffffffffffffffffffffff1681526020019081526020015f205f6101000a81548160ff0219169083151502179055508173ffffffffffffffffffffffffffffffffffffffff167ff3f8e46041656d3246396bd12bf0589e2615cd3b518ac09e1ca7af53f7f4012460405160405180910390a260019050919050565b5f611fc56126f5565b73ffffffffffffffffffffffffffffffffffffffff16611fe3611568565b73ffffffffffffffffffffffffffffffffffffffff161480612052575060fe5f61200b6126f5565b73ffffffffffffffffffffffffffffffffffffffff1673ffffffffffffffffffffffffffffffffffffffff1681526020019081526020015f205f9054906101000a900460ff165b612091576040517f08c379a0000000000000000000000000000000000000000000000000000000008152600401612088906134ed565b60405180910390fd5b8160ff5f8273ffffffffffffffffffffffffffffffffffffffff1673ffffffffffffffffffffffffffffffffffffffff1681526020019081526020015f205f9054906101000a900460ff161561211c576040517f08c379a000000000000000000000000000000000000000000000000000000000815260040161211390612ea6565b60405180910390fd5b60fc5f8473ffffffffffffffffffffffffffffffffffffffff1673ffffffffffffffffffffffffffffffffffffffff1681526020019081526020015f205f9054906101000a900460ff16156121a6576040517f08c379a000000000000000000000000000000000000000000000000000000000815260040161219d90613555565b60405180910390fd5b600160fc5f8573ffffffffffffffffffffffffffffffffffffffff1673ffffffffffffffffffffffffffffffffffffffff1681526020019081526020015f205f6101000a81548160ff0219169083151502179055508273ffffffffffffffffffffffffffffffffffffffff167fa7bc6cbcc74fbb036defe7be7aa46cf2177c9dac567d24583c365e420ac5e4a460405160405180910390a26001915050919050565b6122506122ca565b5f73ffffffffffffffffffffffffffffffffffffffff168173ffffffffffffffffffffffffffffffffffffffff16036122be576040517f08c379a00000000000000000000000000000000000000000000000000000000081526004016122b5906135e3565b60405180910390fd5b6122c781612510565b50565b6122d26126f5565b73ffffffffffffffffffffffffffffffffffffffff166122f0611568565b73ffffffffffffffffffffffffffffffffffffffff1614612346576040517f08c379a000000000000000000000000000000000000000000000000000000000815260040161233d9061364b565b60405180910390fd5b565b5f6123747f360894a13ba1a3210667c828492db98dca3e2076cc3735a920a3ca505d382bbc5f1b6126fc565b5f015f9054906101000a900473ffffffffffffffffffffffffffffffffffffffff16905090565b6123a36122ca565b50565b6123d17f4910fdfa16fed3260ed0e7147f7cc6da11a60208b5b9406d12a635614ffd91435f1b612705565b5f015f9054906101000a900460ff16156123f3576123ee8361270e565b61250b565b8273ffffffffffffffffffffffffffffffffffffffff166352d1902d6040518163ffffffff1660e01b8152600401602060405180830381865afa92505050801561245b57506040513d601f19601f820116820180604052508101906124589190613693565b60015b61249a576040517f08c379a00000000000000000000000000000000000000000000000000000000081526004016124919061372e565b60405180910390fd5b7f360894a13ba1a3210667c828492db98dca3e2076cc3735a920a3ca505d382bbc5f1b81146124fe576040517f08c379a00000000000000000000000000000000000000000000000000000000081526004016124f5906137bc565b60405180910390fd5b5061250a8383836127c4565b5b505050565b5f60335f9054906101000a900473ffffffffffffffffffffffffffffffffffffffff1690508160335f6101000a81548173ffffffffffffffffffffffffffffffffffffffff021916908373ffffffffffffffffffffffffffffffffffffffff1602179055508173ffffffffffffffffffffffffffffffffffffffff168173ffffffffffffffffffffffffffffffffffffffff167f8be0079c531659141344cd1fd0a4f28419497f9722a3daafe3b4186f6b6457e060405160405180910390a35050565b5f808273ffffffffffffffffffffffffffffffffffffffff163b119050919050565b5f60019054906101000a900460ff16612643576040517f08c379a000000000000000000000000000000000000000000000000000000000815260040161263a9061384a565b60405180910390fd5b61264b6127ef565b565b5f60019054906101000a900460ff1661269b576040517f08c379a00000000000000000000000000000000000000000000000000000000081526004016126929061384a565b60405180910390fd5b6126a361284f565b565b5f60019054906101000a900460ff166126f3576040517f08c379a00000000000000000000000000000000000000000000000000000000081526004016126ea9061384a565b60405180910390fd5b565b5f33905090565b5f819050919050565b5f819050919050565b612717816125d3565b612756576040517f08c379a000000000000000000000000000000000000000000000000000000000815260040161274d906138d8565b60405180910390fd5b806127827f360894a13ba1a3210667c828492db98dca3e2076cc3735a920a3ca505d382bbc5f1b6126fc565b5f015f6101000a81548173ffffffffffffffffffffffffffffffffffffffff021916908373ffffffffffffffffffffffffffffffffffffffff16021790555050565b6127cd836128a7565b5f825111806127d95750805b156127ea576127e883836128f6565b505b505050565b5f60019054906101000a900460ff1661283d576040517f08c379a00000000000000000000000000000000000000000000000000000000081526004016128349061384a565b60405180910390fd5b61284d6128486126f5565b612510565b565b5f60019054906101000a900460ff1661289d576040517f08c379a00000000000000000000000000000000000000000000000000000000081526004016128949061384a565b60405180910390fd5b600160c981905550565b6128b08161270e565b8073ffffffffffffffffffffffffffffffffffffffff167fbc7cd75a20ee27fd9adebab32041f755214dbc6bffa90cc0225b39da2e5c2d3b60405160405180910390a250565b606061291b8383604051806060016040528060278152602001613a4360279139612923565b905092915050565b60605f808573ffffffffffffffffffffffffffffffffffffffff168560405161294c9190613962565b5f60405180830381855af49150503d805f8114612984576040519150601f19603f3d011682016040523d82523d5f602084013e612989565b606091505b509150915061299a868383876129a5565b925050509392505050565b60608315612a06575f8351036129fe576129be856125d3565b6129fd576040517f08c379a00000000000000000000000000000000000000000000000000000000081526004016129f4906139c2565b60405180910390fd5b5b829050612a11565b612a108383612a19565b5b949350505050565b5f82511115612a2b5781518083602001fd5b806040517f08c379a0000000000000000000000000000000000000000000000000000000008152600401612a5f9190613a22565b60405180910390fd5b5f604051905090565b5f80fd5b5f80fd5b5f74ffffffffffffffffffffffffffffffffffffffffff82169050919050565b612aa281612a79565b8114612aac575f80fd5b50565b5f73ffffffffffffffffffffffffffffffffffffffff82169050919050565b5f612ad882612aaf565b9050919050565b5f81359050612aed81612a99565b612af681612ace565b905092915050565b5f60208284031215612b1357612b12612a71565b5b5f612b2084828501612adf565b91505092915050565b5f819050919050565b612b3b81612b29565b82525050565b5f602082019050612b545f830184612b32565b92915050565b5f8115159050919050565b612b6e81612b5a565b82525050565b5f602082019050612b875f830184612b65565b92915050565b5f80fd5b5f80fd5b5f601f19601f8301169050919050565b7f4e487b71000000000000000000000000000000000000000000000000000000005f52604160045260245ffd5b612bdb82612b95565b810181811067ffffffffffffffff82111715612bfa57612bf9612ba5565b5b80604052505050565b5f612c0c612a68565b9050612c188282612bd2565b919050565b5f67ffffffffffffffff821115612c3757612c36612ba5565b5b612c4082612b95565b9050602081019050919050565b828183375f83830152505050565b5f612c6d612c6884612c1d565b612c03565b905082815260208101848484011115612c8957612c88612b91565b5b612c94848285612c4d565b509392505050565b5f82601f830112612cb057612caf612b8d565b5b8135612cc0848260208601612c5b565b91505092915050565b5f8060408385031215612cdf57612cde612a71565b5b5f612cec85828601612adf565b925050602083013567ffffffffffffffff811115612d0d57612d0c612a75565b5b612d1985828601612c9c565b9150509250929050565b5f819050919050565b612d3581612d23565b82525050565b5f602082019050612d4e5f830184612d2c565b92915050565b612d5d81612ace565b82525050565b5f602082019050612d765f830184612d54565b92915050565b612d8581612b29565b8114612d8f575f80fd5b50565b5f81359050612da081612d7c565b92915050565b5f8060408385031215612dbc57612dbb612a71565b5b5f612dc985828601612adf565b9250506020612dda85828601612d92565b9150509250929050565b5f82825260208201905092915050565b7f5573657220616c726561647920426c61636b4c697374656400000000000000005f82015250565b5f612e28601883612de4565b9150612e3382612df4565b602082019050919050565b5f6020820190508181035f830152612e5581612e1c565b9050919050565b7f5573657220697320626c61636b6c6973746564000000000000000000000000005f82015250565b5f612e90601383612de4565b9150612e9b82612e5c565b602082019050919050565b5f6020820190508181035f830152612ebd81612e84565b9050919050565b7f5573657220616c726561647920616464656420617320666f72776172646572005f82015250565b5f612ef8601f83612de4565b9150612f0382612ec4565b602082019050919050565b5f6020820190508181035f830152612f2581612eec565b9050919050565b7f46756e6374696f6e206d7573742062652063616c6c6564207468726f756768205f8201527f64656c656761746563616c6c0000000000000000000000000000000000000000602082015250565b5f612f86602c83612de4565b9150612f9182612f2c565b604082019050919050565b5f6020820190508181035f830152612fb381612f7a565b9050919050565b7f46756e6374696f6e206d7573742062652063616c6c6564207468726f756768205f8201527f6163746976652070726f78790000000000000000000000000000000000000000602082015250565b5f613014602c83612de4565b915061301f82612fba565b604082019050919050565b5f6020820190508181035f83015261304181613008565b9050919050565b7f555550535570677261646561626c653a206d757374206e6f742062652063616c5f8201527f6c6564207468726f7567682064656c656761746563616c6c0000000000000000602082015250565b5f6130a2603883612de4565b91506130ad82613048565b604082019050919050565b5f6020820190508181035f8301526130cf81613096565b9050919050565b7f55736572206e6f742077686974656c69737465640000000000000000000000005f82015250565b5f61310a601483612de4565b9150613115826130d6565b602082019050919050565b5f6020820190508181035f830152613137816130fe565b9050919050565b7f496e697469616c697a61626c653a20636f6e747261637420697320616c7265615f8201527f647920696e697469616c697a6564000000000000000000000000000000000000602082015250565b5f613198602e83612de4565b91506131a38261313e565b604082019050919050565b5f6020820190508181035f8301526131c58161318c565b9050919050565b5f819050919050565b5f60ff82169050919050565b5f819050919050565b5f6132046131ff6131fa846131cc565b6131e1565b6131d5565b9050919050565b613214816131ea565b82525050565b5f60208201905061322d5f83018461320b565b92915050565b7f55736572206973206e6f742061206d696e7465720000000000000000000000005f82015250565b5f613267601483612de4565b915061327282613233565b602082019050919050565b5f6020820190508181035f8301526132948161325b565b9050919050565b7f5573657220616c72656164792077686974656c697374656400000000000000005f82015250565b5f6132cf601883612de4565b91506132da8261329b565b602082019050919050565b5f6020820190508181035f8301526132fc816132c3565b9050919050565b7f436f6e747261637420646f6573206e6f742065786973740000000000000000005f82015250565b5f613337601783612de4565b915061334282613303565b602082019050919050565b5f6020820190508181035f8301526133648161332b565b9050919050565b7f55736572206973206e6f74206120666f727761726465720000000000000000005f82015250565b5f61339f601783612de4565b91506133aa8261336b565b602082019050919050565b5f6020820190508181035f8301526133cc81613393565b9050919050565b7f41646472657373206e6f742061204c69737465642055736572000000000000005f82015250565b5f613407601983612de4565b9150613412826133d3565b602082019050919050565b5f6020820190508181035f830152613434816133fb565b9050919050565b7f436f6e747261637420616c7265616479206164646564000000000000000000005f82015250565b5f61346f601683612de4565b915061347a8261343b565b602082019050919050565b5f6020820190508181035f83015261349c81613463565b9050919050565b7f4e6f7420617574686f72697a65640000000000000000000000000000000000005f82015250565b5f6134d7600e83612de4565b91506134e2826134a3565b602082019050919050565b5f6020820190508181035f830152613504816134cb565b9050919050565b7f5573657220616c7265616479206164646564206173206d696e746572000000005f82015250565b5f61353f601c83612de4565b915061354a8261350b565b602082019050919050565b5f6020820190508181035f83015261356c81613533565b9050919050565b7f4f776e61626c653a206e6577206f776e657220697320746865207a65726f20615f8201527f6464726573730000000000000000000000000000000000000000000000000000602082015250565b5f6135cd602683612de4565b91506135d882613573565b604082019050919050565b5f6020820190508181035f8301526135fa816135c1565b9050919050565b7f4f776e61626c653a2063616c6c6572206973206e6f7420746865206f776e65725f82015250565b5f613635602083612de4565b915061364082613601565b602082019050919050565b5f6020820190508181035f83015261366281613629565b9050919050565b61367281612d23565b811461367c575f80fd5b50565b5f8151905061368d81613669565b92915050565b5f602082840312156136a8576136a7612a71565b5b5f6136b58482850161367f565b91505092915050565b7f45524331393637557067726164653a206e657720696d706c656d656e746174695f8201527f6f6e206973206e6f742055555053000000000000000000000000000000000000602082015250565b5f613718602e83612de4565b9150613723826136be565b604082019050919050565b5f6020820190508181035f8301526137458161370c565b9050919050565b7f45524331393637557067726164653a20756e737570706f727465642070726f785f8201527f6961626c65555549440000000000000000000000000000000000000000000000602082015250565b5f6137a6602983612de4565b91506137b18261374c565b604082019050919050565b5f6020820190508181035f8301526137d38161379a565b9050919050565b7f496e697469616c697a61626c653a20636f6e7472616374206973206e6f7420695f8201527f6e697469616c697a696e67000000000000000000000000000000000000000000602082015250565b5f613834602b83612de4565b915061383f826137da565b604082019050919050565b5f6020820190508181035f83015261386181613828565b9050919050565b7f455243313936373a206e657720696d706c656d656e746174696f6e206973206e5f8201527f6f74206120636f6e747261637400000000000000000000000000000000000000602082015250565b5f6138c2602d83612de4565b91506138cd82613868565b604082019050919050565b5f6020820190508181035f8301526138ef816138b6565b9050919050565b5f81519050919050565b5f81905092915050565b5f5b8381101561392757808201518184015260208101905061390c565b5f8484015250505050565b5f61393c826138f6565b6139468185613900565b935061395681856020860161390a565b80840191505092915050565b5f61396d8284613932565b915081905092915050565b7f416464726573733a2063616c6c20746f206e6f6e2d636f6e74726163740000005f82015250565b5f6139ac601d83612de4565b91506139b782613978565b602082019050919050565b5f6020820190508181035f8301526139d9816139a0565b9050919050565b5f81519050919050565b5f6139f4826139e0565b6139fe8185612de4565b9350613a0e81856020860161390a565b613a1781612b95565b840191505092915050565b5f6020820190508181035f830152613a3a81846139ea565b90509291505056fe416464726573733a206c6f772d6c6576656c2064656c65676174652063616c6c206661696c6564a26474726f6e5822122057bbec2e75cc4f19de1f256e259cd9f48d87c7c83b32704210250778da2cec1b64736f6c63430008140033",
  "source": "// SPDX-License-Identifier: MIT\npragma solidity ^0.8.20;\n\nimport \"@openzeppelin/contracts-upgradeable/proxy/utils/Initializable.sol\";\nimport \"@openzeppelin/contracts-upgradeable/access/OwnableUpgradeable.sol\";\nimport \"@openzeppelin/contracts-upgradeable/proxy/utils/UUPSUpgradeable.sol\";\nimport \"@openzeppelin/contracts-upgradeable/security/ReentrancyGuardUpgradeable.sol\";\n\ncontract Admin is\n    Initializable,\n    OwnableUpgradeable,\n    UUPSUpgradeable,\n    ReentrancyGuardUpgradeable\n{\n    // Mappings for managing roles\n    mapping(address => bool) public canForward;\n    mapping(address => bool) public canMint;\n    mapping(address => uint256) public mintAmount;\n    mapping(address => bool) public trustedContract;\n    mapping(address => bool) public isBlackListed;\n\n    // Mappings for whitelisting external and internal users\n    mapping(address => bool) public isExternalSenderWhitelisted;\n    mapping(address => bool) public isInternalUserWhitelisted;\n\n    // Events for tracking changes\n    event AddedBlackList(address indexed _user);\n    event RemovedBlackList(address indexed _user);\n    event MintAmountAdded(address indexed _user);\n    event MintAmountRemoved(address indexed _user);\n    event WhitelistedForwarder(address indexed _user);\n    event BlackListedForwarder(address indexed _user);\n    event WhitelistedMinter(address indexed _user);\n    event BlackListedMinter(address indexed _user);\n    event WhitelistedContract(address indexed _user);\n    event BlackListedContract(address indexed _user);\n    event WhitelistedExternalSender(address indexed _user);\n    event BlackListedExternalSender(address indexed _user);\n    event WhitelistedInternalUser(address indexed _user);\n    event BlackListedInternalUser(address indexed _user);\n\n    /// @custom:oz-upgrades-unsafe-allow constructor\n\n    // Initializer function for upgradeable contracts\n    function initialize() public initializer {\n        __Ownable_init();\n        __ReentrancyGuard_init();\n        __UUPSUpgradeable_init();\n     \n\n        // Initialization logic\n        canForward[_msgSender()] = true;\n        canMint[_msgSender()] = true;\n    }\n\n    // Security Measures\n    modifier onlyOwnerOrTrustedContract() {\n        require(\n            owner() == _msgSender() || trustedContract[_msgSender()],\n            \"Not authorized\"\n        );\n        _;\n    }\n\n    modifier notBlacklisted(address _user) {\n        require(!isBlackListed[_user], \"User is blacklisted\");\n        _;\n    }\n\n    function addCanMint(\n        address _User\n    )\n        public\n        onlyOwnerOrTrustedContract\n        notBlacklisted(_User)\n        returns (bool)\n    {\n        require(!canMint[_User], \"User already added as minter\");\n        canMint[_User] = true;\n        emit WhitelistedMinter(_User);\n        return true;\n    }\n\n    function removeCanMint(address _User) public returns (bool) {\n\n        require(canMint[_User], \"User is not a minter\");\n        canMint[_User] = false;\n        emit BlackListedMinter(_User);\n        return true;\n    }\n\n    function addMintAmount(\n        address _User,\n        uint256 _Amount\n    ) public onlyOwner returns (bool) {\n        require(canMint[_User] == true);\n        mintAmount[_User] = _Amount;\n\n        emit MintAmountAdded(_User);\n\n        return true;\n    }\n\n    function removeMintAmount(address _User) public onlyOwner returns (bool) {\n        mintAmount[_User] = 0;\n\n        emit MintAmountRemoved(_User);\n\n        return true;\n    }\n\n     // Functions for managing external user whitelist\n    function whitelistExternalSender(\n        address _User\n    ) public onlyOwner returns (bool) {\n        require(\n            !isExternalSenderWhitelisted[_User],\n            \"User already whitelisted\"\n        );\n        isExternalSenderWhitelisted[_User] = true;\n        emit WhitelistedExternalSender(_User);\n        return true;\n    }\n\n    function blacklistExternalSender(\n        address _User\n    ) public onlyOwner returns (bool) {\n        require(isExternalSenderWhitelisted[_User], \"User not whitelisted\");\n        isExternalSenderWhitelisted[_User] = false;\n        emit BlackListedExternalSender(_User);\n        return true;\n    }\n    // Functions for managing forwarders and minters\n    function addCanForward(\n        address _User\n    )\n        public\n        onlyOwner\n        notBlacklisted(_User)\n        returns (bool)\n    {\n        require(!canForward[_User], \"User already added as forwarder\");\n        canForward[_User] = true;\n        emit WhitelistedForwarder(_User);\n        return true;\n    }\n\n    function removeCanForward(\n        address _User\n    ) public onlyOwner returns (bool) {\n        require(canForward[_User], \"User is not a forwarder\");\n        canForward[_User] = false;\n        emit BlackListedForwarder(_User);\n        return true;\n    }\n\n    // Adding trusted contracts\n    function addTrustedContract(\n        address _trustedContract\n    ) public onlyOwner returns (bool) {\n        require(!trustedContract[_trustedContract], \"Contract already added\");\n        trustedContract[_trustedContract] = true;\n        emit WhitelistedContract(_trustedContract);\n        return true;\n    }\n\n    function removeTrustedContract(\n        address _trustedContract\n    ) public onlyOwner returns (bool) {\n        require(trustedContract[_trustedContract], \"Contract does not exist\");\n        trustedContract[_trustedContract] = false;\n         emit BlackListedContract(_trustedContract);\n        return true;\n    }\n\n    function blacklistInternalUser(\n        address _User\n    ) public onlyOwner returns (bool) {\n        require(isInternalUserWhitelisted[_User], \"User not whitelisted\");\n        isInternalUserWhitelisted[_User] = false;\n        emit BlackListedInternalUser(_User);\n        return true;\n    }\n\n    // Functions for managing internal user whitelist\n    function whitelistInternalUser(\n        address _User\n    ) public onlyOwner returns (bool) {\n        require(!isInternalUserWhitelisted[_User], \"User already whitelisted\");\n        isInternalUserWhitelisted[_User] = true;\n        emit WhitelistedInternalUser(_User);\n        return true;\n    }\n\n    function addBlackList(address _evilUser) public onlyOwner {\n        require(!isBlackListed[_evilUser], \"User already BlackListed\");\n\n        isBlackListed[_evilUser] = true;\n\n        emit AddedBlackList(_evilUser);\n    }\n\n    function removeBlackList(\n        address _clearedUser\n    ) public onlyOwner returns (bool) {\n        require(isBlackListed[_clearedUser], \"Address not a Listed User\");\n\n        isBlackListed[_clearedUser] = false;\n\n        emit RemovedBlackList(_clearedUser);\n\n        return true;\n    }\n\n    // Authorize upgrades for UUPS proxy pattern\n    function _authorizeUpgrade(\n        address newImplementation\n    ) internal override onlyOwner {}\n}\n",
  "sourcePath": "/Users/ayoseun/Documents/GitHub/Ayoseun/stablecoin-cngn/tron-contract/contracts/Operations.sol",
  "compiler": {
    "name": "solc",
    "version": "0.8.20+commit.5f1834bc.Emscripten.clang"
  },
  "schemaVersion": "2.0.1",
  "updatedAt": "2025-05-07T13:53:31.034Z"
}