{
  "contractName": "cngn",
  "abi": [
    {
      "inputs": [
        {
          "internalType": "string",
          "name": "name_",
          "type": "string"
        },
        {
          "internalType": "string",
          "name": "symbol_",
          "type": "string"
        },
        {
          "internalType": "address",
          "name": "_trustedForwarderContract",
          "type": "address"
        },
        {
          "internalType": "address",
          "name": "_adminOperationsContract",
          "type": "address"
        }
      ],
      "stateMutability": "nonpayable",
      "type": "constructor"
    },
    {
      "anonymous": false,
      "inputs": [
        {
          "indexed": true,
          "internalType": "address",
          "name": "_user",
          "type": "address"
        }
      ],
      "name": "AddedBlackList",
      "type": "event"
    },
    {
      "anonymous": false,
      "inputs": [
        {
          "indexed": true,
          "internalType": "address",
          "name": "_user",
          "type": "address"
        },
        {
          "indexed": false,
          "internalType": "uint256",
          "name": "_amount",
          "type": "uint256"
        }
      ],
      "name": "AddedMintAllow",
      "type": "event"
    },
    {
      "anonymous": false,
      "inputs": [
        {
          "indexed": true,
          "internalType": "address",
          "name": "_user",
          "type": "address"
        }
      ],
      "name": "AddedWhiteList",
      "type": "event"
    },
    {
      "anonymous": false,
      "inputs": [
        {
          "indexed": true,
          "internalType": "address",
          "name": "owner",
          "type": "address"
        },
        {
          "indexed": true,
          "internalType": "address",
          "name": "spender",
          "type": "address"
        },
        {
          "indexed": false,
          "internalType": "uint256",
          "name": "value",
          "type": "uint256"
        }
      ],
      "name": "Approval",
      "type": "event"
    },
    {
      "anonymous": false,
      "inputs": [
        {
          "indexed": true,
          "internalType": "address",
          "name": "_blackListedUser",
          "type": "address"
        },
        {
          "indexed": false,
          "internalType": "uint256",
          "name": "_balance",
          "type": "uint256"
        }
      ],
      "name": "DestroyedBlackFunds",
      "type": "event"
    },
    {
      "anonymous": false,
      "inputs": [
        {
          "indexed": true,
          "internalType": "address",
          "name": "previousOwner",
          "type": "address"
        },
        {
          "indexed": true,
          "internalType": "address",
          "name": "newOwner",
          "type": "address"
        }
      ],
      "name": "OwnershipTransferred",
      "type": "event"
    },
    {
      "anonymous": false,
      "inputs": [
        {
          "indexed": false,
          "internalType": "address",
          "name": "account",
          "type": "address"
        }
      ],
      "name": "Paused",
      "type": "event"
    },
    {
      "anonymous": false,
      "inputs": [
        {
          "indexed": true,
          "internalType": "address",
          "name": "_user",
          "type": "address"
        }
      ],
      "name": "RemovedBlackList",
      "type": "event"
    },
    {
      "anonymous": false,
      "inputs": [
        {
          "indexed": true,
          "internalType": "address",
          "name": "_user",
          "type": "address"
        }
      ],
      "name": "RemovedWhiteList",
      "type": "event"
    },
    {
      "anonymous": false,
      "inputs": [
        {
          "indexed": true,
          "internalType": "address",
          "name": "from",
          "type": "address"
        },
        {
          "indexed": true,
          "internalType": "address",
          "name": "to",
          "type": "address"
        },
        {
          "indexed": false,
          "internalType": "uint256",
          "name": "value",
          "type": "uint256"
        }
      ],
      "name": "Transfer",
      "type": "event"
    },
    {
      "anonymous": false,
      "inputs": [
        {
          "indexed": false,
          "internalType": "address",
          "name": "account",
          "type": "address"
        }
      ],
      "name": "Unpaused",
      "type": "event"
    },
    {
      "inputs": [
        {
          "internalType": "address",
          "name": "owner",
          "type": "address"
        },
        {
          "internalType": "address",
          "name": "spender",
          "type": "address"
        }
      ],
      "name": "allowance",
      "outputs": [
        {
          "internalType": "uint256",
          "name": "",
          "type": "uint256"
        }
      ],
      "stateMutability": "view",
      "type": "function"
    },
    {
      "inputs": [
        {
          "internalType": "address",
          "name": "spender",
          "type": "address"
        },
        {
          "internalType": "uint256",
          "name": "amount",
          "type": "uint256"
        }
      ],
      "name": "approve",
      "outputs": [
        {
          "internalType": "bool",
          "name": "",
          "type": "bool"
        }
      ],
      "stateMutability": "nonpayable",
      "type": "function"
    },
    {
      "inputs": [
        {
          "internalType": "address",
          "name": "account",
          "type": "address"
        }
      ],
      "name": "balanceOf",
      "outputs": [
        {
          "internalType": "uint256",
          "name": "",
          "type": "uint256"
        }
      ],
      "stateMutability": "view",
      "type": "function"
    },
    {
      "inputs": [
        {
          "internalType": "uint256",
          "name": "_amount",
          "type": "uint256"
        }
      ],
      "name": "burnByUser",
      "outputs": [
        {
          "internalType": "bool",
          "name": "",
          "type": "bool"
        }
      ],
      "stateMutability": "nonpayable",
      "type": "function"
    },
    {
      "inputs": [],
      "name": "decimals",
      "outputs": [
        {
          "internalType": "uint8",
          "name": "",
          "type": "uint8"
        }
      ],
      "stateMutability": "pure",
      "type": "function"
    },
    {
      "inputs": [
        {
          "internalType": "address",
          "name": "spender",
          "type": "address"
        },
        {
          "internalType": "uint256",
          "name": "subtractedValue",
          "type": "uint256"
        }
      ],
      "name": "decreaseAllowance",
      "outputs": [
        {
          "internalType": "bool",
          "name": "",
          "type": "bool"
        }
      ],
      "stateMutability": "nonpayable",
      "type": "function"
    },
    {
      "inputs": [
        {
          "internalType": "address",
          "name": "spender",
          "type": "address"
        },
        {
          "internalType": "uint256",
          "name": "addedValue",
          "type": "uint256"
        }
      ],
      "name": "increaseAllowance",
      "outputs": [
        {
          "internalType": "bool",
          "name": "",
          "type": "bool"
        }
      ],
      "stateMutability": "nonpayable",
      "type": "function"
    },
    {
      "inputs": [
        {
          "internalType": "address",
          "name": "forwarder",
          "type": "address"
        }
      ],
      "name": "isTrustedForwarder",
      "outputs": [
        {
          "internalType": "bool",
          "name": "",
          "type": "bool"
        }
      ],
      "stateMutability": "view",
      "type": "function"
    },
    {
      "inputs": [
        {
          "internalType": "uint256",
          "name": "_amount",
          "type": "uint256"
        },
        {
          "internalType": "address",
          "name": "_mintTo",
          "type": "address"
        }
      ],
      "name": "mint",
      "outputs": [
        {
          "internalType": "bool",
          "name": "",
          "type": "bool"
        }
      ],
      "stateMutability": "nonpayable",
      "type": "function"
    },
    {
      "inputs": [],
      "name": "name",
      "outputs": [
        {
          "internalType": "string",
          "name": "",
          "type": "string"
        }
      ],
      "stateMutability": "view",
      "type": "function"
    },
    {
      "inputs": [],
      "name": "owner",
      "outputs": [
        {
          "internalType": "address",
          "name": "",
          "type": "address"
        }
      ],
      "stateMutability": "view",
      "type": "function"
    },
    {
      "inputs": [],
      "name": "pause",
      "outputs": [
        {
          "internalType": "bool",
          "name": "",
          "type": "bool"
        }
      ],
      "stateMutability": "nonpayable",
      "type": "function"
    },
    {
      "inputs": [],
      "name": "paused",
      "outputs": [
        {
          "internalType": "bool",
          "name": "",
          "type": "bool"
        }
      ],
      "stateMutability": "view",
      "type": "function"
    },
    {
      "inputs": [],
      "name": "renounceOwnership",
      "outputs": [],
      "stateMutability": "nonpayable",
      "type": "function"
    },
    {
      "inputs": [],
      "name": "symbol",
      "outputs": [
        {
          "internalType": "string",
          "name": "",
          "type": "string"
        }
      ],
      "stateMutability": "view",
      "type": "function"
    },
    {
      "inputs": [],
      "name": "totalSupply",
      "outputs": [
        {
          "internalType": "uint256",
          "name": "",
          "type": "uint256"
        }
      ],
      "stateMutability": "view",
      "type": "function"
    },
    {
      "inputs": [
        {
          "internalType": "address",
          "name": "to",
          "type": "address"
        },
        {
          "internalType": "uint256",
          "name": "amount",
          "type": "uint256"
        }
      ],
      "name": "transfer",
      "outputs": [
        {
          "internalType": "bool",
          "name": "",
          "type": "bool"
        }
      ],
      "stateMutability": "nonpayable",
      "type": "function"
    },
    {
      "inputs": [
        {
          "internalType": "address",
          "name": "from",
          "type": "address"
        },
        {
          "internalType": "address",
          "name": "to",
          "type": "address"
        },
        {
          "internalType": "uint256",
          "name": "amount",
          "type": "uint256"
        }
      ],
      "name": "transferFrom",
      "outputs": [
        {
          "internalType": "bool",
          "name": "",
          "type": "bool"
        }
      ],
      "stateMutability": "nonpayable",
      "type": "function"
    },
    {
      "inputs": [
        {
          "internalType": "address",
          "name": "newOwner",
          "type": "address"
        }
      ],
      "name": "transferOwnership",
      "outputs": [],
      "stateMutability": "nonpayable",
      "type": "function"
    },
    {
      "inputs": [],
      "name": "unPause",
      "outputs": [
        {
          "internalType": "bool",
          "name": "",
          "type": "bool"
        }
      ],
      "stateMutability": "nonpayable",
      "type": "function"
    },
    {
      "inputs": [
        {
          "internalType": "address",
          "name": "_newAdmin",
          "type": "address"
        }
      ],
      "name": "updateAdminOperationsAddress",
      "outputs": [
        {
          "internalType": "bool",
          "name": "",
          "type": "bool"
        }
      ],
      "stateMutability": "nonpayable",
      "type": "function"
    },
    {
      "inputs": [
        {
          "internalType": "address",
          "name": "_newForwarderContract",
          "type": "address"
        }
      ],
      "name": "updateForwarderContract",
      "outputs": [
        {
          "internalType": "bool",
          "name": "",
          "type": "bool"
        }
      ],
      "stateMutability": "nonpayable",
      "type": "function"
    }
  ],
  "bytecode": "0x60806040523480156200001157600080fd5b50d380156200001f57600080fd5b50d280156200002d57600080fd5b50604051620038fd380380620038fd833981810160405281019062000053919062000370565b62000073620000676200015260201b60201c565b6200015a60201b60201c565b60008060146101000a81548160ff021916908315150217905550600180819055508360089080519060200190620000ac9291906200021e565b508260099080519060200190620000c59291906200021e565b5081600a60006101000a81548173ffffffffffffffffffffffffffffffffffffffff021916908373ffffffffffffffffffffffffffffffffffffffff16021790555080600b60006101000a81548173ffffffffffffffffffffffffffffffffffffffff021916908373ffffffffffffffffffffffffffffffffffffffff1602179055505050505062000613565b600033905090565b60008060009054906101000a900473ffffffffffffffffffffffffffffffffffffffff169050816000806101000a81548173ffffffffffffffffffffffffffffffffffffffff021916908373ffffffffffffffffffffffffffffffffffffffff1602179055508173ffffffffffffffffffffffffffffffffffffffff168173ffffffffffffffffffffffffffffffffffffffff167f8be0079c531659141344cd1fd0a4f28419497f9722a3daafe3b4186f6b6457e060405160405180910390a35050565b8280546200022c906200050a565b90600052602060002090601f0160209004810192826200025057600085556200029c565b82601f106200026b57805160ff19168380011785556200029c565b828001600101855582156200029c579182015b828111156200029b5782518255916020019190600101906200027e565b5b509050620002ab9190620002af565b5090565b5b80821115620002ca576000816000905550600101620002b0565b5090565b6000620002e5620002df8462000449565b62000420565b905082815260208101848484011115620003045762000303620005d9565b5b62000311848285620004d4565b509392505050565b6000815190506200032a81620005f9565b62000335816200047f565b905092915050565b600082601f830112620003555762000354620005d4565b5b815162000367848260208601620002ce565b91505092915050565b600080600080608085870312156200038d576200038c620005e3565b5b600085015167ffffffffffffffff811115620003ae57620003ad620005de565b5b620003bc878288016200033d565b945050602085015167ffffffffffffffff811115620003e057620003df620005de565b5b620003ee878288016200033d565b9350506040620004018782880162000319565b9250506060620004148782880162000319565b91505092959194509250565b60006200042c6200043f565b90506200043a828262000540565b919050565b6000604051905090565b600067ffffffffffffffff821115620004675762000466620005a5565b5b6200047282620005e8565b9050602081019050919050565b60006200048c8262000493565b9050919050565b600073ffffffffffffffffffffffffffffffffffffffff82169050919050565b600074ffffffffffffffffffffffffffffffffffffffffff82169050919050565b60005b83811015620004f4578082015181840152602081019050620004d7565b8381111562000504576000848401525b50505050565b600060028204905060018216806200052357607f821691505b602082108114156200053a576200053962000576565b5b50919050565b6200054b82620005e8565b810181811067ffffffffffffffff821117156200056d576200056c620005a5565b5b80604052505050565b7f4e487b7100000000000000000000000000000000000000000000000000000000600052602260045260246000fd5b7f4e487b7100000000000000000000000000000000000000000000000000000000600052604160045260246000fd5b600080fd5b600080fd5b600080fd5b600080fd5b6000601f19601f8301169050919050565b6200060481620004b3565b81146200061057600080fd5b50565b6132da80620006236000396000f3fe608060405234801561001057600080fd5b50d3801561001d57600080fd5b50d2801561002a57600080fd5b506004361061015c5760003560e01c80638456cb59116100d2578063a9059cbb11610096578063a9059cbb146103bd578063b7d5b1ef146103ed578063b83fd8231461041d578063dd62ed3e1461044d578063f2fde38b1461047d578063f7b188a5146104995761015c565b80638456cb59146103035780638da5cb5b1461032157806394bf804d1461033f57806395d89b411461036f578063a457c2d71461038d5761015c565b80633950935111610124578063395093511461021b578063572b6c051461024b5780635c975abb1461027b57806370a0823114610299578063715018a6146102c95780637742af46146102d35761015c565b806306fdde0314610161578063095ea7b31461017f57806318160ddd146101af57806323b872dd146101cd578063313ce567146101fd575b600080fd5b6101696104b7565b6040516101769190612881565b60405180910390f35b610199600480360381019061019491906123f0565b610549565b6040516101a69190612866565b60405180910390f35b6101b761056c565b6040516101c49190612b43565b60405180910390f35b6101e760048036038101906101e2919061239d565b610576565b6040516101f49190612866565b60405180910390f35b6102056107e4565b6040516102129190612b5e565b60405180910390f35b610235600480360381019061023091906123f0565b6107ed565b6040516102429190612866565b60405180910390f35b61026560048036038101906102609190612330565b610897565b6040516102729190612866565b60405180910390f35b6102836108f1565b6040516102909190612866565b60405180910390f35b6102b360048036038101906102ae9190612330565b610907565b6040516102c09190612b43565b60405180910390f35b6102d1610950565b005b6102ed60048036038101906102e8919061245d565b610964565b6040516102fa9190612866565b60405180910390f35b61030b610a15565b6040516103189190612866565b60405180910390f35b610329610a2e565b604051610336919061284b565b60405180910390f35b610359600480360381019061035491906124b7565b610a57565b6040516103669190612866565b60405180910390f35b610377610fad565b6040516103849190612881565b60405180910390f35b6103a760048036038101906103a291906123f0565b61103f565b6040516103b49190612866565b60405180910390f35b6103d760048036038101906103d291906123f0565b611129565b6040516103e49190612866565b60405180910390f35b61040760048036038101906104029190612330565b6115c7565b6040516104149190612866565b60405180910390f35b61043760048036038101906104329190612330565b61161b565b6040516104449190612866565b60405180910390f35b6104676004803603810190610462919061235d565b61166f565b6040516104749190612b43565b60405180910390f35b61049760048036038101906104929190612330565b6116f6565b005b6104a161177a565b6040516104ae9190612866565b60405180910390f35b6060600880546104c690612c94565b80601f01602080910402602001604051908101604052809291908181526020018280546104f290612c94565b801561053f5780601f106105145761010080835404028352916020019161053f565b820191906000526020600020905b81548152906001019060200180831161052257829003601f168201915b5050505050905090565b600080610554611793565b905061056181858561179b565b600191505092915050565b6000600754905090565b6000610580611966565b6105886119b0565b600b60009054906101000a900473ffffffffffffffffffffffffffffffffffffffff1673ffffffffffffffffffffffffffffffffffffffff1663e47d60606105ce611793565b6040518263ffffffff1660e01b81526004016105ea919061284b565b60206040518083038186803b15801561060257600080fd5b505afa158015610616573d6000803e3d6000fd5b505050506040513d601f19601f8201168201806040525081019061063a9190612430565b1561064457600080fd5b600b60009054906101000a900473ffffffffffffffffffffffffffffffffffffffff1673ffffffffffffffffffffffffffffffffffffffff1663e47d6060856040518263ffffffff1660e01b815260040161069f919061284b565b60206040518083038186803b1580156106b757600080fd5b505afa1580156106cb573d6000803e3d6000fd5b505050506040513d601f19601f820116820180604052508101906106ef9190612430565b156106f957600080fd5b600b60009054906101000a900473ffffffffffffffffffffffffffffffffffffffff1673ffffffffffffffffffffffffffffffffffffffff1663e47d6060846040518263ffffffff1660e01b8152600401610754919061284b565b60206040518083038186803b15801561076c57600080fd5b505afa158015610780573d6000803e3d6000fd5b505050506040513d601f19601f820116820180604052508101906107a49190612430565b156107ae57600080fd5b60006107b8611793565b90506107c5858285611a00565b6107d0858585611a8c565b60019150506107dd611d07565b9392505050565b60006006905090565b6000806107f8611793565b905061088c818585600360008673ffffffffffffffffffffffffffffffffffffffff1673ffffffffffffffffffffffffffffffffffffffff16815260200190815260200160002060008973ffffffffffffffffffffffffffffffffffffffff1673ffffffffffffffffffffffffffffffffffffffff168152602001908152602001600020546108879190612b95565b61179b565b600191505092915050565b6000600a60009054906101000a900473ffffffffffffffffffffffffffffffffffffffff1673ffffffffffffffffffffffffffffffffffffffff168273ffffffffffffffffffffffffffffffffffffffff16149050919050565b60008060149054906101000a900460ff16905090565b6000600260008373ffffffffffffffffffffffffffffffffffffffff1673ffffffffffffffffffffffffffffffffffffffff168152602001908152602001600020549050919050565b610958611d10565b6109626000611d8e565b565b600061096e610a2e565b73ffffffffffffffffffffffffffffffffffffffff163373ffffffffffffffffffffffffffffffffffffffff1614806109ac57506109ab33610897565b5b6109eb576040517f08c379a00000000000000000000000000000000000000000000000000000000081526004016109e290612983565b60405180910390fd5b6109f36119b0565b610a046109fe611793565b83611e52565b60019050610a10611d07565b919050565b6000610a1f611d10565b610a27612022565b6001905090565b60008060009054906101000a900473ffffffffffffffffffffffffffffffffffffffff16905090565b6000610a61610a2e565b73ffffffffffffffffffffffffffffffffffffffff163373ffffffffffffffffffffffffffffffffffffffff161480610a9f5750610a9e33610897565b5b610ade576040517f08c379a0000000000000000000000000000000000000000000000000000000008152600401610ad590612983565b60405180910390fd5b610ae66119b0565b6000610af0612085565b9050600b60009054906101000a900473ffffffffffffffffffffffffffffffffffffffff1673ffffffffffffffffffffffffffffffffffffffff1663e47d6060826040518263ffffffff1660e01b8152600401610b4d919061284b565b60206040518083038186803b158015610b6557600080fd5b505afa158015610b79573d6000803e3d6000fd5b505050506040513d601f19601f82011682018060405250810190610b9d9190612430565b15610bdd576040517f08c379a0000000000000000000000000000000000000000000000000000000008152600401610bd4906129e3565b60405180910390fd5b600b60009054906101000a900473ffffffffffffffffffffffffffffffffffffffff1673ffffffffffffffffffffffffffffffffffffffff1663e47d6060846040518263ffffffff1660e01b8152600401610c38919061284b565b60206040518083038186803b158015610c5057600080fd5b505afa158015610c64573d6000803e3d6000fd5b505050506040513d601f19601f82011682018060405250810190610c889190612430565b15610cc8576040517f08c379a0000000000000000000000000000000000000000000000000000000008152600401610cbf906129a3565b60405180910390fd5b600b60009054906101000a900473ffffffffffffffffffffffffffffffffffffffff1673ffffffffffffffffffffffffffffffffffffffff1663c2ba4744826040518263ffffffff1660e01b8152600401610d23919061284b565b60206040518083038186803b158015610d3b57600080fd5b505afa158015610d4f573d6000803e3d6000fd5b505050506040513d601f19601f82011682018060405250810190610d739190612430565b610db2576040517f08c379a0000000000000000000000000000000000000000000000000000000008152600401610da990612aa3565b60405180910390fd5b83600b60009054906101000a900473ffffffffffffffffffffffffffffffffffffffff1673ffffffffffffffffffffffffffffffffffffffff1663055d822c836040518263ffffffff1660e01b8152600401610e0e919061284b565b60206040518083038186803b158015610e2657600080fd5b505afa158015610e3a573d6000803e3d6000fd5b505050506040513d601f19601f82011682018060405250810190610e5e919061248a565b14610e9e576040517f08c379a0000000000000000000000000000000000000000000000000000000008152600401610e9590612a03565b60405180910390fd5b610ea883856120bc565b6000600b60009054906101000a900473ffffffffffffffffffffffffffffffffffffffff1673ffffffffffffffffffffffffffffffffffffffff16638a4e0ace836040518263ffffffff1660e01b8152600401610f05919061284b565b602060405180830381600087803b158015610f1f57600080fd5b505af1158015610f33573d6000803e3d6000fd5b505050506040513d601f19601f82011682018060405250810190610f579190612430565b905080610f99576040517f08c379a0000000000000000000000000000000000000000000000000000000008152600401610f9090612ae3565b60405180910390fd5b600192505050610fa7611d07565b92915050565b606060098054610fbc90612c94565b80601f0160208091040260200160405190810160405280929190818152602001828054610fe890612c94565b80156110355780601f1061100a57610100808354040283529160200191611035565b820191906000526020600020905b81548152906001019060200180831161101857829003601f168201915b5050505050905090565b60008061104a611793565b90506000600360008373ffffffffffffffffffffffffffffffffffffffff1673ffffffffffffffffffffffffffffffffffffffff16815260200190815260200160002060008673ffffffffffffffffffffffffffffffffffffffff1673ffffffffffffffffffffffffffffffffffffffff16815260200190815260200160002054905083811015611110576040517f08c379a000000000000000000000000000000000000000000000000000000000815260040161110790612b03565b60405180910390fd5b61111d828686840361179b565b60019250505092915050565b60006111336119b0565b600061113d611793565b9050600b60009054906101000a900473ffffffffffffffffffffffffffffffffffffffff1673ffffffffffffffffffffffffffffffffffffffff1663e47d6060611185611793565b6040518263ffffffff1660e01b81526004016111a1919061284b565b60206040518083038186803b1580156111b957600080fd5b505afa1580156111cd573d6000803e3d6000fd5b505050506040513d601f19601f820116820180604052508101906111f19190612430565b1580156112a65750600b60009054906101000a900473ffffffffffffffffffffffffffffffffffffffff1673ffffffffffffffffffffffffffffffffffffffff1663e47d6060856040518263ffffffff1660e01b8152600401611254919061284b565b60206040518083038186803b15801561126c57600080fd5b505afa158015611280573d6000803e3d6000fd5b505050506040513d601f19601f820116820180604052508101906112a49190612430565b155b80156113595750600b60009054906101000a900473ffffffffffffffffffffffffffffffffffffffff1673ffffffffffffffffffffffffffffffffffffffff16633fd0966e856040518263ffffffff1660e01b8152600401611308919061284b565b60206040518083038186803b15801561132057600080fd5b505afa158015611334573d6000803e3d6000fd5b505050506040513d601f19601f820116820180604052508101906113589190612430565b5b80156114135750600b60009054906101000a900473ffffffffffffffffffffffffffffffffffffffff1673ffffffffffffffffffffffffffffffffffffffff16635efd37656113a6611793565b6040518263ffffffff1660e01b81526004016113c2919061284b565b60206040518083038186803b1580156113da57600080fd5b505afa1580156113ee573d6000803e3d6000fd5b505050506040513d601f19601f820116820180604052508101906114129190612430565b5b1561143757611423818585611a8c565b61142d8484611e52565b60019150506115b9565b600b60009054906101000a900473ffffffffffffffffffffffffffffffffffffffff1673ffffffffffffffffffffffffffffffffffffffff1663e47d606061147d611793565b6040518263ffffffff1660e01b8152600401611499919061284b565b60206040518083038186803b1580156114b157600080fd5b505afa1580156114c5573d6000803e3d6000fd5b505050506040513d601f19601f820116820180604052508101906114e99190612430565b156114f357600080fd5b600b60009054906101000a900473ffffffffffffffffffffffffffffffffffffffff1673ffffffffffffffffffffffffffffffffffffffff1663e47d6060856040518263ffffffff1660e01b815260040161154e919061284b565b60206040518083038186803b15801561156657600080fd5b505afa15801561157a573d6000803e3d6000fd5b505050506040513d601f19601f8201168201806040525081019061159e9190612430565b156115a857600080fd5b6115b3818585611a8c565b60019150505b6115c1611d07565b92915050565b60006115d1611d10565b81600a60006101000a81548173ffffffffffffffffffffffffffffffffffffffff021916908373ffffffffffffffffffffffffffffffffffffffff16021790555060019050919050565b6000611625611d10565b81600b60006101000a81548173ffffffffffffffffffffffffffffffffffffffff021916908373ffffffffffffffffffffffffffffffffffffffff16021790555060019050919050565b6000600360008473ffffffffffffffffffffffffffffffffffffffff1673ffffffffffffffffffffffffffffffffffffffff16815260200190815260200160002060008373ffffffffffffffffffffffffffffffffffffffff1673ffffffffffffffffffffffffffffffffffffffff16815260200190815260200160002054905092915050565b6116fe611d10565b600073ffffffffffffffffffffffffffffffffffffffff168173ffffffffffffffffffffffffffffffffffffffff16141561176e576040517f08c379a000000000000000000000000000000000000000000000000000000000815260040161176590612903565b60405180910390fd5b61177781611d8e565b50565b6000611784611d10565b61178c612214565b6001905090565b600033905090565b600073ffffffffffffffffffffffffffffffffffffffff168373ffffffffffffffffffffffffffffffffffffffff16141561180b576040517f08c379a000000000000000000000000000000000000000000000000000000000815260040161180290612a83565b60405180910390fd5b600073ffffffffffffffffffffffffffffffffffffffff168273ffffffffffffffffffffffffffffffffffffffff16141561187b576040517f08c379a000000000000000000000000000000000000000000000000000000000815260040161187290612923565b60405180910390fd5b80600360008573ffffffffffffffffffffffffffffffffffffffff1673ffffffffffffffffffffffffffffffffffffffff16815260200190815260200160002060008473ffffffffffffffffffffffffffffffffffffffff1673ffffffffffffffffffffffffffffffffffffffff168152602001908152602001600020819055508173ffffffffffffffffffffffffffffffffffffffff168373ffffffffffffffffffffffffffffffffffffffff167f8c5be1e5ebec7d5bd14f71427d1e84f3dd0314c0f7b2291e5b200ac8c7c3b925836040516119599190612b43565b60405180910390a3505050565b61196e6108f1565b156119ae576040517f08c379a00000000000000000000000000000000000000000000000000000000081526004016119a5906129c3565b60405180910390fd5b565b600260015414156119f6576040517f08c379a00000000000000000000000000000000000000000000000000000000081526004016119ed90612ac3565b60405180910390fd5b6002600181905550565b6000611a0c848461166f565b90507fffffffffffffffffffffffffffffffffffffffffffffffffffffffffffffffff8114611a865781811015611a78576040517f08c379a0000000000000000000000000000000000000000000000000000000008152600401611a6f90612943565b60405180910390fd5b611a85848484840361179b565b5b50505050565b600073ffffffffffffffffffffffffffffffffffffffff168373ffffffffffffffffffffffffffffffffffffffff161415611afc576040517f08c379a0000000000000000000000000000000000000000000000000000000008152600401611af390612a63565b60405180910390fd5b600073ffffffffffffffffffffffffffffffffffffffff168273ffffffffffffffffffffffffffffffffffffffff161415611b6c576040517f08c379a0000000000000000000000000000000000000000000000000000000008152600401611b63906128a3565b60405180910390fd5b611b77838383612276565b6000600260008573ffffffffffffffffffffffffffffffffffffffff1673ffffffffffffffffffffffffffffffffffffffff16815260200190815260200160002054905081811015611bfe576040517f08c379a0000000000000000000000000000000000000000000000000000000008152600401611bf590612963565b60405180910390fd5b818103600260008673ffffffffffffffffffffffffffffffffffffffff1673ffffffffffffffffffffffffffffffffffffffff1681526020019081526020016000208190555081600260008573ffffffffffffffffffffffffffffffffffffffff1673ffffffffffffffffffffffffffffffffffffffff168152602001908152602001600020600082825401925050819055508273ffffffffffffffffffffffffffffffffffffffff168473ffffffffffffffffffffffffffffffffffffffff167fddf252ad1be2c89b69c2b068fc378daa952ba7f163c4a11628f55a4df523b3ef84604051611cee9190612b43565b60405180910390a3611d01848484612283565b50505050565b60018081905550565b611d18611793565b73ffffffffffffffffffffffffffffffffffffffff16611d36610a2e565b73ffffffffffffffffffffffffffffffffffffffff1614611d8c576040517f08c379a0000000000000000000000000000000000000000000000000000000008152600401611d8390612a23565b60405180910390fd5b565b60008060009054906101000a900473ffffffffffffffffffffffffffffffffffffffff169050816000806101000a81548173ffffffffffffffffffffffffffffffffffffffff021916908373ffffffffffffffffffffffffffffffffffffffff1602179055508173ffffffffffffffffffffffffffffffffffffffff168173ffffffffffffffffffffffffffffffffffffffff167f8be0079c531659141344cd1fd0a4f28419497f9722a3daafe3b4186f6b6457e060405160405180910390a35050565b600073ffffffffffffffffffffffffffffffffffffffff168273ffffffffffffffffffffffffffffffffffffffff161415611ec2576040517f08c379a0000000000000000000000000000000000000000000000000000000008152600401611eb990612a43565b60405180910390fd5b611ece82600083612276565b6000600260008473ffffffffffffffffffffffffffffffffffffffff1673ffffffffffffffffffffffffffffffffffffffff16815260200190815260200160002054905081811015611f55576040517f08c379a0000000000000000000000000000000000000000000000000000000008152600401611f4c906128e3565b60405180910390fd5b818103600260008573ffffffffffffffffffffffffffffffffffffffff1673ffffffffffffffffffffffffffffffffffffffff1681526020019081526020016000208190555081600760008282540392505081905550600073ffffffffffffffffffffffffffffffffffffffff168373ffffffffffffffffffffffffffffffffffffffff167fddf252ad1be2c89b69c2b068fc378daa952ba7f163c4a11628f55a4df523b3ef846040516120099190612b43565b60405180910390a361201d83600084612283565b505050565b61202a611966565b6001600060146101000a81548160ff0219169083151502179055507f62e78cea01bee320cd4e420270b5ea74000d11b0c9f74754ebdbfc544b05a25861206e611793565b60405161207b919061284b565b60405180910390a1565b600060146000369050101580156120a157506120a033610897565b5b156120b557601436033560601c90506120b9565b3390505b90565b600073ffffffffffffffffffffffffffffffffffffffff168273ffffffffffffffffffffffffffffffffffffffff16141561212c576040517f08c379a000000000000000000000000000000000000000000000000000000000815260040161212390612b23565b60405180910390fd5b61213860008383612276565b806007600082825461214a9190612b95565b9250508190555080600260008473ffffffffffffffffffffffffffffffffffffffff1673ffffffffffffffffffffffffffffffffffffffff168152602001908152602001600020600082825401925050819055508173ffffffffffffffffffffffffffffffffffffffff16600073ffffffffffffffffffffffffffffffffffffffff167fddf252ad1be2c89b69c2b068fc378daa952ba7f163c4a11628f55a4df523b3ef836040516121fc9190612b43565b60405180910390a361221060008383612283565b5050565b61221c612288565b60008060146101000a81548160ff0219169083151502179055507f5db9ee0a495bf2e6ff9c91a7834c1ba4fdd244a5e8aa4e537bd38aeae4b073aa61225f611793565b60405161226c919061284b565b60405180910390a1565b61227e611966565b505050565b505050565b6122906108f1565b6122cf576040517f08c379a00000000000000000000000000000000000000000000000000000000081526004016122c6906128c3565b60405180910390fd5b565b6000813590506122e08161325f565b6122e981612beb565b905092915050565b60008151905061230081613276565b92915050565b6000813590506123158161328d565b92915050565b60008151905061232a8161328d565b92915050565b60006020828403121561234657612345612d24565b5b6000612354848285016122d1565b91505092915050565b6000806040838503121561237457612373612d24565b5b6000612382858286016122d1565b9250506020612393858286016122d1565b9150509250929050565b6000806000606084860312156123b6576123b5612d24565b5b60006123c4868287016122d1565b93505060206123d5868287016122d1565b92505060406123e686828701612306565b9150509250925092565b6000806040838503121561240757612406612d24565b5b6000612415858286016122d1565b925050602061242685828601612306565b9150509250929050565b60006020828403121561244657612445612d24565b5b6000612454848285016122f1565b91505092915050565b60006020828403121561247357612472612d24565b5b600061248184828501612306565b91505092915050565b6000602082840312156124a05761249f612d24565b5b60006124ae8482850161231b565b91505092915050565b600080604083850312156124ce576124cd612d24565b5b60006124dc85828601612306565b92505060206124ed858286016122d1565b9150509250929050565b61250081612beb565b82525050565b61250f81612bfd565b82525050565b600061252082612b79565b61252a8185612b84565b935061253a818560208601612c61565b61254381612d29565b840191505092915050565b600061255b602383612b84565b915061256682612d3a565b604082019050919050565b600061257e601483612b84565b915061258982612d89565b602082019050919050565b60006125a1602283612b84565b91506125ac82612db2565b604082019050919050565b60006125c4602683612b84565b91506125cf82612e01565b604082019050919050565b60006125e7602283612b84565b91506125f282612e50565b604082019050919050565b600061260a601d83612b84565b915061261582612e9f565b602082019050919050565b600061262d602683612b84565b915061263882612ec8565b604082019050919050565b6000612650603383612b84565b915061265b82612f17565b604082019050919050565b6000612673601783612b84565b915061267e82612f66565b602082019050919050565b6000612696601083612b84565b91506126a182612f8f565b602082019050919050565b60006126b9601383612b84565b91506126c482612fb8565b602082019050919050565b60006126dc602483612b84565b91506126e782612fe1565b604082019050919050565b60006126ff602083612b84565b915061270a82613030565b602082019050919050565b6000612722602183612b84565b915061272d82613059565b604082019050919050565b6000612745602583612b84565b9150612750826130a8565b604082019050919050565b6000612768602483612b84565b9150612773826130f7565b604082019050919050565b600061278b601583612b84565b915061279682613146565b602082019050919050565b60006127ae601f83612b84565b91506127b98261316f565b602082019050919050565b60006127d1602683612b84565b91506127dc82613198565b604082019050919050565b60006127f4602583612b84565b91506127ff826131e7565b604082019050919050565b6000612817601f83612b84565b915061282282613236565b602082019050919050565b61283681612c4a565b82525050565b61284581612c54565b82525050565b600060208201905061286060008301846124f7565b92915050565b600060208201905061287b6000830184612506565b92915050565b6000602082019050818103600083015261289b8184612515565b905092915050565b600060208201905081810360008301526128bc8161254e565b9050919050565b600060208201905081810360008301526128dc81612571565b9050919050565b600060208201905081810360008301526128fc81612594565b9050919050565b6000602082019050818103600083015261291c816125b7565b9050919050565b6000602082019050818103600083015261293c816125da565b9050919050565b6000602082019050818103600083015261295c816125fd565b9050919050565b6000602082019050818103600083015261297c81612620565b9050919050565b6000602082019050818103600083015261299c81612643565b9050919050565b600060208201905081810360008301526129bc81612666565b9050919050565b600060208201905081810360008301526129dc81612689565b9050919050565b600060208201905081810360008301526129fc816126ac565b9050919050565b60006020820190508181036000830152612a1c816126cf565b9050919050565b60006020820190508181036000830152612a3c816126f2565b9050919050565b60006020820190508181036000830152612a5c81612715565b9050919050565b60006020820190508181036000830152612a7c81612738565b9050919050565b60006020820190508181036000830152612a9c8161275b565b9050919050565b60006020820190508181036000830152612abc8161277e565b9050919050565b60006020820190508181036000830152612adc816127a1565b9050919050565b60006020820190508181036000830152612afc816127c4565b9050919050565b60006020820190508181036000830152612b1c816127e7565b9050919050565b60006020820190508181036000830152612b3c8161280a565b9050919050565b6000602082019050612b58600083018461282d565b92915050565b6000602082019050612b73600083018461283c565b92915050565b600081519050919050565b600082825260208201905092915050565b6000612ba082612c4a565b9150612bab83612c4a565b9250827fffffffffffffffffffffffffffffffffffffffffffffffffffffffffffffffff03821115612be057612bdf612cc6565b5b828201905092915050565b6000612bf682612c09565b9050919050565b60008115159050919050565b600073ffffffffffffffffffffffffffffffffffffffff82169050919050565b600074ffffffffffffffffffffffffffffffffffffffffff82169050919050565b6000819050919050565b600060ff82169050919050565b60005b83811015612c7f578082015181840152602081019050612c64565b83811115612c8e576000848401525b50505050565b60006002820490506001821680612cac57607f821691505b60208210811415612cc057612cbf612cf5565b5b50919050565b7f4e487b7100000000000000000000000000000000000000000000000000000000600052601160045260246000fd5b7f4e487b7100000000000000000000000000000000000000000000000000000000600052602260045260246000fd5b600080fd5b6000601f19601f8301169050919050565b7f45524332303a207472616e7366657220746f20746865207a65726f206164647260008201527f6573730000000000000000000000000000000000000000000000000000000000602082015250565b7f5061757361626c653a206e6f7420706175736564000000000000000000000000600082015250565b7f45524332303a206275726e20616d6f756e7420657863656564732062616c616e60008201527f6365000000000000000000000000000000000000000000000000000000000000602082015250565b7f4f776e61626c653a206e6577206f776e657220697320746865207a65726f206160008201527f6464726573730000000000000000000000000000000000000000000000000000602082015250565b7f45524332303a20617070726f766520746f20746865207a65726f20616464726560008201527f7373000000000000000000000000000000000000000000000000000000000000602082015250565b7f45524332303a20696e73756666696369656e7420616c6c6f77616e6365000000600082015250565b7f45524332303a207472616e7366657220616d6f756e742065786365656473206260008201527f616c616e63650000000000000000000000000000000000000000000000000000602082015250565b7f43616c6c6572206973206e6f7420746865206465706c6f796572206f7220746860008201527f65207472757374656420666f7277617264657200000000000000000000000000602082015250565b7f526563656976657220697320626c61636b6c6973746564000000000000000000600082015250565b7f5061757361626c653a2070617573656400000000000000000000000000000000600082015250565b7f5573657220697320626c61636b6c697374656400000000000000000000000000600082015250565b7f417474656d7074696e6720746f206d696e74206d6f7265207468616e20616c6c60008201527f6f77656400000000000000000000000000000000000000000000000000000000602082015250565b7f4f776e61626c653a2063616c6c6572206973206e6f7420746865206f776e6572600082015250565b7f45524332303a206275726e2066726f6d20746865207a65726f2061646472657360008201527f7300000000000000000000000000000000000000000000000000000000000000602082015250565b7f45524332303a207472616e736665722066726f6d20746865207a65726f20616460008201527f6472657373000000000000000000000000000000000000000000000000000000602082015250565b7f45524332303a20617070726f76652066726f6d20746865207a65726f2061646460008201527f7265737300000000000000000000000000000000000000000000000000000000602082015250565b7f4d696e746572206e6f7420617574686f72697a65640000000000000000000000600082015250565b7f5265656e7472616e637947756172643a207265656e7472616e742063616c6c00600082015250565b7f4661696c656420746f207265766f6b65206d696e74696e6720617574686f726960008201527f7a6174696f6e0000000000000000000000000000000000000000000000000000602082015250565b7f45524332303a2064656372656173656420616c6c6f77616e63652062656c6f7760008201527f207a65726f000000000000000000000000000000000000000000000000000000602082015250565b7f45524332303a206d696e7420746f20746865207a65726f206164647265737300600082015250565b61326881612c29565b811461327357600080fd5b50565b61327f81612bfd565b811461328a57600080fd5b50565b61329681612c4a565b81146132a157600080fd5b5056fea26474726f6e58221220fd89a51f80ee672ed90eef8255542af93ad792e8f0e76aab52493e5170ac870f64736f6c63430008060033",
  "source": "// SPDX-License-Identifier: MIT\n// OpenZeppelin Contracts (last updated v4.8.0) (token/ERC20/ERC20.sol)\n\npragma solidity ^0.8.4;\n\n\n\nabstract contract Context {\n    function _msgSender() internal view virtual returns (address) {\n        return msg.sender;\n    }\n\n    function _msgData() internal view virtual returns (bytes calldata) {\n        return msg.data;\n    }\n}\ninterface IERC20 {\n    /**\n     * @dev Emitted when `value` tokens are moved from one account (`from`) to\n     * another (`to`).\n     *\n     * Note that `value` may be zero.\n     */\n    event Transfer(address indexed from, address indexed to, uint256 value);\n\n    /**\n     * @dev Emitted when the allowance of a `spender` for an `owner` is set by\n     * a call to {approve}. `value` is the new allowance.\n     */\n    event Approval(address indexed owner, address indexed spender, uint256 value);\n\n    /**\n     * @dev Returns the amount of tokens in existence.\n     */\n    function totalSupply() external view returns (uint256);\n\n    /**\n     * @dev Returns the amount of tokens owned by `account`.\n     */\n    function balanceOf(address account) external view returns (uint256);\n\n    /**\n     * @dev Moves `amount` tokens from the caller's account to `to`.\n     *\n     * Returns a boolean value indicating whether the operation succeeded.\n     *\n     * Emits a {Transfer} event.\n     */\n    function transfer(address to, uint256 amount) external returns (bool);\n\n    /**\n     * @dev Returns the remaining number of tokens that `spender` will be\n     * allowed to spend on behalf of `owner` through {transferFrom}. This is\n     * zero by default.\n     *\n     * This value changes when {approve} or {transferFrom} are called.\n     */\n    function allowance(address owner, address spender) external view returns (uint256);\n\n    /**\n     * @dev Sets `amount` as the allowance of `spender` over the caller's tokens.\n     *\n     * Returns a boolean value indicating whether the operation succeeded.\n     *\n     * IMPORTANT: Beware that changing an allowance with this method brings the risk\n     * that someone may use both the old and the new allowance by unfortunate\n     * transaction ordering. One possible solution to mitigate this race\n     * condition is to first reduce the spender's allowance to 0 and set the\n     * desired value afterwards:\n     * https://github.com/ethereum/EIPs/issues/20#issuecomment-263524729\n     *\n     * Emits an {Approval} event.\n     */\n    function approve(address spender, uint256 amount) external returns (bool);\n\n    /**\n     * @dev Moves `amount` tokens from `from` to `to` using the\n     * allowance mechanism. `amount` is then deducted from the caller's\n     * allowance.\n     *\n     * Returns a boolean value indicating whether the operation succeeded.\n     *\n     * Emits a {Transfer} event.\n     */\n    function transferFrom(\n        address from,\n        address to,\n        uint256 amount\n    ) external returns (bool);\n}\n\nabstract contract Pausable is Context {\n    /**\n     * @dev Emitted when the pause is triggered by `account`.\n     */\n    event Paused(address account);\n\n    /**\n     * @dev Emitted when the pause is lifted by `account`.\n     */\n    event Unpaused(address account);\n\n    bool private _paused;\n\n    /**\n     * @dev Initializes the contract in unpaused state.\n     */\n    constructor() {\n        _paused = false;\n    }\n\n    /**\n     * @dev Modifier to make a function callable only when the contract is not paused.\n     *\n     * Requirements:\n     *\n     * - The contract must not be paused.\n     */\n    modifier whenNotPaused() {\n        _requireNotPaused();\n        _;\n    }\n\n    /**\n     * @dev Modifier to make a function callable only when the contract is paused.\n     *\n     * Requirements:\n     *\n     * - The contract must be paused.\n     */\n    modifier whenPaused() {\n        _requirePaused();\n        _;\n    }\n\n    /**\n     * @dev Returns true if the contract is paused, and false otherwise.\n     */\n    function paused() public view virtual returns (bool) {\n        return _paused;\n    }\n\n    /**\n     * @dev Throws if the contract is paused.\n     */\n    function _requireNotPaused() internal view virtual {\n        require(!paused(), \"Pausable: paused\");\n    }\n\n    /**\n     * @dev Throws if the contract is not paused.\n     */\n    function _requirePaused() internal view virtual {\n        require(paused(), \"Pausable: not paused\");\n    }\n\n    /**\n     * @dev Triggers stopped state.\n     *\n     * Requirements:\n     *\n     * - The contract must not be paused.\n     */\n    function _pause() internal virtual whenNotPaused {\n        _paused = true;\n        emit Paused(_msgSender());\n    }\n\n    /**\n     * @dev Returns to normal state.\n     *\n     * Requirements:\n     *\n     * - The contract must be paused.\n     */\n    function _unpause() internal virtual whenPaused {\n        _paused = false;\n        emit Unpaused(_msgSender());\n    }\n}\n\nabstract contract Ownable is Context {\n    address private _owner;\n\n    event OwnershipTransferred(address indexed previousOwner, address indexed newOwner);\n\n    /**\n     * @dev Initializes the contract setting the deployer as the initial owner.\n     */\n    constructor() {\n        _transferOwnership(_msgSender());\n    }\n\n    /**\n     * @dev Throws if called by any account other than the owner.\n     */\n    modifier onlyOwner() {\n        _checkOwner();\n        _;\n    }\n\n    /**\n     * @dev Returns the address of the current owner.\n     */\n    function owner() public view virtual returns (address) {\n        return _owner;\n    }\n\n    /**\n     * @dev Throws if the sender is not the owner.\n     */\n    function _checkOwner() internal view virtual {\n        require(owner() == _msgSender(), \"Ownable: caller is not the owner\");\n    }\n\n    /**\n     * @dev Leaves the contract without owner. It will not be possible to call\n     * `onlyOwner` functions anymore. Can only be called by the current owner.\n     *\n     * NOTE: Renouncing ownership will leave the contract without an owner,\n     * thereby removing any functionality that is only available to the owner.\n     */\n    function renounceOwnership() public virtual onlyOwner {\n        _transferOwnership(address(0));\n    }\n\n    /**\n     * @dev Transfers ownership of the contract to a new account (`newOwner`).\n     * Can only be called by the current owner.\n     */\n    function transferOwnership(address newOwner) public virtual onlyOwner {\n        require(newOwner != address(0), \"Ownable: new owner is the zero address\");\n        _transferOwnership(newOwner);\n    }\n\n    /**\n     * @dev Transfers ownership of the contract to a new account (`newOwner`).\n     * Internal function without access restriction.\n     */\n    function _transferOwnership(address newOwner) internal virtual {\n        address oldOwner = _owner;\n        _owner = newOwner;\n        emit OwnershipTransferred(oldOwner, newOwner);\n    }\n}\n\nabstract contract ReentrancyGuard {\n    // Booleans are more expensive than uint256 or any type that takes up a full\n    // word because each write operation emits an extra SLOAD to first read the\n    // slot's contents, replace the bits taken up by the boolean, and then write\n    // back. This is the compiler's defense against contract upgrades and\n    // pointer aliasing, and it cannot be disabled.\n\n    // The values being non-zero value makes deployment a bit more expensive,\n    // but in exchange the refund on every call to nonReentrant will be lower in\n    // amount. Since refunds are capped to a percentage of the total\n    // transaction's gas, it is best to keep them low in cases like this one, to\n    // increase the likelihood of the full refund coming into effect.\n    uint256 private constant _NOT_ENTERED = 1;\n    uint256 private constant _ENTERED = 2;\n\n    uint256 private _status;\n\n    constructor() {\n        _status = _NOT_ENTERED;\n    }\n\n    /**\n     * @dev Prevents a contract from calling itself, directly or indirectly.\n     * Calling a `nonReentrant` function from another `nonReentrant`\n     * function is not supported. It is possible to prevent this from happening\n     * by making the `nonReentrant` function external, and making it call a\n     * `private` function that does the actual work.\n     */\n    modifier nonReentrant() {\n        _nonReentrantBefore();\n        _;\n        _nonReentrantAfter();\n    }\n\n    function _nonReentrantBefore() private {\n        // On the first call to nonReentrant, _status will be _NOT_ENTERED\n        require(_status != _ENTERED, \"ReentrancyGuard: reentrant call\");\n\n        // Any calls to nonReentrant after this point will fail\n        _status = _ENTERED;\n    }\n\n    function _nonReentrantAfter() private {\n        // By storing the original value once again, a refund is triggered (see\n        // https://eips.ethereum.org/EIPS/eip-2200)\n        _status = _NOT_ENTERED;\n    }\n}\n\ninterface IERC20Metadata is IERC20 {\n    /**\n     * @dev Returns the name of the token.\n     */\n    function name() external view returns (string memory);\n\n    /**\n     * @dev Returns the symbol of the token.\n     */\n    function symbol() external view returns (string memory);\n\n    /**\n     * @dev Returns the decimals places of the token.\n     */\n    function decimals() external view returns (uint8);\n}\n\n\ninterface IAdmin {\n    function canForward(address user) external view returns (bool);\n\n    function canMint(address user) external view returns (bool);\n\n    function mintAmount(address user) external view returns (uint256);\n\n    function isBlackListed(address user) external view returns (bool);\n\n    function trustedContract(\n        address contractAddress\n    ) external view returns (bool);\n\n    function isExternalSenderWhitelisted(\n        address user\n    ) external view returns (bool);\n\n    function isInternalUserWhitelisted(\n        address user\n    ) external view returns (bool);\n\n    function addCanMint(address user) external returns (bool);\n\n    function removeCanMint(address user) external returns (bool);\n\n    function addMintAmount(\n        address user,\n        uint256 amount\n    ) external returns (bool);\n\n    function removeMintAmount(address user) external returns (bool);\n\n    function whitelistInternalUser(address user) external returns (bool);\n\n    function blacklistInternalUser(address user) external returns (bool);\n\n    function whitelistExternalSender(address user) external returns (bool);\n\n    function blacklistExternalSender(address user) external returns (bool);\n\n    function addCanForward(address user) external returns (bool);\n\n    function removeCanForward(address user) external returns (bool);\n\n    function addTrustedContract(\n        address contractAddress\n    ) external returns (bool);\n\n    function removeTrustedContract(\n        address contractAddress\n    ) external returns (bool);\n\n    function addBlackList(address evilUser) external returns (bool);\n\n    function removeBlackList(address clearedUser) external returns (bool);\n}\n\ncontract cngn is IERC20, IERC20Metadata, Ownable, Pausable, ReentrancyGuard {\n    mapping(address => uint256) private _balances;\n    mapping(address => mapping(address => uint256)) private _allowances;\n    mapping(address => bool) private isBlackListed;\n    mapping(address => bool) private isWhiteListed;\n    mapping(address => mapping(address => uint256)) private isMintAllow;\n\n    uint256 private _totalSupply;\n    string private _name;\n    string private _symbol;\n    address trustedForwarderContract;\n    address adminOperationsContract;\n\n    event DestroyedBlackFunds(address indexed _blackListedUser, uint256 _balance);\n    event AddedBlackList(address indexed _user);\n    event RemovedBlackList(address indexed _user);\n    event AddedWhiteList(address indexed _user);\n    event RemovedWhiteList(address indexed _user);\n    event AddedMintAllow(address indexed _user, uint256 _amount);\n\n    modifier onlyDeployerOrForwarder() {\n        require(\n            msg.sender == owner() || isTrustedForwarder(msg.sender),\n            \"Caller is not the deployer or the trusted forwarder\"\n        );\n        _;\n    }\n\n    constructor(\n        string memory name_,\n        string memory symbol_,\n        address _trustedForwarderContract,\n        address _adminOperationsContract\n    ) {\n        _name = name_;\n        _symbol = symbol_;\n        trustedForwarderContract = _trustedForwarderContract;\n        adminOperationsContract = _adminOperationsContract;\n    }\n\n    function isTrustedForwarder(address forwarder) public view returns (bool) {\n        return forwarder == trustedForwarderContract;\n    }\n\n    function msgSender() internal view returns (address payable signer) {\n        if (msg.data.length >= 20 && isTrustedForwarder(msg.sender)) {\n            assembly {\n                signer := shr(96, calldataload(sub(calldatasize(), 20)))\n            }\n        } else {\n            signer = payable(msg.sender);\n        }\n        return signer;\n    }\n\n    function updateAdminOperationsAddress(\n        address _newAdmin\n    ) public onlyOwner returns (bool) {\n        adminOperationsContract = _newAdmin;\n        return true;\n    }\n\n    function updateForwarderContract(\n        address _newForwarderContract\n    ) public onlyOwner returns (bool) {\n        trustedForwarderContract = _newForwarderContract;\n        return true;\n    }\n\n    function name() public view override returns (string memory) {\n        return _name;\n    }\n\n    function symbol() public view override returns (string memory) {\n        return _symbol;\n    }\n\n    function decimals() public pure override returns (uint8) {\n        return 6;\n    }\n\n    function totalSupply() public view override returns (uint256) {\n        return _totalSupply;\n    }\n\n    function balanceOf(address account) public view override returns (uint256) {\n        return _balances[account];\n    }\n\n     function transfer(\n        address to,\n        uint256 amount\n    ) public virtual override nonReentrant returns (bool) {\n        address owner = _msgSender();\n        if (\n            !IAdmin(adminOperationsContract).isBlackListed(_msgSender()) &&\n            !IAdmin(adminOperationsContract).isBlackListed(to) &&\n            IAdmin(adminOperationsContract).isInternalUserWhitelisted(to) &&\n            IAdmin(adminOperationsContract).isExternalSenderWhitelisted(\n                _msgSender()\n            )\n        ) {\n            _transfer(owner, to, amount);\n            _burn(to, amount);\n            return true;\n        } else {\n            require(!IAdmin(adminOperationsContract).isBlackListed(_msgSender()));\n            require(!IAdmin(adminOperationsContract).isBlackListed(to));\n            _transfer(owner, to, amount);\n            return true;\n        }\n    }\n\n\n    function allowance(\n        address owner,\n        address spender\n    ) public view virtual override returns (uint256) {\n        return _allowances[owner][spender];\n    }\n\n    function approve(\n        address spender,\n        uint256 amount\n    ) public virtual override returns (bool) {\n        address owner = _msgSender();\n        _approve(owner, spender, amount);\n        return true;\n    }\n\n    function transferFrom(\n        address from,\n        address to,\n        uint256 amount\n    ) public  virtual override whenNotPaused nonReentrant returns (bool) {\n        require(!IAdmin(adminOperationsContract).isBlackListed(_msgSender()));\n        require(!IAdmin(adminOperationsContract).isBlackListed(from));\n        require(!IAdmin(adminOperationsContract).isBlackListed(to));\n        address spender = _msgSender();\n        _spendAllowance(from, spender, amount);\n        _transfer(from, to, amount);\n        return true;\n    }\n\n    function increaseAllowance(\n        address spender,\n        uint256 addedValue\n    ) public virtual returns (bool) {\n        address owner = _msgSender();\n        _approve(owner, spender, _allowances[owner][spender] + addedValue);\n        return true;\n    }\n\n    function decreaseAllowance(\n        address spender,\n        uint256 subtractedValue\n    ) public virtual returns (bool) {\n        address owner = _msgSender();\n        uint256 currentAllowance = _allowances[owner][spender];\n        require(\n            currentAllowance >= subtractedValue,\n            \"ERC20: decreased allowance below zero\"\n        );\n        unchecked {\n            _approve(owner, spender, currentAllowance - subtractedValue);\n        }\n        return true;\n    }\n\n    function mint(\n        uint256 _amount,\n        address _mintTo\n    ) public onlyDeployerOrForwarder nonReentrant returns (bool) {\n        address signer = msgSender();\n        require(\n            !IAdmin(adminOperationsContract).isBlackListed(signer),\n            \"User is blacklisted\"\n        );\n        require(\n            !IAdmin(adminOperationsContract).isBlackListed(_mintTo),\n            \"Receiver is blacklisted\"\n        );\n        require(\n            IAdmin(adminOperationsContract).canMint(signer),\n            \"Minter not authorized\"\n        );\n        require(\n            IAdmin(adminOperationsContract).mintAmount(signer) == _amount,\n            \"Attempting to mint more than allowed\"\n        );\n        _mint(_mintTo, _amount);\n\n        bool removed = IAdmin(adminOperationsContract).removeCanMint(signer);\n        require(removed, \"Failed to revoke minting authorization\");\n\n        return true;\n    }\n\n    function burnByUser(\n        uint256 _amount\n    ) public virtual onlyDeployerOrForwarder nonReentrant returns (bool) {\n        _burn(_msgSender(), _amount);\n        return true;\n    }\n\n    function pause() public virtual onlyOwner returns (bool) {\n        _pause();\n        return true;\n    }\n\n    function unPause() public virtual onlyOwner returns (bool) {\n        _unpause();\n        return true;\n    }\n\n    function _transfer(address from, address to, uint256 amount) internal {\n        require(from != address(0), \"ERC20: transfer from the zero address\");\n        require(to != address(0), \"ERC20: transfer to the zero address\");\n\n        _beforeTokenTransfer(from, to, amount);\n\n        uint256 fromBalance = _balances[from];\n        require(\n            fromBalance >= amount,\n            \"ERC20: transfer amount exceeds balance\"\n        );\n        unchecked {\n            _balances[from] = fromBalance - amount;\n            _balances[to] += amount;\n        }\n\n        emit Transfer(from, to, amount);\n\n        _afterTokenTransfer(from, to, amount);\n    }\n\n   function _mint(address account, uint256 amount) internal virtual {\n        require(account != address(0), \"ERC20: mint to the zero address\");\n\n        _beforeTokenTransfer(address(0), account, amount);\n\n        _totalSupply += amount;\n        unchecked {\n            _balances[account] += amount;\n        }\n        emit Transfer(address(0), account, amount);\n\n        _afterTokenTransfer(address(0), account, amount);\n    }\n\n    function _burn(address account, uint256 amount) internal virtual {\n        require(account != address(0), \"ERC20: burn from the zero address\");\n\n        _beforeTokenTransfer(account, address(0), amount);\n\n        uint256 accountBalance = _balances[account];\n        require(accountBalance >= amount, \"ERC20: burn amount exceeds balance\");\n        unchecked {\n            _balances[account] = accountBalance - amount;\n            _totalSupply -= amount;\n        }\n\n        emit Transfer(account, address(0), amount);\n\n        _afterTokenTransfer(account, address(0), amount);\n    }\n\n    function _approve(\n        address owner,\n        address spender,\n        uint256 amount\n    ) internal virtual {\n        require(owner != address(0), \"ERC20: approve from the zero address\");\n        require(spender != address(0), \"ERC20: approve to the zero address\");\n\n        _allowances[owner][spender] = amount;\n        emit Approval(owner, spender, amount);\n    }\n\n    function _spendAllowance(\n        address owner,\n        address spender,\n        uint256 amount\n    ) internal virtual {\n        uint256 currentAllowance = allowance(owner, spender);\n        if (currentAllowance != type(uint256).max) {\n            require(\n                currentAllowance >= amount,\n                \"ERC20: insufficient allowance\"\n            );\n            unchecked {\n                _approve(owner, spender, currentAllowance - amount);\n            }\n        }\n    }\n\n    function _beforeTokenTransfer(\n        address from,\n        address to,\n        uint256 amount\n    ) internal virtual whenNotPaused {}\n\n    function _afterTokenTransfer(\n        address from,\n        address to,\n        uint256 amount\n    ) internal virtual {}\n\n    uint256[45] private __gap;\n}\n",
  "sourcePath": "/Users/charlesokaformbah/Projects/stablecoin-cngn/tron-contract/contracts/Cngn.sol",
  "compiler": {
    "name": "solc",
    "version": "0.8.6+commit.0e36fba0.mod.Emscripten.clang"
  },
  "schemaVersion": "2.0.1",
  "updatedAt": "2024-12-03T14:45:48.994Z"
}