{
  "contractName": "Cngn",
  "abi": [
    {
      "anonymous": false,
      "inputs": [
        {
          "indexed": true,
          "internalType": "address",
          "name": "owner",
          "type": "address"
        },
        {
          "indexed": true,
          "internalType": "address",
          "name": "spender",
          "type": "address"
        },
        {
          "indexed": false,
          "internalType": "uint256",
          "name": "value",
          "type": "uint256"
        }
      ],
      "name": "Approval",
      "type": "event"
    },
    {
      "anonymous": false,
      "inputs": [
        {
          "indexed": true,
          "internalType": "address",
          "name": "user",
          "type": "address"
        },
        {
          "indexed": false,
          "internalType": "uint256",
          "name": "amount",
          "type": "uint256"
        }
      ],
      "name": "DestroyedBlackFunds",
      "type": "event"
    },
    {
      "anonymous": false,
      "inputs": [
        {
          "indexed": false,
          "internalType": "uint8",
          "name": "version",
          "type": "uint8"
        }
      ],
      "name": "Initialized",
      "type": "event"
    },
    {
      "anonymous": false,
      "inputs": [
        {
          "indexed": true,
          "internalType": "address",
          "name": "previousOwner",
          "type": "address"
        },
        {
          "indexed": true,
          "internalType": "address",
          "name": "newOwner",
          "type": "address"
        }
      ],
      "name": "OwnershipTransferred",
      "type": "event"
    },
    {
      "anonymous": false,
      "inputs": [
        {
          "indexed": false,
          "internalType": "address",
          "name": "account",
          "type": "address"
        }
      ],
      "name": "Paused",
      "type": "event"
    },
    {
      "anonymous": false,
      "inputs": [
        {
          "indexed": true,
          "internalType": "address",
          "name": "from",
          "type": "address"
        },
        {
          "indexed": true,
          "internalType": "address",
          "name": "to",
          "type": "address"
        },
        {
          "indexed": false,
          "internalType": "uint256",
          "name": "value",
          "type": "uint256"
        }
      ],
      "name": "Transfer",
      "type": "event"
    },
    {
      "anonymous": false,
      "inputs": [
        {
          "indexed": false,
          "internalType": "address",
          "name": "account",
          "type": "address"
        }
      ],
      "name": "Unpaused",
      "type": "event"
    },
    {
      "inputs": [],
      "name": "adminOperationsContract",
      "outputs": [
        {
          "internalType": "address",
          "name": "",
          "type": "address"
        }
      ],
      "stateMutability": "view",
      "type": "function"
    },
    {
      "inputs": [
        {
          "internalType": "address",
          "name": "owner",
          "type": "address"
        },
        {
          "internalType": "address",
          "name": "spender",
          "type": "address"
        }
      ],
      "name": "allowance",
      "outputs": [
        {
          "internalType": "uint256",
          "name": "",
          "type": "uint256"
        }
      ],
      "stateMutability": "view",
      "type": "function"
    },
    {
      "inputs": [
        {
          "internalType": "address",
          "name": "spender",
          "type": "address"
        },
        {
          "internalType": "uint256",
          "name": "amount",
          "type": "uint256"
        }
      ],
      "name": "approve",
      "outputs": [
        {
          "internalType": "bool",
          "name": "",
          "type": "bool"
        }
      ],
      "stateMutability": "nonpayable",
      "type": "function"
    },
    {
      "inputs": [
        {
          "internalType": "address",
          "name": "account",
          "type": "address"
        }
      ],
      "name": "balanceOf",
      "outputs": [
        {
          "internalType": "uint256",
          "name": "",
          "type": "uint256"
        }
      ],
      "stateMutability": "view",
      "type": "function"
    },
    {
      "inputs": [
        {
          "internalType": "uint256",
          "name": "_amount",
          "type": "uint256"
        }
      ],
      "name": "burnByUser",
      "outputs": [
        {
          "internalType": "bool",
          "name": "",
          "type": "bool"
        }
      ],
      "stateMutability": "nonpayable",
      "type": "function"
    },
    {
      "inputs": [],
      "name": "decimals",
      "outputs": [
        {
          "internalType": "uint8",
          "name": "",
          "type": "uint8"
        }
      ],
      "stateMutability": "view",
      "type": "function"
    },
    {
      "inputs": [
        {
          "internalType": "address",
          "name": "spender",
          "type": "address"
        },
        {
          "internalType": "uint256",
          "name": "subtractedValue",
          "type": "uint256"
        }
      ],
      "name": "decreaseAllowance",
      "outputs": [
        {
          "internalType": "bool",
          "name": "",
          "type": "bool"
        }
      ],
      "stateMutability": "nonpayable",
      "type": "function"
    },
    {
      "inputs": [
        {
          "internalType": "address",
          "name": "_blackListedUser",
          "type": "address"
        }
      ],
      "name": "destroyBlackFunds",
      "outputs": [
        {
          "internalType": "bool",
          "name": "",
          "type": "bool"
        }
      ],
      "stateMutability": "nonpayable",
      "type": "function"
    },
    {
      "inputs": [
        {
          "internalType": "address",
          "name": "spender",
          "type": "address"
        },
        {
          "internalType": "uint256",
          "name": "addedValue",
          "type": "uint256"
        }
      ],
      "name": "increaseAllowance",
      "outputs": [
        {
          "internalType": "bool",
          "name": "",
          "type": "bool"
        }
      ],
      "stateMutability": "nonpayable",
      "type": "function"
    },
    {
      "inputs": [
        {
          "internalType": "address",
          "name": "_trustedForwarderContract",
          "type": "address"
        },
        {
          "internalType": "address",
          "name": "_adminOperationsContract",
          "type": "address"
        }
      ],
      "name": "initialize",
      "outputs": [],
      "stateMutability": "nonpayable",
      "type": "function"
    },
    {
      "inputs": [
        {
          "internalType": "address",
          "name": "forwarder",
          "type": "address"
        }
      ],
      "name": "isTrustedForwarder",
      "outputs": [
        {
          "internalType": "bool",
          "name": "",
          "type": "bool"
        }
      ],
      "stateMutability": "view",
      "type": "function"
    },
    {
      "inputs": [
        {
          "internalType": "uint256",
          "name": "_amount",
          "type": "uint256"
        },
        {
          "internalType": "address",
          "name": "_mintTo",
          "type": "address"
        }
      ],
      "name": "mint",
      "outputs": [
        {
          "internalType": "bool",
          "name": "",
          "type": "bool"
        }
      ],
      "stateMutability": "nonpayable",
      "type": "function"
    },
    {
      "inputs": [],
      "name": "name",
      "outputs": [
        {
          "internalType": "string",
          "name": "",
          "type": "string"
        }
      ],
      "stateMutability": "view",
      "type": "function"
    },
    {
      "inputs": [],
      "name": "owner",
      "outputs": [
        {
          "internalType": "address",
          "name": "",
          "type": "address"
        }
      ],
      "stateMutability": "view",
      "type": "function"
    },
    {
      "inputs": [],
      "name": "pause",
      "outputs": [
        {
          "internalType": "bool",
          "name": "",
          "type": "bool"
        }
      ],
      "stateMutability": "nonpayable",
      "type": "function"
    },
    {
      "inputs": [],
      "name": "paused",
      "outputs": [
        {
          "internalType": "bool",
          "name": "",
          "type": "bool"
        }
      ],
      "stateMutability": "view",
      "type": "function"
    },
    {
      "inputs": [],
      "name": "renounceOwnership",
      "outputs": [],
      "stateMutability": "nonpayable",
      "type": "function"
    },
    {
      "inputs": [],
      "name": "symbol",
      "outputs": [
        {
          "internalType": "string",
          "name": "",
          "type": "string"
        }
      ],
      "stateMutability": "view",
      "type": "function"
    },
    {
      "inputs": [],
      "name": "totalSupply",
      "outputs": [
        {
          "internalType": "uint256",
          "name": "",
          "type": "uint256"
        }
      ],
      "stateMutability": "view",
      "type": "function"
    },
    {
      "inputs": [
        {
          "internalType": "address",
          "name": "to",
          "type": "address"
        },
        {
          "internalType": "uint256",
          "name": "amount",
          "type": "uint256"
        }
      ],
      "name": "transfer",
      "outputs": [
        {
          "internalType": "bool",
          "name": "",
          "type": "bool"
        }
      ],
      "stateMutability": "nonpayable",
      "type": "function"
    },
    {
      "inputs": [
        {
          "internalType": "address",
          "name": "from",
          "type": "address"
        },
        {
          "internalType": "address",
          "name": "to",
          "type": "address"
        },
        {
          "internalType": "uint256",
          "name": "amount",
          "type": "uint256"
        }
      ],
      "name": "transferFrom",
      "outputs": [
        {
          "internalType": "bool",
          "name": "",
          "type": "bool"
        }
      ],
      "stateMutability": "nonpayable",
      "type": "function"
    },
    {
      "inputs": [
        {
          "internalType": "address",
          "name": "newOwner",
          "type": "address"
        }
      ],
      "name": "transferOwnership",
      "outputs": [],
      "stateMutability": "nonpayable",
      "type": "function"
    },
    {
      "inputs": [],
      "name": "trustedForwarderContract",
      "outputs": [
        {
          "internalType": "address",
          "name": "",
          "type": "address"
        }
      ],
      "stateMutability": "view",
      "type": "function"
    },
    {
      "inputs": [],
      "name": "unPause",
      "outputs": [
        {
          "internalType": "bool",
          "name": "",
          "type": "bool"
        }
      ],
      "stateMutability": "nonpayable",
      "type": "function"
    },
    {
      "inputs": [
        {
          "internalType": "address",
          "name": "_newAdmin",
          "type": "address"
        }
      ],
      "name": "updateAdminOperationsAddress",
      "outputs": [
        {
          "internalType": "bool",
          "name": "",
          "type": "bool"
        }
      ],
      "stateMutability": "nonpayable",
      "type": "function"
    },
    {
      "inputs": [
        {
          "internalType": "address",
          "name": "_newForwarderContract",
          "type": "address"
        }
      ],
      "name": "updateForwarderContract",
      "outputs": [
        {
          "internalType": "bool",
          "name": "",
          "type": "bool"
        }
      ],
      "stateMutability": "nonpayable",
      "type": "function"
    }
  ],
  "bytecode": "0x608060405234801561000f575f80fd5b50d3801561001b575f80fd5b50d28015610027575f80fd5b50613a7180620000365f395ff3fe608060405234801561000f575f80fd5b50d3801561001b575f80fd5b50d28015610027575f80fd5b50600436106101a4575f3560e01c80638456cb59116100f4578063b7d5b1ef116100ad578063e82ed20011610087578063e82ed200146104fe578063f2fde38b1461051c578063f3bdc22814610538578063f7b188a514610568576101a4565b8063b7d5b1ef1461046e578063b83fd8231461049e578063dd62ed3e146104ce576101a4565b80638456cb59146103845780638da5cb5b146103a257806394bf804d146103c057806395d89b41146103f0578063a457c2d71461040e578063a9059cbb1461043e576101a4565b8063485cc955116101615780635c975abb1161013b5780635c975abb146102fc57806370a082311461031a578063715018a61461034a5780637742af4614610354576101a4565b8063485cc955146102925780634dc50a70146102ae578063572b6c05146102cc576101a4565b806306fdde03146101a8578063095ea7b3146101c657806318160ddd146101f657806323b872dd14610214578063313ce567146102445780633950935114610262575b5f80fd5b6101b0610586565b6040516101bd91906127fb565b60405180910390f35b6101e060048036038101906101db91906128d7565b610616565b6040516101ed919061292f565b60405180910390f35b6101fe610638565b60405161020b9190612957565b60405180910390f35b61022e60048036038101906102299190612970565b610641565b60405161023b919061292f565b60405180910390f35b61024c610874565b60405161025991906129db565b60405180910390f35b61027c600480360381019061027791906128d7565b61087c565b604051610289919061292f565b60405180910390f35b6102ac60048036038101906102a791906129f4565b6108b2565b005b6102b6610af0565b6040516102c39190612a41565b60405180910390f35b6102e660048036038101906102e19190612a5a565b610b15565b6040516102f3919061292f565b60405180910390f35b610304610b6d565b604051610311919061292f565b60405180910390f35b610334600480360381019061032f9190612a5a565b610b82565b6040516103419190612957565b60405180910390f35b610352610bc8565b005b61036e60048036038101906103699190612a85565b610bdb565b60405161037b919061292f565b60405180910390f35b61038c610c06565b604051610399919061292f565b60405180910390f35b6103aa610c1e565b6040516103b79190612a41565b60405180910390f35b6103da60048036038101906103d59190612ab0565b610c46565b6040516103e7919061292f565b60405180910390f35b6103f86110b9565b60405161040591906127fb565b60405180910390f35b610428600480360381019061042391906128d7565b611149565b604051610435919061292f565b60405180910390f35b610458600480360381019061045391906128d7565b6111be565b604051610465919061292f565b60405180910390f35b61048860048036038101906104839190612a5a565b6115ec565b604051610495919061292f565b60405180910390f35b6104b860048036038101906104b39190612a5a565b61163e565b6040516104c5919061292f565b60405180910390f35b6104e860048036038101906104e391906129f4565b611690565b6040516104f59190612957565b60405180910390f35b610506611712565b6040516105139190612a41565b60405180910390f35b61053660048036038101906105319190612a5a565b611737565b005b610552600480360381019061054d9190612a5a565b6117b9565b60405161055f919061292f565b60405180910390f35b610570611931565b60405161057d919061292f565b60405180910390f35b60606068805461059590612b1b565b80601f01602080910402602001604051908101604052809291908181526020018280546105c190612b1b565b801561060c5780601f106105e35761010080835404028352916020019161060c565b820191905f5260205f20905b8154815290600101906020018083116105ef57829003601f168201915b5050505050905090565b5f80610620611949565b905061062d818585611950565b600191505092915050565b5f60fd54905090565b5f61064a611b13565b610652611b5d565b60ff5f9054906101000a900473ffffffffffffffffffffffffffffffffffffffff1673ffffffffffffffffffffffffffffffffffffffff1663e47d6060610697611949565b6040518263ffffffff1660e01b81526004016106b39190612a41565b602060405180830381865afa1580156106ce573d5f803e3d5ffd5b505050506040513d601f19601f820116820180604052508101906106f29190612b75565b156106fb575f80fd5b60ff5f9054906101000a900473ffffffffffffffffffffffffffffffffffffffff1673ffffffffffffffffffffffffffffffffffffffff1663e47d6060856040518263ffffffff1660e01b81526004016107559190612a41565b602060405180830381865afa158015610770573d5f803e3d5ffd5b505050506040513d601f19601f820116820180604052508101906107949190612b75565b1561079d575f80fd5b60ff5f9054906101000a900473ffffffffffffffffffffffffffffffffffffffff1673ffffffffffffffffffffffffffffffffffffffff1663e47d6060846040518263ffffffff1660e01b81526004016107f79190612a41565b602060405180830381865afa158015610812573d5f803e3d5ffd5b505050506040513d601f19601f820116820180604052508101906108369190612b75565b1561083f575f80fd5b5f610848611949565b9050610855858285611bac565b610860858585611c37565b600191505061086d611ea6565b9392505050565b5f6006905090565b5f80610886611949565b90506108a78185856108988589611690565b6108a29190612bcd565b611950565b600191505092915050565b5f8060019054906101000a900460ff161590508080156108e1575060015f8054906101000a900460ff1660ff16105b8061090d57506108f030611eb0565b15801561090c575060015f8054906101000a900460ff1660ff16145b5b61094c576040517f08c379a000000000000000000000000000000000000000000000000000000000815260040161094390612c70565b60405180910390fd5b60015f806101000a81548160ff021916908360ff16021790555080156109875760015f60016101000a81548160ff0219169083151502179055505b61098f611ed2565b610a036040518060400160405280600481526020017f634e474e000000000000000000000000000000000000000000000000000000008152506040518060400160405280600481526020017f634e474e00000000000000000000000000000000000000000000000000000000815250611f2a565b610a0b611f86565b610a13611fde565b8260fe5f6101000a81548173ffffffffffffffffffffffffffffffffffffffff021916908373ffffffffffffffffffffffffffffffffffffffff1602179055508160ff5f6101000a81548173ffffffffffffffffffffffffffffffffffffffff021916908373ffffffffffffffffffffffffffffffffffffffff1602179055508015610aeb575f8060016101000a81548160ff0219169083151502179055507f7f26b83ff96e1f2b6a682f133852f6798a09c465da95921460cefb38474024986001604051610ae29190612cd0565b60405180910390a15b505050565b60fe5f9054906101000a900473ffffffffffffffffffffffffffffffffffffffff1681565b5f60fe5f9054906101000a900473ffffffffffffffffffffffffffffffffffffffff1673ffffffffffffffffffffffffffffffffffffffff168273ffffffffffffffffffffffffffffffffffffffff16149050919050565b5f60975f9054906101000a900460ff16905090565b5f60fb5f8373ffffffffffffffffffffffffffffffffffffffff1673ffffffffffffffffffffffffffffffffffffffff1681526020019081526020015f20549050919050565b610bd0612036565b610bd95f6120b4565b565b5f610be4611b5d565b610bf5610bef611949565b83612177565b60019050610c01611ea6565b919050565b5f610c0f612036565b610c1761233c565b6001905090565b5f60335f9054906101000a900473ffffffffffffffffffffffffffffffffffffffff16905090565b5f610c4f611b5d565b5f610c5861239e565b905060ff5f9054906101000a900473ffffffffffffffffffffffffffffffffffffffff1673ffffffffffffffffffffffffffffffffffffffff1663e47d6060826040518263ffffffff1660e01b8152600401610cb49190612a41565b602060405180830381865afa158015610ccf573d5f803e3d5ffd5b505050506040513d601f19601f82011682018060405250810190610cf39190612b75565b15610d33576040517f08c379a0000000000000000000000000000000000000000000000000000000008152600401610d2a90612d33565b60405180910390fd5b60ff5f9054906101000a900473ffffffffffffffffffffffffffffffffffffffff1673ffffffffffffffffffffffffffffffffffffffff1663e47d6060846040518263ffffffff1660e01b8152600401610d8d9190612a41565b602060405180830381865afa158015610da8573d5f803e3d5ffd5b505050506040513d601f19601f82011682018060405250810190610dcc9190612b75565b15610e0c576040517f08c379a0000000000000000000000000000000000000000000000000000000008152600401610e0390612d9b565b60405180910390fd5b60ff5f9054906101000a900473ffffffffffffffffffffffffffffffffffffffff1673ffffffffffffffffffffffffffffffffffffffff1663c2ba4744826040518263ffffffff1660e01b8152600401610e669190612a41565b602060405180830381865afa158015610e81573d5f803e3d5ffd5b505050506040513d601f19601f82011682018060405250810190610ea59190612b75565b610ee4576040517f08c379a0000000000000000000000000000000000000000000000000000000008152600401610edb90612e03565b60405180910390fd5b8360ff5f9054906101000a900473ffffffffffffffffffffffffffffffffffffffff1673ffffffffffffffffffffffffffffffffffffffff1663055d822c836040518263ffffffff1660e01b8152600401610f3f9190612a41565b602060405180830381865afa158015610f5a573d5f803e3d5ffd5b505050506040513d601f19601f82011682018060405250810190610f7e9190612e35565b14610fbe576040517f08c379a0000000000000000000000000000000000000000000000000000000008152600401610fb590612ed0565b60405180910390fd5b610fc883856123d3565b5f60ff5f9054906101000a900473ffffffffffffffffffffffffffffffffffffffff1673ffffffffffffffffffffffffffffffffffffffff16638a4e0ace836040518263ffffffff1660e01b81526004016110239190612a41565b6020604051808303815f875af115801561103f573d5f803e3d5ffd5b505050506040513d601f19601f820116820180604052508101906110639190612b75565b9050806110a5576040517f08c379a000000000000000000000000000000000000000000000000000000000815260040161109c90612f5e565b60405180910390fd5b6001925050506110b3611ea6565b92915050565b6060606980546110c890612b1b565b80601f01602080910402602001604051908101604052809291908181526020018280546110f490612b1b565b801561113f5780601f106111165761010080835404028352916020019161113f565b820191905f5260205f20905b81548152906001019060200180831161112257829003601f168201915b5050505050905090565b5f80611153611949565b90505f6111608286611690565b9050838110156111a5576040517f08c379a000000000000000000000000000000000000000000000000000000000815260040161119c90612fec565b60405180910390fd5b6111b28286868403611950565b60019250505092915050565b5f6111c7611b5d565b5f6111d0611949565b905060ff5f9054906101000a900473ffffffffffffffffffffffffffffffffffffffff1673ffffffffffffffffffffffffffffffffffffffff1663e47d6060611217611949565b6040518263ffffffff1660e01b81526004016112339190612a41565b602060405180830381865afa15801561124e573d5f803e3d5ffd5b505050506040513d601f19601f820116820180604052508101906112729190612b75565b158015611315575060ff5f9054906101000a900473ffffffffffffffffffffffffffffffffffffffff1673ffffffffffffffffffffffffffffffffffffffff1663e47d6060856040518263ffffffff1660e01b81526004016112d49190612a41565b602060405180830381865afa1580156112ef573d5f803e3d5ffd5b505050506040513d601f19601f820116820180604052508101906113139190612b75565b155b80156113b6575060ff5f9054906101000a900473ffffffffffffffffffffffffffffffffffffffff1673ffffffffffffffffffffffffffffffffffffffff16633fd0966e856040518263ffffffff1660e01b81526004016113769190612a41565b602060405180830381865afa158015611391573d5f803e3d5ffd5b505050506040513d601f19601f820116820180604052508101906113b59190612b75565b5b801561145e575060ff5f9054906101000a900473ffffffffffffffffffffffffffffffffffffffff1673ffffffffffffffffffffffffffffffffffffffff16635efd3765611402611949565b6040518263ffffffff1660e01b815260040161141e9190612a41565b602060405180830381865afa158015611439573d5f803e3d5ffd5b505050506040513d601f19601f8201168201806040525081019061145d9190612b75565b5b156114825761146e818585611c37565b6114788484612177565b60019150506115de565b60ff5f9054906101000a900473ffffffffffffffffffffffffffffffffffffffff1673ffffffffffffffffffffffffffffffffffffffff1663e47d60606114c7611949565b6040518263ffffffff1660e01b81526004016114e39190612a41565b602060405180830381865afa1580156114fe573d5f803e3d5ffd5b505050506040513d601f19601f820116820180604052508101906115229190612b75565b1561152b575f80fd5b60ff5f9054906101000a900473ffffffffffffffffffffffffffffffffffffffff1673ffffffffffffffffffffffffffffffffffffffff1663e47d6060856040518263ffffffff1660e01b81526004016115859190612a41565b602060405180830381865afa1580156115a0573d5f803e3d5ffd5b505050506040513d601f19601f820116820180604052508101906115c49190612b75565b156115cd575f80fd5b6115d8818585611c37565b60019150505b6115e6611ea6565b92915050565b5f6115f5612036565b8160fe5f6101000a81548173ffffffffffffffffffffffffffffffffffffffff021916908373ffffffffffffffffffffffffffffffffffffffff16021790555060019050919050565b5f611647612036565b8160ff5f6101000a81548173ffffffffffffffffffffffffffffffffffffffff021916908373ffffffffffffffffffffffffffffffffffffffff16021790555060019050919050565b5f60fc5f8473ffffffffffffffffffffffffffffffffffffffff1673ffffffffffffffffffffffffffffffffffffffff1681526020019081526020015f205f8373ffffffffffffffffffffffffffffffffffffffff1673ffffffffffffffffffffffffffffffffffffffff1681526020019081526020015f2054905092915050565b60ff5f9054906101000a900473ffffffffffffffffffffffffffffffffffffffff1681565b61173f612036565b5f73ffffffffffffffffffffffffffffffffffffffff168173ffffffffffffffffffffffffffffffffffffffff16036117ad576040517f08c379a00000000000000000000000000000000000000000000000000000000081526004016117a49061307a565b60405180910390fd5b6117b6816120b4565b50565b5f6117c2612036565b6117ca611b5d565b60ff5f9054906101000a900473ffffffffffffffffffffffffffffffffffffffff1673ffffffffffffffffffffffffffffffffffffffff1663e47d6060836040518263ffffffff1660e01b81526004016118249190612a41565b602060405180830381865afa15801561183f573d5f803e3d5ffd5b505050506040513d601f19601f820116820180604052508101906118639190612b75565b61186b575f80fd5b5f61187583610b82565b90505f60fb5f8573ffffffffffffffffffffffffffffffffffffffff1673ffffffffffffffffffffffffffffffffffffffff1681526020019081526020015f20819055508060fd5f8282546118ca9190613098565b925050819055508273ffffffffffffffffffffffffffffffffffffffff167f61e6e66b0d6339b2980aecc6ccc0039736791f0ccde9ed512e789a7fbdd698c6826040516119179190612957565b60405180910390a2600191505061192c611ea6565b919050565b5f61193a612036565b611942612522565b6001905090565b5f33905090565b5f73ffffffffffffffffffffffffffffffffffffffff168373ffffffffffffffffffffffffffffffffffffffff16036119be576040517f08c379a00000000000000000000000000000000000000000000000000000000081526004016119b59061313b565b60405180910390fd5b5f73ffffffffffffffffffffffffffffffffffffffff168273ffffffffffffffffffffffffffffffffffffffff1603611a2c576040517f08c379a0000000000000000000000000000000000000000000000000000000008152600401611a23906131c9565b60405180910390fd5b8060fc5f8573ffffffffffffffffffffffffffffffffffffffff1673ffffffffffffffffffffffffffffffffffffffff1681526020019081526020015f205f8473ffffffffffffffffffffffffffffffffffffffff1673ffffffffffffffffffffffffffffffffffffffff1681526020019081526020015f20819055508173ffffffffffffffffffffffffffffffffffffffff168373ffffffffffffffffffffffffffffffffffffffff167f8c5be1e5ebec7d5bd14f71427d1e84f3dd0314c0f7b2291e5b200ac8c7c3b92583604051611b069190612957565b60405180910390a3505050565b611b1b610b6d565b15611b5b576040517f08c379a0000000000000000000000000000000000000000000000000000000008152600401611b5290613231565b60405180910390fd5b565b600260c95403611ba2576040517f08c379a0000000000000000000000000000000000000000000000000000000008152600401611b9990613299565b60405180910390fd5b600260c981905550565b5f611bb78484611690565b90507fffffffffffffffffffffffffffffffffffffffffffffffffffffffffffffffff8114611c315781811015611c23576040517f08c379a0000000000000000000000000000000000000000000000000000000008152600401611c1a90613301565b60405180910390fd5b611c308484848403611950565b5b50505050565b5f73ffffffffffffffffffffffffffffffffffffffff168373ffffffffffffffffffffffffffffffffffffffff1603611ca5576040517f08c379a0000000000000000000000000000000000000000000000000000000008152600401611c9c9061338f565b60405180910390fd5b5f73ffffffffffffffffffffffffffffffffffffffff168273ffffffffffffffffffffffffffffffffffffffff1603611d13576040517f08c379a0000000000000000000000000000000000000000000000000000000008152600401611d0a9061341d565b60405180910390fd5b611d1e838383612583565b5f60fb5f8573ffffffffffffffffffffffffffffffffffffffff1673ffffffffffffffffffffffffffffffffffffffff1681526020019081526020015f2054905081811015611da2576040517f08c379a0000000000000000000000000000000000000000000000000000000008152600401611d99906134ab565b60405180910390fd5b81810360fb5f8673ffffffffffffffffffffffffffffffffffffffff1673ffffffffffffffffffffffffffffffffffffffff1681526020019081526020015f20819055508160fb5f8573ffffffffffffffffffffffffffffffffffffffff1673ffffffffffffffffffffffffffffffffffffffff1681526020019081526020015f205f82825401925050819055508273ffffffffffffffffffffffffffffffffffffffff168473ffffffffffffffffffffffffffffffffffffffff167fddf252ad1be2c89b69c2b068fc378daa952ba7f163c4a11628f55a4df523b3ef84604051611e8d9190612957565b60405180910390a3611ea0848484612590565b50505050565b600160c981905550565b5f808273ffffffffffffffffffffffffffffffffffffffff163b119050919050565b5f60019054906101000a900460ff16611f20576040517f08c379a0000000000000000000000000000000000000000000000000000000008152600401611f1790613539565b60405180910390fd5b611f28612595565b565b5f60019054906101000a900460ff16611f78576040517f08c379a0000000000000000000000000000000000000000000000000000000008152600401611f6f90613539565b60405180910390fd5b611f8282826125f5565b5050565b5f60019054906101000a900460ff16611fd4576040517f08c379a0000000000000000000000000000000000000000000000000000000008152600401611fcb90613539565b60405180910390fd5b611fdc612667565b565b5f60019054906101000a900460ff1661202c576040517f08c379a000000000000000000000000000000000000000000000000000000000815260040161202390613539565b60405180910390fd5b6120346126d0565b565b61203e611949565b73ffffffffffffffffffffffffffffffffffffffff1661205c610c1e565b73ffffffffffffffffffffffffffffffffffffffff16146120b2576040517f08c379a00000000000000000000000000000000000000000000000000000000081526004016120a9906135a1565b60405180910390fd5b565b5f60335f9054906101000a900473ffffffffffffffffffffffffffffffffffffffff1690508160335f6101000a81548173ffffffffffffffffffffffffffffffffffffffff021916908373ffffffffffffffffffffffffffffffffffffffff1602179055508173ffffffffffffffffffffffffffffffffffffffff168173ffffffffffffffffffffffffffffffffffffffff167f8be0079c531659141344cd1fd0a4f28419497f9722a3daafe3b4186f6b6457e060405160405180910390a35050565b5f73ffffffffffffffffffffffffffffffffffffffff168273ffffffffffffffffffffffffffffffffffffffff16036121e5576040517f08c379a00000000000000000000000000000000000000000000000000000000081526004016121dc9061362f565b60405180910390fd5b6121f0825f83612583565b5f60fb5f8473ffffffffffffffffffffffffffffffffffffffff1673ffffffffffffffffffffffffffffffffffffffff1681526020019081526020015f2054905081811015612274576040517f08c379a000000000000000000000000000000000000000000000000000000000815260040161226b906136bd565b60405180910390fd5b81810360fb5f8573ffffffffffffffffffffffffffffffffffffffff1673ffffffffffffffffffffffffffffffffffffffff1681526020019081526020015f20819055508160fd5f82825403925050819055505f73ffffffffffffffffffffffffffffffffffffffff168373ffffffffffffffffffffffffffffffffffffffff167fddf252ad1be2c89b69c2b068fc378daa952ba7f163c4a11628f55a4df523b3ef846040516123249190612957565b60405180910390a3612337835f84612590565b505050565b612344611b13565b600160975f6101000a81548160ff0219169083151502179055507f62e78cea01bee320cd4e420270b5ea74000d11b0c9f74754ebdbfc544b05a258612387611949565b6040516123949190612a41565b60405180910390a1565b5f60145f369050101580156123b857506123b733610b15565b5b156123cc57601436033560601c90506123d0565b3390505b90565b5f73ffffffffffffffffffffffffffffffffffffffff168273ffffffffffffffffffffffffffffffffffffffff1603612441576040517f08c379a000000000000000000000000000000000000000000000000000000000815260040161243890613725565b60405180910390fd5b61244c5f8383612583565b8060fd5f82825461245d9190612bcd565b925050819055508060fb5f8473ffffffffffffffffffffffffffffffffffffffff1673ffffffffffffffffffffffffffffffffffffffff1681526020019081526020015f205f82825401925050819055508173ffffffffffffffffffffffffffffffffffffffff165f73ffffffffffffffffffffffffffffffffffffffff167fddf252ad1be2c89b69c2b068fc378daa952ba7f163c4a11628f55a4df523b3ef8360405161250b9190612957565b60405180910390a361251e5f8383612590565b5050565b61252a612728565b5f60975f6101000a81548160ff0219169083151502179055507f5db9ee0a495bf2e6ff9c91a7834c1ba4fdd244a5e8aa4e537bd38aeae4b073aa61256c611949565b6040516125799190612a41565b60405180910390a1565b61258b611b13565b505050565b505050565b5f60019054906101000a900460ff166125e3576040517f08c379a00000000000000000000000000000000000000000000000000000000081526004016125da90613539565b60405180910390fd5b6125f36125ee611949565b6120b4565b565b5f60019054906101000a900460ff16612643576040517f08c379a000000000000000000000000000000000000000000000000000000000815260040161263a90613539565b60405180910390fd5b81606890816126529190613904565b5080606990816126629190613904565b505050565b5f60019054906101000a900460ff166126b5576040517f08c379a00000000000000000000000000000000000000000000000000000000081526004016126ac90613539565b60405180910390fd5b5f60975f6101000a81548160ff021916908315150217905550565b5f60019054906101000a900460ff1661271e576040517f08c379a000000000000000000000000000000000000000000000000000000000815260040161271590613539565b60405180910390fd5b600160c981905550565b612730610b6d565b61276f576040517f08c379a000000000000000000000000000000000000000000000000000000000815260040161276690613a1d565b60405180910390fd5b565b5f81519050919050565b5f82825260208201905092915050565b5f5b838110156127a857808201518184015260208101905061278d565b5f8484015250505050565b5f601f19601f8301169050919050565b5f6127cd82612771565b6127d7818561277b565b93506127e781856020860161278b565b6127f0816127b3565b840191505092915050565b5f6020820190508181035f83015261281381846127c3565b905092915050565b5f80fd5b5f74ffffffffffffffffffffffffffffffffffffffffff82169050919050565b6128488161281f565b8114612852575f80fd5b50565b5f73ffffffffffffffffffffffffffffffffffffffff82169050919050565b5f61287e82612855565b9050919050565b5f813590506128938161283f565b61289c81612874565b905092915050565b5f819050919050565b6128b6816128a4565b81146128c0575f80fd5b50565b5f813590506128d1816128ad565b92915050565b5f80604083850312156128ed576128ec61281b565b5b5f6128fa85828601612885565b925050602061290b858286016128c3565b9150509250929050565b5f8115159050919050565b61292981612915565b82525050565b5f6020820190506129425f830184612920565b92915050565b612951816128a4565b82525050565b5f60208201905061296a5f830184612948565b92915050565b5f805f606084860312156129875761298661281b565b5b5f61299486828701612885565b93505060206129a586828701612885565b92505060406129b6868287016128c3565b9150509250925092565b5f60ff82169050919050565b6129d5816129c0565b82525050565b5f6020820190506129ee5f8301846129cc565b92915050565b5f8060408385031215612a0a57612a0961281b565b5b5f612a1785828601612885565b9250506020612a2885828601612885565b9150509250929050565b612a3b81612874565b82525050565b5f602082019050612a545f830184612a32565b92915050565b5f60208284031215612a6f57612a6e61281b565b5b5f612a7c84828501612885565b91505092915050565b5f60208284031215612a9a57612a9961281b565b5b5f612aa7848285016128c3565b91505092915050565b5f8060408385031215612ac657612ac561281b565b5b5f612ad3858286016128c3565b9250506020612ae485828601612885565b9150509250929050565b7f4e487b71000000000000000000000000000000000000000000000000000000005f52602260045260245ffd5b5f6002820490506001821680612b3257607f821691505b602082108103612b4557612b44612aee565b5b50919050565b612b5481612915565b8114612b5e575f80fd5b50565b5f81519050612b6f81612b4b565b92915050565b5f60208284031215612b8a57612b8961281b565b5b5f612b9784828501612b61565b91505092915050565b7f4e487b71000000000000000000000000000000000000000000000000000000005f52601160045260245ffd5b5f612bd7826128a4565b9150612be2836128a4565b9250828201905080821115612bfa57612bf9612ba0565b5b92915050565b7f496e697469616c697a61626c653a20636f6e747261637420697320616c7265615f8201527f647920696e697469616c697a6564000000000000000000000000000000000000602082015250565b5f612c5a602e8361277b565b9150612c6582612c00565b604082019050919050565b5f6020820190508181035f830152612c8781612c4e565b9050919050565b5f819050919050565b5f819050919050565b5f612cba612cb5612cb084612c8e565b612c97565b6129c0565b9050919050565b612cca81612ca0565b82525050565b5f602082019050612ce35f830184612cc1565b92915050565b7f5573657220697320626c61636b6c6973746564000000000000000000000000005f82015250565b5f612d1d60138361277b565b9150612d2882612ce9565b602082019050919050565b5f6020820190508181035f830152612d4a81612d11565b9050919050565b7f526563656976657220697320626c61636b6c69737465640000000000000000005f82015250565b5f612d8560178361277b565b9150612d9082612d51565b602082019050919050565b5f6020820190508181035f830152612db281612d79565b9050919050565b7f4d696e746572206e6f7420617574686f72697a656420746f207369676e0000005f82015250565b5f612ded601d8361277b565b9150612df882612db9565b602082019050919050565b5f6020820190508181035f830152612e1a81612de1565b9050919050565b5f81519050612e2f816128ad565b92915050565b5f60208284031215612e4a57612e4961281b565b5b5f612e5784828501612e21565b91505092915050565b7f417474656d7074696e6720746f206d696e74206d6f7265207468616e20616c6c5f8201527f6f77656400000000000000000000000000000000000000000000000000000000602082015250565b5f612eba60248361277b565b9150612ec582612e60565b604082019050919050565b5f6020820190508181035f830152612ee781612eae565b9050919050565b7f4661696c656420746f207265766f6b65206d696e74696e6720617574686f72695f8201527f7a6174696f6e0000000000000000000000000000000000000000000000000000602082015250565b5f612f4860268361277b565b9150612f5382612eee565b604082019050919050565b5f6020820190508181035f830152612f7581612f3c565b9050919050565b7f45524332303a2064656372656173656420616c6c6f77616e63652062656c6f775f8201527f207a65726f000000000000000000000000000000000000000000000000000000602082015250565b5f612fd660258361277b565b9150612fe182612f7c565b604082019050919050565b5f6020820190508181035f83015261300381612fca565b9050919050565b7f4f776e61626c653a206e6577206f776e657220697320746865207a65726f20615f8201527f6464726573730000000000000000000000000000000000000000000000000000602082015250565b5f61306460268361277b565b915061306f8261300a565b604082019050919050565b5f6020820190508181035f83015261309181613058565b9050919050565b5f6130a2826128a4565b91506130ad836128a4565b92508282039050818111156130c5576130c4612ba0565b5b92915050565b7f45524332303a20617070726f76652066726f6d20746865207a65726f206164645f8201527f7265737300000000000000000000000000000000000000000000000000000000602082015250565b5f61312560248361277b565b9150613130826130cb565b604082019050919050565b5f6020820190508181035f83015261315281613119565b9050919050565b7f45524332303a20617070726f766520746f20746865207a65726f2061646472655f8201527f7373000000000000000000000000000000000000000000000000000000000000602082015250565b5f6131b360228361277b565b91506131be82613159565b604082019050919050565b5f6020820190508181035f8301526131e0816131a7565b9050919050565b7f5061757361626c653a20706175736564000000000000000000000000000000005f82015250565b5f61321b60108361277b565b9150613226826131e7565b602082019050919050565b5f6020820190508181035f8301526132488161320f565b9050919050565b7f5265656e7472616e637947756172643a207265656e7472616e742063616c6c005f82015250565b5f613283601f8361277b565b915061328e8261324f565b602082019050919050565b5f6020820190508181035f8301526132b081613277565b9050919050565b7f45524332303a20696e73756666696369656e7420616c6c6f77616e63650000005f82015250565b5f6132eb601d8361277b565b91506132f6826132b7565b602082019050919050565b5f6020820190508181035f830152613318816132df565b9050919050565b7f45524332303a207472616e736665722066726f6d20746865207a65726f2061645f8201527f6472657373000000000000000000000000000000000000000000000000000000602082015250565b5f61337960258361277b565b91506133848261331f565b604082019050919050565b5f6020820190508181035f8301526133a68161336d565b9050919050565b7f45524332303a207472616e7366657220746f20746865207a65726f20616464725f8201527f6573730000000000000000000000000000000000000000000000000000000000602082015250565b5f61340760238361277b565b9150613412826133ad565b604082019050919050565b5f6020820190508181035f830152613434816133fb565b9050919050565b7f45524332303a207472616e7366657220616d6f756e74206578636565647320625f8201527f616c616e63650000000000000000000000000000000000000000000000000000602082015250565b5f61349560268361277b565b91506134a08261343b565b604082019050919050565b5f6020820190508181035f8301526134c281613489565b9050919050565b7f496e697469616c697a61626c653a20636f6e7472616374206973206e6f7420695f8201527f6e697469616c697a696e67000000000000000000000000000000000000000000602082015250565b5f613523602b8361277b565b915061352e826134c9565b604082019050919050565b5f6020820190508181035f83015261355081613517565b9050919050565b7f4f776e61626c653a2063616c6c6572206973206e6f7420746865206f776e65725f82015250565b5f61358b60208361277b565b915061359682613557565b602082019050919050565b5f6020820190508181035f8301526135b88161357f565b9050919050565b7f45524332303a206275726e2066726f6d20746865207a65726f206164647265735f8201527f7300000000000000000000000000000000000000000000000000000000000000602082015250565b5f61361960218361277b565b9150613624826135bf565b604082019050919050565b5f6020820190508181035f8301526136468161360d565b9050919050565b7f45524332303a206275726e20616d6f756e7420657863656564732062616c616e5f8201527f6365000000000000000000000000000000000000000000000000000000000000602082015250565b5f6136a760228361277b565b91506136b28261364d565b604082019050919050565b5f6020820190508181035f8301526136d48161369b565b9050919050565b7f45524332303a206d696e7420746f20746865207a65726f2061646472657373005f82015250565b5f61370f601f8361277b565b915061371a826136db565b602082019050919050565b5f6020820190508181035f83015261373c81613703565b9050919050565b7f4e487b71000000000000000000000000000000000000000000000000000000005f52604160045260245ffd5b5f819050815f5260205f209050919050565b5f6020601f8301049050919050565b5f82821b905092915050565b5f600883026137cc7fffffffffffffffffffffffffffffffffffffffffffffffffffffffffffffffff82613791565b6137d68683613791565b95508019841693508086168417925050509392505050565b5f6138086138036137fe846128a4565b612c97565b6128a4565b9050919050565b5f819050919050565b613821836137ee565b61383561382d8261380f565b84845461379d565b825550505050565b5f90565b61384961383d565b613854818484613818565b505050565b5b818110156138775761386c5f82613841565b60018101905061385a565b5050565b601f8211156138bc5761388d81613770565b61389684613782565b810160208510156138a5578190505b6138b96138b185613782565b830182613859565b50505b505050565b5f82821c905092915050565b5f6138dc5f19846008026138c1565b1980831691505092915050565b5f6138f483836138cd565b9150826002028217905092915050565b61390d82612771565b67ffffffffffffffff81111561392657613925613743565b5b6139308254612b1b565b61393b82828561387b565b5f60209050601f83116001811461396c575f841561395a578287015190505b61396485826138e9565b8655506139cb565b601f19841661397a86613770565b5f5b828110156139a15784890151825560018201915060208501945060208101905061397c565b868310156139be57848901516139ba601f8916826138cd565b8355505b6001600288020188555050505b505050505050565b7f5061757361626c653a206e6f74207061757365640000000000000000000000005f82015250565b5f613a0760148361277b565b9150613a12826139d3565b602082019050919050565b5f6020820190508181035f830152613a34816139fb565b905091905056fea26474726f6e58221220e67a6df4f9d8d8c392d6840a700db602b8b3f49dc64bb5bfd281c37e41003ea564736f6c63430008140033",
  "source": "// SPDX-License-Identifier: MIT\npragma solidity >=0.4.23 <0.9.0;\n\nimport \"@openzeppelin/contracts-upgradeable/token/ERC20/ERC20Upgradeable.sol\";\nimport \"@openzeppelin/contracts-upgradeable/security/PausableUpgradeable.sol\";\nimport \"@openzeppelin/contracts-upgradeable/security/ReentrancyGuardUpgradeable.sol\";\nimport \"@openzeppelin/contracts-upgradeable/access/OwnableUpgradeable.sol\";\nimport \"@openzeppelin/contracts-upgradeable/proxy/utils/Initializable.sol\";\nimport \"./IOperations.sol\";\n\ncontract Cngn is\n    Initializable,\n    OwnableUpgradeable,\n    ERC20Upgradeable,\n    PausableUpgradeable,\n    ReentrancyGuardUpgradeable\n{\n    event DestroyedBlackFunds(address indexed user, uint256 amount);\n\n    mapping(address => uint256) private _balances;\n    mapping(address => mapping(address => uint256)) private _allowances;\n\n    uint256 private _totalSupply;\n    address public trustedForwarderContract;\n    address public  adminOperationsContract;\n\n\n    /**\n     * @dev Initializes the contract setting the trusted forwarder and admin operations contracts\n     * It's critical to initialize all parent contracts\n     */\n    function initialize(\n        address _trustedForwarderContract,\n        address _adminOperationsContract\n    ) public initializer {\n        // Initialize parent contracts\n        __Ownable_init();\n        __ERC20_init(\"cNGN\", \"cNGN\");\n        __Pausable_init();\n        __ReentrancyGuard_init();\n       \n        // Set contract-specific state variables\n        trustedForwarderContract = _trustedForwarderContract;\n        adminOperationsContract = _adminOperationsContract;\n    }\n\n\n    function isTrustedForwarder(\n        address forwarder\n    ) public view virtual returns (bool) {\n        return forwarder == trustedForwarderContract;\n    }\n\n    function msgSender() internal view returns (address payable signer) {\n        if (msg.data.length >= 20 && isTrustedForwarder(msg.sender)) {\n            assembly {\n                signer := shr(96, calldataload(sub(calldatasize(), 20)))\n            }\n        } else {\n            signer = payable(msg.sender);\n        }\n        return signer;\n    }\n\n    function updateAdminOperationsAddress(\n        address _newAdmin\n    ) public virtual onlyOwner returns (bool) {\n        adminOperationsContract = _newAdmin;\n        return true;\n    }\n\n    function updateForwarderContract(\n        address _newForwarderContract\n    ) public virtual onlyOwner returns (bool) {\n        trustedForwarderContract = _newForwarderContract;\n        return true;\n    }\n\n    function decimals() public view virtual override returns (uint8) {\n        return 6;\n    }\n\n    function totalSupply() public view virtual override returns (uint256) {\n        return _totalSupply;\n    }\n\n    function balanceOf(\n        address account\n    ) public view virtual override returns (uint256) {\n        return _balances[account];\n    }\n\n    // Added nonReentrant modifier to prevent reentrancy attacks\n    function transfer(\n        address to,\n        uint256 amount\n    ) public virtual override nonReentrant returns (bool) {\n        address owner = _msgSender();\n        if (\n            !IAdmin(adminOperationsContract).isBlackListed(_msgSender()) &&\n            !IAdmin(adminOperationsContract).isBlackListed(to) &&\n            IAdmin(adminOperationsContract).isInternalUserWhitelisted(to) &&\n            IAdmin(adminOperationsContract).isExternalSenderWhitelisted(\n                _msgSender()\n            )\n        ) {\n            _transfer(owner, to, amount);\n            _burn(to, amount);\n            return true;\n        } else {\n            require(!IAdmin(adminOperationsContract).isBlackListed(_msgSender()));\n            require(!IAdmin(adminOperationsContract).isBlackListed(to));\n            _transfer(owner, to, amount);\n            return true;\n        }\n    }\n\n    function allowance(\n        address owner,\n        address spender\n    ) public view virtual override returns (uint256) {\n        return _allowances[owner][spender];\n    }\n\n    function approve(\n        address spender,\n        uint256 amount\n    ) public virtual override returns (bool) {\n        address owner = _msgSender();\n        _approve(owner, spender, amount);\n        return true;\n    }\n\n    // Added nonReentrant modifier to prevent reentrancy attacks\n    function transferFrom(\n        address from,\n        address to,\n        uint256 amount\n    ) public virtual override whenNotPaused nonReentrant returns (bool) {\n        require(!IAdmin(adminOperationsContract).isBlackListed(_msgSender()));\n        require(!IAdmin(adminOperationsContract).isBlackListed(from));\n        require(!IAdmin(adminOperationsContract).isBlackListed(to));\n        address spender = _msgSender();\n        _spendAllowance(from, spender, amount);\n        _transfer(from, to, amount);\n        return true;\n    }\n\n    function increaseAllowance(\n        address spender,\n        uint256 addedValue\n    ) public virtual override returns (bool) {\n        address owner = _msgSender();\n        _approve(owner, spender, allowance(owner, spender) + addedValue);\n        return true;\n    }\n\n    function decreaseAllowance(\n        address spender,\n        uint256 subtractedValue\n    ) public virtual override returns (bool) {\n        address owner = _msgSender();\n        uint256 currentAllowance = allowance(owner, spender);\n\n        require(\n            currentAllowance >= subtractedValue,\n            \"ERC20: decreased allowance below zero\"\n        );\n        unchecked {\n            _approve(owner, spender, currentAllowance - subtractedValue);\n        }\n\n        return true;\n    }\n\n    function mint(\n        uint256 _amount,\n        address _mintTo\n    ) public virtual  nonReentrant returns (bool) {\n        // Added nonReentrant modifier for reentrancy protection\n        address signer = msgSender();\n        require(\n            !IAdmin(adminOperationsContract).isBlackListed(signer),\n            \"User is blacklisted\"\n        );\n        require(\n            !IAdmin(adminOperationsContract).isBlackListed(_mintTo),\n            \"Receiver is blacklisted\"\n        );\n        require(\n            IAdmin(adminOperationsContract).canMint(signer),\n            \"Minter not authorized to sign\"\n        );\n        require(\n            IAdmin(adminOperationsContract).mintAmount(signer) == _amount,\n            \"Attempting to mint more than allowed\"\n        );\n        _mint(_mintTo, _amount);\n\n        bool removed = IAdmin(adminOperationsContract).removeCanMint(signer);\n        require(removed, \"Failed to revoke minting authorization\");\n\n        return true;\n    }\n\n    function burnByUser(\n        uint256 _amount\n    ) public virtual  nonReentrant returns (bool) {\n        // Added nonReentrant modifier for reentrancy protection\n        _burn(_msgSender(), _amount);\n        return true;\n    }\n\n    function pause() public virtual onlyOwner returns (bool) {\n        _pause();\n        return true;\n    }\n\n    function unPause() public virtual onlyOwner returns (bool) {\n        _unpause();\n        return true;\n    }\n\n    function _transfer(\n        address from,\n        address to,\n        uint256 amount\n    ) internal virtual override {\n        require(from != address(0), \"ERC20: transfer from the zero address\");\n        require(to != address(0), \"ERC20: transfer to the zero address\");\n\n        _beforeTokenTransfer(from, to, amount);\n\n        uint256 fromBalance = _balances[from];\n        require(\n            fromBalance >= amount,\n            \"ERC20: transfer amount exceeds balance\"\n        );\n        unchecked {\n            _balances[from] = fromBalance - amount;\n            _balances[to] += amount;\n        }\n\n        emit Transfer(from, to, amount);\n\n        _afterTokenTransfer(from, to, amount);\n    }\n\n    function _mint(address account, uint256 amount) internal virtual override {\n        require(account != address(0), \"ERC20: mint to the zero address\");\n\n        _beforeTokenTransfer(address(0), account, amount);\n\n        _totalSupply += amount;\n        unchecked {\n            _balances[account] += amount;\n        }\n        emit Transfer(address(0), account, amount);\n\n        _afterTokenTransfer(address(0), account, amount);\n    }\n\n    function _burn(address account, uint256 amount) internal virtual override {\n        require(account != address(0), \"ERC20: burn from the zero address\");\n\n        _beforeTokenTransfer(account, address(0), amount);\n\n        uint256 accountBalance = _balances[account];\n        require(accountBalance >= amount, \"ERC20: burn amount exceeds balance\");\n        unchecked {\n            _balances[account] = accountBalance - amount;\n            _totalSupply -= amount;\n        }\n\n        emit Transfer(account, address(0), amount);\n\n        _afterTokenTransfer(account, address(0), amount);\n    }\n\n    function _approve(\n        address owner,\n        address spender,\n        uint256 amount\n    ) internal virtual override {\n        require(owner != address(0), \"ERC20: approve from the zero address\");\n        require(spender != address(0), \"ERC20: approve to the zero address\");\n\n        _allowances[owner][spender] = amount;\n        emit Approval(owner, spender, amount);\n    }\n\n    function _spendAllowance(\n        address owner,\n        address spender,\n        uint256 amount\n    ) internal virtual override {\n        uint256 currentAllowance = allowance(owner, spender);\n        if (currentAllowance != type(uint256).max) {\n            require(\n                currentAllowance >= amount,\n                \"ERC20: insufficient allowance\"\n            );\n            unchecked {\n                _approve(owner, spender, currentAllowance - amount);\n            }\n        }\n    }\n\n    function destroyBlackFunds (address _blackListedUser) \n        public virtual onlyOwner nonReentrant returns (bool) \n        {\n        require(IAdmin(adminOperationsContract).isBlackListed(_blackListedUser));\n        uint dirtyFunds = balanceOf(_blackListedUser);\n        _balances[_blackListedUser] = 0;\n        _totalSupply -= dirtyFunds;\n        emit DestroyedBlackFunds(_blackListedUser, dirtyFunds);\n        return true;\n    }\n\n    function _beforeTokenTransfer(\n        address from,\n        address to,\n        uint256 amount\n    ) internal virtual override whenNotPaused {}\n\n    function _afterTokenTransfer(\n        address from,\n        address to,\n        uint256 amount\n    ) internal virtual override {}\n\n    uint256[45] private __gap;\n}",
  "sourcePath": "/Users/ayoseun/Documents/GitHub/Ayoseun/stablecoin-cngn/tron-contract/contracts/cngn.sol",
  "compiler": {
    "name": "solc",
    "version": "0.8.20+commit.5f1834bc.Emscripten.clang"
  },
  "schemaVersion": "2.0.1",
  "updatedAt": "2025-05-07T16:11:11.017Z"
}