{
  "contractName": "cngn",
  "abi": [
    {
      "inputs": [
        {
          "internalType": "string",
          "name": "name_",
          "type": "string"
        },
        {
          "internalType": "string",
          "name": "symbol_",
          "type": "string"
        },
        {
          "internalType": "address",
          "name": "_trustedForwarderContract",
          "type": "address"
        },
        {
          "internalType": "address",
          "name": "_adminOperationsContract",
          "type": "address"
        }
      ],
      "stateMutability": "nonpayable",
      "type": "constructor"
    },
    {
      "anonymous": false,
      "inputs": [
        {
          "indexed": true,
          "internalType": "address",
          "name": "_user",
          "type": "address"
        }
      ],
      "name": "AddedBlackList",
      "type": "event"
    },
    {
      "anonymous": false,
      "inputs": [
        {
          "indexed": true,
          "internalType": "address",
          "name": "_user",
          "type": "address"
        },
        {
          "indexed": false,
          "internalType": "uint256",
          "name": "_amount",
          "type": "uint256"
        }
      ],
      "name": "AddedMintAllow",
      "type": "event"
    },
    {
      "anonymous": false,
      "inputs": [
        {
          "indexed": true,
          "internalType": "address",
          "name": "_user",
          "type": "address"
        }
      ],
      "name": "AddedWhiteList",
      "type": "event"
    },
    {
      "anonymous": false,
      "inputs": [
        {
          "indexed": true,
          "internalType": "address",
          "name": "owner",
          "type": "address"
        },
        {
          "indexed": true,
          "internalType": "address",
          "name": "spender",
          "type": "address"
        },
        {
          "indexed": false,
          "internalType": "uint256",
          "name": "value",
          "type": "uint256"
        }
      ],
      "name": "Approval",
      "type": "event"
    },
    {
      "anonymous": false,
      "inputs": [
        {
          "indexed": true,
          "internalType": "address",
          "name": "_blackListedUser",
          "type": "address"
        },
        {
          "indexed": false,
          "internalType": "uint256",
          "name": "_balance",
          "type": "uint256"
        }
      ],
      "name": "DestroyedBlackFunds",
      "type": "event"
    },
    {
      "anonymous": false,
      "inputs": [
        {
          "indexed": true,
          "internalType": "address",
          "name": "previousOwner",
          "type": "address"
        },
        {
          "indexed": true,
          "internalType": "address",
          "name": "newOwner",
          "type": "address"
        }
      ],
      "name": "OwnershipTransferred",
      "type": "event"
    },
    {
      "anonymous": false,
      "inputs": [
        {
          "indexed": false,
          "internalType": "address",
          "name": "account",
          "type": "address"
        }
      ],
      "name": "Paused",
      "type": "event"
    },
    {
      "anonymous": false,
      "inputs": [
        {
          "indexed": true,
          "internalType": "address",
          "name": "_user",
          "type": "address"
        }
      ],
      "name": "RemovedBlackList",
      "type": "event"
    },
    {
      "anonymous": false,
      "inputs": [
        {
          "indexed": true,
          "internalType": "address",
          "name": "_user",
          "type": "address"
        }
      ],
      "name": "RemovedWhiteList",
      "type": "event"
    },
    {
      "anonymous": false,
      "inputs": [
        {
          "indexed": true,
          "internalType": "address",
          "name": "from",
          "type": "address"
        },
        {
          "indexed": true,
          "internalType": "address",
          "name": "to",
          "type": "address"
        },
        {
          "indexed": false,
          "internalType": "uint256",
          "name": "value",
          "type": "uint256"
        }
      ],
      "name": "Transfer",
      "type": "event"
    },
    {
      "anonymous": false,
      "inputs": [
        {
          "indexed": false,
          "internalType": "address",
          "name": "account",
          "type": "address"
        }
      ],
      "name": "Unpaused",
      "type": "event"
    },
    {
      "inputs": [
        {
          "internalType": "address",
          "name": "owner",
          "type": "address"
        },
        {
          "internalType": "address",
          "name": "spender",
          "type": "address"
        }
      ],
      "name": "allowance",
      "outputs": [
        {
          "internalType": "uint256",
          "name": "",
          "type": "uint256"
        }
      ],
      "stateMutability": "view",
      "type": "function"
    },
    {
      "inputs": [
        {
          "internalType": "address",
          "name": "spender",
          "type": "address"
        },
        {
          "internalType": "uint256",
          "name": "amount",
          "type": "uint256"
        }
      ],
      "name": "approve",
      "outputs": [
        {
          "internalType": "bool",
          "name": "",
          "type": "bool"
        }
      ],
      "stateMutability": "nonpayable",
      "type": "function"
    },
    {
      "inputs": [
        {
          "internalType": "address",
          "name": "account",
          "type": "address"
        }
      ],
      "name": "balanceOf",
      "outputs": [
        {
          "internalType": "uint256",
          "name": "",
          "type": "uint256"
        }
      ],
      "stateMutability": "view",
      "type": "function"
    },
    {
      "inputs": [
        {
          "internalType": "uint256",
          "name": "_amount",
          "type": "uint256"
        }
      ],
      "name": "burnByUser",
      "outputs": [
        {
          "internalType": "bool",
          "name": "",
          "type": "bool"
        }
      ],
      "stateMutability": "nonpayable",
      "type": "function"
    },
    {
      "inputs": [],
      "name": "decimals",
      "outputs": [
        {
          "internalType": "uint8",
          "name": "",
          "type": "uint8"
        }
      ],
      "stateMutability": "pure",
      "type": "function"
    },
    {
      "inputs": [
        {
          "internalType": "address",
          "name": "spender",
          "type": "address"
        },
        {
          "internalType": "uint256",
          "name": "subtractedValue",
          "type": "uint256"
        }
      ],
      "name": "decreaseAllowance",
      "outputs": [
        {
          "internalType": "bool",
          "name": "",
          "type": "bool"
        }
      ],
      "stateMutability": "nonpayable",
      "type": "function"
    },
    {
      "inputs": [
        {
          "internalType": "address",
          "name": "spender",
          "type": "address"
        },
        {
          "internalType": "uint256",
          "name": "addedValue",
          "type": "uint256"
        }
      ],
      "name": "increaseAllowance",
      "outputs": [
        {
          "internalType": "bool",
          "name": "",
          "type": "bool"
        }
      ],
      "stateMutability": "nonpayable",
      "type": "function"
    },
    {
      "inputs": [
        {
          "internalType": "address",
          "name": "forwarder",
          "type": "address"
        }
      ],
      "name": "isTrustedForwarder",
      "outputs": [
        {
          "internalType": "bool",
          "name": "",
          "type": "bool"
        }
      ],
      "stateMutability": "view",
      "type": "function"
    },
    {
      "inputs": [
        {
          "internalType": "uint256",
          "name": "_amount",
          "type": "uint256"
        },
        {
          "internalType": "address",
          "name": "_mintTo",
          "type": "address"
        }
      ],
      "name": "mint",
      "outputs": [
        {
          "internalType": "bool",
          "name": "",
          "type": "bool"
        }
      ],
      "stateMutability": "nonpayable",
      "type": "function"
    },
    {
      "inputs": [],
      "name": "name",
      "outputs": [
        {
          "internalType": "string",
          "name": "",
          "type": "string"
        }
      ],
      "stateMutability": "view",
      "type": "function"
    },
    {
      "inputs": [],
      "name": "owner",
      "outputs": [
        {
          "internalType": "address",
          "name": "",
          "type": "address"
        }
      ],
      "stateMutability": "view",
      "type": "function"
    },
    {
      "inputs": [],
      "name": "pause",
      "outputs": [
        {
          "internalType": "bool",
          "name": "",
          "type": "bool"
        }
      ],
      "stateMutability": "nonpayable",
      "type": "function"
    },
    {
      "inputs": [],
      "name": "paused",
      "outputs": [
        {
          "internalType": "bool",
          "name": "",
          "type": "bool"
        }
      ],
      "stateMutability": "view",
      "type": "function"
    },
    {
      "inputs": [],
      "name": "renounceOwnership",
      "outputs": [],
      "stateMutability": "nonpayable",
      "type": "function"
    },
    {
      "inputs": [],
      "name": "symbol",
      "outputs": [
        {
          "internalType": "string",
          "name": "",
          "type": "string"
        }
      ],
      "stateMutability": "view",
      "type": "function"
    },
    {
      "inputs": [],
      "name": "totalSupply",
      "outputs": [
        {
          "internalType": "uint256",
          "name": "",
          "type": "uint256"
        }
      ],
      "stateMutability": "view",
      "type": "function"
    },
    {
      "inputs": [
        {
          "internalType": "address",
          "name": "to",
          "type": "address"
        },
        {
          "internalType": "uint256",
          "name": "amount",
          "type": "uint256"
        }
      ],
      "name": "transfer",
      "outputs": [
        {
          "internalType": "bool",
          "name": "",
          "type": "bool"
        }
      ],
      "stateMutability": "nonpayable",
      "type": "function"
    },
    {
      "inputs": [
        {
          "internalType": "address",
          "name": "from",
          "type": "address"
        },
        {
          "internalType": "address",
          "name": "to",
          "type": "address"
        },
        {
          "internalType": "uint256",
          "name": "amount",
          "type": "uint256"
        }
      ],
      "name": "transferFrom",
      "outputs": [
        {
          "internalType": "bool",
          "name": "",
          "type": "bool"
        }
      ],
      "stateMutability": "nonpayable",
      "type": "function"
    },
    {
      "inputs": [
        {
          "internalType": "address",
          "name": "newOwner",
          "type": "address"
        }
      ],
      "name": "transferOwnership",
      "outputs": [],
      "stateMutability": "nonpayable",
      "type": "function"
    },
    {
      "inputs": [],
      "name": "unPause",
      "outputs": [
        {
          "internalType": "bool",
          "name": "",
          "type": "bool"
        }
      ],
      "stateMutability": "nonpayable",
      "type": "function"
    },
    {
      "inputs": [
        {
          "internalType": "address",
          "name": "_newAdmin",
          "type": "address"
        }
      ],
      "name": "updateAdminOperationsAddress",
      "outputs": [
        {
          "internalType": "bool",
          "name": "",
          "type": "bool"
        }
      ],
      "stateMutability": "nonpayable",
      "type": "function"
    },
    {
      "inputs": [
        {
          "internalType": "address",
          "name": "_newForwarderContract",
          "type": "address"
        }
      ],
      "name": "updateForwarderContract",
      "outputs": [
        {
          "internalType": "bool",
          "name": "",
          "type": "bool"
        }
      ],
      "stateMutability": "nonpayable",
      "type": "function"
    }
  ],
  "bytecode": "0x60806040523480156200001157600080fd5b50d380156200001f57600080fd5b50d280156200002d57600080fd5b506040516200382b3803806200382b8339818101604052810190620000539190620004fe565b62000073620000676200015260201b60201c565b6200015a60201b60201c565b60008060146101000a81548160ff021916908315150217905550600180819055508360089080519060200190620000ac9291906200021e565b508260099080519060200190620000c59291906200021e565b5081600a60006101000a81548173ffffffffffffffffffffffffffffffffffffffff021916908373ffffffffffffffffffffffffffffffffffffffff16021790555080600b60006101000a81548173ffffffffffffffffffffffffffffffffffffffff021916908373ffffffffffffffffffffffffffffffffffffffff1602179055505050505062000613565b600033905090565b60008060009054906101000a900473ffffffffffffffffffffffffffffffffffffffff169050816000806101000a81548173ffffffffffffffffffffffffffffffffffffffff021916908373ffffffffffffffffffffffffffffffffffffffff1602179055508173ffffffffffffffffffffffffffffffffffffffff168173ffffffffffffffffffffffffffffffffffffffff167f8be0079c531659141344cd1fd0a4f28419497f9722a3daafe3b4186f6b6457e060405160405180910390a35050565b8280546200022c90620005dd565b90600052602060002090601f0160209004810192826200025057600085556200029c565b82601f106200026b57805160ff19168380011785556200029c565b828001600101855582156200029c579182015b828111156200029b5782518255916020019190600101906200027e565b5b509050620002ab9190620002af565b5090565b5b80821115620002ca576000816000905550600101620002b0565b5090565b6000604051905090565b600080fd5b600080fd5b600080fd5b600080fd5b6000601f19601f8301169050919050565b7f4e487b7100000000000000000000000000000000000000000000000000000000600052604160045260246000fd5b6200033782620002ec565b810181811067ffffffffffffffff82111715620003595762000358620002fd565b5b80604052505050565b60006200036e620002ce565b90506200037c82826200032c565b919050565b600067ffffffffffffffff8211156200039f576200039e620002fd565b5b620003aa82620002ec565b9050602081019050919050565b60005b83811015620003d7578082015181840152602081019050620003ba565b83811115620003e7576000848401525b50505050565b600062000404620003fe8462000381565b62000362565b905082815260208101848484011115620004235762000422620002e7565b5b62000430848285620003b7565b509392505050565b600082601f83011262000450576200044f620002e2565b5b815162000462848260208601620003ed565b91505092915050565b600074ffffffffffffffffffffffffffffffffffffffffff82169050919050565b62000497816200046b565b8114620004a357600080fd5b50565b600073ffffffffffffffffffffffffffffffffffffffff82169050919050565b6000620004d382620004a6565b9050919050565b600081519050620004eb816200048c565b620004f681620004c6565b905092915050565b600080600080608085870312156200051b576200051a620002d8565b5b600085015167ffffffffffffffff8111156200053c576200053b620002dd565b5b6200054a8782880162000438565b945050602085015167ffffffffffffffff8111156200056e576200056d620002dd565b5b6200057c8782880162000438565b93505060406200058f87828801620004da565b9250506060620005a287828801620004da565b91505092959194509250565b7f4e487b7100000000000000000000000000000000000000000000000000000000600052602260045260246000fd5b60006002820490506001821680620005f657607f821691505b602082108114156200060d576200060c620005ae565b5b50919050565b61320880620006236000396000f3fe608060405234801561001057600080fd5b50d3801561001d57600080fd5b50d2801561002a57600080fd5b506004361061015c5760003560e01c80638456cb59116100d2578063a9059cbb11610096578063a9059cbb146103bd578063b7d5b1ef146103ed578063b83fd8231461041d578063dd62ed3e1461044d578063f2fde38b1461047d578063f7b188a5146104995761015c565b80638456cb59146103035780638da5cb5b1461032157806394bf804d1461033f57806395d89b411461036f578063a457c2d71461038d5761015c565b80633950935111610124578063395093511461021b578063572b6c051461024b5780635c975abb1461027b57806370a0823114610299578063715018a6146102c95780637742af46146102d35761015c565b806306fdde0314610161578063095ea7b31461017f57806318160ddd146101af57806323b872dd146101cd578063313ce567146101fd575b600080fd5b6101696104b7565b6040516101769190612298565b60405180910390f35b6101996004803603810190610194919061237f565b610549565b6040516101a691906123da565b60405180910390f35b6101b761056c565b6040516101c49190612404565b60405180910390f35b6101e760048036038101906101e2919061241f565b610576565b6040516101f491906123da565b60405180910390f35b6102056107b7565b604051610212919061248e565b60405180910390f35b6102356004803603810190610230919061237f565b6107c0565b60405161024291906123da565b60405180910390f35b610265600480360381019061026091906124a9565b61086a565b60405161027291906123da565b60405180910390f35b6102836108c4565b60405161029091906123da565b60405180910390f35b6102b360048036038101906102ae91906124a9565b6108da565b6040516102c09190612404565b60405180910390f35b6102d1610923565b005b6102ed60048036038101906102e891906124d6565b610937565b6040516102fa91906123da565b60405180910390f35b61030b6109e8565b60405161031891906123da565b60405180910390f35b610329610a01565b6040516103369190612512565b60405180910390f35b6103596004803603810190610354919061252d565b610a2a565b60405161036691906123da565b60405180910390f35b610377610f35565b6040516103849190612298565b60405180910390f35b6103a760048036038101906103a2919061237f565b610fc7565b6040516103b491906123da565b60405180910390f35b6103d760048036038101906103d2919061237f565b6110b1565b6040516103e491906123da565b60405180910390f35b610407600480360381019061040291906124a9565b6114f5565b60405161041491906123da565b60405180910390f35b610437600480360381019061043291906124a9565b611549565b60405161044491906123da565b60405180910390f35b6104676004803603810190610462919061256d565b61159d565b6040516104749190612404565b60405180910390f35b610497600480360381019061049291906124a9565b611624565b005b6104a16116a8565b6040516104ae91906123da565b60405180910390f35b6060600880546104c6906125dc565b80601f01602080910402602001604051908101604052809291908181526020018280546104f2906125dc565b801561053f5780601f106105145761010080835404028352916020019161053f565b820191906000526020600020905b81548152906001019060200180831161052257829003601f168201915b5050505050905090565b6000806105546116c1565b90506105618185856116c9565b600191505092915050565b6000600754905090565b6000610580611894565b6105886118de565b600b60009054906101000a900473ffffffffffffffffffffffffffffffffffffffff1673ffffffffffffffffffffffffffffffffffffffff1663e47d60606105ce6116c1565b6040518263ffffffff1660e01b81526004016105ea9190612512565b602060405180830381865afa158015610607573d6000803e3d6000fd5b505050506040513d601f19601f8201168201806040525081019061062b919061263a565b1561063557600080fd5b600b60009054906101000a900473ffffffffffffffffffffffffffffffffffffffff1673ffffffffffffffffffffffffffffffffffffffff1663e47d6060856040518263ffffffff1660e01b81526004016106909190612512565b602060405180830381865afa1580156106ad573d6000803e3d6000fd5b505050506040513d601f19601f820116820180604052508101906106d1919061263a565b156106db57600080fd5b600b60009054906101000a900473ffffffffffffffffffffffffffffffffffffffff1673ffffffffffffffffffffffffffffffffffffffff1663e47d6060846040518263ffffffff1660e01b81526004016107369190612512565b602060405180830381865afa158015610753573d6000803e3d6000fd5b505050506040513d601f19601f82011682018060405250810190610777919061263a565b1561078157600080fd5b600061078b6116c1565b905061079885828561192e565b6107a38585856119ba565b60019150506107b0611c35565b9392505050565b60006006905090565b6000806107cb6116c1565b905061085f818585600360008673ffffffffffffffffffffffffffffffffffffffff1673ffffffffffffffffffffffffffffffffffffffff16815260200190815260200160002060008973ffffffffffffffffffffffffffffffffffffffff1673ffffffffffffffffffffffffffffffffffffffff1681526020019081526020016000205461085a9190612696565b6116c9565b600191505092915050565b6000600a60009054906101000a900473ffffffffffffffffffffffffffffffffffffffff1673ffffffffffffffffffffffffffffffffffffffff168273ffffffffffffffffffffffffffffffffffffffff16149050919050565b60008060149054906101000a900460ff16905090565b6000600260008373ffffffffffffffffffffffffffffffffffffffff1673ffffffffffffffffffffffffffffffffffffffff168152602001908152602001600020549050919050565b61092b611c3e565b6109356000611cbc565b565b6000610941610a01565b73ffffffffffffffffffffffffffffffffffffffff163373ffffffffffffffffffffffffffffffffffffffff16148061097f575061097e3361086a565b5b6109be576040517f08c379a00000000000000000000000000000000000000000000000000000000081526004016109b59061275e565b60405180910390fd5b6109c66118de565b6109d76109d16116c1565b83611d80565b600190506109e3611c35565b919050565b60006109f2611c3e565b6109fa611f50565b6001905090565b60008060009054906101000a900473ffffffffffffffffffffffffffffffffffffffff16905090565b6000610a34610a01565b73ffffffffffffffffffffffffffffffffffffffff163373ffffffffffffffffffffffffffffffffffffffff161480610a725750610a713361086a565b5b610ab1576040517f08c379a0000000000000000000000000000000000000000000000000000000008152600401610aa89061275e565b60405180910390fd5b610ab96118de565b6000610ac3611fb3565b9050600b60009054906101000a900473ffffffffffffffffffffffffffffffffffffffff1673ffffffffffffffffffffffffffffffffffffffff1663e47d6060826040518263ffffffff1660e01b8152600401610b209190612512565b602060405180830381865afa158015610b3d573d6000803e3d6000fd5b505050506040513d601f19601f82011682018060405250810190610b61919061263a565b15610ba1576040517f08c379a0000000000000000000000000000000000000000000000000000000008152600401610b98906127ca565b60405180910390fd5b600b60009054906101000a900473ffffffffffffffffffffffffffffffffffffffff1673ffffffffffffffffffffffffffffffffffffffff1663e47d6060846040518263ffffffff1660e01b8152600401610bfc9190612512565b602060405180830381865afa158015610c19573d6000803e3d6000fd5b505050506040513d601f19601f82011682018060405250810190610c3d919061263a565b15610c7d576040517f08c379a0000000000000000000000000000000000000000000000000000000008152600401610c7490612836565b60405180910390fd5b600b60009054906101000a900473ffffffffffffffffffffffffffffffffffffffff1673ffffffffffffffffffffffffffffffffffffffff1663c2ba4744826040518263ffffffff1660e01b8152600401610cd89190612512565b602060405180830381865afa158015610cf5573d6000803e3d6000fd5b505050506040513d601f19601f82011682018060405250810190610d19919061263a565b610d58576040517f08c379a0000000000000000000000000000000000000000000000000000000008152600401610d4f906128a2565b60405180910390fd5b83600b60009054906101000a900473ffffffffffffffffffffffffffffffffffffffff1673ffffffffffffffffffffffffffffffffffffffff1663055d822c836040518263ffffffff1660e01b8152600401610db49190612512565b602060405180830381865afa158015610dd1573d6000803e3d6000fd5b505050506040513d601f19601f82011682018060405250810190610df591906128d7565b14610e35576040517f08c379a0000000000000000000000000000000000000000000000000000000008152600401610e2c90612976565b60405180910390fd5b610e3f8385611fea565b6000600b60009054906101000a900473ffffffffffffffffffffffffffffffffffffffff1673ffffffffffffffffffffffffffffffffffffffff16638a4e0ace836040518263ffffffff1660e01b8152600401610e9c9190612512565b6020604051808303816000875af1158015610ebb573d6000803e3d6000fd5b505050506040513d601f19601f82011682018060405250810190610edf919061263a565b905080610f21576040517f08c379a0000000000000000000000000000000000000000000000000000000008152600401610f1890612a08565b60405180910390fd5b600192505050610f2f611c35565b92915050565b606060098054610f44906125dc565b80601f0160208091040260200160405190810160405280929190818152602001828054610f70906125dc565b8015610fbd5780601f10610f9257610100808354040283529160200191610fbd565b820191906000526020600020905b815481529060010190602001808311610fa057829003601f168201915b5050505050905090565b600080610fd26116c1565b90506000600360008373ffffffffffffffffffffffffffffffffffffffff1673ffffffffffffffffffffffffffffffffffffffff16815260200190815260200160002060008673ffffffffffffffffffffffffffffffffffffffff1673ffffffffffffffffffffffffffffffffffffffff16815260200190815260200160002054905083811015611098576040517f08c379a000000000000000000000000000000000000000000000000000000000815260040161108f90612a9a565b60405180910390fd5b6110a582868684036116c9565b60019250505092915050565b60006110bb6118de565b60006110c56116c1565b9050600b60009054906101000a900473ffffffffffffffffffffffffffffffffffffffff1673ffffffffffffffffffffffffffffffffffffffff1663e47d606061110d6116c1565b6040518263ffffffff1660e01b81526004016111299190612512565b602060405180830381865afa158015611146573d6000803e3d6000fd5b505050506040513d601f19601f8201168201806040525081019061116a919061263a565b1580156112105750600b60009054906101000a900473ffffffffffffffffffffffffffffffffffffffff1673ffffffffffffffffffffffffffffffffffffffff1663e47d6060856040518263ffffffff1660e01b81526004016111cd9190612512565b602060405180830381865afa1580156111ea573d6000803e3d6000fd5b505050506040513d601f19601f8201168201806040525081019061120e919061263a565b155b80156112b45750600b60009054906101000a900473ffffffffffffffffffffffffffffffffffffffff1673ffffffffffffffffffffffffffffffffffffffff16633fd0966e856040518263ffffffff1660e01b81526004016112729190612512565b602060405180830381865afa15801561128f573d6000803e3d6000fd5b505050506040513d601f19601f820116820180604052508101906112b3919061263a565b5b801561135f5750600b60009054906101000a900473ffffffffffffffffffffffffffffffffffffffff1673ffffffffffffffffffffffffffffffffffffffff16635efd37656113016116c1565b6040518263ffffffff1660e01b815260040161131d9190612512565b602060405180830381865afa15801561133a573d6000803e3d6000fd5b505050506040513d601f19601f8201168201806040525081019061135e919061263a565b5b156113835761136f8185856119ba565b6113798484611d80565b60019150506114e7565b600b60009054906101000a900473ffffffffffffffffffffffffffffffffffffffff1673ffffffffffffffffffffffffffffffffffffffff1663e47d60606113c96116c1565b6040518263ffffffff1660e01b81526004016113e59190612512565b602060405180830381865afa158015611402573d6000803e3d6000fd5b505050506040513d601f19601f82011682018060405250810190611426919061263a565b1561143057600080fd5b600b60009054906101000a900473ffffffffffffffffffffffffffffffffffffffff1673ffffffffffffffffffffffffffffffffffffffff1663e47d6060856040518263ffffffff1660e01b815260040161148b9190612512565b602060405180830381865afa1580156114a8573d6000803e3d6000fd5b505050506040513d601f19601f820116820180604052508101906114cc919061263a565b156114d657600080fd5b6114e18185856119ba565b60019150505b6114ef611c35565b92915050565b60006114ff611c3e565b81600a60006101000a81548173ffffffffffffffffffffffffffffffffffffffff021916908373ffffffffffffffffffffffffffffffffffffffff16021790555060019050919050565b6000611553611c3e565b81600b60006101000a81548173ffffffffffffffffffffffffffffffffffffffff021916908373ffffffffffffffffffffffffffffffffffffffff16021790555060019050919050565b6000600360008473ffffffffffffffffffffffffffffffffffffffff1673ffffffffffffffffffffffffffffffffffffffff16815260200190815260200160002060008373ffffffffffffffffffffffffffffffffffffffff1673ffffffffffffffffffffffffffffffffffffffff16815260200190815260200160002054905092915050565b61162c611c3e565b600073ffffffffffffffffffffffffffffffffffffffff168173ffffffffffffffffffffffffffffffffffffffff16141561169c576040517f08c379a000000000000000000000000000000000000000000000000000000000815260040161169390612b2c565b60405180910390fd5b6116a581611cbc565b50565b60006116b2611c3e565b6116ba612142565b6001905090565b600033905090565b600073ffffffffffffffffffffffffffffffffffffffff168373ffffffffffffffffffffffffffffffffffffffff161415611739576040517f08c379a000000000000000000000000000000000000000000000000000000000815260040161173090612bbe565b60405180910390fd5b600073ffffffffffffffffffffffffffffffffffffffff168273ffffffffffffffffffffffffffffffffffffffff1614156117a9576040517f08c379a00000000000000000000000000000000000000000000000000000000081526004016117a090612c50565b60405180910390fd5b80600360008573ffffffffffffffffffffffffffffffffffffffff1673ffffffffffffffffffffffffffffffffffffffff16815260200190815260200160002060008473ffffffffffffffffffffffffffffffffffffffff1673ffffffffffffffffffffffffffffffffffffffff168152602001908152602001600020819055508173ffffffffffffffffffffffffffffffffffffffff168373ffffffffffffffffffffffffffffffffffffffff167f8c5be1e5ebec7d5bd14f71427d1e84f3dd0314c0f7b2291e5b200ac8c7c3b925836040516118879190612404565b60405180910390a3505050565b61189c6108c4565b156118dc576040517f08c379a00000000000000000000000000000000000000000000000000000000081526004016118d390612cbc565b60405180910390fd5b565b60026001541415611924576040517f08c379a000000000000000000000000000000000000000000000000000000000815260040161191b90612d28565b60405180910390fd5b6002600181905550565b600061193a848461159d565b90507fffffffffffffffffffffffffffffffffffffffffffffffffffffffffffffffff81146119b457818110156119a6576040517f08c379a000000000000000000000000000000000000000000000000000000000815260040161199d90612d94565b60405180910390fd5b6119b384848484036116c9565b5b50505050565b600073ffffffffffffffffffffffffffffffffffffffff168373ffffffffffffffffffffffffffffffffffffffff161415611a2a576040517f08c379a0000000000000000000000000000000000000000000000000000000008152600401611a2190612e26565b60405180910390fd5b600073ffffffffffffffffffffffffffffffffffffffff168273ffffffffffffffffffffffffffffffffffffffff161415611a9a576040517f08c379a0000000000000000000000000000000000000000000000000000000008152600401611a9190612eb8565b60405180910390fd5b611aa58383836121a4565b6000600260008573ffffffffffffffffffffffffffffffffffffffff1673ffffffffffffffffffffffffffffffffffffffff16815260200190815260200160002054905081811015611b2c576040517f08c379a0000000000000000000000000000000000000000000000000000000008152600401611b2390612f4a565b60405180910390fd5b818103600260008673ffffffffffffffffffffffffffffffffffffffff1673ffffffffffffffffffffffffffffffffffffffff1681526020019081526020016000208190555081600260008573ffffffffffffffffffffffffffffffffffffffff1673ffffffffffffffffffffffffffffffffffffffff168152602001908152602001600020600082825401925050819055508273ffffffffffffffffffffffffffffffffffffffff168473ffffffffffffffffffffffffffffffffffffffff167fddf252ad1be2c89b69c2b068fc378daa952ba7f163c4a11628f55a4df523b3ef84604051611c1c9190612404565b60405180910390a3611c2f8484846121b1565b50505050565b60018081905550565b611c466116c1565b73ffffffffffffffffffffffffffffffffffffffff16611c64610a01565b73ffffffffffffffffffffffffffffffffffffffff1614611cba576040517f08c379a0000000000000000000000000000000000000000000000000000000008152600401611cb190612fb6565b60405180910390fd5b565b60008060009054906101000a900473ffffffffffffffffffffffffffffffffffffffff169050816000806101000a81548173ffffffffffffffffffffffffffffffffffffffff021916908373ffffffffffffffffffffffffffffffffffffffff1602179055508173ffffffffffffffffffffffffffffffffffffffff168173ffffffffffffffffffffffffffffffffffffffff167f8be0079c531659141344cd1fd0a4f28419497f9722a3daafe3b4186f6b6457e060405160405180910390a35050565b600073ffffffffffffffffffffffffffffffffffffffff168273ffffffffffffffffffffffffffffffffffffffff161415611df0576040517f08c379a0000000000000000000000000000000000000000000000000000000008152600401611de790613048565b60405180910390fd5b611dfc826000836121a4565b6000600260008473ffffffffffffffffffffffffffffffffffffffff1673ffffffffffffffffffffffffffffffffffffffff16815260200190815260200160002054905081811015611e83576040517f08c379a0000000000000000000000000000000000000000000000000000000008152600401611e7a906130da565b60405180910390fd5b818103600260008573ffffffffffffffffffffffffffffffffffffffff1673ffffffffffffffffffffffffffffffffffffffff1681526020019081526020016000208190555081600760008282540392505081905550600073ffffffffffffffffffffffffffffffffffffffff168373ffffffffffffffffffffffffffffffffffffffff167fddf252ad1be2c89b69c2b068fc378daa952ba7f163c4a11628f55a4df523b3ef84604051611f379190612404565b60405180910390a3611f4b836000846121b1565b505050565b611f58611894565b6001600060146101000a81548160ff0219169083151502179055507f62e78cea01bee320cd4e420270b5ea74000d11b0c9f74754ebdbfc544b05a258611f9c6116c1565b604051611fa99190612512565b60405180910390a1565b60006014600036905010158015611fcf5750611fce3361086a565b5b15611fe357601436033560601c9050611fe7565b3390505b90565b600073ffffffffffffffffffffffffffffffffffffffff168273ffffffffffffffffffffffffffffffffffffffff16141561205a576040517f08c379a000000000000000000000000000000000000000000000000000000000815260040161205190613146565b60405180910390fd5b612066600083836121a4565b80600760008282546120789190612696565b9250508190555080600260008473ffffffffffffffffffffffffffffffffffffffff1673ffffffffffffffffffffffffffffffffffffffff168152602001908152602001600020600082825401925050819055508173ffffffffffffffffffffffffffffffffffffffff16600073ffffffffffffffffffffffffffffffffffffffff167fddf252ad1be2c89b69c2b068fc378daa952ba7f163c4a11628f55a4df523b3ef8360405161212a9190612404565b60405180910390a361213e600083836121b1565b5050565b61214a6121b6565b60008060146101000a81548160ff0219169083151502179055507f5db9ee0a495bf2e6ff9c91a7834c1ba4fdd244a5e8aa4e537bd38aeae4b073aa61218d6116c1565b60405161219a9190612512565b60405180910390a1565b6121ac611894565b505050565b505050565b6121be6108c4565b6121fd576040517f08c379a00000000000000000000000000000000000000000000000000000000081526004016121f4906131b2565b60405180910390fd5b565b600081519050919050565b600082825260208201905092915050565b60005b8381101561223957808201518184015260208101905061221e565b83811115612248576000848401525b50505050565b6000601f19601f8301169050919050565b600061226a826121ff565b612274818561220a565b935061228481856020860161221b565b61228d8161224e565b840191505092915050565b600060208201905081810360008301526122b2818461225f565b905092915050565b600080fd5b600074ffffffffffffffffffffffffffffffffffffffffff82169050919050565b6122e9816122bf565b81146122f457600080fd5b50565b600073ffffffffffffffffffffffffffffffffffffffff82169050919050565b6000612322826122f7565b9050919050565b600081359050612338816122e0565b61234181612317565b905092915050565b6000819050919050565b61235c81612349565b811461236757600080fd5b50565b60008135905061237981612353565b92915050565b60008060408385031215612396576123956122ba565b5b60006123a485828601612329565b92505060206123b58582860161236a565b9150509250929050565b60008115159050919050565b6123d4816123bf565b82525050565b60006020820190506123ef60008301846123cb565b92915050565b6123fe81612349565b82525050565b600060208201905061241960008301846123f5565b92915050565b600080600060608486031215612438576124376122ba565b5b600061244686828701612329565b935050602061245786828701612329565b92505060406124688682870161236a565b9150509250925092565b600060ff82169050919050565b61248881612472565b82525050565b60006020820190506124a3600083018461247f565b92915050565b6000602082840312156124bf576124be6122ba565b5b60006124cd84828501612329565b91505092915050565b6000602082840312156124ec576124eb6122ba565b5b60006124fa8482850161236a565b91505092915050565b61250c81612317565b82525050565b60006020820190506125276000830184612503565b92915050565b60008060408385031215612544576125436122ba565b5b60006125528582860161236a565b925050602061256385828601612329565b9150509250929050565b60008060408385031215612584576125836122ba565b5b600061259285828601612329565b92505060206125a385828601612329565b9150509250929050565b7f4e487b7100000000000000000000000000000000000000000000000000000000600052602260045260246000fd5b600060028204905060018216806125f457607f821691505b60208210811415612608576126076125ad565b5b50919050565b612617816123bf565b811461262257600080fd5b50565b6000815190506126348161260e565b92915050565b6000602082840312156126505761264f6122ba565b5b600061265e84828501612625565b91505092915050565b7f4e487b7100000000000000000000000000000000000000000000000000000000600052601160045260246000fd5b60006126a182612349565b91506126ac83612349565b9250827fffffffffffffffffffffffffffffffffffffffffffffffffffffffffffffffff038211156126e1576126e0612667565b5b828201905092915050565b7f43616c6c6572206973206e6f7420746865206465706c6f796572206f7220746860008201527f65207472757374656420666f7277617264657200000000000000000000000000602082015250565b600061274860338361220a565b9150612753826126ec565b604082019050919050565b600060208201905081810360008301526127778161273b565b9050919050565b7f5573657220697320626c61636b6c697374656400000000000000000000000000600082015250565b60006127b460138361220a565b91506127bf8261277e565b602082019050919050565b600060208201905081810360008301526127e3816127a7565b9050919050565b7f526563656976657220697320626c61636b6c6973746564000000000000000000600082015250565b600061282060178361220a565b915061282b826127ea565b602082019050919050565b6000602082019050818103600083015261284f81612813565b9050919050565b7f4d696e746572206e6f7420617574686f72697a65640000000000000000000000600082015250565b600061288c60158361220a565b915061289782612856565b602082019050919050565b600060208201905081810360008301526128bb8161287f565b9050919050565b6000815190506128d181612353565b92915050565b6000602082840312156128ed576128ec6122ba565b5b60006128fb848285016128c2565b91505092915050565b7f417474656d7074696e6720746f206d696e74206d6f7265207468616e20616c6c60008201527f6f77656400000000000000000000000000000000000000000000000000000000602082015250565b600061296060248361220a565b915061296b82612904565b604082019050919050565b6000602082019050818103600083015261298f81612953565b9050919050565b7f4661696c656420746f207265766f6b65206d696e74696e6720617574686f726960008201527f7a6174696f6e0000000000000000000000000000000000000000000000000000602082015250565b60006129f260268361220a565b91506129fd82612996565b604082019050919050565b60006020820190508181036000830152612a21816129e5565b9050919050565b7f45524332303a2064656372656173656420616c6c6f77616e63652062656c6f7760008201527f207a65726f000000000000000000000000000000000000000000000000000000602082015250565b6000612a8460258361220a565b9150612a8f82612a28565b604082019050919050565b60006020820190508181036000830152612ab381612a77565b9050919050565b7f4f776e61626c653a206e6577206f776e657220697320746865207a65726f206160008201527f6464726573730000000000000000000000000000000000000000000000000000602082015250565b6000612b1660268361220a565b9150612b2182612aba565b604082019050919050565b60006020820190508181036000830152612b4581612b09565b9050919050565b7f45524332303a20617070726f76652066726f6d20746865207a65726f2061646460008201527f7265737300000000000000000000000000000000000000000000000000000000602082015250565b6000612ba860248361220a565b9150612bb382612b4c565b604082019050919050565b60006020820190508181036000830152612bd781612b9b565b9050919050565b7f45524332303a20617070726f766520746f20746865207a65726f20616464726560008201527f7373000000000000000000000000000000000000000000000000000000000000602082015250565b6000612c3a60228361220a565b9150612c4582612bde565b604082019050919050565b60006020820190508181036000830152612c6981612c2d565b9050919050565b7f5061757361626c653a2070617573656400000000000000000000000000000000600082015250565b6000612ca660108361220a565b9150612cb182612c70565b602082019050919050565b60006020820190508181036000830152612cd581612c99565b9050919050565b7f5265656e7472616e637947756172643a207265656e7472616e742063616c6c00600082015250565b6000612d12601f8361220a565b9150612d1d82612cdc565b602082019050919050565b60006020820190508181036000830152612d4181612d05565b9050919050565b7f45524332303a20696e73756666696369656e7420616c6c6f77616e6365000000600082015250565b6000612d7e601d8361220a565b9150612d8982612d48565b602082019050919050565b60006020820190508181036000830152612dad81612d71565b9050919050565b7f45524332303a207472616e736665722066726f6d20746865207a65726f20616460008201527f6472657373000000000000000000000000000000000000000000000000000000602082015250565b6000612e1060258361220a565b9150612e1b82612db4565b604082019050919050565b60006020820190508181036000830152612e3f81612e03565b9050919050565b7f45524332303a207472616e7366657220746f20746865207a65726f206164647260008201527f6573730000000000000000000000000000000000000000000000000000000000602082015250565b6000612ea260238361220a565b9150612ead82612e46565b604082019050919050565b60006020820190508181036000830152612ed181612e95565b9050919050565b7f45524332303a207472616e7366657220616d6f756e742065786365656473206260008201527f616c616e63650000000000000000000000000000000000000000000000000000602082015250565b6000612f3460268361220a565b9150612f3f82612ed8565b604082019050919050565b60006020820190508181036000830152612f6381612f27565b9050919050565b7f4f776e61626c653a2063616c6c6572206973206e6f7420746865206f776e6572600082015250565b6000612fa060208361220a565b9150612fab82612f6a565b602082019050919050565b60006020820190508181036000830152612fcf81612f93565b9050919050565b7f45524332303a206275726e2066726f6d20746865207a65726f2061646472657360008201527f7300000000000000000000000000000000000000000000000000000000000000602082015250565b600061303260218361220a565b915061303d82612fd6565b604082019050919050565b6000602082019050818103600083015261306181613025565b9050919050565b7f45524332303a206275726e20616d6f756e7420657863656564732062616c616e60008201527f6365000000000000000000000000000000000000000000000000000000000000602082015250565b60006130c460228361220a565b91506130cf82613068565b604082019050919050565b600060208201905081810360008301526130f3816130b7565b9050919050565b7f45524332303a206d696e7420746f20746865207a65726f206164647265737300600082015250565b6000613130601f8361220a565b915061313b826130fa565b602082019050919050565b6000602082019050818103600083015261315f81613123565b9050919050565b7f5061757361626c653a206e6f7420706175736564000000000000000000000000600082015250565b600061319c60148361220a565b91506131a782613166565b602082019050919050565b600060208201905081810360008301526131cb8161318f565b905091905056fea26474726f6e58221220a6a0ebd612a88837e07d354b848495d9c995dbe3530e4ce4541e49cf6e72968464736f6c634300080b0033",
  "source": "// SPDX-License-Identifier: MIT\n// OpenZeppelin Contracts (last updated v4.8.0) (token/ERC20/ERC20.sol)\n\npragma solidity ^0.8.0;\n\n\n\nabstract contract Context {\n    function _msgSender() internal view virtual returns (address) {\n        return msg.sender;\n    }\n\n    function _msgData() internal view virtual returns (bytes calldata) {\n        return msg.data;\n    }\n}\ninterface IERC20 {\n    /**\n     * @dev Emitted when `value` tokens are moved from one account (`from`) to\n     * another (`to`).\n     *\n     * Note that `value` may be zero.\n     */\n    event Transfer(address indexed from, address indexed to, uint256 value);\n\n    /**\n     * @dev Emitted when the allowance of a `spender` for an `owner` is set by\n     * a call to {approve}. `value` is the new allowance.\n     */\n    event Approval(address indexed owner, address indexed spender, uint256 value);\n\n    /**\n     * @dev Returns the amount of tokens in existence.\n     */\n    function totalSupply() external view returns (uint256);\n\n    /**\n     * @dev Returns the amount of tokens owned by `account`.\n     */\n    function balanceOf(address account) external view returns (uint256);\n\n    /**\n     * @dev Moves `amount` tokens from the caller's account to `to`.\n     *\n     * Returns a boolean value indicating whether the operation succeeded.\n     *\n     * Emits a {Transfer} event.\n     */\n    function transfer(address to, uint256 amount) external returns (bool);\n\n    /**\n     * @dev Returns the remaining number of tokens that `spender` will be\n     * allowed to spend on behalf of `owner` through {transferFrom}. This is\n     * zero by default.\n     *\n     * This value changes when {approve} or {transferFrom} are called.\n     */\n    function allowance(address owner, address spender) external view returns (uint256);\n\n    /**\n     * @dev Sets `amount` as the allowance of `spender` over the caller's tokens.\n     *\n     * Returns a boolean value indicating whether the operation succeeded.\n     *\n     * IMPORTANT: Beware that changing an allowance with this method brings the risk\n     * that someone may use both the old and the new allowance by unfortunate\n     * transaction ordering. One possible solution to mitigate this race\n     * condition is to first reduce the spender's allowance to 0 and set the\n     * desired value afterwards:\n     * https://github.com/ethereum/EIPs/issues/20#issuecomment-263524729\n     *\n     * Emits an {Approval} event.\n     */\n    function approve(address spender, uint256 amount) external returns (bool);\n\n    /**\n     * @dev Moves `amount` tokens from `from` to `to` using the\n     * allowance mechanism. `amount` is then deducted from the caller's\n     * allowance.\n     *\n     * Returns a boolean value indicating whether the operation succeeded.\n     *\n     * Emits a {Transfer} event.\n     */\n    function transferFrom(\n        address from,\n        address to,\n        uint256 amount\n    ) external returns (bool);\n}\n\nabstract contract Pausable is Context {\n    /**\n     * @dev Emitted when the pause is triggered by `account`.\n     */\n    event Paused(address account);\n\n    /**\n     * @dev Emitted when the pause is lifted by `account`.\n     */\n    event Unpaused(address account);\n\n    bool private _paused;\n\n    /**\n     * @dev Initializes the contract in unpaused state.\n     */\n    constructor() {\n        _paused = false;\n    }\n\n    /**\n     * @dev Modifier to make a function callable only when the contract is not paused.\n     *\n     * Requirements:\n     *\n     * - The contract must not be paused.\n     */\n    modifier whenNotPaused() {\n        _requireNotPaused();\n        _;\n    }\n\n    /**\n     * @dev Modifier to make a function callable only when the contract is paused.\n     *\n     * Requirements:\n     *\n     * - The contract must be paused.\n     */\n    modifier whenPaused() {\n        _requirePaused();\n        _;\n    }\n\n    /**\n     * @dev Returns true if the contract is paused, and false otherwise.\n     */\n    function paused() public view virtual returns (bool) {\n        return _paused;\n    }\n\n    /**\n     * @dev Throws if the contract is paused.\n     */\n    function _requireNotPaused() internal view virtual {\n        require(!paused(), \"Pausable: paused\");\n    }\n\n    /**\n     * @dev Throws if the contract is not paused.\n     */\n    function _requirePaused() internal view virtual {\n        require(paused(), \"Pausable: not paused\");\n    }\n\n    /**\n     * @dev Triggers stopped state.\n     *\n     * Requirements:\n     *\n     * - The contract must not be paused.\n     */\n    function _pause() internal virtual whenNotPaused {\n        _paused = true;\n        emit Paused(_msgSender());\n    }\n\n    /**\n     * @dev Returns to normal state.\n     *\n     * Requirements:\n     *\n     * - The contract must be paused.\n     */\n    function _unpause() internal virtual whenPaused {\n        _paused = false;\n        emit Unpaused(_msgSender());\n    }\n}\n\nabstract contract Ownable is Context {\n    address private _owner;\n\n    event OwnershipTransferred(address indexed previousOwner, address indexed newOwner);\n\n    /**\n     * @dev Initializes the contract setting the deployer as the initial owner.\n     */\n    constructor() {\n        _transferOwnership(_msgSender());\n    }\n\n    /**\n     * @dev Throws if called by any account other than the owner.\n     */\n    modifier onlyOwner() {\n        _checkOwner();\n        _;\n    }\n\n    /**\n     * @dev Returns the address of the current owner.\n     */\n    function owner() public view virtual returns (address) {\n        return _owner;\n    }\n\n    /**\n     * @dev Throws if the sender is not the owner.\n     */\n    function _checkOwner() internal view virtual {\n        require(owner() == _msgSender(), \"Ownable: caller is not the owner\");\n    }\n\n    /**\n     * @dev Leaves the contract without owner. It will not be possible to call\n     * `onlyOwner` functions anymore. Can only be called by the current owner.\n     *\n     * NOTE: Renouncing ownership will leave the contract without an owner,\n     * thereby removing any functionality that is only available to the owner.\n     */\n    function renounceOwnership() public virtual onlyOwner {\n        _transferOwnership(address(0));\n    }\n\n    /**\n     * @dev Transfers ownership of the contract to a new account (`newOwner`).\n     * Can only be called by the current owner.\n     */\n    function transferOwnership(address newOwner) public virtual onlyOwner {\n        require(newOwner != address(0), \"Ownable: new owner is the zero address\");\n        _transferOwnership(newOwner);\n    }\n\n    /**\n     * @dev Transfers ownership of the contract to a new account (`newOwner`).\n     * Internal function without access restriction.\n     */\n    function _transferOwnership(address newOwner) internal virtual {\n        address oldOwner = _owner;\n        _owner = newOwner;\n        emit OwnershipTransferred(oldOwner, newOwner);\n    }\n}\n\nabstract contract ReentrancyGuard {\n    // Booleans are more expensive than uint256 or any type that takes up a full\n    // word because each write operation emits an extra SLOAD to first read the\n    // slot's contents, replace the bits taken up by the boolean, and then write\n    // back. This is the compiler's defense against contract upgrades and\n    // pointer aliasing, and it cannot be disabled.\n\n    // The values being non-zero value makes deployment a bit more expensive,\n    // but in exchange the refund on every call to nonReentrant will be lower in\n    // amount. Since refunds are capped to a percentage of the total\n    // transaction's gas, it is best to keep them low in cases like this one, to\n    // increase the likelihood of the full refund coming into effect.\n    uint256 private constant _NOT_ENTERED = 1;\n    uint256 private constant _ENTERED = 2;\n\n    uint256 private _status;\n\n    constructor() {\n        _status = _NOT_ENTERED;\n    }\n\n    /**\n     * @dev Prevents a contract from calling itself, directly or indirectly.\n     * Calling a `nonReentrant` function from another `nonReentrant`\n     * function is not supported. It is possible to prevent this from happening\n     * by making the `nonReentrant` function external, and making it call a\n     * `private` function that does the actual work.\n     */\n    modifier nonReentrant() {\n        _nonReentrantBefore();\n        _;\n        _nonReentrantAfter();\n    }\n\n    function _nonReentrantBefore() private {\n        // On the first call to nonReentrant, _status will be _NOT_ENTERED\n        require(_status != _ENTERED, \"ReentrancyGuard: reentrant call\");\n\n        // Any calls to nonReentrant after this point will fail\n        _status = _ENTERED;\n    }\n\n    function _nonReentrantAfter() private {\n        // By storing the original value once again, a refund is triggered (see\n        // https://eips.ethereum.org/EIPS/eip-2200)\n        _status = _NOT_ENTERED;\n    }\n}\n\ninterface IERC20Metadata is IERC20 {\n    /**\n     * @dev Returns the name of the token.\n     */\n    function name() external view returns (string memory);\n\n    /**\n     * @dev Returns the symbol of the token.\n     */\n    function symbol() external view returns (string memory);\n\n    /**\n     * @dev Returns the decimals places of the token.\n     */\n    function decimals() external view returns (uint8);\n}\n\n\ninterface IAdmin {\n    function canForward(address user) external view returns (bool);\n\n    function canMint(address user) external view returns (bool);\n\n    function mintAmount(address user) external view returns (uint256);\n\n    function isBlackListed(address user) external view returns (bool);\n\n    function trustedContract(\n        address contractAddress\n    ) external view returns (bool);\n\n    function isExternalSenderWhitelisted(\n        address user\n    ) external view returns (bool);\n\n    function isInternalUserWhitelisted(\n        address user\n    ) external view returns (bool);\n\n    function addCanMint(address user) external returns (bool);\n\n    function removeCanMint(address user) external returns (bool);\n\n    function addMintAmount(\n        address user,\n        uint256 amount\n    ) external returns (bool);\n\n    function removeMintAmount(address user) external returns (bool);\n\n    function whitelistInternalUser(address user) external returns (bool);\n\n    function blacklistInternalUser(address user) external returns (bool);\n\n    function whitelistExternalSender(address user) external returns (bool);\n\n    function blacklistExternalSender(address user) external returns (bool);\n\n    function addCanForward(address user) external returns (bool);\n\n    function removeCanForward(address user) external returns (bool);\n\n    function addTrustedContract(\n        address contractAddress\n    ) external returns (bool);\n\n    function removeTrustedContract(\n        address contractAddress\n    ) external returns (bool);\n\n    function addBlackList(address evilUser) external returns (bool);\n\n    function removeBlackList(address clearedUser) external returns (bool);\n}\n\ncontract cngn is IERC20, IERC20Metadata, Ownable, Pausable, ReentrancyGuard {\n    mapping(address => uint256) private _balances;\n    mapping(address => mapping(address => uint256)) private _allowances;\n    mapping(address => bool) private isBlackListed;\n    mapping(address => bool) private isWhiteListed;\n    mapping(address => mapping(address => uint256)) private isMintAllow;\n\n    uint256 private _totalSupply;\n    string private _name;\n    string private _symbol;\n    address trustedForwarderContract;\n    address adminOperationsContract;\n\n    event DestroyedBlackFunds(address indexed _blackListedUser, uint256 _balance);\n    event AddedBlackList(address indexed _user);\n    event RemovedBlackList(address indexed _user);\n    event AddedWhiteList(address indexed _user);\n    event RemovedWhiteList(address indexed _user);\n    event AddedMintAllow(address indexed _user, uint256 _amount);\n\n    modifier onlyDeployerOrForwarder() {\n        require(\n            msg.sender == owner() || isTrustedForwarder(msg.sender),\n            \"Caller is not the deployer or the trusted forwarder\"\n        );\n        _;\n    }\n\n    constructor(\n        string memory name_,\n        string memory symbol_,\n        address _trustedForwarderContract,\n        address _adminOperationsContract\n    ) {\n        _name = name_;\n        _symbol = symbol_;\n        trustedForwarderContract = _trustedForwarderContract;\n        adminOperationsContract = _adminOperationsContract;\n    }\n\n    function isTrustedForwarder(address forwarder) public view returns (bool) {\n        return forwarder == trustedForwarderContract;\n    }\n\n    function msgSender() internal view returns (address payable signer) {\n        if (msg.data.length >= 20 && isTrustedForwarder(msg.sender)) {\n            assembly {\n                signer := shr(96, calldataload(sub(calldatasize(), 20)))\n            }\n        } else {\n            signer = payable(msg.sender);\n        }\n        return signer;\n    }\n\n    function updateAdminOperationsAddress(\n        address _newAdmin\n    ) public onlyOwner returns (bool) {\n        adminOperationsContract = _newAdmin;\n        return true;\n    }\n\n    function updateForwarderContract(\n        address _newForwarderContract\n    ) public onlyOwner returns (bool) {\n        trustedForwarderContract = _newForwarderContract;\n        return true;\n    }\n\n    function name() public view override returns (string memory) {\n        return _name;\n    }\n\n    function symbol() public view override returns (string memory) {\n        return _symbol;\n    }\n\n    function decimals() public pure override returns (uint8) {\n        return 6;\n    }\n\n    function totalSupply() public view override returns (uint256) {\n        return _totalSupply;\n    }\n\n    function balanceOf(address account) public view override returns (uint256) {\n        return _balances[account];\n    }\n\n     function transfer(\n        address to,\n        uint256 amount\n    ) public virtual override nonReentrant returns (bool) {\n        address owner = _msgSender();\n        if (\n            !IAdmin(adminOperationsContract).isBlackListed(_msgSender()) &&\n            !IAdmin(adminOperationsContract).isBlackListed(to) &&\n            IAdmin(adminOperationsContract).isInternalUserWhitelisted(to) &&\n            IAdmin(adminOperationsContract).isExternalSenderWhitelisted(\n                _msgSender()\n            )\n        ) {\n            _transfer(owner, to, amount);\n            _burn(to, amount);\n            return true;\n        } else {\n            require(!IAdmin(adminOperationsContract).isBlackListed(_msgSender()));\n            require(!IAdmin(adminOperationsContract).isBlackListed(to));\n            _transfer(owner, to, amount);\n            return true;\n        }\n    }\n\n\n    function allowance(\n        address owner,\n        address spender\n    ) public view virtual override returns (uint256) {\n        return _allowances[owner][spender];\n    }\n\n    function approve(\n        address spender,\n        uint256 amount\n    ) public virtual override returns (bool) {\n        address owner = _msgSender();\n        _approve(owner, spender, amount);\n        return true;\n    }\n\n    function transferFrom(\n        address from,\n        address to,\n        uint256 amount\n    ) public  virtual override whenNotPaused nonReentrant returns (bool) {\n        require(!IAdmin(adminOperationsContract).isBlackListed(_msgSender()));\n        require(!IAdmin(adminOperationsContract).isBlackListed(from));\n        require(!IAdmin(adminOperationsContract).isBlackListed(to));\n        address spender = _msgSender();\n        _spendAllowance(from, spender, amount);\n        _transfer(from, to, amount);\n        return true;\n    }\n\n    function increaseAllowance(\n        address spender,\n        uint256 addedValue\n    ) public virtual returns (bool) {\n        address owner = _msgSender();\n        _approve(owner, spender, _allowances[owner][spender] + addedValue);\n        return true;\n    }\n\n    function decreaseAllowance(\n        address spender,\n        uint256 subtractedValue\n    ) public virtual returns (bool) {\n        address owner = _msgSender();\n        uint256 currentAllowance = _allowances[owner][spender];\n        require(\n            currentAllowance >= subtractedValue,\n            \"ERC20: decreased allowance below zero\"\n        );\n        unchecked {\n            _approve(owner, spender, currentAllowance - subtractedValue);\n        }\n        return true;\n    }\n\n    function mint(\n        uint256 _amount,\n        address _mintTo\n    ) public onlyDeployerOrForwarder nonReentrant returns (bool) {\n        address signer = msgSender();\n        require(\n            !IAdmin(adminOperationsContract).isBlackListed(signer),\n            \"User is blacklisted\"\n        );\n        require(\n            !IAdmin(adminOperationsContract).isBlackListed(_mintTo),\n            \"Receiver is blacklisted\"\n        );\n        require(\n            IAdmin(adminOperationsContract).canMint(signer),\n            \"Minter not authorized\"\n        );\n        require(\n            IAdmin(adminOperationsContract).mintAmount(signer) == _amount,\n            \"Attempting to mint more than allowed\"\n        );\n        _mint(_mintTo, _amount);\n\n        bool removed = IAdmin(adminOperationsContract).removeCanMint(signer);\n        require(removed, \"Failed to revoke minting authorization\");\n\n        return true;\n    }\n\n    function burnByUser(\n        uint256 _amount\n    ) public virtual onlyDeployerOrForwarder nonReentrant returns (bool) {\n        _burn(_msgSender(), _amount);\n        return true;\n    }\n\n    function pause() public virtual onlyOwner returns (bool) {\n        _pause();\n        return true;\n    }\n\n    function unPause() public virtual onlyOwner returns (bool) {\n        _unpause();\n        return true;\n    }\n\n    function _transfer(address from, address to, uint256 amount) internal {\n        require(from != address(0), \"ERC20: transfer from the zero address\");\n        require(to != address(0), \"ERC20: transfer to the zero address\");\n\n        _beforeTokenTransfer(from, to, amount);\n\n        uint256 fromBalance = _balances[from];\n        require(\n            fromBalance >= amount,\n            \"ERC20: transfer amount exceeds balance\"\n        );\n        unchecked {\n            _balances[from] = fromBalance - amount;\n            _balances[to] += amount;\n        }\n\n        emit Transfer(from, to, amount);\n\n        _afterTokenTransfer(from, to, amount);\n    }\n\n   function _mint(address account, uint256 amount) internal virtual {\n        require(account != address(0), \"ERC20: mint to the zero address\");\n\n        _beforeTokenTransfer(address(0), account, amount);\n\n        _totalSupply += amount;\n        unchecked {\n            _balances[account] += amount;\n        }\n        emit Transfer(address(0), account, amount);\n\n        _afterTokenTransfer(address(0), account, amount);\n    }\n\n    function _burn(address account, uint256 amount) internal virtual {\n        require(account != address(0), \"ERC20: burn from the zero address\");\n\n        _beforeTokenTransfer(account, address(0), amount);\n\n        uint256 accountBalance = _balances[account];\n        require(accountBalance >= amount, \"ERC20: burn amount exceeds balance\");\n        unchecked {\n            _balances[account] = accountBalance - amount;\n            _totalSupply -= amount;\n        }\n\n        emit Transfer(account, address(0), amount);\n\n        _afterTokenTransfer(account, address(0), amount);\n    }\n\n    function _approve(\n        address owner,\n        address spender,\n        uint256 amount\n    ) internal virtual {\n        require(owner != address(0), \"ERC20: approve from the zero address\");\n        require(spender != address(0), \"ERC20: approve to the zero address\");\n\n        _allowances[owner][spender] = amount;\n        emit Approval(owner, spender, amount);\n    }\n\n    function _spendAllowance(\n        address owner,\n        address spender,\n        uint256 amount\n    ) internal virtual {\n        uint256 currentAllowance = allowance(owner, spender);\n        if (currentAllowance != type(uint256).max) {\n            require(\n                currentAllowance >= amount,\n                \"ERC20: insufficient allowance\"\n            );\n            unchecked {\n                _approve(owner, spender, currentAllowance - amount);\n            }\n        }\n    }\n\n    function _beforeTokenTransfer(\n        address from,\n        address to,\n        uint256 amount\n    ) internal virtual whenNotPaused {}\n\n    function _afterTokenTransfer(\n        address from,\n        address to,\n        uint256 amount\n    ) internal virtual {}\n\n    uint256[45] private __gap;\n}\n",
  "sourcePath": "/Users/charlesokaformbah/Projects/stablecoin-cngn/tron-contract/contracts/Cngn.sol",
  "compiler": {
    "name": "solc",
    "version": "0.8.11+commit.b01f3284.mod.Emscripten.clang"
  },
  "schemaVersion": "2.0.1",
  "updatedAt": "2024-12-14T15:38:16.859Z"
}