{
  "contractName": "FailingContract",
  "abi": [
    {
      "inputs": [],
      "name": "failingFunction",
      "outputs": [],
      "stateMutability": "pure",
      "type": "function"
    }
  ],
  "bytecode": "0x608060405234801561000f575f80fd5b50d3801561001b575f80fd5b50d28015610027575f80fd5b5061013f806100355f395ff3fe608060405234801561000f575f80fd5b50d3801561001b575f80fd5b50d28015610027575f80fd5b5060043610610041575f3560e01c8063d1b9666314610045575b5f80fd5b61004d61004f565b005b5f61008f576040517f08c379a0000000000000000000000000000000000000000000000000000000008152600401610086906100eb565b60405180910390fd5b565b5f82825260208201905092915050565b7f546869732066756e6374696f6e20616c77617973206661696c730000000000005f82015250565b5f6100d5601a83610091565b91506100e0826100a1565b602082019050919050565b5f6020820190508181035f830152610102816100c9565b905091905056fea26474726f6e5822122006241aa06ad4b66d662c057e6d6a123c91190357cf85e9fad537f203e77e3d6e64736f6c63430008140033",
  "source": "// SPDX-License-Identifier: MIT\npragma solidity ^0.8.20;\n\ncontract MultiSig {\n    address[] public owners;         // Array of owners' addresses\n    uint256 public required;          // Number of required approvals\n    mapping(address => bool) public isOwner; // Mapping to check if an address is an owner\n    mapping(uint256 => uint256) public approvals; // Mapping to store approvals for transactions\n\n    event TransactionCreated(address indexed creator, uint256 transactionId);\n    event TransactionExecuted(address indexed executor, uint256 transactionId);\n    event TransactionApproved(address indexed approver, uint256 transactionId);\n    event TransactionRejected(address indexed rejecter, uint256 transactionId);\n\n    modifier onlyOwner() {\n        require(isOwner[msg.sender], \"Not an owner\");\n        _;\n    }\n\n    modifier transactionExists(uint256 transactionId) {\n        require(transactionId < transactions.length, \"Transaction does not exist\");\n        _;\n    }\n\n    modifier notApproved(uint256 transactionId) {\n        require(approvals[transactionId] < required, \"Transaction already has required approvals\");\n        _;\n    }\n\n    modifier notExecuted(uint256 transactionId) {\n        require(transactions[transactionId].executed == false, \"Transaction already executed\");\n        _;\n    }\n\n    struct Transaction {\n        address to;                   // Address to call the contract\n        uint256 value;                 // ETH value to send (if any)\n        bytes data;                    // Calldata for function call\n        bool executed;                 // Whether the transaction has been executed\n    }\n\n    Transaction[] public transactions; // Array of transactions\n\n    constructor(address[] memory _owners, uint256 _requiredApprovals) {\n        require(_owners.length > 1, \"At least two owners are required\");\n        require(_requiredApprovals <= _owners.length, \"Invalid required approvals\");\n        \n        for (uint i = 0; i < _owners.length; i++) {\n            require(_owners[i] != address(0), \"Invalid address\");\n            require(!isOwner[_owners[i]], \"Duplicate owner\");\n            isOwner[_owners[i]] = true;\n        }\n\n        owners = _owners;\n        required = _requiredApprovals;\n    }\n\n    // Function to create a new transaction\n    function submitTransaction(address to, uint256 value, bytes memory data) public onlyOwner {\n        uint256 transactionId = transactions.length;\n        transactions.push(Transaction({\n            to: to,\n            value: value,\n            data: data,\n            executed: false\n        }));\n\n        emit TransactionCreated(msg.sender, transactionId);\n    }\n\n    // Function to approve a transaction\n    function approveTransaction(uint256 transactionId) public onlyOwner transactionExists(transactionId) notApproved(transactionId) {\n        approvals[transactionId]++;\n\n        emit TransactionApproved(msg.sender, transactionId);\n\n        // If we have enough approvals, execute the transaction\n        if (approvals[transactionId] >= required) {\n            executeTransaction(transactionId);\n        }\n    }\n\n    // Function to execute a transaction once enough approvals are received\n    function executeTransaction(uint256 transactionId) public onlyOwner transactionExists(transactionId) notExecuted(transactionId) {\n        require(approvals[transactionId] >= required, \"Not enough approvals\");\n\n        Transaction storage txn = transactions[transactionId];\n        txn.executed = true;\n\n        // Execute the contract call using the stored calldata\n        (bool success, ) = txn.to.call{value: txn.value}(txn.data);\n        require(success, \"Transaction failed\");\n\n        emit TransactionExecuted(msg.sender, transactionId);\n    }\n\n    // Function to reject a transaction\n    function rejectTransaction(uint256 transactionId) public onlyOwner transactionExists(transactionId) {\n        require(approvals[transactionId] < required, \"Cannot reject executed or approved transactions\");\n        approvals[transactionId] = 0;\n        emit TransactionRejected(msg.sender, transactionId);\n    }\n\n    // Function to get the transaction count\n    function getTransactionCount() public view returns (uint256) {\n        return transactions.length;\n    }\n\n    receive() external payable {}\n}\n\n\ncontract TestContract {\n  uint256 public value;\n  \n  function setValue(uint256 _value) public {\n    value = _value;\n  }\n}\n\n// Helper contract for testing failing transactions\ncontract FailingContract {\n  function failingFunction() public pure {\n    require(false, \"This function always fails\");\n  }\n}",
  "sourcePath": "/Users/ayoseun/Documents/GitHub/Ayoseun/stablecoin-cngn/tron-contract/contracts/Multisig.sol",
  "compiler": {
    "name": "solc",
    "version": "0.8.20+commit.5f1834bc.Emscripten.clang"
  },
  "schemaVersion": "2.0.1",
  "updatedAt": "2025-05-06T16:08:44.461Z"
}