{
  "contractName": "Forwarder",
  "abi": [
    {
      "inputs": [
        {
          "internalType": "address",
          "name": "_adminOperationsContract",
          "type": "address"
        }
      ],
      "stateMutability": "nonpayable",
      "type": "constructor"
    },
    {
      "anonymous": false,
      "inputs": [
        {
          "indexed": true,
          "internalType": "address",
          "name": "newAdminAddress",
          "type": "address"
        }
      ],
      "name": "AdminOperationsAddressUpdated",
      "type": "event",
      "stateMutability": "nonpayable"
    },
    {
      "anonymous": false,
      "inputs": [
        {
          "indexed": true,
          "internalType": "address",
          "name": "bridgeAddress",
          "type": "address"
        }
      ],
      "name": "BridgeAuthorized",
      "type": "event",
      "stateMutability": "nonpayable"
    },
    {
      "anonymous": false,
      "inputs": [
        {
          "indexed": true,
          "internalType": "address",
          "name": "bridgeAddress",
          "type": "address"
        }
      ],
      "name": "BridgeDeauthorized",
      "type": "event",
      "stateMutability": "nonpayable"
    },
    {
      "anonymous": false,
      "inputs": [
        {
          "indexed": true,
          "internalType": "address",
          "name": "previousOwner",
          "type": "address"
        },
        {
          "indexed": true,
          "internalType": "address",
          "name": "newOwner",
          "type": "address"
        }
      ],
      "name": "OwnershipTransferred",
      "type": "event",
      "stateMutability": "nonpayable"
    },
    {
      "anonymous": false,
      "inputs": [
        {
          "indexed": false,
          "internalType": "address",
          "name": "account",
          "type": "address"
        }
      ],
      "name": "Paused",
      "type": "event",
      "stateMutability": "nonpayable"
    },
    {
      "anonymous": false,
      "inputs": [
        {
          "indexed": false,
          "internalType": "address",
          "name": "account",
          "type": "address"
        }
      ],
      "name": "Unpaused",
      "type": "event",
      "stateMutability": "nonpayable"
    },
    {
      "anonymous": false,
      "inputs": [
        {
          "indexed": true,
          "internalType": "bool",
          "name": "success",
          "type": "bool"
        },
        {
          "indexed": false,
          "internalType": "bytes",
          "name": "returnData",
          "type": "bytes"
        }
      ],
      "name": "executed",
      "type": "event",
      "stateMutability": "nonpayable"
    },
    {
      "inputs": [],
      "name": "_TYPEHASH",
      "outputs": [
        {
          "internalType": "bytes32",
          "name": "",
          "type": "bytes32"
        }
      ],
      "stateMutability": "view",
      "type": "function"
    },
    {
      "inputs": [],
      "name": "adminOperationsContract",
      "outputs": [
        {
          "internalType": "address",
          "name": "",
          "type": "address"
        }
      ],
      "stateMutability": "view",
      "type": "function"
    },
    {
      "inputs": [
        {
          "internalType": "address",
          "name": "bridgeAddress",
          "type": "address"
        }
      ],
      "name": "authorizeBridge",
      "outputs": [],
      "stateMutability": "nonpayable",
      "type": "function"
    },
    {
      "inputs": [
        {
          "internalType": "address",
          "name": "",
          "type": "address"
        }
      ],
      "name": "authorizedBridges",
      "outputs": [
        {
          "internalType": "bool",
          "name": "",
          "type": "bool"
        }
      ],
      "stateMutability": "view",
      "type": "function"
    },
    {
      "inputs": [
        {
          "internalType": "address",
          "name": "bridgeAddress",
          "type": "address"
        }
      ],
      "name": "deauthorizeBridge",
      "outputs": [],
      "stateMutability": "nonpayable",
      "type": "function"
    },
    {
      "inputs": [
        {
          "components": [
            {
              "internalType": "address",
              "name": "from",
              "type": "address"
            },
            {
              "internalType": "address",
              "name": "to",
              "type": "address"
            },
            {
              "internalType": "uint256",
              "name": "value",
              "type": "uint256"
            },
            {
              "internalType": "uint256",
              "name": "gas",
              "type": "uint256"
            },
            {
              "internalType": "uint256",
              "name": "nonce",
              "type": "uint256"
            },
            {
              "internalType": "bytes",
              "name": "data",
              "type": "bytes"
            }
          ],
          "internalType": "struct Forwarder.ForwardRequest",
          "name": "req",
          "type": "tuple"
        },
        {
          "internalType": "bytes",
          "name": "signature",
          "type": "bytes"
        }
      ],
      "name": "execute",
      "outputs": [
        {
          "internalType": "bool",
          "name": "",
          "type": "bool"
        },
        {
          "internalType": "bytes",
          "name": "",
          "type": "bytes"
        }
      ],
      "stateMutability": "payable",
      "type": "function"
    },
    {
      "inputs": [
        {
          "components": [
            {
              "internalType": "address",
              "name": "from",
              "type": "address"
            },
            {
              "internalType": "address",
              "name": "to",
              "type": "address"
            },
            {
              "internalType": "uint256",
              "name": "value",
              "type": "uint256"
            },
            {
              "internalType": "uint256",
              "name": "gas",
              "type": "uint256"
            },
            {
              "internalType": "uint256",
              "name": "nonce",
              "type": "uint256"
            },
            {
              "internalType": "bytes",
              "name": "data",
              "type": "bytes"
            }
          ],
          "internalType": "struct Forwarder.ForwardRequest",
          "name": "req",
          "type": "tuple"
        },
        {
          "internalType": "bytes",
          "name": "signature",
          "type": "bytes"
        }
      ],
      "name": "executeByBridge",
      "outputs": [
        {
          "internalType": "bool",
          "name": "",
          "type": "bool"
        },
        {
          "internalType": "bytes",
          "name": "",
          "type": "bytes"
        }
      ],
      "stateMutability": "payable",
      "type": "function"
    },
    {
      "inputs": [],
      "name": "getChainId",
      "outputs": [
        {
          "internalType": "uint256",
          "name": "",
          "type": "uint256"
        }
      ],
      "stateMutability": "view",
      "type": "function"
    },
    {
      "inputs": [],
      "name": "getDomainSeparator",
      "outputs": [
        {
          "internalType": "bytes32",
          "name": "",
          "type": "bytes32"
        }
      ],
      "stateMutability": "view",
      "type": "function"
    },
    {
      "inputs": [
        {
          "internalType": "address",
          "name": "from",
          "type": "address"
        }
      ],
      "name": "getNonce",
      "outputs": [
        {
          "internalType": "uint256",
          "name": "",
          "type": "uint256"
        }
      ],
      "stateMutability": "view",
      "type": "function"
    },
    {
      "inputs": [],
      "name": "owner",
      "outputs": [
        {
          "internalType": "address",
          "name": "",
          "type": "address"
        }
      ],
      "stateMutability": "view",
      "type": "function"
    },
    {
      "inputs": [],
      "name": "pause",
      "outputs": [],
      "stateMutability": "nonpayable",
      "type": "function"
    },
    {
      "inputs": [],
      "name": "paused",
      "outputs": [
        {
          "internalType": "bool",
          "name": "",
          "type": "bool"
        }
      ],
      "stateMutability": "view",
      "type": "function"
    },
    {
      "inputs": [
        {
          "internalType": "bytes32",
          "name": "",
          "type": "bytes32"
        }
      ],
      "name": "processedTxHashes",
      "outputs": [
        {
          "internalType": "bool",
          "name": "",
          "type": "bool"
        }
      ],
      "stateMutability": "view",
      "type": "function"
    },
    {
      "inputs": [],
      "name": "renounceOwnership",
      "outputs": [],
      "stateMutability": "nonpayable",
      "type": "function"
    },
    {
      "inputs": [
        {
          "internalType": "address",
          "name": "newOwner",
          "type": "address"
        }
      ],
      "name": "transferOwnership",
      "outputs": [],
      "stateMutability": "nonpayable",
      "type": "function"
    },
    {
      "inputs": [],
      "name": "unpause",
      "outputs": [],
      "stateMutability": "nonpayable",
      "type": "function"
    },
    {
      "inputs": [
        {
          "internalType": "address",
          "name": "_newAdmin",
          "type": "address"
        }
      ],
      "name": "updateAdminOperationsAddress",
      "outputs": [
        {
          "internalType": "bool",
          "name": "",
          "type": "bool"
        }
      ],
      "stateMutability": "nonpayable",
      "type": "function"
    },
    {
      "inputs": [
        {
          "components": [
            {
              "internalType": "address",
              "name": "from",
              "type": "address"
            },
            {
              "internalType": "address",
              "name": "to",
              "type": "address"
            },
            {
              "internalType": "uint256",
              "name": "value",
              "type": "uint256"
            },
            {
              "internalType": "uint256",
              "name": "gas",
              "type": "uint256"
            },
            {
              "internalType": "uint256",
              "name": "nonce",
              "type": "uint256"
            },
            {
              "internalType": "bytes",
              "name": "data",
              "type": "bytes"
            }
          ],
          "internalType": "struct Forwarder.ForwardRequest",
          "name": "req",
          "type": "tuple"
        },
        {
          "internalType": "bytes",
          "name": "signature",
          "type": "bytes"
        }
      ],
      "name": "verify",
      "outputs": [
        {
          "internalType": "bool",
          "name": "",
          "type": "bool"
        }
      ],
      "stateMutability": "view",
      "type": "function"
    },
    {
      "stateMutability": "payable",
      "type": "receive",
      "name": "receive"
    }
  ],
  "bytecode": "0x61018060405234801562000011575f80fd5b50d380156200001e575f80fd5b50d280156200002b575f80fd5b5060405162002f6c38038062002f6c833981810160405281019062000051919062000478565b6040518060400160405280600481526020017f634e474e000000000000000000000000000000000000000000000000000000008152506040518060400160405280600581526020017f302e302e310000000000000000000000000000000000000000000000000000008152505f828051906020012090505f828051906020012090505f7f8b73c3c69bb8fe3d512ecc4cf759cc79239f7b179b0ffacaa9a75d522b39400f90508260e081815250508161010081815250504660a08181525050620001238184846200021460201b60201c565b608081815250503073ffffffffffffffffffffffffffffffffffffffff1660c08173ffffffffffffffffffffffffffffffffffffffff168152505080610120818152505050505050506200018c620001806200024f60201b60201c565b6200025660201b60201c565b5f8060146101000a81548160ff02191690831515021790555060018081905550466101408181525050620001c56200031760201b60201c565b61016081815250508060025f6101000a81548173ffffffffffffffffffffffffffffffffffffffff021916908373ffffffffffffffffffffffffffffffffffffffff1602179055505062000548565b5f838383463060405160200162000230959493929190620004ed565b6040516020818303038152906040528051906020012090509392505050565b5f33905090565b5f805f9054906101000a900473ffffffffffffffffffffffffffffffffffffffff169050815f806101000a81548173ffffffffffffffffffffffffffffffffffffffff021916908373ffffffffffffffffffffffffffffffffffffffff1602179055508173ffffffffffffffffffffffffffffffffffffffff168173ffffffffffffffffffffffffffffffffffffffff167f8be0079c531659141344cd1fd0a4f28419497f9722a3daafe3b4186f6b6457e060405160405180910390a35050565b5f7f8b73c3c69bb8fe3d512ecc4cf759cc79239f7b179b0ffacaa9a75d522b39400f6040518060400160405280600481526020017f634e474e00000000000000000000000000000000000000000000000000000000815250805190602001206040518060400160405280600581526020017f302e302e31000000000000000000000000000000000000000000000000000000815250805190602001204630604051602001620003cb959493929190620004ed565b60405160208183030381529060405280519060200120905090565b5f80fd5b5f74ffffffffffffffffffffffffffffffffffffffffff82169050919050565b6200041581620003ea565b811462000420575f80fd5b50565b5f73ffffffffffffffffffffffffffffffffffffffff82169050919050565b5f6200044e8262000423565b9050919050565b5f8151905062000465816200040a565b620004708162000442565b905092915050565b5f6020828403121562000490576200048f620003e6565b5b5f6200049f8482850162000455565b91505092915050565b5f819050919050565b620004bc81620004a8565b82525050565b5f819050919050565b620004d681620004c2565b82525050565b620004e78162000442565b82525050565b5f60a082019050620005025f830188620004b1565b620005116020830187620004b1565b620005206040830186620004b1565b6200052f6060830185620004cb565b6200053e6080830184620004dc565b9695505050505050565b60805160a05160c05160e051610100516101205161014051610160516129c8620005a45f395f610b7d01525f61068801525f6116a201525f6116e401525f6116c301525f6115f801525f61164e01525f61167701526129c85ff3fe608060405260043610610117575f3560e01c80638456cb591161009f578063bf5d3bdb11610063578063bf5d3bdb146104a6578063e53595ee146104fa578063e82ed2001461053a578063ed24911d1461057c578063f2fde38b146105be5761011e565b80638456cb59146103715780638da5cb5b1461039f578063a818569a146103e1578063b83fd82314610421578063b8a3c279146104755761011e565b80633f4ba83a116100e65780633f4ba83a1461024e57806347153f821461027c5780635c975abb146102ad5780636fc063be146102ef578063715018a6146103435761011e565b8063175c25a5146101225780632d0335ab146101645780632f764644146101b85780633408e4701461020c5761011e565b3661011e57005b5f80fd5b34801561012d575f80fd5b50d38015610139575f80fd5b50d28015610145575f80fd5b5061014e6105fe565b60405161015b9190611a1a565b60405180910390f35b34801561016f575f80fd5b50d3801561017b575f80fd5b50d28015610187575f80fd5b506101a2600480360381019061019d9190611ac0565b610622565b6040516101af9190611b03565b60405180910390f35b3480156101c3575f80fd5b50d380156101cf575f80fd5b50d280156101db575f80fd5b506101f660048036038101906101f19190611b46565b610668565b6040516102039190611b8b565b60405180910390f35b348015610217575f80fd5b50d38015610223575f80fd5b50d2801561022f575f80fd5b50610238610685565b6040516102459190611b03565b60405180910390f35b348015610259575f80fd5b50d38015610265575f80fd5b50d28015610271575f80fd5b5061027a6106ac565b005b61029660048036038101906102919190611c27565b6106be565b6040516102a4929190611d2a565b60405180910390f35b3480156102b8575f80fd5b50d380156102c4575f80fd5b50d280156102d0575f80fd5b506102d96106f8565b6040516102e69190611b8b565b60405180910390f35b3480156102fa575f80fd5b50d38015610306575f80fd5b50d28015610312575f80fd5b5061032d60048036038101906103289190611ac0565b61070d565b60405161033a9190611b8b565b60405180910390f35b34801561034e575f80fd5b50d3801561035a575f80fd5b50d28015610366575f80fd5b5061036f61072a565b005b34801561037c575f80fd5b50d38015610388575f80fd5b50d28015610394575f80fd5b5061039d61073d565b005b3480156103aa575f80fd5b50d380156103b6575f80fd5b50d280156103c2575f80fd5b506103cb61074f565b6040516103d89190611d67565b60405180910390f35b3480156103ec575f80fd5b50d380156103f8575f80fd5b50d28015610404575f80fd5b5061041f600480360381019061041a9190611ac0565b610776565b005b34801561042c575f80fd5b50d38015610438575f80fd5b50d28015610444575f80fd5b5061045f600480360381019061045a9190611ac0565b610818565b60405161046c9190611b8b565b60405180910390f35b61048f600480360381019061048a9190611c27565b6108ad565b60405161049d929190611d2a565b60405180910390f35b3480156104b1575f80fd5b50d380156104bd575f80fd5b50d280156104c9575f80fd5b506104e460048036038101906104df9190611c27565b610960565b6040516104f19190611b8b565b60405180910390f35b348015610505575f80fd5b50d38015610511575f80fd5b50d2801561051d575f80fd5b5061053860048036038101906105339190611ac0565b610ab2565b005b348015610545575f80fd5b50d38015610551575f80fd5b50d2801561055d575f80fd5b50610566610b55565b6040516105739190611d67565b60405180910390f35b348015610587575f80fd5b50d38015610593575f80fd5b50d2801561059f575f80fd5b506105a8610b7a565b6040516105b59190611a1a565b60405180910390f35b3480156105c9575f80fd5b50d380156105d5575f80fd5b50d280156105e1575f80fd5b506105fc60048036038101906105f79190611ac0565b610ba1565b005b7fdd8f4b70b0f4393e889bd39128a30628a78b61816a9eb8199759e7a349657e4881565b5f60055f8373ffffffffffffffffffffffffffffffffffffffff1673ffffffffffffffffffffffffffffffffffffffff1681526020019081526020015f20549050919050565b6004602052805f5260405f205f915054906101000a900460ff1681565b5f7f0000000000000000000000000000000000000000000000000000000000000000905090565b6106b4610c23565b6106bc610ca1565b565b5f60606106c9610c23565b6106d1610d02565b6106d9610d4c565b6106e4858585610d9b565b915091506106f06113b1565b935093915050565b5f8060149054906101000a900460ff16905090565b6003602052805f5260405f205f915054906101000a900460ff1681565b610732610c23565b61073b5f6113ba565b565b610745610c23565b61074d61147b565b565b5f805f9054906101000a900473ffffffffffffffffffffffffffffffffffffffff16905090565b61077e610c23565b5f60035f8373ffffffffffffffffffffffffffffffffffffffff1673ffffffffffffffffffffffffffffffffffffffff1681526020019081526020015f205f6101000a81548160ff0219169083151502179055508073ffffffffffffffffffffffffffffffffffffffff167f02c2f0ba15b03f88b18f4832609a18cf35fc6b3f4546a9992076d7453d1334a860405160405180910390a250565b5f610821610c23565b8160025f6101000a81548173ffffffffffffffffffffffffffffffffffffffff021916908373ffffffffffffffffffffffffffffffffffffffff1602179055508173ffffffffffffffffffffffffffffffffffffffff167fd86428dd4be052a5ba41b3830d40fa2dba31b44646b4f0c45e13c1f41e521ff460405160405180910390a260019050919050565b5f606060035f3373ffffffffffffffffffffffffffffffffffffffff1673ffffffffffffffffffffffffffffffffffffffff1681526020019081526020015f205f9054906101000a900460ff16610939576040517f08c379a000000000000000000000000000000000000000000000000000000000815260040161093090611dda565b60405180910390fd5b610941610d4c565b61094c858585610d9b565b915091506109586113b1565b935093915050565b5f80610a6684848080601f0160208091040260200160405190810160405280939291908181526020018383808284375f81840152601f19601f82011690508083019250505050505050610a587fdd8f4b70b0f4393e889bd39128a30628a78b61816a9eb8199759e7a349657e48885f0160208101906109df9190611ac0565b8960200160208101906109f29190611ac0565b8a604001358b606001358c608001358d8060a00190610a119190611e04565b604051610a1f929190611ea2565b6040518091039020604051602001610a3d9796959493929190611eba565b604051602081830303815290604052805190602001206114dd565b6114f690919063ffffffff16565b9050845f016020810190610a7a9190611ac0565b73ffffffffffffffffffffffffffffffffffffffff168173ffffffffffffffffffffffffffffffffffffffff16149150509392505050565b610aba610c23565b600160035f8373ffffffffffffffffffffffffffffffffffffffff1673ffffffffffffffffffffffffffffffffffffffff1681526020019081526020015f205f6101000a81548160ff0219169083151502179055508073ffffffffffffffffffffffffffffffffffffffff167f6cf28439a2daab1b265097227212a5b71e0a76f9ed85e3f815b5a6c3e218eb7f60405160405180910390a250565b60025f9054906101000a900473ffffffffffffffffffffffffffffffffffffffff1681565b5f7f0000000000000000000000000000000000000000000000000000000000000000905090565b610ba9610c23565b5f73ffffffffffffffffffffffffffffffffffffffff168173ffffffffffffffffffffffffffffffffffffffff1603610c17576040517f08c379a0000000000000000000000000000000000000000000000000000000008152600401610c0e90611f97565b60405180910390fd5b610c20816113ba565b50565b610c2b61151b565b73ffffffffffffffffffffffffffffffffffffffff16610c4961074f565b73ffffffffffffffffffffffffffffffffffffffff1614610c9f576040517f08c379a0000000000000000000000000000000000000000000000000000000008152600401610c9690611fff565b60405180910390fd5b565b610ca9611522565b5f8060146101000a81548160ff0219169083151502179055507f5db9ee0a495bf2e6ff9c91a7834c1ba4fdd244a5e8aa4e537bd38aeae4b073aa610ceb61151b565b604051610cf89190611d67565b60405180910390a1565b610d0a6106f8565b15610d4a576040517f08c379a0000000000000000000000000000000000000000000000000000000008152600401610d4190612067565b60405180910390fd5b565b600260015403610d91576040517f08c379a0000000000000000000000000000000000000000000000000000000008152600401610d88906120cf565b60405180910390fd5b6002600181905550565b5f606060025f9054906101000a900473ffffffffffffffffffffffffffffffffffffffff1673ffffffffffffffffffffffffffffffffffffffff166365edf610865f016020810190610ded9190611ac0565b6040518263ffffffff1660e01b8152600401610e099190611d67565b602060405180830381865afa158015610e24573d5f803e3d5ffd5b505050506040513d601f19601f82011682018060405250810190610e489190612117565b610e87576040517f08c379a0000000000000000000000000000000000000000000000000000000008152600401610e7e906121b2565b60405180910390fd5b60025f9054906101000a900473ffffffffffffffffffffffffffffffffffffffff1673ffffffffffffffffffffffffffffffffffffffff1663e47d6060610ecc61151b565b6040518263ffffffff1660e01b8152600401610ee89190611d67565b602060405180830381865afa158015610f03573d5f803e3d5ffd5b505050506040513d601f19601f82011682018060405250810190610f279190612117565b15610f67576040517f08c379a0000000000000000000000000000000000000000000000000000000008152600401610f5e9061221a565b60405180910390fd5b60025f9054906101000a900473ffffffffffffffffffffffffffffffffffffffff1673ffffffffffffffffffffffffffffffffffffffff1663e47d6060865f016020810190610fb69190611ac0565b6040518263ffffffff1660e01b8152600401610fd29190611d67565b602060405180830381865afa158015610fed573d5f803e3d5ffd5b505050506040513d601f19601f820116820180604052508101906110119190612117565b15611051576040517f08c379a000000000000000000000000000000000000000000000000000000000815260040161104890612282565b60405180910390fd5b60025f9054906101000a900473ffffffffffffffffffffffffffffffffffffffff1673ffffffffffffffffffffffffffffffffffffffff1663c2ba4744865f0160208101906110a09190611ac0565b6040518263ffffffff1660e01b81526004016110bc9190611d67565b602060405180830381865afa1580156110d7573d5f803e3d5ffd5b505050506040513d601f19601f820116820180604052508101906110fb9190612117565b61113a576040517f08c379a0000000000000000000000000000000000000000000000000000000008152600401611131906122ea565b60405180910390fd5b611145858585610960565b611184576040517f08c379a000000000000000000000000000000000000000000000000000000000815260040161117b90612378565b60405180910390fd5b5f855f0160208101906111979190611ac0565b8660200160208101906111aa9190611ac0565b87604001358860800135898060a001906111c49190611e04565b6040516020016111d9969594939291906123c2565b6040516020818303038152906040528051906020012090506111fa8161156b565b6001866080013561120b9190612449565b60055f885f0160208101906112209190611ac0565b73ffffffffffffffffffffffffffffffffffffffff1673ffffffffffffffffffffffffffffffffffffffff1681526020019081526020015f20819055505f808760200160208101906112729190611ac0565b73ffffffffffffffffffffffffffffffffffffffff168860400135898060a0019061129d9190611e04565b8b5f0160208101906112af9190611ac0565b6040516020016112c1939291906124c1565b6040516020818303038152906040526040516112dd919061251a565b5f6040518083038185875af1925050503d805f8114611317576040519150601f19603f3d011682016040523d82523d5f602084013e61131c565b606091505b5091509150811561136557600115157f0f64fcbaad51d133e5787c235a7b13ccb9641cc59f9bc2c65ef8ac03aeddb7f7604051611358906125a0565b60405180910390a26113a0565b5f15157f0f64fcbaad51d133e5787c235a7b13ccb9641cc59f9bc2c65ef8ac03aeddb7f78260405161139791906125be565b60405180910390a25b818194509450505050935093915050565b60018081905550565b5f805f9054906101000a900473ffffffffffffffffffffffffffffffffffffffff169050815f806101000a81548173ffffffffffffffffffffffffffffffffffffffff021916908373ffffffffffffffffffffffffffffffffffffffff1602179055508173ffffffffffffffffffffffffffffffffffffffff168173ffffffffffffffffffffffffffffffffffffffff167f8be0079c531659141344cd1fd0a4f28419497f9722a3daafe3b4186f6b6457e060405160405180910390a35050565b611483610d02565b60015f60146101000a81548160ff0219169083151502179055507f62e78cea01bee320cd4e420270b5ea74000d11b0c9f74754ebdbfc544b05a2586114c661151b565b6040516114d39190611d67565b60405180910390a1565b5f6114ef6114e96115f5565b8361170e565b9050919050565b5f805f6115038585611740565b915091506115108161178c565b819250505092915050565b5f33905090565b61152a6106f8565b611569576040517f08c379a000000000000000000000000000000000000000000000000000000000815260040161156090612628565b60405180910390fd5b565b60045f8281526020019081526020015f205f9054906101000a900460ff16156115c9576040517f08c379a00000000000000000000000000000000000000000000000000000000081526004016115c090612690565b60405180910390fd5b600160045f8381526020019081526020015f205f6101000a81548160ff02191690831515021790555050565b5f7f000000000000000000000000000000000000000000000000000000000000000073ffffffffffffffffffffffffffffffffffffffff163073ffffffffffffffffffffffffffffffffffffffff1614801561167057507f000000000000000000000000000000000000000000000000000000000000000046145b1561169d577f0000000000000000000000000000000000000000000000000000000000000000905061170b565b6117087f00000000000000000000000000000000000000000000000000000000000000007f00000000000000000000000000000000000000000000000000000000000000007f00000000000000000000000000000000000000000000000000000000000000006118f1565b90505b90565b5f8282604051602001611722929190612722565b60405160208183030381529060405280519060200120905092915050565b5f80604183510361177d575f805f602086015192506040860151915060608601515f1a90506117718782858561192a565b94509450505050611785565b5f6002915091505b9250929050565b5f600481111561179f5761179e612758565b5b8160048111156117b2576117b1612758565b5b03156118ee57600160048111156117cc576117cb612758565b5b8160048111156117df576117de612758565b5b0361181f576040517f08c379a0000000000000000000000000000000000000000000000000000000008152600401611816906127cf565b60405180910390fd5b6002600481111561183357611832612758565b5b81600481111561184657611845612758565b5b03611886576040517f08c379a000000000000000000000000000000000000000000000000000000000815260040161187d90612837565b60405180910390fd5b6003600481111561189a57611899612758565b5b8160048111156118ad576118ac612758565b5b036118ed576040517f08c379a00000000000000000000000000000000000000000000000000000000081526004016118e4906128c5565b60405180910390fd5b5b50565b5f838383463060405160200161190b9594939291906128e3565b6040516020818303038152906040528051906020012090509392505050565b5f807f7fffffffffffffffffffffffffffffff5d576e7357a4501ddfe92f46681b20a0835f1c1115611962575f6003915091506119f9565b5f6001878787876040515f8152602001604052604051611985949392919061294f565b6020604051602081039080840390855afa1580156119a5573d5f803e3d5ffd5b5050506020604051035190505f73ffffffffffffffffffffffffffffffffffffffff168173ffffffffffffffffffffffffffffffffffffffff16036119f1575f600192509250506119f9565b805f92509250505b94509492505050565b5f819050919050565b611a1481611a02565b82525050565b5f602082019050611a2d5f830184611a0b565b92915050565b5f80fd5b5f80fd5b5f74ffffffffffffffffffffffffffffffffffffffffff82169050919050565b611a6481611a3b565b8114611a6e575f80fd5b50565b5f73ffffffffffffffffffffffffffffffffffffffff82169050919050565b5f611a9a82611a71565b9050919050565b5f81359050611aaf81611a5b565b611ab881611a90565b905092915050565b5f60208284031215611ad557611ad4611a33565b5b5f611ae284828501611aa1565b91505092915050565b5f819050919050565b611afd81611aeb565b82525050565b5f602082019050611b165f830184611af4565b92915050565b611b2581611a02565b8114611b2f575f80fd5b50565b5f81359050611b4081611b1c565b92915050565b5f60208284031215611b5b57611b5a611a33565b5b5f611b6884828501611b32565b91505092915050565b5f8115159050919050565b611b8581611b71565b82525050565b5f602082019050611b9e5f830184611b7c565b92915050565b5f80fd5b5f60c08284031215611bbd57611bbc611ba4565b5b81905092915050565b5f80fd5b5f80fd5b5f80fd5b5f8083601f840112611be757611be6611bc6565b5b8235905067ffffffffffffffff811115611c0457611c03611bca565b5b602083019150836001820283011115611c2057611c1f611bce565b5b9250929050565b5f805f60408486031215611c3e57611c3d611a33565b5b5f84013567ffffffffffffffff811115611c5b57611c5a611a37565b5b611c6786828701611ba8565b935050602084013567ffffffffffffffff811115611c8857611c87611a37565b5b611c9486828701611bd2565b92509250509250925092565b5f81519050919050565b5f82825260208201905092915050565b5f5b83811015611cd7578082015181840152602081019050611cbc565b5f8484015250505050565b5f601f19601f8301169050919050565b5f611cfc82611ca0565b611d068185611caa565b9350611d16818560208601611cba565b611d1f81611ce2565b840191505092915050565b5f604082019050611d3d5f830185611b7c565b8181036020830152611d4f8184611cf2565b90509392505050565b611d6181611a90565b82525050565b5f602082019050611d7a5f830184611d58565b92915050565b5f82825260208201905092915050565b7f556e617574686f72697a656420627269646765000000000000000000000000005f82015250565b5f611dc4601383611d80565b9150611dcf82611d90565b602082019050919050565b5f6020820190508181035f830152611df181611db8565b9050919050565b5f80fd5b5f80fd5b5f80fd5b5f8083356001602003843603038112611e2057611e1f611df8565b5b80840192508235915067ffffffffffffffff821115611e4257611e41611dfc565b5b602083019250600182023603831315611e5e57611e5d611e00565b5b509250929050565b5f81905092915050565b828183375f83830152505050565b5f611e898385611e66565b9350611e96838584611e70565b82840190509392505050565b5f611eae828486611e7e565b91508190509392505050565b5f60e082019050611ecd5f83018a611a0b565b611eda6020830189611d58565b611ee76040830188611d58565b611ef46060830187611af4565b611f016080830186611af4565b611f0e60a0830185611af4565b611f1b60c0830184611a0b565b98975050505050505050565b7f4f776e61626c653a206e6577206f776e657220697320746865207a65726f20615f8201527f6464726573730000000000000000000000000000000000000000000000000000602082015250565b5f611f81602683611d80565b9150611f8c82611f27565b604082019050919050565b5f6020820190508181035f830152611fae81611f75565b9050919050565b7f4f776e61626c653a2063616c6c6572206973206e6f7420746865206f776e65725f82015250565b5f611fe9602083611d80565b9150611ff482611fb5565b602082019050919050565b5f6020820190508181035f83015261201681611fdd565b9050919050565b7f5061757361626c653a20706175736564000000000000000000000000000000005f82015250565b5f612051601083611d80565b915061205c8261201d565b602082019050919050565b5f6020820190508181035f83015261207e81612045565b9050919050565b7f5265656e7472616e637947756172643a207265656e7472616e742063616c6c005f82015250565b5f6120b9601f83611d80565b91506120c482612085565b602082019050919050565b5f6020820190508181035f8301526120e6816120ad565b9050919050565b6120f681611b71565b8114612100575f80fd5b50565b5f81519050612111816120ed565b92915050565b5f6020828403121561212c5761212b611a33565b5b5f61213984828501612103565b91505092915050565b7f596f7520617265206e6f7420616c6c6f77656420746f207573652074686973205f8201527f747820726f757465000000000000000000000000000000000000000000000000602082015250565b5f61219c602883611d80565b91506121a782612142565b604082019050919050565b5f6020820190508181035f8301526121c981612190565b9050919050565b7f52656c6179657220697320626c61636b6c6973746564000000000000000000005f82015250565b5f612204601683611d80565b915061220f826121d0565b602082019050919050565b5f6020820190508181035f830152612231816121f8565b9050919050565b7f426c61636b6c69737465640000000000000000000000000000000000000000005f82015250565b5f61226c600b83611d80565b915061227782612238565b602082019050919050565b5f6020820190508181035f83015261229981612260565b9050919050565b7f4d696e746572206e6f7420617574686f72697a656420746f207369676e0000005f82015250565b5f6122d4601d83611d80565b91506122df826122a0565b602082019050919050565b5f6020820190508181035f830152612301816122c8565b9050919050565b7f466f727761726465723a207369676e617475726520646f6573206e6f74206d615f8201527f7463682072657175657374206f7220696e76616c6964206e6f6e636500000000602082015250565b5f612362603c83611d80565b915061236d82612308565b604082019050919050565b5f6020820190508181035f83015261238f81612356565b9050919050565b5f6123a18385611caa565b93506123ae838584611e70565b6123b783611ce2565b840190509392505050565b5f60a0820190506123d55f830189611d58565b6123e26020830188611d58565b6123ef6040830187611af4565b6123fc6060830186611af4565b818103608083015261240f818486612396565b9050979650505050505050565b7f4e487b71000000000000000000000000000000000000000000000000000000005f52601160045260245ffd5b5f61245382611aeb565b915061245e83611aeb565b92508282019050808211156124765761247561241c565b5b92915050565b5f8160601b9050919050565b5f6124928261247c565b9050919050565b5f6124a382612488565b9050919050565b6124bb6124b682611a90565b612499565b82525050565b5f6124cd828587611e7e565b91506124d982846124aa565b601482019150819050949350505050565b5f6124f482611ca0565b6124fe8185611e66565b935061250e818560208601611cba565b80840191505092915050565b5f61252582846124ea565b915081905092915050565b7f5472616e73616374696f6e206578656375746564207375636365737366756c6c5f8201527f7900000000000000000000000000000000000000000000000000000000000000602082015250565b5f61258a602183611caa565b915061259582612530565b604082019050919050565b5f6020820190508181035f8301526125b78161257e565b9050919050565b5f6020820190508181035f8301526125d68184611cf2565b905092915050565b7f5061757361626c653a206e6f74207061757365640000000000000000000000005f82015250565b5f612612601483611d80565b915061261d826125de565b602082019050919050565b5f6020820190508181035f83015261263f81612606565b9050919050565b7f5265706c61792061747461636b2070726576656e7465640000000000000000005f82015250565b5f61267a601783611d80565b915061268582612646565b602082019050919050565b5f6020820190508181035f8301526126a78161266e565b9050919050565b5f81905092915050565b7f19010000000000000000000000000000000000000000000000000000000000005f82015250565b5f6126ec6002836126ae565b91506126f7826126b8565b600282019050919050565b5f819050919050565b61271c61271782611a02565b612702565b82525050565b5f61272c826126e0565b9150612738828561270b565b602082019150612748828461270b565b6020820191508190509392505050565b7f4e487b71000000000000000000000000000000000000000000000000000000005f52602160045260245ffd5b7f45434453413a20696e76616c6964207369676e617475726500000000000000005f82015250565b5f6127b9601883611d80565b91506127c482612785565b602082019050919050565b5f6020820190508181035f8301526127e6816127ad565b9050919050565b7f45434453413a20696e76616c6964207369676e6174757265206c656e677468005f82015250565b5f612821601f83611d80565b915061282c826127ed565b602082019050919050565b5f6020820190508181035f83015261284e81612815565b9050919050565b7f45434453413a20696e76616c6964207369676e6174757265202773272076616c5f8201527f7565000000000000000000000000000000000000000000000000000000000000602082015250565b5f6128af602283611d80565b91506128ba82612855565b604082019050919050565b5f6020820190508181035f8301526128dc816128a3565b9050919050565b5f60a0820190506128f65f830188611a0b565b6129036020830187611a0b565b6129106040830186611a0b565b61291d6060830185611af4565b61292a6080830184611d58565b9695505050505050565b5f60ff82169050919050565b61294981612934565b82525050565b5f6080820190506129625f830187611a0b565b61296f6020830186612940565b61297c6040830185611a0b565b6129896060830184611a0b565b9594505050505056fea26474726f6e58221220903b10ab2b9ec58ebc8869e82f77d2e8eda94f02aaa0d0454454b293a185847764736f6c63430008140033",
  "source": "// SPDX-License-Identifier: MIT\n// Further information: https://eips.ethereum.org/EIPS/eip-2770\npragma solidity ^0.8.20;\n\nimport \"@openzeppelin/contracts/utils/cryptography/ECDSA.sol\";\nimport \"@openzeppelin/contracts/utils/cryptography/EIP712.sol\";\nimport \"@openzeppelin/contracts/access/Ownable.sol\";\nimport \"@openzeppelin/contracts/security/Pausable.sol\";\nimport \"@openzeppelin/contracts/security/ReentrancyGuard.sol\";\nimport \"./IOperations.sol\";\n\n\n/**\n * @title Forwarder Smart Contract\n * @dev Simple forwarder for extensible meta-transaction forwarding.\n * This contract has been updated with security improvements.\n */\ncontract Forwarder is EIP712, Ownable, Pausable, ReentrancyGuard {\n    using ECDSA for bytes32;\n\n    event BridgeAuthorized(address indexed bridgeAddress);\n    event BridgeDeauthorized(address indexed bridgeAddress);\n    event AdminOperationsAddressUpdated(address indexed newAdminAddress);\n    event executed(bool indexed success, bytes returnData);\n    \n    struct ForwardRequest {\n        address from;\n        address to;\n        uint256 value;\n        uint256 gas;\n        uint256 nonce;\n        bytes data;\n    }\n\n    address public adminOperationsContract;\n    uint256 private immutable _CHAIN_ID;\n    bytes32 private immutable _DOMAIN_SEPARATOR;\n    bytes32 public constant _TYPEHASH =\n        keccak256(\n            \"ForwardRequest(address from,address to,uint256 value,uint256 gas,uint256 nonce,bytes data)\"\n        );\n\n    mapping(address => bool) public authorizedBridges; // Track authorized bridge contracts\n    mapping(bytes32 => bool) public processedTxHashes; // Prevent replay attacks\n    mapping(address => uint256) private _nonces;\n\n    modifier onlyAuthorizedBridge() {\n        require(authorizedBridges[msg.sender], \"Unauthorized bridge\");\n        _;\n    }\n    constructor(\n        address _adminOperationsContract\n    ) EIP712(\"cNGN\", \"0.0.1\") {\n        _CHAIN_ID = block.chainid;\n        _DOMAIN_SEPARATOR = _calculateDomainSeparator();\n        adminOperationsContract = _adminOperationsContract;\n    }\n\n    function _calculateDomainSeparator() internal view returns (bytes32) {\n        return keccak256(\n            abi.encode(\n                keccak256(\"EIP712Domain(string name,string version,uint256 chainId,address verifyingContract)\"),\n                keccak256(bytes(\"cNGN\")),\n                keccak256(bytes(\"0.0.1\")),\n                block.chainid,\n                address(this)\n            )\n        );\n    }\n\n    function getDomainSeparator() public view returns (bytes32) {\n        return _DOMAIN_SEPARATOR;\n    }\n\n    function getChainId() public view returns (uint256) {\n        return _CHAIN_ID;\n    }\n\n    function updateAdminOperationsAddress(\n        address _newAdmin\n    ) public virtual onlyOwner returns (bool) {\n        adminOperationsContract = _newAdmin;\n        emit AdminOperationsAddressUpdated(_newAdmin);  // Emit event\n        return true;\n    }\n\n    function getNonce(address from) public view returns (uint256) {\n        return _nonces[from];\n    }\n\n    function _preventReplay(bytes32 txHash) internal {\n        // Check if this transaction hash has been processed before\n        require(!processedTxHashes[txHash], \"Replay attack prevented\");\n        // Mark this transaction hash as processed\n        processedTxHashes[txHash] = true;\n    }\n\n    function verify(ForwardRequest calldata req, bytes calldata signature)\n        public\n        view\n        returns (bool)\n    {\n        // Recover the signer's address from the signature using EIP-712 typed data\n        address signer = _hashTypedDataV4(\n            keccak256(\n                abi.encode(\n                    _TYPEHASH,\n                    req.from,\n                    req.to,\n                    req.value,\n                    req.gas,\n                    req.nonce,\n                    keccak256(req.data)\n                )\n            )\n        ).recover(signature);\n        \n        // Verify both the signer matches the from address AND the nonce is correct\n        // This prevents both signature forgery and replay attacks\n        // return (signer == req.from && req.nonce == _nonces[req.from]);\n        return (signer == req.from);\n    }\n\n    function authorizeBridge(address bridgeAddress) external onlyOwner {\n        authorizedBridges[bridgeAddress] = true;\n        emit BridgeAuthorized(bridgeAddress);  // Emit event\n    }\n\n    function deauthorizeBridge(address bridgeAddress) external onlyOwner {\n        authorizedBridges[bridgeAddress] = false;\n        emit BridgeDeauthorized(bridgeAddress);  // Emit event\n    }\n\n     function _executeTransaction(\n        ForwardRequest calldata req,\n        bytes calldata signature\n    ) internal returns (bool, bytes memory) {\n        // Check if the sender is authorized to use this forwarding route\n        require(\n            IAdmin(adminOperationsContract).canForward(req.from),\n            \"You are not allowed to use this tx route\"\n        );\n        // Verify the relayer is not blacklisted\n        require(\n            !IAdmin(adminOperationsContract).isBlackListed(_msgSender()),\n            \"Relayer is blacklisted\"\n        );\n        // Verify the transaction signer is not blacklisted\n        require(\n            !IAdmin(adminOperationsContract).isBlackListed(req.from),\n            \"Blacklisted\"\n        );\n        // Verify the signer has minting privileges\n        require(\n            IAdmin(adminOperationsContract).canMint(req.from),\n            \"Minter not authorized to sign\"\n        );\n        // Verify the signature matches and nonce is correct\n        require(\n            verify(req, signature),\n            \"Forwarder: signature does not match request or invalid nonce\"\n        );\n\n        // Create a unique transaction hash to prevent replay attacks\n        bytes32 txHash = keccak256(\n            abi.encode(req.from, req.to, req.value, req.nonce, req.data)\n        );\n        // Check and mark this transaction as processed to prevent replays\n        _preventReplay(txHash);\n        // Increment the nonce for the sender to prevent future replay attacks\n        _nonces[req.from] = req.nonce + 1;\n\n        // Execute the actual transaction\n        (bool success, bytes memory returndata) = req.to.call{value: req.value}(\n            abi.encodePacked(req.data, req.from)\n        );\n\n        // Emit appropriate event based on transaction outcome\n        if (success) {\n            emit executed(true, \"Transaction executed successfully\");\n        } else {\n            // Include the error data for debugging when transaction fails\n            emit executed(false, returndata);\n        }\n\n        return (success, returndata);\n    }\n\n    function execute(\n        ForwardRequest calldata req,\n        bytes calldata signature\n    ) public payable onlyOwner  whenNotPaused nonReentrant  returns (bool, bytes memory) {\n        return _executeTransaction(req, signature);\n    }\n\n    function executeByBridge(\n        ForwardRequest calldata req,\n        bytes calldata signature\n    )\n        public\n        payable\n        onlyAuthorizedBridge\n        nonReentrant\n        returns (bool, bytes memory)\n    {\n        return _executeTransaction(req, signature);\n    }\n\n    function pause() external onlyOwner {\n        _pause();\n    }\n\n    function unpause() external onlyOwner {\n        _unpause();\n    }\n    receive() external payable {}\n}\n",
  "sourcePath": "/Users/ayoseun/Documents/GitHub/Ayoseun/stablecoin-cngn/tron-contract/contracts/forwarder.sol",
  "compiler": {
    "name": "solc",
    "version": "0.8.20+commit.5f1834bc.Emscripten.clang"
  },
  "schemaVersion": "2.0.1",
  "updatedAt": "2025-05-07T14:09:42.122Z"
}