{
  "contractName": "Forwarder",
  "abi": [
    {
      "inputs": [
        {
          "internalType": "address",
          "name": "_adminOperationsContract",
          "type": "address"
        }
      ],
      "stateMutability": "nonpayable",
      "type": "constructor"
    },
    {
      "inputs": [],
      "name": "InvalidShortString",
      "type": "error"
    },
    {
      "inputs": [
        {
          "internalType": "string",
          "name": "str",
          "type": "string"
        }
      ],
      "name": "StringTooLong",
      "type": "error"
    },
    {
      "anonymous": false,
      "inputs": [
        {
          "indexed": true,
          "internalType": "address",
          "name": "newAdminAddress",
          "type": "address"
        }
      ],
      "name": "AdminOperationsAddressUpdated",
      "type": "event"
    },
    {
      "anonymous": false,
      "inputs": [
        {
          "indexed": true,
          "internalType": "address",
          "name": "bridgeAddress",
          "type": "address"
        }
      ],
      "name": "BridgeAuthorized",
      "type": "event"
    },
    {
      "anonymous": false,
      "inputs": [
        {
          "indexed": true,
          "internalType": "address",
          "name": "bridgeAddress",
          "type": "address"
        }
      ],
      "name": "BridgeDeauthorized",
      "type": "event"
    },
    {
      "anonymous": false,
      "inputs": [],
      "name": "EIP712DomainChanged",
      "type": "event"
    },
    {
      "anonymous": false,
      "inputs": [
        {
          "indexed": true,
          "internalType": "address",
          "name": "previousOwner",
          "type": "address"
        },
        {
          "indexed": true,
          "internalType": "address",
          "name": "newOwner",
          "type": "address"
        }
      ],
      "name": "OwnershipTransferred",
      "type": "event"
    },
    {
      "anonymous": false,
      "inputs": [
        {
          "indexed": false,
          "internalType": "address",
          "name": "account",
          "type": "address"
        }
      ],
      "name": "Paused",
      "type": "event"
    },
    {
      "anonymous": false,
      "inputs": [
        {
          "indexed": false,
          "internalType": "address",
          "name": "account",
          "type": "address"
        }
      ],
      "name": "Unpaused",
      "type": "event"
    },
    {
      "anonymous": false,
      "inputs": [
        {
          "indexed": true,
          "internalType": "bool",
          "name": "success",
          "type": "bool"
        },
        {
          "indexed": false,
          "internalType": "bytes",
          "name": "returnData",
          "type": "bytes"
        }
      ],
      "name": "executed",
      "type": "event"
    },
    {
      "inputs": [],
      "name": "_TYPEHASH",
      "outputs": [
        {
          "internalType": "bytes32",
          "name": "",
          "type": "bytes32"
        }
      ],
      "stateMutability": "view",
      "type": "function"
    },
    {
      "inputs": [],
      "name": "adminOperationsContract",
      "outputs": [
        {
          "internalType": "address",
          "name": "",
          "type": "address"
        }
      ],
      "stateMutability": "view",
      "type": "function"
    },
    {
      "inputs": [
        {
          "internalType": "address",
          "name": "bridgeAddress",
          "type": "address"
        }
      ],
      "name": "authorizeBridge",
      "outputs": [],
      "stateMutability": "nonpayable",
      "type": "function"
    },
    {
      "inputs": [
        {
          "internalType": "address",
          "name": "",
          "type": "address"
        }
      ],
      "name": "authorizedBridges",
      "outputs": [
        {
          "internalType": "bool",
          "name": "",
          "type": "bool"
        }
      ],
      "stateMutability": "view",
      "type": "function"
    },
    {
      "inputs": [
        {
          "internalType": "address",
          "name": "bridgeAddress",
          "type": "address"
        }
      ],
      "name": "deauthorizeBridge",
      "outputs": [],
      "stateMutability": "nonpayable",
      "type": "function"
    },
    {
      "inputs": [],
      "name": "eip712Domain",
      "outputs": [
        {
          "internalType": "bytes1",
          "name": "fields",
          "type": "bytes1"
        },
        {
          "internalType": "string",
          "name": "name",
          "type": "string"
        },
        {
          "internalType": "string",
          "name": "version",
          "type": "string"
        },
        {
          "internalType": "uint256",
          "name": "chainId",
          "type": "uint256"
        },
        {
          "internalType": "address",
          "name": "verifyingContract",
          "type": "address"
        },
        {
          "internalType": "bytes32",
          "name": "salt",
          "type": "bytes32"
        },
        {
          "internalType": "uint256[]",
          "name": "extensions",
          "type": "uint256[]"
        }
      ],
      "stateMutability": "view",
      "type": "function"
    },
    {
      "inputs": [
        {
          "components": [
            {
              "internalType": "address",
              "name": "from",
              "type": "address"
            },
            {
              "internalType": "address",
              "name": "to",
              "type": "address"
            },
            {
              "internalType": "uint256",
              "name": "value",
              "type": "uint256"
            },
            {
              "internalType": "uint256",
              "name": "gas",
              "type": "uint256"
            },
            {
              "internalType": "uint256",
              "name": "nonce",
              "type": "uint256"
            },
            {
              "internalType": "bytes",
              "name": "data",
              "type": "bytes"
            }
          ],
          "internalType": "struct Forwarder.ForwardRequest",
          "name": "req",
          "type": "tuple"
        },
        {
          "internalType": "bytes",
          "name": "signature",
          "type": "bytes"
        }
      ],
      "name": "execute",
      "outputs": [
        {
          "internalType": "bool",
          "name": "",
          "type": "bool"
        },
        {
          "internalType": "bytes",
          "name": "",
          "type": "bytes"
        }
      ],
      "stateMutability": "payable",
      "type": "function"
    },
    {
      "inputs": [
        {
          "components": [
            {
              "internalType": "address",
              "name": "from",
              "type": "address"
            },
            {
              "internalType": "address",
              "name": "to",
              "type": "address"
            },
            {
              "internalType": "uint256",
              "name": "value",
              "type": "uint256"
            },
            {
              "internalType": "uint256",
              "name": "gas",
              "type": "uint256"
            },
            {
              "internalType": "uint256",
              "name": "nonce",
              "type": "uint256"
            },
            {
              "internalType": "bytes",
              "name": "data",
              "type": "bytes"
            }
          ],
          "internalType": "struct Forwarder.ForwardRequest",
          "name": "req",
          "type": "tuple"
        },
        {
          "internalType": "bytes",
          "name": "signature",
          "type": "bytes"
        }
      ],
      "name": "executeByBridge",
      "outputs": [
        {
          "internalType": "bool",
          "name": "",
          "type": "bool"
        },
        {
          "internalType": "bytes",
          "name": "",
          "type": "bytes"
        }
      ],
      "stateMutability": "payable",
      "type": "function"
    },
    {
      "inputs": [],
      "name": "getChainId",
      "outputs": [
        {
          "internalType": "uint256",
          "name": "",
          "type": "uint256"
        }
      ],
      "stateMutability": "view",
      "type": "function"
    },
    {
      "inputs": [],
      "name": "getDomainSeparator",
      "outputs": [
        {
          "internalType": "bytes32",
          "name": "",
          "type": "bytes32"
        }
      ],
      "stateMutability": "view",
      "type": "function"
    },
    {
      "inputs": [
        {
          "internalType": "address",
          "name": "from",
          "type": "address"
        }
      ],
      "name": "getNonce",
      "outputs": [
        {
          "internalType": "uint256",
          "name": "",
          "type": "uint256"
        }
      ],
      "stateMutability": "view",
      "type": "function"
    },
    {
      "inputs": [],
      "name": "owner",
      "outputs": [
        {
          "internalType": "address",
          "name": "",
          "type": "address"
        }
      ],
      "stateMutability": "view",
      "type": "function"
    },
    {
      "inputs": [],
      "name": "pause",
      "outputs": [],
      "stateMutability": "nonpayable",
      "type": "function"
    },
    {
      "inputs": [],
      "name": "paused",
      "outputs": [
        {
          "internalType": "bool",
          "name": "",
          "type": "bool"
        }
      ],
      "stateMutability": "view",
      "type": "function"
    },
    {
      "inputs": [
        {
          "internalType": "bytes32",
          "name": "",
          "type": "bytes32"
        }
      ],
      "name": "processedTxHashes",
      "outputs": [
        {
          "internalType": "bool",
          "name": "",
          "type": "bool"
        }
      ],
      "stateMutability": "view",
      "type": "function"
    },
    {
      "inputs": [],
      "name": "renounceOwnership",
      "outputs": [],
      "stateMutability": "nonpayable",
      "type": "function"
    },
    {
      "inputs": [
        {
          "internalType": "address",
          "name": "newOwner",
          "type": "address"
        }
      ],
      "name": "transferOwnership",
      "outputs": [],
      "stateMutability": "nonpayable",
      "type": "function"
    },
    {
      "inputs": [],
      "name": "unpause",
      "outputs": [],
      "stateMutability": "nonpayable",
      "type": "function"
    },
    {
      "inputs": [
        {
          "internalType": "address",
          "name": "_newAdmin",
          "type": "address"
        }
      ],
      "name": "updateAdminOperationsAddress",
      "outputs": [
        {
          "internalType": "bool",
          "name": "",
          "type": "bool"
        }
      ],
      "stateMutability": "nonpayable",
      "type": "function"
    },
    {
      "inputs": [
        {
          "components": [
            {
              "internalType": "address",
              "name": "from",
              "type": "address"
            },
            {
              "internalType": "address",
              "name": "to",
              "type": "address"
            },
            {
              "internalType": "uint256",
              "name": "value",
              "type": "uint256"
            },
            {
              "internalType": "uint256",
              "name": "gas",
              "type": "uint256"
            },
            {
              "internalType": "uint256",
              "name": "nonce",
              "type": "uint256"
            },
            {
              "internalType": "bytes",
              "name": "data",
              "type": "bytes"
            }
          ],
          "internalType": "struct Forwarder.ForwardRequest",
          "name": "req",
          "type": "tuple"
        },
        {
          "internalType": "bytes",
          "name": "signature",
          "type": "bytes"
        }
      ],
      "name": "verify",
      "outputs": [
        {
          "internalType": "bool",
          "name": "",
          "type": "bool"
        }
      ],
      "stateMutability": "view",
      "type": "function"
    },
    {
      "stateMutability": "payable",
      "type": "receive"
    }
  ],
  "bytecode": "0x6101a06040523480156200001257600080fd5b50d380156200002057600080fd5b50d280156200002e57600080fd5b5060405162003b6238038062003b62833981810160405281019062000054919062000644565b6040518060400160405280600481526020017f634e474e000000000000000000000000000000000000000000000000000000008152506040518060400160405280600581526020017f302e302e31000000000000000000000000000000000000000000000000000000815250620000db6000836200022660201b62000e361790919060201c565b6101208181525050620000fe6001826200022660201b62000e361790919060201c565b6101408181525050818051906020012060e08181525050808051906020012061010081815250504660a081815250506200013d6200028a60201b60201c565b608081815250503073ffffffffffffffffffffffffffffffffffffffff1660c08173ffffffffffffffffffffffffffffffffffffffff168152505050506200019a6200018e620002e760201b60201c565b620002ef60201b60201c565b6000600260146101000a81548160ff0219169083151502179055506001600381905550466101608181525050620001d6620003b560201b60201c565b610180818152505080600460006101000a81548173ffffffffffffffffffffffffffffffffffffffff021916908373ffffffffffffffffffffffffffffffffffffffff16021790555050620008f6565b60006020835110156200024c5762000244836200048560201b60201c565b905062000284565b826200026383620004f260201b62000e811760201c565b60000190805190602001906200027b929190620004fc565b5060ff60001b90505b92915050565b60007f8b73c3c69bb8fe3d512ecc4cf759cc79239f7b179b0ffacaa9a75d522b39400f60e051610100514630604051602001620002cc959493929190620006bd565b60405160208183030381529060405280519060200120905090565b600033905090565b6000600260009054906101000a900473ffffffffffffffffffffffffffffffffffffffff16905081600260006101000a81548173ffffffffffffffffffffffffffffffffffffffff021916908373ffffffffffffffffffffffffffffffffffffffff1602179055508173ffffffffffffffffffffffffffffffffffffffff168173ffffffffffffffffffffffffffffffffffffffff167f8be0079c531659141344cd1fd0a4f28419497f9722a3daafe3b4186f6b6457e060405160405180910390a35050565b60007f8b73c3c69bb8fe3d512ecc4cf759cc79239f7b179b0ffacaa9a75d522b39400f6040518060400160405280600481526020017f634e474e00000000000000000000000000000000000000000000000000000000815250805190602001206040518060400160405280600581526020017f302e302e310000000000000000000000000000000000000000000000000000008152508051906020012046306040516020016200046a959493929190620006bd565b60405160208183030381529060405280519060200120905090565b600080829050601f81511115620004d557826040517f305a27a9000000000000000000000000000000000000000000000000000000008152600401620004cc9190620007be565b60405180910390fd5b805181620004e39062000821565b60001c1760001b915050919050565b6000819050919050565b8280546200050a90620008c0565b90600052602060002090601f0160209004810192826200052e57600085556200057a565b82601f106200054957805160ff19168380011785556200057a565b828001600101855582156200057a579182015b82811115620005795782518255916020019190600101906200055c565b5b5090506200058991906200058d565b5090565b5b80821115620005a85760008160009055506001016200058e565b5090565b600080fd5b600074ffffffffffffffffffffffffffffffffffffffffff82169050919050565b620005dd81620005b1565b8114620005e957600080fd5b50565b600073ffffffffffffffffffffffffffffffffffffffff82169050919050565b60006200061982620005ec565b9050919050565b6000815190506200063181620005d2565b6200063c816200060c565b905092915050565b6000602082840312156200065d576200065c620005ac565b5b60006200066d8482850162000620565b91505092915050565b6000819050919050565b6200068b8162000676565b82525050565b6000819050919050565b620006a68162000691565b82525050565b620006b7816200060c565b82525050565b600060a082019050620006d4600083018862000680565b620006e3602083018762000680565b620006f2604083018662000680565b6200070160608301856200069b565b620007106080830184620006ac565b9695505050505050565b600081519050919050565b600082825260208201905092915050565b60005b838110156200075657808201518184015260208101905062000739565b8381111562000766576000848401525b50505050565b6000601f19601f8301169050919050565b60006200078a826200071a565b62000796818562000725565b9350620007a881856020860162000736565b620007b3816200076c565b840191505092915050565b60006020820190508181036000830152620007da81846200077d565b905092915050565b600081519050919050565b6000819050602082019050919050565b60006200080b825162000676565b80915050919050565b600082821b905092915050565b60006200082e82620007e2565b826200083a84620007ed565b90506200084781620007fd565b925060208210156200088a57620008857fffffffffffffffffffffffffffffffffffffffffffffffffffffffffffffffff8360200360080262000814565b831692505b5050919050565b7f4e487b7100000000000000000000000000000000000000000000000000000000600052602260045260246000fd5b60006002820490506001821680620008d957607f821691505b60208210811415620008f057620008ef62000891565b5b50919050565b60805160a05160c05160e05161010051610120516101405161016051610180516131fb620009676000396000610d8e0152600061071a0152600061082f015260006107fb01526000611d6b01526000611d4a01526000611a2101526000611a7701526000611aa001526131fb6000f3fe6080604052600436106101235760003560e01c806384b0196e116100a0578063bf5d3bdb11610064578063bf5d3bdb14610522578063e53595ee14610579578063e82ed200146105bc578063ed24911d14610601578063f2fde38b146106465761012a565b806384b0196e146103c75780638da5cb5b14610412578063a818569a14610457578063b83fd8231461049a578063b8a3c279146104f15761012a565b806347153f82116100e757806347153f82146102985780635c975abb146102c95780636fc063be1461030e578063715018a6146103655780638456cb59146103965761012a565b8063175c25a51461012f5780632d0335ab146101745780632f764644146101cb5780633408e470146102225780633f4ba83a146102675761012a565b3661012a57005b600080fd5b34801561013b57600080fd5b50d3801561014857600080fd5b50d2801561015557600080fd5b5061015e610689565b60405161016b9190611f5a565b60405180910390f35b34801561018057600080fd5b50d3801561018d57600080fd5b50d2801561019a57600080fd5b506101b560048036038101906101b09190612009565b6106ad565b6040516101c2919061204f565b60405180910390f35b3480156101d757600080fd5b50d380156101e457600080fd5b50d280156101f157600080fd5b5061020c60048036038101906102079190612096565b6106f6565b60405161021991906120de565b60405180910390f35b34801561022e57600080fd5b50d3801561023b57600080fd5b50d2801561024857600080fd5b50610251610716565b60405161025e919061204f565b60405180910390f35b34801561027357600080fd5b50d3801561028057600080fd5b50d2801561028d57600080fd5b5061029661073e565b005b6102b260048036038101906102ad9190612182565b610750565b6040516102c0929190612297565b60405180910390f35b3480156102d557600080fd5b50d380156102e257600080fd5b50d280156102ef57600080fd5b506102f861078b565b60405161030591906120de565b60405180910390f35b34801561031a57600080fd5b50d3801561032757600080fd5b50d2801561033457600080fd5b5061034f600480360381019061034a9190612009565b6107a2565b60405161035c91906120de565b60405180910390f35b34801561037157600080fd5b50d3801561037e57600080fd5b50d2801561038b57600080fd5b506103946107c2565b005b3480156103a257600080fd5b50d380156103af57600080fd5b50d280156103bc57600080fd5b506103c56107d6565b005b3480156103d357600080fd5b50d380156103e057600080fd5b50d280156103ed57600080fd5b506103f66107e8565b6040516104099796959493929190612424565b60405180910390f35b34801561041e57600080fd5b50d3801561042b57600080fd5b50d2801561043857600080fd5b506104416108ea565b60405161044e91906124a8565b60405180910390f35b34801561046357600080fd5b50d3801561047057600080fd5b50d2801561047d57600080fd5b5061049860048036038101906104939190612009565b610914565b005b3480156104a657600080fd5b50d380156104b357600080fd5b50d280156104c057600080fd5b506104db60048036038101906104d69190612009565b6109ba565b6040516104e891906120de565b60405180910390f35b61050b60048036038101906105069190612182565b610a51565b604051610519929190612297565b60405180910390f35b34801561052e57600080fd5b50d3801561053b57600080fd5b50d2801561054857600080fd5b50610563600480360381019061055e9190612182565b610b08565b60405161057091906120de565b60405180910390f35b34801561058557600080fd5b50d3801561059257600080fd5b50d2801561059f57600080fd5b506105ba60048036038101906105b59190612009565b610cbe565b005b3480156105c857600080fd5b50d380156105d557600080fd5b50d280156105e257600080fd5b506105eb610d64565b6040516105f891906124a8565b60405180910390f35b34801561060d57600080fd5b50d3801561061a57600080fd5b50d2801561062757600080fd5b50610630610d8a565b60405161063d9190611f5a565b60405180910390f35b34801561065257600080fd5b50d3801561065f57600080fd5b50d2801561066c57600080fd5b5061068760048036038101906106829190612009565b610db2565b005b7fdd8f4b70b0f4393e889bd39128a30628a78b61816a9eb8199759e7a349657e4881565b6000600760008373ffffffffffffffffffffffffffffffffffffffff1673ffffffffffffffffffffffffffffffffffffffff168152602001908152602001600020549050919050565b60066020528060005260406000206000915054906101000a900460ff1681565b60007f0000000000000000000000000000000000000000000000000000000000000000905090565b610746610e8b565b61074e610f09565b565b6000606061075c610e8b565b610764610f6c565b61076c610fb6565b610777858585611006565b9150915061078361163c565b935093915050565b6000600260149054906101000a900460ff16905090565b60056020528060005260406000206000915054906101000a900460ff1681565b6107ca610e8b565b6107d46000611646565b565b6107de610e8b565b6107e661170c565b565b60006060806000806000606061082860007f000000000000000000000000000000000000000000000000000000000000000061176f90919063ffffffff16565b61085c60017f000000000000000000000000000000000000000000000000000000000000000061176f90919063ffffffff16565b46306000801b600067ffffffffffffffff81111561087d5761087c6124c3565b5b6040519080825280602002602001820160405280156108ab5781602001602082028036833780820191505090505b507f0f00000000000000000000000000000000000000000000000000000000000000959493929190965096509650965096509650965090919293949596565b6000600260009054906101000a900473ffffffffffffffffffffffffffffffffffffffff16905090565b61091c610e8b565b6000600560008373ffffffffffffffffffffffffffffffffffffffff1673ffffffffffffffffffffffffffffffffffffffff16815260200190815260200160002060006101000a81548160ff0219169083151502179055508073ffffffffffffffffffffffffffffffffffffffff167f02c2f0ba15b03f88b18f4832609a18cf35fc6b3f4546a9992076d7453d1334a860405160405180910390a250565b60006109c4610e8b565b81600460006101000a81548173ffffffffffffffffffffffffffffffffffffffff021916908373ffffffffffffffffffffffffffffffffffffffff1602179055508173ffffffffffffffffffffffffffffffffffffffff167fd86428dd4be052a5ba41b3830d40fa2dba31b44646b4f0c45e13c1f41e521ff460405160405180910390a260019050919050565b60006060600560003373ffffffffffffffffffffffffffffffffffffffff1673ffffffffffffffffffffffffffffffffffffffff16815260200190815260200160002060009054906101000a900460ff16610ae1576040517f08c379a0000000000000000000000000000000000000000000000000000000008152600401610ad89061253e565b60405180910390fd5b610ae9610fb6565b610af4858585611006565b91509150610b0061163c565b935093915050565b600080610c1184848080601f016020809104026020016040519081016040528093929190818152602001838380828437600081840152601f19601f82011690508083019250505050505050610c037fdd8f4b70b0f4393e889bd39128a30628a78b61816a9eb8199759e7a349657e48886000016020810190610b8a9190612009565b896020016020810190610b9d9190612009565b8a604001358b606001358c608001358d8060a00190610bbc919061256d565b604051610bca92919061260f565b6040518091039020604051602001610be89796959493929190612628565b6040516020818303038152906040528051906020012061181f565b61183990919063ffffffff16565b9050846000016020810190610c269190612009565b73ffffffffffffffffffffffffffffffffffffffff168173ffffffffffffffffffffffffffffffffffffffff16148015610cb4575060076000866000016020810190610c729190612009565b73ffffffffffffffffffffffffffffffffffffffff1673ffffffffffffffffffffffffffffffffffffffff168152602001908152602001600020548560800135145b9150509392505050565b610cc6610e8b565b6001600560008373ffffffffffffffffffffffffffffffffffffffff1673ffffffffffffffffffffffffffffffffffffffff16815260200190815260200160002060006101000a81548160ff0219169083151502179055508073ffffffffffffffffffffffffffffffffffffffff167f6cf28439a2daab1b265097227212a5b71e0a76f9ed85e3f815b5a6c3e218eb7f60405160405180910390a250565b600460009054906101000a900473ffffffffffffffffffffffffffffffffffffffff1681565b60007f0000000000000000000000000000000000000000000000000000000000000000905090565b610dba610e8b565b600073ffffffffffffffffffffffffffffffffffffffff168173ffffffffffffffffffffffffffffffffffffffff161415610e2a576040517f08c379a0000000000000000000000000000000000000000000000000000000008152600401610e2190612709565b60405180910390fd5b610e3381611646565b50565b6000602083511015610e5257610e4b83611860565b9050610e7b565b82610e5c83610e81565b6000019080519060200190610e72929190611e9e565b5060ff60001b90505b92915050565b6000819050919050565b610e936118c8565b73ffffffffffffffffffffffffffffffffffffffff16610eb16108ea565b73ffffffffffffffffffffffffffffffffffffffff1614610f07576040517f08c379a0000000000000000000000000000000000000000000000000000000008152600401610efe90612775565b60405180910390fd5b565b610f116118d0565b6000600260146101000a81548160ff0219169083151502179055507f5db9ee0a495bf2e6ff9c91a7834c1ba4fdd244a5e8aa4e537bd38aeae4b073aa610f556118c8565b604051610f6291906124a8565b60405180910390a1565b610f7461078b565b15610fb4576040517f08c379a0000000000000000000000000000000000000000000000000000000008152600401610fab906127e1565b60405180910390fd5b565b60026003541415610ffc576040517f08c379a0000000000000000000000000000000000000000000000000000000008152600401610ff39061284d565b60405180910390fd5b6002600381905550565b60006060600460009054906101000a900473ffffffffffffffffffffffffffffffffffffffff1673ffffffffffffffffffffffffffffffffffffffff166365edf61086600001602081019061105b9190612009565b6040518263ffffffff1660e01b815260040161107791906124a8565b602060405180830381865afa158015611094573d6000803e3d6000fd5b505050506040513d601f19601f820116820180604052508101906110b89190612899565b6110f7576040517f08c379a00000000000000000000000000000000000000000000000000000000081526004016110ee90612938565b60405180910390fd5b600460009054906101000a900473ffffffffffffffffffffffffffffffffffffffff1673ffffffffffffffffffffffffffffffffffffffff1663e47d606061113d6118c8565b6040518263ffffffff1660e01b815260040161115991906124a8565b602060405180830381865afa158015611176573d6000803e3d6000fd5b505050506040513d601f19601f8201168201806040525081019061119a9190612899565b156111da576040517f08c379a00000000000000000000000000000000000000000000000000000000081526004016111d1906129a4565b60405180910390fd5b600460009054906101000a900473ffffffffffffffffffffffffffffffffffffffff1673ffffffffffffffffffffffffffffffffffffffff1663e47d606086600001602081019061122b9190612009565b6040518263ffffffff1660e01b815260040161124791906124a8565b602060405180830381865afa158015611264573d6000803e3d6000fd5b505050506040513d601f19601f820116820180604052508101906112889190612899565b156112c8576040517f08c379a00000000000000000000000000000000000000000000000000000000081526004016112bf90612a10565b60405180910390fd5b600460009054906101000a900473ffffffffffffffffffffffffffffffffffffffff1673ffffffffffffffffffffffffffffffffffffffff1663c2ba47448660000160208101906113199190612009565b6040518263ffffffff1660e01b815260040161133591906124a8565b602060405180830381865afa158015611352573d6000803e3d6000fd5b505050506040513d601f19601f820116820180604052508101906113769190612899565b6113b5576040517f08c379a00000000000000000000000000000000000000000000000000000000081526004016113ac90612a7c565b60405180910390fd5b6113c0858585610b08565b6113ff576040517f08c379a00000000000000000000000000000000000000000000000000000000081526004016113f690612b0e565b60405180910390fd5b60008560000160208101906114149190612009565b8660200160208101906114279190612009565b87604001358860800135898060a00190611441919061256d565b60405160200161145696959493929190612b5b565b60405160208183030381529060405280519060200120905061147781611919565b600186608001356114889190612be6565b6007600088600001602081019061149f9190612009565b73ffffffffffffffffffffffffffffffffffffffff1673ffffffffffffffffffffffffffffffffffffffff168152602001908152602001600020819055506000808760200160208101906114f39190612009565b73ffffffffffffffffffffffffffffffffffffffff168860400135898060a0019061151e919061256d565b8b60000160208101906115319190612009565b60405160200161154393929190612c84565b60405160208183030381529060405260405161155f9190612cdf565b60006040518083038185875af1925050503d806000811461159c576040519150601f19603f3d011682016040523d82523d6000602084013e6115a1565b606091505b50915091506001151582151514156115f0578115157f0f64fcbaad51d133e5787c235a7b13ccb9641cc59f9bc2c65ef8ac03aeddb7f76040516115e390612d42565b60405180910390a261162b565b8115157f0f64fcbaad51d133e5787c235a7b13ccb9641cc59f9bc2c65ef8ac03aeddb7f7826040516116229190612d62565b60405180910390a25b818194509450505050935093915050565b6001600381905550565b6000600260009054906101000a900473ffffffffffffffffffffffffffffffffffffffff16905081600260006101000a81548173ffffffffffffffffffffffffffffffffffffffff021916908373ffffffffffffffffffffffffffffffffffffffff1602179055508173ffffffffffffffffffffffffffffffffffffffff168173ffffffffffffffffffffffffffffffffffffffff167f8be0079c531659141344cd1fd0a4f28419497f9722a3daafe3b4186f6b6457e060405160405180910390a35050565b611714610f6c565b6001600260146101000a81548160ff0219169083151502179055507f62e78cea01bee320cd4e420270b5ea74000d11b0c9f74754ebdbfc544b05a2586117586118c8565b60405161176591906124a8565b60405180910390a1565b606060ff60001b831461178c57611785836119a9565b9050611819565b81805461179890612db3565b80601f01602080910402602001604051908101604052809291908181526020018280546117c490612db3565b80156118115780601f106117e657610100808354040283529160200191611811565b820191906000526020600020905b8154815290600101906020018083116117f457829003601f168201915b505050505090505b92915050565b600061183261182c611a1d565b83611ad4565b9050919050565b60008060006118488585611b15565b9150915061185581611b67565b819250505092915050565b600080829050601f815111156118ad57826040517f305a27a90000000000000000000000000000000000000000000000000000000081526004016118a49190612de5565b60405180910390fd5b8051816118b990612e39565b60001c1760001b915050919050565b600033905090565b6118d861078b565b611917576040517f08c379a000000000000000000000000000000000000000000000000000000000815260040161190e90612eec565b60405180910390fd5b565b6006600082815260200190815260200160002060009054906101000a900460ff161561197a576040517f08c379a000000000000000000000000000000000000000000000000000000000815260040161197190612f58565b60405180910390fd5b60016006600083815260200190815260200160002060006101000a81548160ff02191690831515021790555050565b606060006119b683611cd5565b90506000602067ffffffffffffffff8111156119d5576119d46124c3565b5b6040519080825280601f01601f191660200182016040528015611a075781602001600182028036833780820191505090505b5090508181528360208201528092505050919050565b60007f000000000000000000000000000000000000000000000000000000000000000073ffffffffffffffffffffffffffffffffffffffff163073ffffffffffffffffffffffffffffffffffffffff16148015611a9957507f000000000000000000000000000000000000000000000000000000000000000046145b15611ac6577f00000000000000000000000000000000000000000000000000000000000000009050611ad1565b611ace611d25565b90505b90565b60006040517f190100000000000000000000000000000000000000000000000000000000000081528360028201528260228201526042812091505092915050565b600080604183511415611b575760008060006020860151925060408601519150606086015160001a9050611b4b87828585611dbb565b94509450505050611b60565b60006002915091505b9250929050565b60006004811115611b7b57611b7a612f78565b5b816004811115611b8e57611b8d612f78565b5b1415611b9957611cd2565b60016004811115611bad57611bac612f78565b5b816004811115611bc057611bbf612f78565b5b1415611c01576040517f08c379a0000000000000000000000000000000000000000000000000000000008152600401611bf890612ff3565b60405180910390fd5b60026004811115611c1557611c14612f78565b5b816004811115611c2857611c27612f78565b5b1415611c69576040517f08c379a0000000000000000000000000000000000000000000000000000000008152600401611c609061305f565b60405180910390fd5b60036004811115611c7d57611c7c612f78565b5b816004811115611c9057611c8f612f78565b5b1415611cd1576040517f08c379a0000000000000000000000000000000000000000000000000000000008152600401611cc8906130f1565b60405180910390fd5b5b50565b60008060ff8360001c169050601f811115611d1c576040517fb3512b0c00000000000000000000000000000000000000000000000000000000815260040160405180910390fd5b80915050919050565b60007f8b73c3c69bb8fe3d512ecc4cf759cc79239f7b179b0ffacaa9a75d522b39400f7f00000000000000000000000000000000000000000000000000000000000000007f00000000000000000000000000000000000000000000000000000000000000004630604051602001611da0959493929190613111565b60405160208183030381529060405280519060200120905090565b6000807f7fffffffffffffffffffffffffffffff5d576e7357a4501ddfe92f46681b20a08360001c1115611df6576000600391509150611e95565b600060018787878760405160008152602001604052604051611e1b9493929190613180565b6020604051602081039080840390855afa158015611e3d573d6000803e3d6000fd5b505050602060405103519050600073ffffffffffffffffffffffffffffffffffffffff168173ffffffffffffffffffffffffffffffffffffffff161415611e8c57600060019250925050611e95565b80600092509250505b94509492505050565b828054611eaa90612db3565b90600052602060002090601f016020900481019282611ecc5760008555611f13565b82601f10611ee557805160ff1916838001178555611f13565b82800160010185558215611f13579182015b82811115611f12578251825591602001919060010190611ef7565b5b509050611f209190611f24565b5090565b5b80821115611f3d576000816000905550600101611f25565b5090565b6000819050919050565b611f5481611f41565b82525050565b6000602082019050611f6f6000830184611f4b565b92915050565b600080fd5b600080fd5b600074ffffffffffffffffffffffffffffffffffffffffff82169050919050565b611fa981611f7f565b8114611fb457600080fd5b50565b600073ffffffffffffffffffffffffffffffffffffffff82169050919050565b6000611fe282611fb7565b9050919050565b600081359050611ff881611fa0565b61200181611fd7565b905092915050565b60006020828403121561201f5761201e611f75565b5b600061202d84828501611fe9565b91505092915050565b6000819050919050565b61204981612036565b82525050565b60006020820190506120646000830184612040565b92915050565b61207381611f41565b811461207e57600080fd5b50565b6000813590506120908161206a565b92915050565b6000602082840312156120ac576120ab611f75565b5b60006120ba84828501612081565b91505092915050565b60008115159050919050565b6120d8816120c3565b82525050565b60006020820190506120f360008301846120cf565b92915050565b600080fd5b600060c08284031215612114576121136120f9565b5b81905092915050565b600080fd5b600080fd5b600080fd5b60008083601f8401126121425761214161211d565b5b8235905067ffffffffffffffff81111561215f5761215e612122565b5b60208301915083600182028301111561217b5761217a612127565b5b9250929050565b60008060006040848603121561219b5761219a611f75565b5b600084013567ffffffffffffffff8111156121b9576121b8611f7a565b5b6121c5868287016120fe565b935050602084013567ffffffffffffffff8111156121e6576121e5611f7a565b5b6121f28682870161212c565b92509250509250925092565b600081519050919050565b600082825260208201905092915050565b60005b8381101561223857808201518184015260208101905061221d565b83811115612247576000848401525b50505050565b6000601f19601f8301169050919050565b6000612269826121fe565b6122738185612209565b935061228381856020860161221a565b61228c8161224d565b840191505092915050565b60006040820190506122ac60008301856120cf565b81810360208301526122be818461225e565b90509392505050565b60007fff0000000000000000000000000000000000000000000000000000000000000082169050919050565b6122fc816122c7565b82525050565b600081519050919050565b600082825260208201905092915050565b600061232982612302565b612333818561230d565b935061234381856020860161221a565b61234c8161224d565b840191505092915050565b61236081611fd7565b82525050565b600081519050919050565b600082825260208201905092915050565b6000819050602082019050919050565b61239b81612036565b82525050565b60006123ad8383612392565b60208301905092915050565b6000602082019050919050565b60006123d182612366565b6123db8185612371565b93506123e683612382565b8060005b838110156124175781516123fe88826123a1565b9750612409836123b9565b9250506001810190506123ea565b5085935050505092915050565b600060e082019050612439600083018a6122f3565b818103602083015261244b818961231e565b9050818103604083015261245f818861231e565b905061246e6060830187612040565b61247b6080830186612357565b61248860a0830185611f4b565b81810360c083015261249a81846123c6565b905098975050505050505050565b60006020820190506124bd6000830184612357565b92915050565b7f4e487b7100000000000000000000000000000000000000000000000000000000600052604160045260246000fd5b7f556e617574686f72697a65642062726964676500000000000000000000000000600082015250565b600061252860138361230d565b9150612533826124f2565b602082019050919050565b600060208201905081810360008301526125578161251b565b9050919050565b600080fd5b600080fd5b600080fd5b6000808335600160200384360303811261258a5761258961255e565b5b80840192508235915067ffffffffffffffff8211156125ac576125ab612563565b5b6020830192506001820236038313156125c8576125c7612568565b5b509250929050565b600081905092915050565b82818337600083830152505050565b60006125f683856125d0565b93506126038385846125db565b82840190509392505050565b600061261c8284866125ea565b91508190509392505050565b600060e08201905061263d600083018a611f4b565b61264a6020830189612357565b6126576040830188612357565b6126646060830187612040565b6126716080830186612040565b61267e60a0830185612040565b61268b60c0830184611f4b565b98975050505050505050565b7f4f776e61626c653a206e6577206f776e657220697320746865207a65726f206160008201527f6464726573730000000000000000000000000000000000000000000000000000602082015250565b60006126f360268361230d565b91506126fe82612697565b604082019050919050565b60006020820190508181036000830152612722816126e6565b9050919050565b7f4f776e61626c653a2063616c6c6572206973206e6f7420746865206f776e6572600082015250565b600061275f60208361230d565b915061276a82612729565b602082019050919050565b6000602082019050818103600083015261278e81612752565b9050919050565b7f5061757361626c653a2070617573656400000000000000000000000000000000600082015250565b60006127cb60108361230d565b91506127d682612795565b602082019050919050565b600060208201905081810360008301526127fa816127be565b9050919050565b7f5265656e7472616e637947756172643a207265656e7472616e742063616c6c00600082015250565b6000612837601f8361230d565b915061284282612801565b602082019050919050565b600060208201905081810360008301526128668161282a565b9050919050565b612876816120c3565b811461288157600080fd5b50565b6000815190506128938161286d565b92915050565b6000602082840312156128af576128ae611f75565b5b60006128bd84828501612884565b91505092915050565b7f596f7520617265206e6f7420616c6c6f77656420746f2075736520746869732060008201527f747820726f757465000000000000000000000000000000000000000000000000602082015250565b600061292260288361230d565b915061292d826128c6565b604082019050919050565b6000602082019050818103600083015261295181612915565b9050919050565b7f52656c6179657220697320626c61636b6c697374656400000000000000000000600082015250565b600061298e60168361230d565b915061299982612958565b602082019050919050565b600060208201905081810360008301526129bd81612981565b9050919050565b7f426c61636b6c6973746564000000000000000000000000000000000000000000600082015250565b60006129fa600b8361230d565b9150612a05826129c4565b602082019050919050565b60006020820190508181036000830152612a29816129ed565b9050919050565b7f4d696e746572206e6f7420617574686f72697a656420746f207369676e000000600082015250565b6000612a66601d8361230d565b9150612a7182612a30565b602082019050919050565b60006020820190508181036000830152612a9581612a59565b9050919050565b7f466f727761726465723a207369676e617475726520646f6573206e6f74206d6160008201527f7463682072657175657374000000000000000000000000000000000000000000602082015250565b6000612af8602b8361230d565b9150612b0382612a9c565b604082019050919050565b60006020820190508181036000830152612b2781612aeb565b9050919050565b6000612b3a8385612209565b9350612b478385846125db565b612b508361224d565b840190509392505050565b600060a082019050612b706000830189612357565b612b7d6020830188612357565b612b8a6040830187612040565b612b976060830186612040565b8181036080830152612baa818486612b2e565b9050979650505050505050565b7f4e487b7100000000000000000000000000000000000000000000000000000000600052601160045260246000fd5b6000612bf182612036565b9150612bfc83612036565b9250827fffffffffffffffffffffffffffffffffffffffffffffffffffffffffffffffff03821115612c3157612c30612bb7565b5b828201905092915050565b60008160601b9050919050565b6000612c5482612c3c565b9050919050565b6000612c6682612c49565b9050919050565b612c7e612c7982611fd7565b612c5b565b82525050565b6000612c918285876125ea565b9150612c9d8284612c6d565b601482019150819050949350505050565b6000612cb9826121fe565b612cc381856125d0565b9350612cd381856020860161221a565b80840191505092915050565b6000612ceb8284612cae565b915081905092915050565b7f657865637574696f6e2069732061207375636365737300000000000000000000600082015250565b6000612d2c601683612209565b9150612d3782612cf6565b602082019050919050565b60006020820190508181036000830152612d5b81612d1f565b9050919050565b60006020820190508181036000830152612d7c818461225e565b905092915050565b7f4e487b7100000000000000000000000000000000000000000000000000000000600052602260045260246000fd5b60006002820490506001821680612dcb57607f821691505b60208210811415612ddf57612dde612d84565b5b50919050565b60006020820190508181036000830152612dff818461231e565b905092915050565b6000819050602082019050919050565b6000612e238251611f41565b80915050919050565b600082821b905092915050565b6000612e44826121fe565b82612e4e84612e07565b9050612e5981612e17565b92506020821015612e9957612e947fffffffffffffffffffffffffffffffffffffffffffffffffffffffffffffffff83602003600802612e2c565b831692505b5050919050565b7f5061757361626c653a206e6f7420706175736564000000000000000000000000600082015250565b6000612ed660148361230d565b9150612ee182612ea0565b602082019050919050565b60006020820190508181036000830152612f0581612ec9565b9050919050565b7f5265706c61792061747461636b2070726576656e746564000000000000000000600082015250565b6000612f4260178361230d565b9150612f4d82612f0c565b602082019050919050565b60006020820190508181036000830152612f7181612f35565b9050919050565b7f4e487b7100000000000000000000000000000000000000000000000000000000600052602160045260246000fd5b7f45434453413a20696e76616c6964207369676e61747572650000000000000000600082015250565b6000612fdd60188361230d565b9150612fe882612fa7565b602082019050919050565b6000602082019050818103600083015261300c81612fd0565b9050919050565b7f45434453413a20696e76616c6964207369676e6174757265206c656e67746800600082015250565b6000613049601f8361230d565b915061305482613013565b602082019050919050565b600060208201905081810360008301526130788161303c565b9050919050565b7f45434453413a20696e76616c6964207369676e6174757265202773272076616c60008201527f7565000000000000000000000000000000000000000000000000000000000000602082015250565b60006130db60228361230d565b91506130e68261307f565b604082019050919050565b6000602082019050818103600083015261310a816130ce565b9050919050565b600060a0820190506131266000830188611f4b565b6131336020830187611f4b565b6131406040830186611f4b565b61314d6060830185612040565b61315a6080830184612357565b9695505050505050565b600060ff82169050919050565b61317a81613164565b82525050565b60006080820190506131956000830187611f4b565b6131a26020830186613171565b6131af6040830185611f4b565b6131bc6060830184611f4b565b9594505050505056fea26474726f6e5822122052d4ee8c0b10d945ef811b9e6e86eea172b57c0e40f15d81d166bcc947ad134864736f6c634300080b0033",
  "source": "// SPDX-License-Identifier: MIT\n// Further information: https://eips.ethereum.org/EIPS/eip-2770\npragma solidity ^0.8.7;\n\nimport \"@openzeppelin/contracts/utils/cryptography/ECDSA.sol\";\nimport \"@openzeppelin/contracts/utils/cryptography/EIP712.sol\";\nimport \"@openzeppelin/contracts/access/Ownable.sol\";\nimport \"@openzeppelin/contracts/security/Pausable.sol\";\nimport \"@openzeppelin/contracts/security/ReentrancyGuard.sol\";\nimport \"./IOperations.sol\";\n\n\n/**\n * @title Forwarder Smart Contract\n * @dev Simple forwarder for extensible meta-transaction forwarding.\n * This contract has been updated with security improvements.\n */\ncontract Forwarder is EIP712, Ownable, Pausable, ReentrancyGuard {\n    using ECDSA for bytes32;\n\n    event BridgeAuthorized(address indexed bridgeAddress);\n    event BridgeDeauthorized(address indexed bridgeAddress);\n    event AdminOperationsAddressUpdated(address indexed newAdminAddress);\n    event executed(bool indexed success, bytes returnData);\n    \n    struct ForwardRequest {\n        address from;\n        address to;\n        uint256 value;\n        uint256 gas;\n        uint256 nonce;\n        bytes data;\n    }\n\n    address public adminOperationsContract;\n    uint256 private immutable _CHAIN_ID;\n    bytes32 private immutable _DOMAIN_SEPARATOR;\n    bytes32 public constant _TYPEHASH =\n        keccak256(\n            \"ForwardRequest(address from,address to,uint256 value,uint256 gas,uint256 nonce,bytes data)\"\n        );\n\n    mapping(address => bool) public authorizedBridges; // Track authorized bridge contracts\n    mapping(bytes32 => bool) public processedTxHashes; // Prevent replay attacks\n    mapping(address => uint256) private _nonces;\n\n    modifier onlyAuthorizedBridge() {\n        require(authorizedBridges[msg.sender], \"Unauthorized bridge\");\n        _;\n    }\n    constructor(\n        address _adminOperationsContract\n    ) EIP712(\"cNGN\", \"0.0.1\") {\n        _CHAIN_ID = block.chainid;\n        _DOMAIN_SEPARATOR = _calculateDomainSeparator();\n        adminOperationsContract = _adminOperationsContract;\n    }\n\n    function _calculateDomainSeparator() internal view returns (bytes32) {\n        return keccak256(\n            abi.encode(\n                keccak256(\"EIP712Domain(string name,string version,uint256 chainId,address verifyingContract)\"),\n                keccak256(bytes(\"cNGN\")),\n                keccak256(bytes(\"0.0.1\")),\n                block.chainid,\n                address(this)\n            )\n        );\n    }\n\n    function getDomainSeparator() public view returns (bytes32) {\n        return _DOMAIN_SEPARATOR;\n    }\n\n    function getChainId() public view returns (uint256) {\n        return _CHAIN_ID;\n    }\n\n    function updateAdminOperationsAddress(\n        address _newAdmin\n    ) public virtual onlyOwner returns (bool) {\n        adminOperationsContract = _newAdmin;\n        emit AdminOperationsAddressUpdated(_newAdmin);  // Emit event\n        return true;\n    }\n\n    function getNonce(address from) public view returns (uint256) {\n        return _nonces[from];\n    }\n\n    function _preventReplay(bytes32 txHash) internal {\n        require(!processedTxHashes[txHash], \"Replay attack prevented\");\n        processedTxHashes[txHash] = true;\n    }\n\n    function verify(ForwardRequest calldata req, bytes calldata signature)\n        public\n        view\n        returns (bool)\n    {\n        address signer = _hashTypedDataV4(\n            keccak256(\n                abi.encode(\n                    _TYPEHASH,\n                    req.from,\n                    req.to,\n                    req.value,\n                    req.gas,\n                    req.nonce,\n                    keccak256(req.data)\n                )\n            )\n        ).recover(signature);\n        return (signer == req.from && req.nonce == _nonces[req.from]);\n    }\n\n    function authorizeBridge(address bridgeAddress) external onlyOwner {\n        authorizedBridges[bridgeAddress] = true;\n        emit BridgeAuthorized(bridgeAddress);  // Emit event\n    }\n\n    function deauthorizeBridge(address bridgeAddress) external onlyOwner {\n        authorizedBridges[bridgeAddress] = false;\n        emit BridgeDeauthorized(bridgeAddress);  // Emit event\n    }\n\n     function _executeTransaction(\n        ForwardRequest calldata req,\n        bytes calldata signature\n    ) internal returns (bool, bytes memory) {\n        require(\n            IAdmin(adminOperationsContract).canForward(req.from),\n            \"You are not allowed to use this tx route\"\n        );\n        require(\n            !IAdmin(adminOperationsContract).isBlackListed(_msgSender()),\n            \"Relayer is blacklisted\"\n        );\n        require(\n            !IAdmin(adminOperationsContract).isBlackListed(req.from),\n            \"Blacklisted\"\n        );\n        require(\n            IAdmin(adminOperationsContract).canMint(req.from),\n            \"Minter not authorized to sign\"\n        );\n          require(\n            verify(req, signature),\n            \"Forwarder: signature does not match request\"\n        );\n\n        bytes32 txHash = keccak256(\n            abi.encode(req.from, req.to, req.value, req.nonce, req.data)\n        );\n        _preventReplay(txHash);\n        _nonces[req.from] = req.nonce + 1;\n\n        (bool success, bytes memory returndata) = req.to.call{value: req.value}(\n            abi.encodePacked(req.data, req.from)\n        );\n\n        if (success == true) {\n            emit executed(success, \"execution is a success\");\n        }\n        else {\n            emit executed(success, returndata);\n        }\n\n        return (success, returndata);\n    }\n\n    function execute(\n        ForwardRequest calldata req,\n        bytes calldata signature\n    ) public payable onlyOwner  whenNotPaused nonReentrant  returns (bool, bytes memory) {\n        return _executeTransaction(req, signature);\n    }\n\n    function executeByBridge(\n        ForwardRequest calldata req,\n        bytes calldata signature\n    )\n        public\n        payable\n        onlyAuthorizedBridge\n        nonReentrant\n        returns (bool, bytes memory)\n    {\n        return _executeTransaction(req, signature);\n    }\n\n    function pause() external onlyOwner {\n        _pause();\n    }\n\n    function unpause() external onlyOwner {\n        _unpause();\n    }\n    receive() external payable {}\n}\n",
  "sourcePath": "/Users/charlesokaformbah/Projects/stablecoin-cngn/tron-contract/contracts/Forwarder.sol",
  "compiler": {
    "name": "solc",
    "version": "0.8.11+commit.b01f3284.mod.Emscripten.clang"
  },
  "schemaVersion": "2.0.1",
  "updatedAt": "2025-01-05T09:39:20.017Z"
}