{
  "contractName": "MultiSig",
  "abi": [
    {
      "inputs": [
        {
          "internalType": "address[]",
          "name": "_owners",
          "type": "address[]"
        },
        {
          "internalType": "uint256",
          "name": "_requiredApprovals",
          "type": "uint256"
        }
      ],
      "stateMutability": "nonpayable",
      "type": "constructor"
    },
    {
      "anonymous": false,
      "inputs": [
        {
          "indexed": true,
          "internalType": "address",
          "name": "approver",
          "type": "address"
        },
        {
          "indexed": false,
          "internalType": "uint256",
          "name": "transactionId",
          "type": "uint256"
        }
      ],
      "name": "TransactionApproved",
      "type": "event"
    },
    {
      "anonymous": false,
      "inputs": [
        {
          "indexed": true,
          "internalType": "address",
          "name": "creator",
          "type": "address"
        },
        {
          "indexed": false,
          "internalType": "uint256",
          "name": "transactionId",
          "type": "uint256"
        }
      ],
      "name": "TransactionCreated",
      "type": "event"
    },
    {
      "anonymous": false,
      "inputs": [
        {
          "indexed": true,
          "internalType": "address",
          "name": "executor",
          "type": "address"
        },
        {
          "indexed": false,
          "internalType": "uint256",
          "name": "transactionId",
          "type": "uint256"
        }
      ],
      "name": "TransactionExecuted",
      "type": "event"
    },
    {
      "anonymous": false,
      "inputs": [
        {
          "indexed": true,
          "internalType": "address",
          "name": "rejecter",
          "type": "address"
        },
        {
          "indexed": false,
          "internalType": "uint256",
          "name": "transactionId",
          "type": "uint256"
        }
      ],
      "name": "TransactionRejected",
      "type": "event"
    },
    {
      "inputs": [
        {
          "internalType": "uint256",
          "name": "",
          "type": "uint256"
        }
      ],
      "name": "approvals",
      "outputs": [
        {
          "internalType": "uint256",
          "name": "",
          "type": "uint256"
        }
      ],
      "stateMutability": "view",
      "type": "function"
    },
    {
      "inputs": [
        {
          "internalType": "uint256",
          "name": "transactionId",
          "type": "uint256"
        }
      ],
      "name": "approveTransaction",
      "outputs": [],
      "stateMutability": "nonpayable",
      "type": "function"
    },
    {
      "inputs": [
        {
          "internalType": "uint256",
          "name": "transactionId",
          "type": "uint256"
        }
      ],
      "name": "executeTransaction",
      "outputs": [],
      "stateMutability": "nonpayable",
      "type": "function"
    },
    {
      "inputs": [],
      "name": "getTransactionCount",
      "outputs": [
        {
          "internalType": "uint256",
          "name": "",
          "type": "uint256"
        }
      ],
      "stateMutability": "view",
      "type": "function"
    },
    {
      "inputs": [
        {
          "internalType": "address",
          "name": "",
          "type": "address"
        }
      ],
      "name": "isOwner",
      "outputs": [
        {
          "internalType": "bool",
          "name": "",
          "type": "bool"
        }
      ],
      "stateMutability": "view",
      "type": "function"
    },
    {
      "inputs": [
        {
          "internalType": "uint256",
          "name": "",
          "type": "uint256"
        }
      ],
      "name": "owners",
      "outputs": [
        {
          "internalType": "address",
          "name": "",
          "type": "address"
        }
      ],
      "stateMutability": "view",
      "type": "function"
    },
    {
      "inputs": [
        {
          "internalType": "uint256",
          "name": "transactionId",
          "type": "uint256"
        }
      ],
      "name": "rejectTransaction",
      "outputs": [],
      "stateMutability": "nonpayable",
      "type": "function"
    },
    {
      "inputs": [],
      "name": "required",
      "outputs": [
        {
          "internalType": "uint256",
          "name": "",
          "type": "uint256"
        }
      ],
      "stateMutability": "view",
      "type": "function"
    },
    {
      "inputs": [
        {
          "internalType": "address",
          "name": "to",
          "type": "address"
        },
        {
          "internalType": "uint256",
          "name": "value",
          "type": "uint256"
        },
        {
          "internalType": "bytes",
          "name": "data",
          "type": "bytes"
        }
      ],
      "name": "submitTransaction",
      "outputs": [],
      "stateMutability": "nonpayable",
      "type": "function"
    },
    {
      "inputs": [
        {
          "internalType": "uint256",
          "name": "",
          "type": "uint256"
        }
      ],
      "name": "transactions",
      "outputs": [
        {
          "internalType": "address",
          "name": "to",
          "type": "address"
        },
        {
          "internalType": "uint256",
          "name": "value",
          "type": "uint256"
        },
        {
          "internalType": "bytes",
          "name": "data",
          "type": "bytes"
        },
        {
          "internalType": "bool",
          "name": "executed",
          "type": "bool"
        }
      ],
      "stateMutability": "view",
      "type": "function"
    },
    {
      "stateMutability": "payable",
      "type": "receive"
    }
  ],
  "bytecode": "0x608060405234801562000010575f80fd5b50d380156200001d575f80fd5b50d280156200002a575f80fd5b5060405162002122380380620021228339818101604052810190620000509190620005be565b600182511162000097576040517f08c379a00000000000000000000000000000000000000000000000000000000081526004016200008e9062000680565b60405180910390fd5b8151811115620000de576040517f08c379a0000000000000000000000000000000000000000000000000000000008152600401620000d590620006ee565b60405180910390fd5b5f5b8251811015620002aa575f73ffffffffffffffffffffffffffffffffffffffff168382815181106200011757620001166200070e565b5b602002602001015173ffffffffffffffffffffffffffffffffffffffff160362000178576040517f08c379a00000000000000000000000000000000000000000000000000000000081526004016200016f9062000789565b60405180910390fd5b60025f8483815181106200019157620001906200070e565b5b602002602001015173ffffffffffffffffffffffffffffffffffffffff1673ffffffffffffffffffffffffffffffffffffffff1681526020019081526020015f205f9054906101000a900460ff161562000222576040517f08c379a00000000000000000000000000000000000000000000000000000000081526004016200021990620007f7565b60405180910390fd5b600160025f8584815181106200023d576200023c6200070e565b5b602002602001015173ffffffffffffffffffffffffffffffffffffffff1673ffffffffffffffffffffffffffffffffffffffff1681526020019081526020015f205f6101000a81548160ff0219169083151502179055508080620002a19062000844565b915050620000e0565b50815f9080519060200190620002c2929190620002d2565b5080600181905550505062000890565b828054828255905f5260205f209081019282156200034b579160200282015b828111156200034a578251825f6101000a81548173ffffffffffffffffffffffffffffffffffffffff021916908373ffffffffffffffffffffffffffffffffffffffff16021790555091602001919060010190620002f1565b5b5090506200035a91906200035e565b5090565b5b8082111562000377575f815f9055506001016200035f565b5090565b5f604051905090565b5f80fd5b5f80fd5b5f80fd5b5f601f19601f8301169050919050565b7f4e487b71000000000000000000000000000000000000000000000000000000005f52604160045260245ffd5b620003d88262000390565b810181811067ffffffffffffffff82111715620003fa57620003f9620003a0565b5b80604052505050565b5f6200040e6200037b565b90506200041c8282620003cd565b919050565b5f67ffffffffffffffff8211156200043e576200043d620003a0565b5b602082029050602081019050919050565b5f80fd5b5f74ffffffffffffffffffffffffffffffffffffffffff82169050919050565b6200047e8162000453565b811462000489575f80fd5b50565b5f73ffffffffffffffffffffffffffffffffffffffff82169050919050565b5f620004b7826200048c565b9050919050565b5f81519050620004ce8162000473565b620004d981620004ab565b905092915050565b5f620004f7620004f18462000421565b62000403565b905080838252602082019050602084028301858111156200051d576200051c6200044f565b5b835b818110156200054a5780620005358882620004be565b8452602084019350506020810190506200051f565b5050509392505050565b5f82601f8301126200056b576200056a6200038c565b5b81516200057d848260208601620004e1565b91505092915050565b5f819050919050565b6200059a8162000586565b8114620005a5575f80fd5b50565b5f81519050620005b8816200058f565b92915050565b5f8060408385031215620005d757620005d662000384565b5b5f83015167ffffffffffffffff811115620005f757620005f662000388565b5b620006058582860162000554565b92505060206200061885828601620005a8565b9150509250929050565b5f82825260208201905092915050565b7f4174206c656173742074776f206f776e657273206172652072657175697265645f82015250565b5f6200066860208362000622565b9150620006758262000632565b602082019050919050565b5f6020820190508181035f83015262000699816200065a565b9050919050565b7f496e76616c696420726571756972656420617070726f76616c730000000000005f82015250565b5f620006d6601a8362000622565b9150620006e382620006a0565b602082019050919050565b5f6020820190508181035f8301526200070781620006c8565b9050919050565b7f4e487b71000000000000000000000000000000000000000000000000000000005f52603260045260245ffd5b7f496e76616c6964206164647265737300000000000000000000000000000000005f82015250565b5f62000771600f8362000622565b91506200077e826200073b565b602082019050919050565b5f6020820190508181035f830152620007a28162000763565b9050919050565b7f4475706c6963617465206f776e657200000000000000000000000000000000005f82015250565b5f620007df600f8362000622565b9150620007ec82620007a9565b602082019050919050565b5f6020820190508181035f8301526200081081620007d1565b9050919050565b7f4e487b71000000000000000000000000000000000000000000000000000000005f52601160045260245ffd5b5f620008508262000586565b91507fffffffffffffffffffffffffffffffffffffffffffffffffffffffffffffffff820362000885576200088462000817565b5b600182019050919050565b611884806200089e5f395ff3fe608060405260043610610094575f3560e01c806363035f661161005857806363035f66146102095780639ace38c21461025d578063c6427474146102b4578063dc8452cd146102f4578063ee22610b146103365761009b565b8063025e7c271461009f57806305bf37aa146100f3578063242232d1146101335780632e7700f0146101735780632f54bf6e146101b55761009b565b3661009b57005b5f80fd5b3480156100aa575f80fd5b50d380156100b6575f80fd5b50d280156100c2575f80fd5b506100dd60048036038101906100d89190610d46565b610376565b6040516100ea9190610db0565b60405180910390f35b3480156100fe575f80fd5b50d3801561010a575f80fd5b50d28015610116575f80fd5b50610131600480360381019061012c9190610d46565b6103b0565b005b34801561013e575f80fd5b50d3801561014a575f80fd5b50d28015610156575f80fd5b50610171600480360381019061016c9190610d46565b61053e565b005b34801561017e575f80fd5b50d3801561018a575f80fd5b50d28015610196575f80fd5b5061019f610702565b6040516101ac9190610dd8565b60405180910390f35b3480156101c0575f80fd5b50d380156101cc575f80fd5b50d280156101d8575f80fd5b506101f360048036038101906101ee9190610e46565b61070e565b6040516102009190610e8b565b60405180910390f35b348015610214575f80fd5b50d38015610220575f80fd5b50d2801561022c575f80fd5b5061024760048036038101906102429190610d46565b61072b565b6040516102549190610dd8565b60405180910390f35b348015610268575f80fd5b50d38015610274575f80fd5b50d28015610280575f80fd5b5061029b60048036038101906102969190610d46565b610740565b6040516102ab9493929190610f2e565b60405180910390f35b3480156102bf575f80fd5b50d380156102cb575f80fd5b50d280156102d7575f80fd5b506102f260048036038101906102ed91906110a4565b61082c565b005b3480156102ff575f80fd5b50d3801561030b575f80fd5b50d28015610317575f80fd5b506103206109f8565b60405161032d9190610dd8565b60405180910390f35b348015610341575f80fd5b50d3801561034d575f80fd5b50d28015610359575f80fd5b50610374600480360381019061036f9190610d46565b6109fe565b005b5f8181548110610384575f80fd5b905f5260205f20015f915054906101000a900473ffffffffffffffffffffffffffffffffffffffff1681565b60025f3373ffffffffffffffffffffffffffffffffffffffff1673ffffffffffffffffffffffffffffffffffffffff1681526020019081526020015f205f9054906101000a900460ff16610439576040517f08c379a00000000000000000000000000000000000000000000000000000000081526004016104309061116a565b60405180910390fd5b806004805490508110610481576040517f08c379a0000000000000000000000000000000000000000000000000000000008152600401610478906111d2565b60405180910390fd5b60015460035f8481526020019081526020015f2054106104d6576040517f08c379a00000000000000000000000000000000000000000000000000000000081526004016104cd90611260565b60405180910390fd5b5f60035f8481526020019081526020015f20819055503373ffffffffffffffffffffffffffffffffffffffff167f437e33eaccb3cc2685249ec4ebb7aa7e6e500c6dc224c8ef60d36daadf32804a836040516105329190610dd8565b60405180910390a25050565b60025f3373ffffffffffffffffffffffffffffffffffffffff1673ffffffffffffffffffffffffffffffffffffffff1681526020019081526020015f205f9054906101000a900460ff166105c7576040517f08c379a00000000000000000000000000000000000000000000000000000000081526004016105be9061116a565b60405180910390fd5b80600480549050811061060f576040517f08c379a0000000000000000000000000000000000000000000000000000000008152600401610606906111d2565b60405180910390fd5b8160015460035f8381526020019081526020015f205410610665576040517f08c379a000000000000000000000000000000000000000000000000000000000815260040161065c906112ee565b60405180910390fd5b60035f8481526020019081526020015f205f81548092919061068690611339565b91905055503373ffffffffffffffffffffffffffffffffffffffff167f7b19c08b12f940ea76949b68d355070966056a862ad2c1aa6676ecbcc9538a61846040516106d19190610dd8565b60405180910390a260015460035f8581526020019081526020015f2054106106fd576106fc836109fe565b5b505050565b5f600480549050905090565b6002602052805f5260405f205f915054906101000a900460ff1681565b6003602052805f5260405f205f915090505481565b6004818154811061074f575f80fd5b905f5260205f2090600402015f91509050805f015f9054906101000a900473ffffffffffffffffffffffffffffffffffffffff1690806001015490806002018054610799906113ad565b80601f01602080910402602001604051908101604052809291908181526020018280546107c5906113ad565b80156108105780601f106107e757610100808354040283529160200191610810565b820191905f5260205f20905b8154815290600101906020018083116107f357829003601f168201915b505050505090806003015f9054906101000a900460ff16905084565b60025f3373ffffffffffffffffffffffffffffffffffffffff1673ffffffffffffffffffffffffffffffffffffffff1681526020019081526020015f205f9054906101000a900460ff166108b5576040517f08c379a00000000000000000000000000000000000000000000000000000000081526004016108ac9061116a565b60405180910390fd5b5f6004805490509050600460405180608001604052808673ffffffffffffffffffffffffffffffffffffffff1681526020018581526020018481526020015f1515815250908060018154018082558091505060019003905f5260205f2090600402015f909190919091505f820151815f015f6101000a81548173ffffffffffffffffffffffffffffffffffffffff021916908373ffffffffffffffffffffffffffffffffffffffff160217905550602082015181600101556040820151816002019081610982919061157a565b506060820151816003015f6101000a81548160ff02191690831515021790555050503373ffffffffffffffffffffffffffffffffffffffff167fbee0a36f8f2ce3c4d9ded6f7c349c1f9d380c787784d84b2bead8455b7d7f92f826040516109ea9190610dd8565b60405180910390a250505050565b60015481565b60025f3373ffffffffffffffffffffffffffffffffffffffff1673ffffffffffffffffffffffffffffffffffffffff1681526020019081526020015f205f9054906101000a900460ff16610a87576040517f08c379a0000000000000000000000000000000000000000000000000000000008152600401610a7e9061116a565b60405180910390fd5b806004805490508110610acf576040517f08c379a0000000000000000000000000000000000000000000000000000000008152600401610ac6906111d2565b60405180910390fd5b815f151560048281548110610ae757610ae6611649565b5b905f5260205f2090600402016003015f9054906101000a900460ff16151514610b45576040517f08c379a0000000000000000000000000000000000000000000000000000000008152600401610b3c906116c0565b60405180910390fd5b60015460035f8581526020019081526020015f20541015610b9b576040517f08c379a0000000000000000000000000000000000000000000000000000000008152600401610b9290611728565b60405180910390fd5b5f60048481548110610bb057610baf611649565b5b905f5260205f20906004020190506001816003015f6101000a81548160ff0219169083151502179055505f815f015f9054906101000a900473ffffffffffffffffffffffffffffffffffffffff1673ffffffffffffffffffffffffffffffffffffffff16826001015483600201604051610c2a91906117d0565b5f6040518083038185875af1925050503d805f8114610c64576040519150601f19603f3d011682016040523d82523d5f602084013e610c69565b606091505b5050905080610cad576040517f08c379a0000000000000000000000000000000000000000000000000000000008152600401610ca490611830565b60405180910390fd5b3373ffffffffffffffffffffffffffffffffffffffff167f4e86ad0da28cbaaaa7e93e36c43b32696e970535225b316f1b84fbf30bdc04e886604051610cf39190610dd8565b60405180910390a25050505050565b5f604051905090565b5f80fd5b5f80fd5b5f819050919050565b610d2581610d13565b8114610d2f575f80fd5b50565b5f81359050610d4081610d1c565b92915050565b5f60208284031215610d5b57610d5a610d0b565b5b5f610d6884828501610d32565b91505092915050565b5f73ffffffffffffffffffffffffffffffffffffffff82169050919050565b5f610d9a82610d71565b9050919050565b610daa81610d90565b82525050565b5f602082019050610dc35f830184610da1565b92915050565b610dd281610d13565b82525050565b5f602082019050610deb5f830184610dc9565b92915050565b5f74ffffffffffffffffffffffffffffffffffffffffff82169050919050565b610e1a81610df1565b8114610e24575f80fd5b50565b5f81359050610e3581610e11565b610e3e81610d90565b905092915050565b5f60208284031215610e5b57610e5a610d0b565b5b5f610e6884828501610e27565b91505092915050565b5f8115159050919050565b610e8581610e71565b82525050565b5f602082019050610e9e5f830184610e7c565b92915050565b5f81519050919050565b5f82825260208201905092915050565b5f5b83811015610edb578082015181840152602081019050610ec0565b5f8484015250505050565b5f601f19601f8301169050919050565b5f610f0082610ea4565b610f0a8185610eae565b9350610f1a818560208601610ebe565b610f2381610ee6565b840191505092915050565b5f608082019050610f415f830187610da1565b610f4e6020830186610dc9565b8181036040830152610f608185610ef6565b9050610f6f6060830184610e7c565b95945050505050565b5f80fd5b5f80fd5b7f4e487b71000000000000000000000000000000000000000000000000000000005f52604160045260245ffd5b610fb682610ee6565b810181811067ffffffffffffffff82111715610fd557610fd4610f80565b5b80604052505050565b5f610fe7610d02565b9050610ff38282610fad565b919050565b5f67ffffffffffffffff82111561101257611011610f80565b5b61101b82610ee6565b9050602081019050919050565b828183375f83830152505050565b5f61104861104384610ff8565b610fde565b90508281526020810184848401111561106457611063610f7c565b5b61106f848285611028565b509392505050565b5f82601f83011261108b5761108a610f78565b5b813561109b848260208601611036565b91505092915050565b5f805f606084860312156110bb576110ba610d0b565b5b5f6110c886828701610e27565b93505060206110d986828701610d32565b925050604084013567ffffffffffffffff8111156110fa576110f9610d0f565b5b61110686828701611077565b9150509250925092565b5f82825260208201905092915050565b7f4e6f7420616e206f776e657200000000000000000000000000000000000000005f82015250565b5f611154600c83611110565b915061115f82611120565b602082019050919050565b5f6020820190508181035f83015261118181611148565b9050919050565b7f5472616e73616374696f6e20646f6573206e6f742065786973740000000000005f82015250565b5f6111bc601a83611110565b91506111c782611188565b602082019050919050565b5f6020820190508181035f8301526111e9816111b0565b9050919050565b7f43616e6e6f742072656a656374206578656375746564206f7220617070726f765f8201527f6564207472616e73616374696f6e730000000000000000000000000000000000602082015250565b5f61124a602f83611110565b9150611255826111f0565b604082019050919050565b5f6020820190508181035f8301526112778161123e565b9050919050565b7f5472616e73616374696f6e20616c7265616479206861732072657175697265645f8201527f20617070726f76616c7300000000000000000000000000000000000000000000602082015250565b5f6112d8602a83611110565b91506112e38261127e565b604082019050919050565b5f6020820190508181035f830152611305816112cc565b9050919050565b7f4e487b71000000000000000000000000000000000000000000000000000000005f52601160045260245ffd5b5f61134382610d13565b91507fffffffffffffffffffffffffffffffffffffffffffffffffffffffffffffffff82036113755761137461130c565b5b600182019050919050565b7f4e487b71000000000000000000000000000000000000000000000000000000005f52602260045260245ffd5b5f60028204905060018216806113c457607f821691505b6020821081036113d7576113d6611380565b5b50919050565b5f819050815f5260205f209050919050565b5f6020601f8301049050919050565b5f82821b905092915050565b5f600883026114397fffffffffffffffffffffffffffffffffffffffffffffffffffffffffffffffff826113fe565b61144386836113fe565b95508019841693508086168417925050509392505050565b5f819050919050565b5f61147e61147961147484610d13565b61145b565b610d13565b9050919050565b5f819050919050565b61149783611464565b6114ab6114a382611485565b84845461140a565b825550505050565b5f90565b6114bf6114b3565b6114ca81848461148e565b505050565b5b818110156114ed576114e25f826114b7565b6001810190506114d0565b5050565b601f82111561153257611503816113dd565b61150c846113ef565b8101602085101561151b578190505b61152f611527856113ef565b8301826114cf565b50505b505050565b5f82821c905092915050565b5f6115525f1984600802611537565b1980831691505092915050565b5f61156a8383611543565b9150826002028217905092915050565b61158382610ea4565b67ffffffffffffffff81111561159c5761159b610f80565b5b6115a682546113ad565b6115b18282856114f1565b5f60209050601f8311600181146115e2575f84156115d0578287015190505b6115da858261155f565b865550611641565b601f1984166115f0866113dd565b5f5b82811015611617578489015182556001820191506020850194506020810190506115f2565b868310156116345784890151611630601f891682611543565b8355505b6001600288020188555050505b505050505050565b7f4e487b71000000000000000000000000000000000000000000000000000000005f52603260045260245ffd5b7f5472616e73616374696f6e20616c7265616479206578656375746564000000005f82015250565b5f6116aa601c83611110565b91506116b582611676565b602082019050919050565b5f6020820190508181035f8301526116d78161169e565b9050919050565b7f4e6f7420656e6f75676820617070726f76616c730000000000000000000000005f82015250565b5f611712601483611110565b915061171d826116de565b602082019050919050565b5f6020820190508181035f83015261173f81611706565b9050919050565b5f81905092915050565b5f815461175c816113ad565b6117668186611746565b9450600182165f81146117805760018114611795576117c7565b60ff19831686528115158202860193506117c7565b61179e856113dd565b5f5b838110156117bf578154818901526001820191506020810190506117a0565b838801955050505b50505092915050565b5f6117db8284611750565b915081905092915050565b7f5472616e73616374696f6e206661696c656400000000000000000000000000005f82015250565b5f61181a601283611110565b9150611825826117e6565b602082019050919050565b5f6020820190508181035f8301526118478161180e565b905091905056fea26474726f6e582212205f0e1a58e3602ed563d48eb7f501b9f03c9a5918f0ca08b43ade1c7275434af064736f6c63430008140033",
  "source": "// SPDX-License-Identifier: MIT\npragma solidity ^0.8.20;\n\ncontract MultiSig {\n    address[] public owners;         // Array of owners' addresses\n    uint256 public required;          // Number of required approvals\n    mapping(address => bool) public isOwner; // Mapping to check if an address is an owner\n    mapping(uint256 => uint256) public approvals; // Mapping to store approvals for transactions\n\n    event TransactionCreated(address indexed creator, uint256 transactionId);\n    event TransactionExecuted(address indexed executor, uint256 transactionId);\n    event TransactionApproved(address indexed approver, uint256 transactionId);\n    event TransactionRejected(address indexed rejecter, uint256 transactionId);\n\n    modifier onlyOwner() {\n        require(isOwner[msg.sender], \"Not an owner\");\n        _;\n    }\n\n    modifier transactionExists(uint256 transactionId) {\n        require(transactionId < transactions.length, \"Transaction does not exist\");\n        _;\n    }\n\n    modifier notApproved(uint256 transactionId) {\n        require(approvals[transactionId] < required, \"Transaction already has required approvals\");\n        _;\n    }\n\n    modifier notExecuted(uint256 transactionId) {\n        require(transactions[transactionId].executed == false, \"Transaction already executed\");\n        _;\n    }\n\n    struct Transaction {\n        address to;                   // Address to call the contract\n        uint256 value;                 // ETH value to send (if any)\n        bytes data;                    // Calldata for function call\n        bool executed;                 // Whether the transaction has been executed\n    }\n\n    Transaction[] public transactions; // Array of transactions\n\n    constructor(address[] memory _owners, uint256 _requiredApprovals) {\n        require(_owners.length > 1, \"At least two owners are required\");\n        require(_requiredApprovals <= _owners.length, \"Invalid required approvals\");\n        \n        for (uint i = 0; i < _owners.length; i++) {\n            require(_owners[i] != address(0), \"Invalid address\");\n            require(!isOwner[_owners[i]], \"Duplicate owner\");\n            isOwner[_owners[i]] = true;\n        }\n\n        owners = _owners;\n        required = _requiredApprovals;\n    }\n\n    // Function to create a new transaction\n    function submitTransaction(address to, uint256 value, bytes memory data) public onlyOwner {\n        uint256 transactionId = transactions.length;\n        transactions.push(Transaction({\n            to: to,\n            value: value,\n            data: data,\n            executed: false\n        }));\n\n        emit TransactionCreated(msg.sender, transactionId);\n    }\n\n    // Function to approve a transaction\n    function approveTransaction(uint256 transactionId) public onlyOwner transactionExists(transactionId) notApproved(transactionId) {\n        approvals[transactionId]++;\n\n        emit TransactionApproved(msg.sender, transactionId);\n\n        // If we have enough approvals, execute the transaction\n        if (approvals[transactionId] >= required) {\n            executeTransaction(transactionId);\n        }\n    }\n\n    // Function to execute a transaction once enough approvals are received\n    function executeTransaction(uint256 transactionId) public onlyOwner transactionExists(transactionId) notExecuted(transactionId) {\n        require(approvals[transactionId] >= required, \"Not enough approvals\");\n\n        Transaction storage txn = transactions[transactionId];\n        txn.executed = true;\n\n        // Execute the contract call using the stored calldata\n        (bool success, ) = txn.to.call{value: txn.value}(txn.data);\n        require(success, \"Transaction failed\");\n\n        emit TransactionExecuted(msg.sender, transactionId);\n    }\n\n    // Function to reject a transaction\n    function rejectTransaction(uint256 transactionId) public onlyOwner transactionExists(transactionId) {\n        require(approvals[transactionId] < required, \"Cannot reject executed or approved transactions\");\n        approvals[transactionId] = 0;\n        emit TransactionRejected(msg.sender, transactionId);\n    }\n\n    // Function to get the transaction count\n    function getTransactionCount() public view returns (uint256) {\n        return transactions.length;\n    }\n\n    receive() external payable {}\n}\n\n\ncontract TestContract {\n  uint256 public value;\n  \n  function setValue(uint256 _value) public {\n    value = _value;\n  }\n}\n\n// Helper contract for testing failing transactions\ncontract FailingContract {\n  function failingFunction() public pure {\n    require(false, \"This function always fails\");\n  }\n}",
  "sourcePath": "/Users/ayoseun/Documents/GitHub/Ayoseun/stablecoin-cngn/tron-contract/contracts/Multisig.sol",
  "compiler": {
    "name": "solc",
    "version": "0.8.20+commit.5f1834bc.Emscripten.clang"
  },
  "schemaVersion": "2.0.1",
  "updatedAt": "2025-05-06T16:08:44.447Z"
}