{
  "contractName": "Test",
  "abi": [
    {
      "inputs": [
        {
          "internalType": "string",
          "name": "_message",
          "type": "string"
        }
      ],
      "stateMutability": "nonpayable",
      "type": "constructor"
    },
    {
      "inputs": [],
      "name": "message",
      "outputs": [
        {
          "internalType": "string",
          "name": "",
          "type": "string"
        }
      ],
      "stateMutability": "view",
      "type": "function"
    }
  ],
  "bytecode": "0x608060405234801561001057600080fd5b50d3801561001d57600080fd5b50d2801561002a57600080fd5b5060405161058b38038061058b833981810160405281019061004c919061028a565b8060009080519060200190610062929190610069565b5050610334565b82805461007590610302565b90600052602060002090601f01602090048101928261009757600085556100de565b82601f106100b057805160ff19168380011785556100de565b828001600101855582156100de579182015b828111156100dd5782518255916020019190600101906100c2565b5b5090506100eb91906100ef565b5090565b5b808211156101085760008160009055506001016100f0565b5090565b6000604051905090565b600080fd5b600080fd5b600080fd5b600080fd5b6000601f19601f8301169050919050565b7f4e487b7100000000000000000000000000000000000000000000000000000000600052604160045260246000fd5b6101738261012a565b810181811067ffffffffffffffff821117156101925761019161013b565b5b80604052505050565b60006101a561010c565b90506101b1828261016a565b919050565b600067ffffffffffffffff8211156101d1576101d061013b565b5b6101da8261012a565b9050602081019050919050565b60005b838110156102055780820151818401526020810190506101ea565b83811115610214576000848401525b50505050565b600061022d610228846101b6565b61019b565b90508281526020810184848401111561024957610248610125565b5b6102548482856101e7565b509392505050565b600082601f83011261027157610270610120565b5b815161028184826020860161021a565b91505092915050565b6000602082840312156102a05761029f610116565b5b600082015167ffffffffffffffff8111156102be576102bd61011b565b5b6102ca8482850161025c565b91505092915050565b7f4e487b7100000000000000000000000000000000000000000000000000000000600052602260045260246000fd5b6000600282049050600182168061031a57607f821691505b6020821081141561032e5761032d6102d3565b5b50919050565b610248806103436000396000f3fe608060405234801561001057600080fd5b50d3801561001d57600080fd5b50d2801561002a57600080fd5b50600436106100455760003560e01c8063e21f37ce1461004a575b600080fd5b610052610068565b60405161005f919061018f565b60405180910390f35b60008054610075906101e0565b80601f01602080910402602001604051908101604052809291908181526020018280546100a1906101e0565b80156100ee5780601f106100c3576101008083540402835291602001916100ee565b820191906000526020600020905b8154815290600101906020018083116100d157829003601f168201915b505050505081565b600081519050919050565b600082825260208201905092915050565b60005b83811015610130578082015181840152602081019050610115565b8381111561013f576000848401525b50505050565b6000601f19601f8301169050919050565b6000610161826100f6565b61016b8185610101565b935061017b818560208601610112565b61018481610145565b840191505092915050565b600060208201905081810360008301526101a98184610156565b905092915050565b7f4e487b7100000000000000000000000000000000000000000000000000000000600052602260045260246000fd5b600060028204905060018216806101f857607f821691505b6020821081141561020c5761020b6101b1565b5b5091905056fea26474726f6e58221220514bfb0a9e638f66591d91e85a20bd7532079fdce8438eb184315c411fde12cb64736f6c634300080b0033",
  "source": "pragma solidity ^0.8.7;\n\ncontract Test {\n    string public message;\n\n    constructor(string memory _message) public {\n        message = _message;\n    }\n}\n",
  "sourcePath": "/Users/charlesokaformbah/Projects/stablecoin-cngn/tron-contract/contracts/Test.sol",
  "compiler": {
    "name": "solc",
    "version": "0.8.11+commit.b01f3284.mod.Emscripten.clang"
  },
  "schemaVersion": "2.0.1",
  "updatedAt": "2024-12-14T16:27:05.734Z"
}