{
  "_format": "hh-sol-artifact-1",
  "contractName": "cngn",
  "sourceName": "contracts/cngn.sol",
  "abi": [
    {
      "inputs": [],
      "stateMutability": "nonpayable",
      "type": "constructor"
    },
    {
      "anonymous": false,
      "inputs": [
        {
          "indexed": false,
          "internalType": "address",
          "name": "_user",
          "type": "address"
        }
      ],
      "name": "AddedBlackList",
      "type": "event"
    },
    {
      "anonymous": false,
      "inputs": [
        {
          "indexed": true,
          "internalType": "address",
          "name": "owner",
          "type": "address"
        },
        {
          "indexed": true,
          "internalType": "address",
          "name": "spender",
          "type": "address"
        },
        {
          "indexed": false,
          "internalType": "uint256",
          "name": "value",
          "type": "uint256"
        }
      ],
      "name": "Approval",
      "type": "event"
    },
    {
      "anonymous": false,
      "inputs": [
        {
          "indexed": false,
          "internalType": "address",
          "name": "_blackListedUser",
          "type": "address"
        },
        {
          "indexed": false,
          "internalType": "uint256",
          "name": "_balance",
          "type": "uint256"
        }
      ],
      "name": "DestroyedBlackFunds",
      "type": "event"
    },
    {
      "anonymous": false,
      "inputs": [
        {
          "indexed": false,
          "internalType": "uint8",
          "name": "version",
          "type": "uint8"
        }
      ],
      "name": "Initialized",
      "type": "event"
    },
    {
      "anonymous": false,
      "inputs": [
        {
          "indexed": true,
          "internalType": "address",
          "name": "previousOwner",
          "type": "address"
        },
        {
          "indexed": true,
          "internalType": "address",
          "name": "newOwner",
          "type": "address"
        }
      ],
      "name": "OwnershipTransferred",
      "type": "event"
    },
    {
      "anonymous": false,
      "inputs": [
        {
          "indexed": false,
          "internalType": "address",
          "name": "account",
          "type": "address"
        }
      ],
      "name": "Paused",
      "type": "event"
    },
    {
      "anonymous": false,
      "inputs": [
        {
          "indexed": false,
          "internalType": "address",
          "name": "_user",
          "type": "address"
        }
      ],
      "name": "RemovedBlackList",
      "type": "event"
    },
    {
      "anonymous": false,
      "inputs": [
        {
          "indexed": true,
          "internalType": "address",
          "name": "from",
          "type": "address"
        },
        {
          "indexed": true,
          "internalType": "address",
          "name": "to",
          "type": "address"
        },
        {
          "indexed": false,
          "internalType": "uint256",
          "name": "value",
          "type": "uint256"
        }
      ],
      "name": "Transfer",
      "type": "event"
    },
    {
      "anonymous": false,
      "inputs": [
        {
          "indexed": false,
          "internalType": "address",
          "name": "account",
          "type": "address"
        }
      ],
      "name": "Unpaused",
      "type": "event"
    },
    {
      "inputs": [
        {
          "internalType": "address",
          "name": "_evilUser",
          "type": "address"
        }
      ],
      "name": "addBlackList",
      "outputs": [
        {
          "internalType": "bool",
          "name": "",
          "type": "bool"
        }
      ],
      "stateMutability": "nonpayable",
      "type": "function"
    },
    {
      "inputs": [
        {
          "internalType": "address",
          "name": "owner",
          "type": "address"
        },
        {
          "internalType": "address",
          "name": "spender",
          "type": "address"
        }
      ],
      "name": "allowance",
      "outputs": [
        {
          "internalType": "uint256",
          "name": "",
          "type": "uint256"
        }
      ],
      "stateMutability": "view",
      "type": "function"
    },
    {
      "inputs": [
        {
          "internalType": "address",
          "name": "spender",
          "type": "address"
        },
        {
          "internalType": "uint256",
          "name": "amount",
          "type": "uint256"
        }
      ],
      "name": "approve",
      "outputs": [
        {
          "internalType": "bool",
          "name": "",
          "type": "bool"
        }
      ],
      "stateMutability": "nonpayable",
      "type": "function"
    },
    {
      "inputs": [
        {
          "internalType": "address",
          "name": "account",
          "type": "address"
        }
      ],
      "name": "balanceOf",
      "outputs": [
        {
          "internalType": "uint256",
          "name": "",
          "type": "uint256"
        }
      ],
      "stateMutability": "view",
      "type": "function"
    },
    {
      "inputs": [
        {
          "internalType": "uint256",
          "name": "_amount",
          "type": "uint256"
        }
      ],
      "name": "burn",
      "outputs": [
        {
          "internalType": "bool",
          "name": "",
          "type": "bool"
        }
      ],
      "stateMutability": "nonpayable",
      "type": "function"
    },
    {
      "inputs": [],
      "name": "decimals",
      "outputs": [
        {
          "internalType": "uint8",
          "name": "",
          "type": "uint8"
        }
      ],
      "stateMutability": "view",
      "type": "function"
    },
    {
      "inputs": [
        {
          "internalType": "address",
          "name": "spender",
          "type": "address"
        },
        {
          "internalType": "uint256",
          "name": "subtractedValue",
          "type": "uint256"
        }
      ],
      "name": "decreaseAllowance",
      "outputs": [
        {
          "internalType": "bool",
          "name": "",
          "type": "bool"
        }
      ],
      "stateMutability": "nonpayable",
      "type": "function"
    },
    {
      "inputs": [
        {
          "internalType": "address",
          "name": "_blackListedUser",
          "type": "address"
        }
      ],
      "name": "destroyBlackFunds",
      "outputs": [
        {
          "internalType": "bool",
          "name": "",
          "type": "bool"
        }
      ],
      "stateMutability": "nonpayable",
      "type": "function"
    },
    {
      "inputs": [
        {
          "internalType": "address",
          "name": "_maker",
          "type": "address"
        }
      ],
      "name": "getBlackListStatus",
      "outputs": [
        {
          "internalType": "bool",
          "name": "",
          "type": "bool"
        }
      ],
      "stateMutability": "view",
      "type": "function"
    },
    {
      "inputs": [
        {
          "internalType": "address",
          "name": "spender",
          "type": "address"
        },
        {
          "internalType": "uint256",
          "name": "addedValue",
          "type": "uint256"
        }
      ],
      "name": "increaseAllowance",
      "outputs": [
        {
          "internalType": "bool",
          "name": "",
          "type": "bool"
        }
      ],
      "stateMutability": "nonpayable",
      "type": "function"
    },
    {
      "inputs": [],
      "name": "initialize",
      "outputs": [],
      "stateMutability": "nonpayable",
      "type": "function"
    },
    {
      "inputs": [
        {
          "internalType": "uint256",
          "name": "_amount",
          "type": "uint256"
        },
        {
          "internalType": "address",
          "name": "_mintTo",
          "type": "address"
        }
      ],
      "name": "mint",
      "outputs": [
        {
          "internalType": "bool",
          "name": "",
          "type": "bool"
        }
      ],
      "stateMutability": "nonpayable",
      "type": "function"
    },
    {
      "inputs": [],
      "name": "name",
      "outputs": [
        {
          "internalType": "string",
          "name": "",
          "type": "string"
        }
      ],
      "stateMutability": "view",
      "type": "function"
    },
    {
      "inputs": [],
      "name": "owner",
      "outputs": [
        {
          "internalType": "address",
          "name": "",
          "type": "address"
        }
      ],
      "stateMutability": "view",
      "type": "function"
    },
    {
      "inputs": [],
      "name": "pause",
      "outputs": [
        {
          "internalType": "bool",
          "name": "",
          "type": "bool"
        }
      ],
      "stateMutability": "nonpayable",
      "type": "function"
    },
    {
      "inputs": [],
      "name": "paused",
      "outputs": [
        {
          "internalType": "bool",
          "name": "",
          "type": "bool"
        }
      ],
      "stateMutability": "view",
      "type": "function"
    },
    {
      "inputs": [
        {
          "internalType": "address",
          "name": "_clearedUser",
          "type": "address"
        }
      ],
      "name": "removeBlackList",
      "outputs": [
        {
          "internalType": "bool",
          "name": "",
          "type": "bool"
        }
      ],
      "stateMutability": "nonpayable",
      "type": "function"
    },
    {
      "inputs": [],
      "name": "renounceOwnership",
      "outputs": [],
      "stateMutability": "nonpayable",
      "type": "function"
    },
    {
      "inputs": [],
      "name": "symbol",
      "outputs": [
        {
          "internalType": "string",
          "name": "",
          "type": "string"
        }
      ],
      "stateMutability": "view",
      "type": "function"
    },
    {
      "inputs": [],
      "name": "totalSupply",
      "outputs": [
        {
          "internalType": "uint256",
          "name": "",
          "type": "uint256"
        }
      ],
      "stateMutability": "view",
      "type": "function"
    },
    {
      "inputs": [
        {
          "internalType": "address",
          "name": "to",
          "type": "address"
        },
        {
          "internalType": "uint256",
          "name": "amount",
          "type": "uint256"
        }
      ],
      "name": "transfer",
      "outputs": [
        {
          "internalType": "bool",
          "name": "",
          "type": "bool"
        }
      ],
      "stateMutability": "nonpayable",
      "type": "function"
    },
    {
      "inputs": [
        {
          "internalType": "address",
          "name": "from",
          "type": "address"
        },
        {
          "internalType": "address",
          "name": "to",
          "type": "address"
        },
        {
          "internalType": "uint256",
          "name": "amount",
          "type": "uint256"
        }
      ],
      "name": "transferFrom",
      "outputs": [
        {
          "internalType": "bool",
          "name": "",
          "type": "bool"
        }
      ],
      "stateMutability": "nonpayable",
      "type": "function"
    },
    {
      "inputs": [
        {
          "internalType": "address",
          "name": "newOwner",
          "type": "address"
        }
      ],
      "name": "transferOwnership",
      "outputs": [],
      "stateMutability": "nonpayable",
      "type": "function"
    },
    {
      "inputs": [],
      "name": "unPause",
      "outputs": [
        {
          "internalType": "bool",
          "name": "",
          "type": "bool"
        }
      ],
      "stateMutability": "nonpayable",
      "type": "function"
    }
  ],
  "bytecode": "0x608060405234801562000010575f80fd5b50620000216200002760201b60201c565b620001c7565b5f60019054906101000a900460ff161562000079576040517f08c379a000000000000000000000000000000000000000000000000000000000815260040162000070906200016f565b60405180910390fd5b60ff80165f8054906101000a900460ff1660ff161015620000e95760ff5f806101000a81548160ff021916908360ff1602179055507f7f26b83ff96e1f2b6a682f133852f6798a09c465da95921460cefb384740249860ff604051620000e09190620001ac565b60405180910390a15b565b5f82825260208201905092915050565b7f496e697469616c697a61626c653a20636f6e747261637420697320696e6974695f8201527f616c697a696e6700000000000000000000000000000000000000000000000000602082015250565b5f62000157602783620000eb565b91506200016482620000fb565b604082019050919050565b5f6020820190508181035f830152620001888162000149565b9050919050565b5f60ff82169050919050565b620001a6816200018f565b82525050565b5f602082019050620001c15f8301846200019b565b92915050565b612c2080620001d55f395ff3fe608060405234801561000f575f80fd5b5060043610610156575f3560e01c80638129fc1c116100c1578063a9059cbb1161007a578063a9059cbb146103f0578063dd62ed3e14610420578063e4997dc514610450578063f2fde38b14610480578063f3bdc2281461049c578063f7b188a5146104cc57610156565b80638129fc1c1461032c5780638456cb59146103365780638da5cb5b1461035457806394bf804d1461037257806395d89b41146103a2578063a457c2d7146103c057610156565b80633950935111610113578063395093511461024457806342966c681461027457806359bf1abe146102a45780635c975abb146102d457806370a08231146102f2578063715018a61461032257610156565b806306fdde031461015a578063095ea7b3146101785780630ecb93c0146101a857806318160ddd146101d857806323b872dd146101f6578063313ce56714610226575b5f80fd5b6101626104ea565b60405161016f9190611cfe565b60405180910390f35b610192600480360381019061018d9190611daf565b61057a565b60405161019f9190611e07565b60405180910390f35b6101c260048036038101906101bd9190611e20565b61059c565b6040516101cf9190611e07565b60405180910390f35b6101e061063a565b6040516101ed9190611e5a565b60405180910390f35b610210600480360381019061020b9190611e73565b610643565b60405161021d9190611e07565b60405180910390f35b61022e610772565b60405161023b9190611ede565b60405180910390f35b61025e60048036038101906102599190611daf565b61077a565b60405161026b9190611e07565b60405180910390f35b61028e60048036038101906102899190611ef7565b6107b0565b60405161029b9190611e07565b60405180910390f35b6102be60048036038101906102b99190611e20565b6107cc565b6040516102cb9190611e07565b60405180910390f35b6102dc61081e565b6040516102e99190611e07565b60405180910390f35b61030c60048036038101906103079190611e20565b610833565b6040516103199190611e5a565b60405180910390f35b61032a610879565b005b61033461088c565b005b61033e610a40565b60405161034b9190611e07565b60405180910390f35b61035c610a60565b6040516103699190611f31565b60405180910390f35b61038c60048036038101906103879190611f4a565b610a88565b6040516103999190611e07565b60405180910390f35b6103aa610af8565b6040516103b79190611cfe565b60405180910390f35b6103da60048036038101906103d59190611daf565b610b88565b6040516103e79190611e07565b60405180910390f35b61040a60048036038101906104059190611daf565b610bfd565b6040516104179190611e07565b60405180910390f35b61043a60048036038101906104359190611f88565b610ccd565b6040516104479190611e5a565b60405180910390f35b61046a60048036038101906104659190611e20565b610d4f565b6040516104779190611e07565b60405180910390f35b61049a60048036038101906104959190611e20565b610dec565b005b6104b660048036038101906104b19190611e20565b610e6e565b6040516104c39190611e07565b60405180910390f35b6104d4610f72565b6040516104e19190611e07565b60405180910390f35b6060609b80546104f990611ff3565b80601f016020809104026020016040519081016040528092919081815260200182805461052590611ff3565b80156105705780601f1061054757610100808354040283529160200191610570565b820191905f5260205f20905b81548152906001019060200180831161055357829003601f168201915b5050505050905090565b5f80610584610f92565b9050610591818585610f99565b600191505092915050565b5f6105a561115c565b600160995f8473ffffffffffffffffffffffffffffffffffffffff1673ffffffffffffffffffffffffffffffffffffffff1681526020019081526020015f205f6101000a81548160ff0219169083151502179055507f42e160154868087d6bfdc0ca23d96a1c1cfa32f1b72ba9ba27b69b98a0d819dc826040516106299190611f31565b60405180910390a160019050919050565b5f609a54905090565b5f61064c6111da565b60995f3373ffffffffffffffffffffffffffffffffffffffff1673ffffffffffffffffffffffffffffffffffffffff1681526020019081526020015f205f9054906101000a900460ff161561069f575f80fd5b60995f8573ffffffffffffffffffffffffffffffffffffffff1673ffffffffffffffffffffffffffffffffffffffff1681526020019081526020015f205f9054906101000a900460ff16156106f2575f80fd5b60995f8473ffffffffffffffffffffffffffffffffffffffff1673ffffffffffffffffffffffffffffffffffffffff1681526020019081526020015f205f9054906101000a900460ff1615610745575f80fd5b5f61074e610f92565b905061075b858285611224565b6107668585856112af565b60019150509392505050565b5f6012905090565b5f80610784610f92565b90506107a58185856107968589610ccd565b6107a09190612050565b610f99565b600191505092915050565b5f6107b961115c565b6107c3338361151e565b60019050919050565b5f60995f8373ffffffffffffffffffffffffffffffffffffffff1673ffffffffffffffffffffffffffffffffffffffff1681526020019081526020015f205f9054906101000a900460ff169050919050565b5f60655f9054906101000a900460ff16905090565b5f60975f8373ffffffffffffffffffffffffffffffffffffffff1673ffffffffffffffffffffffffffffffffffffffff1681526020019081526020015f20549050919050565b61088161115c565b61088a5f6116e3565b565b5f8060019054906101000a900460ff161590508080156108bb575060015f8054906101000a900460ff1660ff16105b806108e757506108ca306117a6565b1580156108e6575060015f8054906101000a900460ff1660ff16145b5b610926576040517f08c379a000000000000000000000000000000000000000000000000000000000815260040161091d906120f3565b60405180910390fd5b60015f806101000a81548160ff021916908360ff16021790555080156109615760015f60016101000a81548160ff0219169083151502179055505b6109d56040518060400160405280600481526020017f634e474e000000000000000000000000000000000000000000000000000000008152506040518060400160405280600481526020017f634e474e000000000000000000000000000000000000000000000000000000008152506117c8565b6109dd611824565b6109e561187c565b8015610a3d575f8060016101000a81548160ff0219169083151502179055507f7f26b83ff96e1f2b6a682f133852f6798a09c465da95921460cefb38474024986001604051610a349190612153565b60405180910390a15b50565b5f610a4961115c565b610a516111da565b610a596118d4565b6001905090565b5f60335f9054906101000a900473ffffffffffffffffffffffffffffffffffffffff16905090565b5f610a9161115c565b60995f8373ffffffffffffffffffffffffffffffffffffffff1673ffffffffffffffffffffffffffffffffffffffff1681526020019081526020015f205f9054906101000a900460ff1615610ae4575f80fd5b610aee8284611936565b6001905092915050565b6060609c8054610b0790611ff3565b80601f0160208091040260200160405190810160405280929190818152602001828054610b3390611ff3565b8015610b7e5780601f10610b5557610100808354040283529160200191610b7e565b820191905f5260205f20905b815481529060010190602001808311610b6157829003601f168201915b5050505050905090565b5f80610b92610f92565b90505f610b9f8286610ccd565b905083811015610be4576040517f08c379a0000000000000000000000000000000000000000000000000000000008152600401610bdb906121dc565b60405180910390fd5b610bf18286868403610f99565b60019250505092915050565b5f610c066111da565b60995f3373ffffffffffffffffffffffffffffffffffffffff1673ffffffffffffffffffffffffffffffffffffffff1681526020019081526020015f205f9054906101000a900460ff1615610c59575f80fd5b60995f8473ffffffffffffffffffffffffffffffffffffffff1673ffffffffffffffffffffffffffffffffffffffff1681526020019081526020015f205f9054906101000a900460ff1615610cac575f80fd5b5f610cb5610f92565b9050610cc28185856112af565b600191505092915050565b5f60985f8473ffffffffffffffffffffffffffffffffffffffff1673ffffffffffffffffffffffffffffffffffffffff1681526020019081526020015f205f8373ffffffffffffffffffffffffffffffffffffffff1673ffffffffffffffffffffffffffffffffffffffff1681526020019081526020015f2054905092915050565b5f610d5861115c565b5f60995f8473ffffffffffffffffffffffffffffffffffffffff1673ffffffffffffffffffffffffffffffffffffffff1681526020019081526020015f205f6101000a81548160ff0219169083151502179055507fd7e9ec6e6ecd65492dce6bf513cd6867560d49544421d0783ddf06e76c24470c82604051610ddb9190611f31565b60405180910390a160019050919050565b610df461115c565b5f73ffffffffffffffffffffffffffffffffffffffff168173ffffffffffffffffffffffffffffffffffffffff1603610e62576040517f08c379a0000000000000000000000000000000000000000000000000000000008152600401610e599061226a565b60405180910390fd5b610e6b816116e3565b50565b5f610e7761115c565b60995f8373ffffffffffffffffffffffffffffffffffffffff1673ffffffffffffffffffffffffffffffffffffffff1681526020019081526020015f205f9054906101000a900460ff16610ec9575f80fd5b5f610ed383610833565b90505f60975f8573ffffffffffffffffffffffffffffffffffffffff1673ffffffffffffffffffffffffffffffffffffffff1681526020019081526020015f208190555080609a5f828254610f289190612288565b925050819055507f61e6e66b0d6339b2980aecc6ccc0039736791f0ccde9ed512e789a7fbdd698c68382604051610f609291906122bb565b60405180910390a16001915050919050565b5f610f7b61115c565b610f83611a85565b610f8b611ace565b6001905090565b5f33905090565b5f73ffffffffffffffffffffffffffffffffffffffff168373ffffffffffffffffffffffffffffffffffffffff1603611007576040517f08c379a0000000000000000000000000000000000000000000000000000000008152600401610ffe90612352565b60405180910390fd5b5f73ffffffffffffffffffffffffffffffffffffffff168273ffffffffffffffffffffffffffffffffffffffff1603611075576040517f08c379a000000000000000000000000000000000000000000000000000000000815260040161106c906123e0565b60405180910390fd5b8060985f8573ffffffffffffffffffffffffffffffffffffffff1673ffffffffffffffffffffffffffffffffffffffff1681526020019081526020015f205f8473ffffffffffffffffffffffffffffffffffffffff1673ffffffffffffffffffffffffffffffffffffffff1681526020019081526020015f20819055508173ffffffffffffffffffffffffffffffffffffffff168373ffffffffffffffffffffffffffffffffffffffff167f8c5be1e5ebec7d5bd14f71427d1e84f3dd0314c0f7b2291e5b200ac8c7c3b9258360405161114f9190611e5a565b60405180910390a3505050565b611164610f92565b73ffffffffffffffffffffffffffffffffffffffff16611182610a60565b73ffffffffffffffffffffffffffffffffffffffff16146111d8576040517f08c379a00000000000000000000000000000000000000000000000000000000081526004016111cf90612448565b60405180910390fd5b565b6111e261081e565b15611222576040517f08c379a0000000000000000000000000000000000000000000000000000000008152600401611219906124b0565b60405180910390fd5b565b5f61122f8484610ccd565b90507fffffffffffffffffffffffffffffffffffffffffffffffffffffffffffffffff81146112a9578181101561129b576040517f08c379a000000000000000000000000000000000000000000000000000000000815260040161129290612518565b60405180910390fd5b6112a88484848403610f99565b5b50505050565b5f73ffffffffffffffffffffffffffffffffffffffff168373ffffffffffffffffffffffffffffffffffffffff160361131d576040517f08c379a0000000000000000000000000000000000000000000000000000000008152600401611314906125a6565b60405180910390fd5b5f73ffffffffffffffffffffffffffffffffffffffff168273ffffffffffffffffffffffffffffffffffffffff160361138b576040517f08c379a000000000000000000000000000000000000000000000000000000000815260040161138290612634565b60405180910390fd5b611396838383611b2f565b5f60975f8573ffffffffffffffffffffffffffffffffffffffff1673ffffffffffffffffffffffffffffffffffffffff1681526020019081526020015f205490508181101561141a576040517f08c379a0000000000000000000000000000000000000000000000000000000008152600401611411906126c2565b60405180910390fd5b81810360975f8673ffffffffffffffffffffffffffffffffffffffff1673ffffffffffffffffffffffffffffffffffffffff1681526020019081526020015f20819055508160975f8573ffffffffffffffffffffffffffffffffffffffff1673ffffffffffffffffffffffffffffffffffffffff1681526020019081526020015f205f82825401925050819055508273ffffffffffffffffffffffffffffffffffffffff168473ffffffffffffffffffffffffffffffffffffffff167fddf252ad1be2c89b69c2b068fc378daa952ba7f163c4a11628f55a4df523b3ef846040516115059190611e5a565b60405180910390a3611518848484611b34565b50505050565b5f73ffffffffffffffffffffffffffffffffffffffff168273ffffffffffffffffffffffffffffffffffffffff160361158c576040517f08c379a000000000000000000000000000000000000000000000000000000000815260040161158390612750565b60405180910390fd5b611597825f83611b2f565b5f60975f8473ffffffffffffffffffffffffffffffffffffffff1673ffffffffffffffffffffffffffffffffffffffff1681526020019081526020015f205490508181101561161b576040517f08c379a0000000000000000000000000000000000000000000000000000000008152600401611612906127de565b60405180910390fd5b81810360975f8573ffffffffffffffffffffffffffffffffffffffff1673ffffffffffffffffffffffffffffffffffffffff1681526020019081526020015f208190555081609a5f82825403925050819055505f73ffffffffffffffffffffffffffffffffffffffff168373ffffffffffffffffffffffffffffffffffffffff167fddf252ad1be2c89b69c2b068fc378daa952ba7f163c4a11628f55a4df523b3ef846040516116cb9190611e5a565b60405180910390a36116de835f84611b34565b505050565b5f60335f9054906101000a900473ffffffffffffffffffffffffffffffffffffffff1690508160335f6101000a81548173ffffffffffffffffffffffffffffffffffffffff021916908373ffffffffffffffffffffffffffffffffffffffff1602179055508173ffffffffffffffffffffffffffffffffffffffff168173ffffffffffffffffffffffffffffffffffffffff167f8be0079c531659141344cd1fd0a4f28419497f9722a3daafe3b4186f6b6457e060405160405180910390a35050565b5f808273ffffffffffffffffffffffffffffffffffffffff163b119050919050565b5f60019054906101000a900460ff16611816576040517f08c379a000000000000000000000000000000000000000000000000000000000815260040161180d9061286c565b60405180910390fd5b6118208282611b39565b5050565b5f60019054906101000a900460ff16611872576040517f08c379a00000000000000000000000000000000000000000000000000000000081526004016118699061286c565b60405180910390fd5b61187a611bab565b565b5f60019054906101000a900460ff166118ca576040517f08c379a00000000000000000000000000000000000000000000000000000000081526004016118c19061286c565b60405180910390fd5b6118d2611c0b565b565b6118dc6111da565b600160655f6101000a81548160ff0219169083151502179055507f62e78cea01bee320cd4e420270b5ea74000d11b0c9f74754ebdbfc544b05a25861191f610f92565b60405161192c9190611f31565b60405180910390a1565b5f73ffffffffffffffffffffffffffffffffffffffff168273ffffffffffffffffffffffffffffffffffffffff16036119a4576040517f08c379a000000000000000000000000000000000000000000000000000000000815260040161199b906128d4565b60405180910390fd5b6119af5f8383611b2f565b80609a5f8282546119c09190612050565b925050819055508060975f8473ffffffffffffffffffffffffffffffffffffffff1673ffffffffffffffffffffffffffffffffffffffff1681526020019081526020015f205f82825401925050819055508173ffffffffffffffffffffffffffffffffffffffff165f73ffffffffffffffffffffffffffffffffffffffff167fddf252ad1be2c89b69c2b068fc378daa952ba7f163c4a11628f55a4df523b3ef83604051611a6e9190611e5a565b60405180910390a3611a815f8383611b34565b5050565b611a8d61081e565b611acc576040517f08c379a0000000000000000000000000000000000000000000000000000000008152600401611ac39061293c565b60405180910390fd5b565b611ad6611a85565b5f60655f6101000a81548160ff0219169083151502179055507f5db9ee0a495bf2e6ff9c91a7834c1ba4fdd244a5e8aa4e537bd38aeae4b073aa611b18610f92565b604051611b259190611f31565b60405180910390a1565b505050565b505050565b5f60019054906101000a900460ff16611b87576040517f08c379a0000000000000000000000000000000000000000000000000000000008152600401611b7e9061286c565b60405180910390fd5b81609b9081611b969190612b1b565b5080609c9081611ba69190612b1b565b505050565b5f60019054906101000a900460ff16611bf9576040517f08c379a0000000000000000000000000000000000000000000000000000000008152600401611bf09061286c565b60405180910390fd5b611c09611c04610f92565b6116e3565b565b5f60019054906101000a900460ff16611c59576040517f08c379a0000000000000000000000000000000000000000000000000000000008152600401611c509061286c565b60405180910390fd5b5f60655f6101000a81548160ff021916908315150217905550565b5f81519050919050565b5f82825260208201905092915050565b5f5b83811015611cab578082015181840152602081019050611c90565b5f8484015250505050565b5f601f19601f8301169050919050565b5f611cd082611c74565b611cda8185611c7e565b9350611cea818560208601611c8e565b611cf381611cb6565b840191505092915050565b5f6020820190508181035f830152611d168184611cc6565b905092915050565b5f80fd5b5f73ffffffffffffffffffffffffffffffffffffffff82169050919050565b5f611d4b82611d22565b9050919050565b611d5b81611d41565b8114611d65575f80fd5b50565b5f81359050611d7681611d52565b92915050565b5f819050919050565b611d8e81611d7c565b8114611d98575f80fd5b50565b5f81359050611da981611d85565b92915050565b5f8060408385031215611dc557611dc4611d1e565b5b5f611dd285828601611d68565b9250506020611de385828601611d9b565b9150509250929050565b5f8115159050919050565b611e0181611ded565b82525050565b5f602082019050611e1a5f830184611df8565b92915050565b5f60208284031215611e3557611e34611d1e565b5b5f611e4284828501611d68565b91505092915050565b611e5481611d7c565b82525050565b5f602082019050611e6d5f830184611e4b565b92915050565b5f805f60608486031215611e8a57611e89611d1e565b5b5f611e9786828701611d68565b9350506020611ea886828701611d68565b9250506040611eb986828701611d9b565b9150509250925092565b5f60ff82169050919050565b611ed881611ec3565b82525050565b5f602082019050611ef15f830184611ecf565b92915050565b5f60208284031215611f0c57611f0b611d1e565b5b5f611f1984828501611d9b565b91505092915050565b611f2b81611d41565b82525050565b5f602082019050611f445f830184611f22565b92915050565b5f8060408385031215611f6057611f5f611d1e565b5b5f611f6d85828601611d9b565b9250506020611f7e85828601611d68565b9150509250929050565b5f8060408385031215611f9e57611f9d611d1e565b5b5f611fab85828601611d68565b9250506020611fbc85828601611d68565b9150509250929050565b7f4e487b71000000000000000000000000000000000000000000000000000000005f52602260045260245ffd5b5f600282049050600182168061200a57607f821691505b60208210810361201d5761201c611fc6565b5b50919050565b7f4e487b71000000000000000000000000000000000000000000000000000000005f52601160045260245ffd5b5f61205a82611d7c565b915061206583611d7c565b925082820190508082111561207d5761207c612023565b5b92915050565b7f496e697469616c697a61626c653a20636f6e747261637420697320616c7265615f8201527f647920696e697469616c697a6564000000000000000000000000000000000000602082015250565b5f6120dd602e83611c7e565b91506120e882612083565b604082019050919050565b5f6020820190508181035f83015261210a816120d1565b9050919050565b5f819050919050565b5f819050919050565b5f61213d61213861213384612111565b61211a565b611ec3565b9050919050565b61214d81612123565b82525050565b5f6020820190506121665f830184612144565b92915050565b7f45524332303a2064656372656173656420616c6c6f77616e63652062656c6f775f8201527f207a65726f000000000000000000000000000000000000000000000000000000602082015250565b5f6121c6602583611c7e565b91506121d18261216c565b604082019050919050565b5f6020820190508181035f8301526121f3816121ba565b9050919050565b7f4f776e61626c653a206e6577206f776e657220697320746865207a65726f20615f8201527f6464726573730000000000000000000000000000000000000000000000000000602082015250565b5f612254602683611c7e565b915061225f826121fa565b604082019050919050565b5f6020820190508181035f83015261228181612248565b9050919050565b5f61229282611d7c565b915061229d83611d7c565b92508282039050818111156122b5576122b4612023565b5b92915050565b5f6040820190506122ce5f830185611f22565b6122db6020830184611e4b565b9392505050565b7f45524332303a20617070726f76652066726f6d20746865207a65726f206164645f8201527f7265737300000000000000000000000000000000000000000000000000000000602082015250565b5f61233c602483611c7e565b9150612347826122e2565b604082019050919050565b5f6020820190508181035f83015261236981612330565b9050919050565b7f45524332303a20617070726f766520746f20746865207a65726f2061646472655f8201527f7373000000000000000000000000000000000000000000000000000000000000602082015250565b5f6123ca602283611c7e565b91506123d582612370565b604082019050919050565b5f6020820190508181035f8301526123f7816123be565b9050919050565b7f4f776e61626c653a2063616c6c6572206973206e6f7420746865206f776e65725f82015250565b5f612432602083611c7e565b915061243d826123fe565b602082019050919050565b5f6020820190508181035f83015261245f81612426565b9050919050565b7f5061757361626c653a20706175736564000000000000000000000000000000005f82015250565b5f61249a601083611c7e565b91506124a582612466565b602082019050919050565b5f6020820190508181035f8301526124c78161248e565b9050919050565b7f45524332303a20696e73756666696369656e7420616c6c6f77616e63650000005f82015250565b5f612502601d83611c7e565b915061250d826124ce565b602082019050919050565b5f6020820190508181035f83015261252f816124f6565b9050919050565b7f45524332303a207472616e736665722066726f6d20746865207a65726f2061645f8201527f6472657373000000000000000000000000000000000000000000000000000000602082015250565b5f612590602583611c7e565b915061259b82612536565b604082019050919050565b5f6020820190508181035f8301526125bd81612584565b9050919050565b7f45524332303a207472616e7366657220746f20746865207a65726f20616464725f8201527f6573730000000000000000000000000000000000000000000000000000000000602082015250565b5f61261e602383611c7e565b9150612629826125c4565b604082019050919050565b5f6020820190508181035f83015261264b81612612565b9050919050565b7f45524332303a207472616e7366657220616d6f756e74206578636565647320625f8201527f616c616e63650000000000000000000000000000000000000000000000000000602082015250565b5f6126ac602683611c7e565b91506126b782612652565b604082019050919050565b5f6020820190508181035f8301526126d9816126a0565b9050919050565b7f45524332303a206275726e2066726f6d20746865207a65726f206164647265735f8201527f7300000000000000000000000000000000000000000000000000000000000000602082015250565b5f61273a602183611c7e565b9150612745826126e0565b604082019050919050565b5f6020820190508181035f8301526127678161272e565b9050919050565b7f45524332303a206275726e20616d6f756e7420657863656564732062616c616e5f8201527f6365000000000000000000000000000000000000000000000000000000000000602082015250565b5f6127c8602283611c7e565b91506127d38261276e565b604082019050919050565b5f6020820190508181035f8301526127f5816127bc565b9050919050565b7f496e697469616c697a61626c653a20636f6e7472616374206973206e6f7420695f8201527f6e697469616c697a696e67000000000000000000000000000000000000000000602082015250565b5f612856602b83611c7e565b9150612861826127fc565b604082019050919050565b5f6020820190508181035f8301526128838161284a565b9050919050565b7f45524332303a206d696e7420746f20746865207a65726f2061646472657373005f82015250565b5f6128be601f83611c7e565b91506128c98261288a565b602082019050919050565b5f6020820190508181035f8301526128eb816128b2565b9050919050565b7f5061757361626c653a206e6f74207061757365640000000000000000000000005f82015250565b5f612926601483611c7e565b9150612931826128f2565b602082019050919050565b5f6020820190508181035f8301526129538161291a565b9050919050565b7f4e487b71000000000000000000000000000000000000000000000000000000005f52604160045260245ffd5b5f819050815f5260205f209050919050565b5f6020601f8301049050919050565b5f82821b905092915050565b5f600883026129e37fffffffffffffffffffffffffffffffffffffffffffffffffffffffffffffffff826129a8565b6129ed86836129a8565b95508019841693508086168417925050509392505050565b5f612a1f612a1a612a1584611d7c565b61211a565b611d7c565b9050919050565b5f819050919050565b612a3883612a05565b612a4c612a4482612a26565b8484546129b4565b825550505050565b5f90565b612a60612a54565b612a6b818484612a2f565b505050565b5b81811015612a8e57612a835f82612a58565b600181019050612a71565b5050565b601f821115612ad357612aa481612987565b612aad84612999565b81016020851015612abc578190505b612ad0612ac885612999565b830182612a70565b50505b505050565b5f82821c905092915050565b5f612af35f1984600802612ad8565b1980831691505092915050565b5f612b0b8383612ae4565b9150826002028217905092915050565b612b2482611c74565b67ffffffffffffffff811115612b3d57612b3c61295a565b5b612b478254611ff3565b612b52828285612a92565b5f60209050601f831160018114612b83575f8415612b71578287015190505b612b7b8582612b00565b865550612be2565b601f198416612b9186612987565b5f5b82811015612bb857848901518255600182019150602085019450602081019050612b93565b86831015612bd55784890151612bd1601f891682612ae4565b8355505b6001600288020188555050505b50505050505056fea26469706673582212203ae58e3c68f58dbf8d95b689dc2ce9f81c036c6eaf5d94b7cf50e88af658a4cc64736f6c63430008170033",
  "linkReferences": {},
  "deployedLinkReferences": {}
}