{
  "_format": "hh-sol-artifact-1",
  "contractName": "cngn",
  "sourceName": "contracts/cngn.sol",
  "abi": [
    {
      "inputs": [],
      "stateMutability": "nonpayable",
      "type": "constructor"
    },
    {
      "anonymous": false,
      "inputs": [
        {
          "indexed": false,
          "internalType": "address",
          "name": "_user",
          "type": "address"
        }
      ],
      "name": "AddedBlackList",
      "type": "event"
    },
    {
      "anonymous": false,
      "inputs": [
        {
          "indexed": true,
          "internalType": "address",
          "name": "owner",
          "type": "address"
        },
        {
          "indexed": true,
          "internalType": "address",
          "name": "spender",
          "type": "address"
        },
        {
          "indexed": false,
          "internalType": "uint256",
          "name": "value",
          "type": "uint256"
        }
      ],
      "name": "Approval",
      "type": "event"
    },
    {
      "anonymous": false,
      "inputs": [
        {
          "indexed": false,
          "internalType": "address",
          "name": "_blackListedUser",
          "type": "address"
        },
        {
          "indexed": false,
          "internalType": "uint256",
          "name": "_balance",
          "type": "uint256"
        }
      ],
      "name": "DestroyedBlackFunds",
      "type": "event"
    },
    {
      "anonymous": false,
      "inputs": [
        {
          "indexed": false,
          "internalType": "uint8",
          "name": "version",
          "type": "uint8"
        }
      ],
      "name": "Initialized",
      "type": "event"
    },
    {
      "anonymous": false,
      "inputs": [
        {
          "indexed": true,
          "internalType": "address",
          "name": "previousOwner",
          "type": "address"
        },
        {
          "indexed": true,
          "internalType": "address",
          "name": "newOwner",
          "type": "address"
        }
      ],
      "name": "OwnershipTransferred",
      "type": "event"
    },
    {
      "anonymous": false,
      "inputs": [
        {
          "indexed": false,
          "internalType": "address",
          "name": "account",
          "type": "address"
        }
      ],
      "name": "Paused",
      "type": "event"
    },
    {
      "anonymous": false,
      "inputs": [
        {
          "indexed": false,
          "internalType": "address",
          "name": "_user",
          "type": "address"
        }
      ],
      "name": "RemovedBlackList",
      "type": "event"
    },
    {
      "anonymous": false,
      "inputs": [
        {
          "indexed": true,
          "internalType": "address",
          "name": "from",
          "type": "address"
        },
        {
          "indexed": true,
          "internalType": "address",
          "name": "to",
          "type": "address"
        },
        {
          "indexed": false,
          "internalType": "uint256",
          "name": "value",
          "type": "uint256"
        }
      ],
      "name": "Transfer",
      "type": "event"
    },
    {
      "anonymous": false,
      "inputs": [
        {
          "indexed": false,
          "internalType": "address",
          "name": "account",
          "type": "address"
        }
      ],
      "name": "Unpaused",
      "type": "event"
    },
    {
      "inputs": [
        {
          "internalType": "address",
          "name": "_evilUser",
          "type": "address"
        }
      ],
      "name": "addBlackList",
      "outputs": [
        {
          "internalType": "bool",
          "name": "",
          "type": "bool"
        }
      ],
      "stateMutability": "nonpayable",
      "type": "function"
    },
    {
      "inputs": [
        {
          "internalType": "address",
          "name": "owner",
          "type": "address"
        },
        {
          "internalType": "address",
          "name": "spender",
          "type": "address"
        }
      ],
      "name": "allowance",
      "outputs": [
        {
          "internalType": "uint256",
          "name": "",
          "type": "uint256"
        }
      ],
      "stateMutability": "view",
      "type": "function"
    },
    {
      "inputs": [
        {
          "internalType": "address",
          "name": "spender",
          "type": "address"
        },
        {
          "internalType": "uint256",
          "name": "amount",
          "type": "uint256"
        }
      ],
      "name": "approve",
      "outputs": [
        {
          "internalType": "bool",
          "name": "",
          "type": "bool"
        }
      ],
      "stateMutability": "nonpayable",
      "type": "function"
    },
    {
      "inputs": [
        {
          "internalType": "address",
          "name": "account",
          "type": "address"
        }
      ],
      "name": "balanceOf",
      "outputs": [
        {
          "internalType": "uint256",
          "name": "",
          "type": "uint256"
        }
      ],
      "stateMutability": "view",
      "type": "function"
    },
    {
      "inputs": [
        {
          "internalType": "uint256",
          "name": "_amount",
          "type": "uint256"
        }
      ],
      "name": "burn",
      "outputs": [
        {
          "internalType": "bool",
          "name": "",
          "type": "bool"
        }
      ],
      "stateMutability": "nonpayable",
      "type": "function"
    },
    {
      "inputs": [],
      "name": "decimals",
      "outputs": [
        {
          "internalType": "uint8",
          "name": "",
          "type": "uint8"
        }
      ],
      "stateMutability": "view",
      "type": "function"
    },
    {
      "inputs": [
        {
          "internalType": "address",
          "name": "spender",
          "type": "address"
        },
        {
          "internalType": "uint256",
          "name": "subtractedValue",
          "type": "uint256"
        }
      ],
      "name": "decreaseAllowance",
      "outputs": [
        {
          "internalType": "bool",
          "name": "",
          "type": "bool"
        }
      ],
      "stateMutability": "nonpayable",
      "type": "function"
    },
    {
      "inputs": [
        {
          "internalType": "address",
          "name": "_blackListedUser",
          "type": "address"
        }
      ],
      "name": "destroyBlackFunds",
      "outputs": [
        {
          "internalType": "bool",
          "name": "",
          "type": "bool"
        }
      ],
      "stateMutability": "nonpayable",
      "type": "function"
    },
    {
      "inputs": [
        {
          "internalType": "address",
          "name": "_maker",
          "type": "address"
        }
      ],
      "name": "getBlackListStatus",
      "outputs": [
        {
          "internalType": "bool",
          "name": "",
          "type": "bool"
        }
      ],
      "stateMutability": "view",
      "type": "function"
    },
    {
      "inputs": [
        {
          "internalType": "address",
          "name": "spender",
          "type": "address"
        },
        {
          "internalType": "uint256",
          "name": "addedValue",
          "type": "uint256"
        }
      ],
      "name": "increaseAllowance",
      "outputs": [
        {
          "internalType": "bool",
          "name": "",
          "type": "bool"
        }
      ],
      "stateMutability": "nonpayable",
      "type": "function"
    },
    {
      "inputs": [],
      "name": "initialize",
      "outputs": [],
      "stateMutability": "nonpayable",
      "type": "function"
    },
    {
      "inputs": [
        {
          "internalType": "uint256",
          "name": "_amount",
          "type": "uint256"
        },
        {
          "internalType": "address",
          "name": "_mintTo",
          "type": "address"
        }
      ],
      "name": "mint",
      "outputs": [
        {
          "internalType": "bool",
          "name": "",
          "type": "bool"
        }
      ],
      "stateMutability": "nonpayable",
      "type": "function"
    },
    {
      "inputs": [],
      "name": "name",
      "outputs": [
        {
          "internalType": "string",
          "name": "",
          "type": "string"
        }
      ],
      "stateMutability": "view",
      "type": "function"
    },
    {
      "inputs": [],
      "name": "owner",
      "outputs": [
        {
          "internalType": "address",
          "name": "",
          "type": "address"
        }
      ],
      "stateMutability": "view",
      "type": "function"
    },
    {
      "inputs": [],
      "name": "pause",
      "outputs": [
        {
          "internalType": "bool",
          "name": "",
          "type": "bool"
        }
      ],
      "stateMutability": "nonpayable",
      "type": "function"
    },
    {
      "inputs": [],
      "name": "paused",
      "outputs": [
        {
          "internalType": "bool",
          "name": "",
          "type": "bool"
        }
      ],
      "stateMutability": "view",
      "type": "function"
    },
    {
      "inputs": [
        {
          "internalType": "address",
          "name": "_clearedUser",
          "type": "address"
        }
      ],
      "name": "removeBlackList",
      "outputs": [
        {
          "internalType": "bool",
          "name": "",
          "type": "bool"
        }
      ],
      "stateMutability": "nonpayable",
      "type": "function"
    },
    {
      "inputs": [],
      "name": "renounceOwnership",
      "outputs": [],
      "stateMutability": "nonpayable",
      "type": "function"
    },
    {
      "inputs": [],
      "name": "symbol",
      "outputs": [
        {
          "internalType": "string",
          "name": "",
          "type": "string"
        }
      ],
      "stateMutability": "view",
      "type": "function"
    },
    {
      "inputs": [],
      "name": "totalSupply",
      "outputs": [
        {
          "internalType": "uint256",
          "name": "",
          "type": "uint256"
        }
      ],
      "stateMutability": "view",
      "type": "function"
    },
    {
      "inputs": [
        {
          "internalType": "address",
          "name": "to",
          "type": "address"
        },
        {
          "internalType": "uint256",
          "name": "amount",
          "type": "uint256"
        }
      ],
      "name": "transfer",
      "outputs": [
        {
          "internalType": "bool",
          "name": "",
          "type": "bool"
        }
      ],
      "stateMutability": "nonpayable",
      "type": "function"
    },
    {
      "inputs": [
        {
          "internalType": "address",
          "name": "from",
          "type": "address"
        },
        {
          "internalType": "address",
          "name": "to",
          "type": "address"
        },
        {
          "internalType": "uint256",
          "name": "amount",
          "type": "uint256"
        }
      ],
      "name": "transferFrom",
      "outputs": [
        {
          "internalType": "bool",
          "name": "",
          "type": "bool"
        }
      ],
      "stateMutability": "nonpayable",
      "type": "function"
    },
    {
      "inputs": [
        {
          "internalType": "address",
          "name": "newOwner",
          "type": "address"
        }
      ],
      "name": "transferOwnership",
      "outputs": [],
      "stateMutability": "nonpayable",
      "type": "function"
    },
    {
      "inputs": [],
      "name": "unPause",
      "outputs": [
        {
          "internalType": "bool",
          "name": "",
          "type": "bool"
        }
      ],
      "stateMutability": "nonpayable",
      "type": "function"
    }
  ],
  "bytecode": "0x608060405234801562000010575f80fd5b50620000216200002760201b60201c565b620001c7565b5f60019054906101000a900460ff161562000079576040517f08c379a000000000000000000000000000000000000000000000000000000000815260040162000070906200016f565b60405180910390fd5b60ff80165f8054906101000a900460ff1660ff161015620000e95760ff5f806101000a81548160ff021916908360ff1602179055507f7f26b83ff96e1f2b6a682f133852f6798a09c465da95921460cefb384740249860ff604051620000e09190620001ac565b60405180910390a15b565b5f82825260208201905092915050565b7f496e697469616c697a61626c653a20636f6e747261637420697320696e6974695f8201527f616c697a696e6700000000000000000000000000000000000000000000000000602082015250565b5f62000157602783620000eb565b91506200016482620000fb565b604082019050919050565b5f6020820190508181035f830152620001888162000149565b9050919050565b5f60ff82169050919050565b620001a6816200018f565b82525050565b5f602082019050620001c15f8301846200019b565b92915050565b612b8c80620001d55f395ff3fe608060405234801561000f575f80fd5b5060043610610156575f3560e01c80638129fc1c116100c1578063a9059cbb1161007a578063a9059cbb146103f0578063dd62ed3e14610420578063e4997dc514610450578063f2fde38b14610480578063f3bdc2281461049c578063f7b188a5146104cc57610156565b80638129fc1c1461032c5780638456cb59146103365780638da5cb5b1461035457806394bf804d1461037257806395d89b41146103a2578063a457c2d7146103c057610156565b80633950935111610113578063395093511461024457806342966c681461027457806359bf1abe146102a45780635c975abb146102d457806370a08231146102f2578063715018a61461032257610156565b806306fdde031461015a578063095ea7b3146101785780630ecb93c0146101a857806318160ddd146101d857806323b872dd146101f6578063313ce56714610226575b5f80fd5b6101626104ea565b60405161016f9190611c6a565b60405180910390f35b610192600480360381019061018d9190611d1b565b61057a565b60405161019f9190611d73565b60405180910390f35b6101c260048036038101906101bd9190611d8c565b61059c565b6040516101cf9190611d73565b60405180910390f35b6101e061063a565b6040516101ed9190611dc6565b60405180910390f35b610210600480360381019061020b9190611ddf565b610643565b60405161021d9190611d73565b60405180910390f35b61022e6106cc565b60405161023b9190611e4a565b60405180910390f35b61025e60048036038101906102599190611d1b565b6106d4565b60405161026b9190611d73565b60405180910390f35b61028e60048036038101906102899190611e63565b61070a565b60405161029b9190611d73565b60405180910390f35b6102be60048036038101906102b99190611d8c565b610726565b6040516102cb9190611d73565b60405180910390f35b6102dc610778565b6040516102e99190611d73565b60405180910390f35b61030c60048036038101906103079190611d8c565b61078d565b6040516103199190611dc6565b60405180910390f35b61032a6107d3565b005b6103346107e6565b005b61033e6109a2565b60405161034b9190611d73565b60405180910390f35b61035c6109c2565b6040516103699190611e9d565b60405180910390f35b61038c60048036038101906103879190611eb6565b6109ea565b6040516103999190611d73565b60405180910390f35b6103aa610a07565b6040516103b79190611c6a565b60405180910390f35b6103da60048036038101906103d59190611d1b565b610a97565b6040516103e79190611d73565b60405180910390f35b61040a60048036038101906104059190611d1b565b610b0c565b6040516104179190611d73565b60405180910390f35b61043a60048036038101906104359190611ef4565b610b89565b6040516104479190611dc6565b60405180910390f35b61046a60048036038101906104659190611d8c565b610c0b565b6040516104779190611d73565b60405180910390f35b61049a60048036038101906104959190611d8c565b610ca8565b005b6104b660048036038101906104b19190611d8c565b610d2a565b6040516104c39190611d73565b60405180910390f35b6104d4610e2e565b6040516104e19190611d73565b60405180910390f35b606060cd80546104f990611f5f565b80601f016020809104026020016040519081016040528092919081815260200182805461052590611f5f565b80156105705780601f1061054757610100808354040283529160200191610570565b820191905f5260205f20905b81548152906001019060200180831161055357829003601f168201915b5050505050905090565b5f80610584610e4e565b9050610591818585610e55565b600191505092915050565b5f6105a5611018565b600160cb5f8473ffffffffffffffffffffffffffffffffffffffff1673ffffffffffffffffffffffffffffffffffffffff1681526020019081526020015f205f6101000a81548160ff0219169083151502179055507f42e160154868087d6bfdc0ca23d96a1c1cfa32f1b72ba9ba27b69b98a0d819dc826040516106299190611e9d565b60405180910390a160019050919050565b5f60cc54905090565b5f61064c611096565b60cb5f8573ffffffffffffffffffffffffffffffffffffffff1673ffffffffffffffffffffffffffffffffffffffff1681526020019081526020015f205f9054906101000a900460ff161561069f575f80fd5b5f6106a8610e4e565b90506106b58582856110e0565b6106c085858561116b565b60019150509392505050565b5f6012905090565b5f806106de610e4e565b90506106ff8185856106f08589610b89565b6106fa9190611fbc565b610e55565b600191505092915050565b5f610713611018565b61071d33836113da565b60019050919050565b5f60cb5f8373ffffffffffffffffffffffffffffffffffffffff1673ffffffffffffffffffffffffffffffffffffffff1681526020019081526020015f205f9054906101000a900460ff169050919050565b5f60655f9054906101000a900460ff16905090565b5f60c95f8373ffffffffffffffffffffffffffffffffffffffff1673ffffffffffffffffffffffffffffffffffffffff1681526020019081526020015f20549050919050565b6107db611018565b6107e45f61159f565b565b5f8060019054906101000a900460ff16159050808015610815575060015f8054906101000a900460ff1660ff16105b80610841575061082430611662565b158015610840575060015f8054906101000a900460ff1660ff16145b5b610880576040517f08c379a00000000000000000000000000000000000000000000000000000000081526004016108779061205f565b60405180910390fd5b60015f806101000a81548160ff021916908360ff16021790555080156108bb5760015f60016101000a81548160ff0219169083151502179055505b61092f6040518060400160405280600481526020017f634e474e000000000000000000000000000000000000000000000000000000008152506040518060400160405280600481526020017f634e474e00000000000000000000000000000000000000000000000000000000815250611684565b6109376116e0565b61093f611738565b610947611790565b801561099f575f8060016101000a81548160ff0219169083151502179055507f7f26b83ff96e1f2b6a682f133852f6798a09c465da95921460cefb3847402498600160405161099691906120bf565b60405180910390a15b50565b5f6109ab611018565b6109b3611096565b6109bb6117e8565b6001905090565b5f60335f9054906101000a900473ffffffffffffffffffffffffffffffffffffffff16905090565b5f6109f3611018565b6109fd828461184a565b6001905092915050565b606060ce8054610a1690611f5f565b80601f0160208091040260200160405190810160405280929190818152602001828054610a4290611f5f565b8015610a8d5780601f10610a6457610100808354040283529160200191610a8d565b820191905f5260205f20905b815481529060010190602001808311610a7057829003601f168201915b5050505050905090565b5f80610aa1610e4e565b90505f610aae8286610b89565b905083811015610af3576040517f08c379a0000000000000000000000000000000000000000000000000000000008152600401610aea90612148565b60405180910390fd5b610b008286868403610e55565b60019250505092915050565b5f610b15611096565b60cb5f3373ffffffffffffffffffffffffffffffffffffffff1673ffffffffffffffffffffffffffffffffffffffff1681526020019081526020015f205f9054906101000a900460ff1615610b68575f80fd5b5f610b71610e4e565b9050610b7e81858561116b565b600191505092915050565b5f60ca5f8473ffffffffffffffffffffffffffffffffffffffff1673ffffffffffffffffffffffffffffffffffffffff1681526020019081526020015f205f8373ffffffffffffffffffffffffffffffffffffffff1673ffffffffffffffffffffffffffffffffffffffff1681526020019081526020015f2054905092915050565b5f610c14611018565b5f60cb5f8473ffffffffffffffffffffffffffffffffffffffff1673ffffffffffffffffffffffffffffffffffffffff1681526020019081526020015f205f6101000a81548160ff0219169083151502179055507fd7e9ec6e6ecd65492dce6bf513cd6867560d49544421d0783ddf06e76c24470c82604051610c979190611e9d565b60405180910390a160019050919050565b610cb0611018565b5f73ffffffffffffffffffffffffffffffffffffffff168173ffffffffffffffffffffffffffffffffffffffff1603610d1e576040517f08c379a0000000000000000000000000000000000000000000000000000000008152600401610d15906121d6565b60405180910390fd5b610d278161159f565b50565b5f610d33611018565b60cb5f8373ffffffffffffffffffffffffffffffffffffffff1673ffffffffffffffffffffffffffffffffffffffff1681526020019081526020015f205f9054906101000a900460ff16610d85575f80fd5b5f610d8f8361078d565b90505f60c95f8573ffffffffffffffffffffffffffffffffffffffff1673ffffffffffffffffffffffffffffffffffffffff1681526020019081526020015f20819055508060cc5f828254610de491906121f4565b925050819055507f61e6e66b0d6339b2980aecc6ccc0039736791f0ccde9ed512e789a7fbdd698c68382604051610e1c929190612227565b60405180910390a16001915050919050565b5f610e37611018565b610e3f611999565b610e476119e2565b6001905090565b5f33905090565b5f73ffffffffffffffffffffffffffffffffffffffff168373ffffffffffffffffffffffffffffffffffffffff1603610ec3576040517f08c379a0000000000000000000000000000000000000000000000000000000008152600401610eba906122be565b60405180910390fd5b5f73ffffffffffffffffffffffffffffffffffffffff168273ffffffffffffffffffffffffffffffffffffffff1603610f31576040517f08c379a0000000000000000000000000000000000000000000000000000000008152600401610f289061234c565b60405180910390fd5b8060ca5f8573ffffffffffffffffffffffffffffffffffffffff1673ffffffffffffffffffffffffffffffffffffffff1681526020019081526020015f205f8473ffffffffffffffffffffffffffffffffffffffff1673ffffffffffffffffffffffffffffffffffffffff1681526020019081526020015f20819055508173ffffffffffffffffffffffffffffffffffffffff168373ffffffffffffffffffffffffffffffffffffffff167f8c5be1e5ebec7d5bd14f71427d1e84f3dd0314c0f7b2291e5b200ac8c7c3b9258360405161100b9190611dc6565b60405180910390a3505050565b611020610e4e565b73ffffffffffffffffffffffffffffffffffffffff1661103e6109c2565b73ffffffffffffffffffffffffffffffffffffffff1614611094576040517f08c379a000000000000000000000000000000000000000000000000000000000815260040161108b906123b4565b60405180910390fd5b565b61109e610778565b156110de576040517f08c379a00000000000000000000000000000000000000000000000000000000081526004016110d59061241c565b60405180910390fd5b565b5f6110eb8484610b89565b90507fffffffffffffffffffffffffffffffffffffffffffffffffffffffffffffffff81146111655781811015611157576040517f08c379a000000000000000000000000000000000000000000000000000000000815260040161114e90612484565b60405180910390fd5b6111648484848403610e55565b5b50505050565b5f73ffffffffffffffffffffffffffffffffffffffff168373ffffffffffffffffffffffffffffffffffffffff16036111d9576040517f08c379a00000000000000000000000000000000000000000000000000000000081526004016111d090612512565b60405180910390fd5b5f73ffffffffffffffffffffffffffffffffffffffff168273ffffffffffffffffffffffffffffffffffffffff1603611247576040517f08c379a000000000000000000000000000000000000000000000000000000000815260040161123e906125a0565b60405180910390fd5b611252838383611a43565b5f60c95f8573ffffffffffffffffffffffffffffffffffffffff1673ffffffffffffffffffffffffffffffffffffffff1681526020019081526020015f20549050818110156112d6576040517f08c379a00000000000000000000000000000000000000000000000000000000081526004016112cd9061262e565b60405180910390fd5b81810360c95f8673ffffffffffffffffffffffffffffffffffffffff1673ffffffffffffffffffffffffffffffffffffffff1681526020019081526020015f20819055508160c95f8573ffffffffffffffffffffffffffffffffffffffff1673ffffffffffffffffffffffffffffffffffffffff1681526020019081526020015f205f82825401925050819055508273ffffffffffffffffffffffffffffffffffffffff168473ffffffffffffffffffffffffffffffffffffffff167fddf252ad1be2c89b69c2b068fc378daa952ba7f163c4a11628f55a4df523b3ef846040516113c19190611dc6565b60405180910390a36113d4848484611a48565b50505050565b5f73ffffffffffffffffffffffffffffffffffffffff168273ffffffffffffffffffffffffffffffffffffffff1603611448576040517f08c379a000000000000000000000000000000000000000000000000000000000815260040161143f906126bc565b60405180910390fd5b611453825f83611a43565b5f60c95f8473ffffffffffffffffffffffffffffffffffffffff1673ffffffffffffffffffffffffffffffffffffffff1681526020019081526020015f20549050818110156114d7576040517f08c379a00000000000000000000000000000000000000000000000000000000081526004016114ce9061274a565b60405180910390fd5b81810360c95f8573ffffffffffffffffffffffffffffffffffffffff1673ffffffffffffffffffffffffffffffffffffffff1681526020019081526020015f20819055508160cc5f82825403925050819055505f73ffffffffffffffffffffffffffffffffffffffff168373ffffffffffffffffffffffffffffffffffffffff167fddf252ad1be2c89b69c2b068fc378daa952ba7f163c4a11628f55a4df523b3ef846040516115879190611dc6565b60405180910390a361159a835f84611a48565b505050565b5f60335f9054906101000a900473ffffffffffffffffffffffffffffffffffffffff1690508160335f6101000a81548173ffffffffffffffffffffffffffffffffffffffff021916908373ffffffffffffffffffffffffffffffffffffffff1602179055508173ffffffffffffffffffffffffffffffffffffffff168173ffffffffffffffffffffffffffffffffffffffff167f8be0079c531659141344cd1fd0a4f28419497f9722a3daafe3b4186f6b6457e060405160405180910390a35050565b5f808273ffffffffffffffffffffffffffffffffffffffff163b119050919050565b5f60019054906101000a900460ff166116d2576040517f08c379a00000000000000000000000000000000000000000000000000000000081526004016116c9906127d8565b60405180910390fd5b6116dc8282611a4d565b5050565b5f60019054906101000a900460ff1661172e576040517f08c379a0000000000000000000000000000000000000000000000000000000008152600401611725906127d8565b60405180910390fd5b611736611abf565b565b5f60019054906101000a900460ff16611786576040517f08c379a000000000000000000000000000000000000000000000000000000000815260040161177d906127d8565b60405180910390fd5b61178e611b1f565b565b5f60019054906101000a900460ff166117de576040517f08c379a00000000000000000000000000000000000000000000000000000000081526004016117d5906127d8565b60405180910390fd5b6117e6611b88565b565b6117f0611096565b600160655f6101000a81548160ff0219169083151502179055507f62e78cea01bee320cd4e420270b5ea74000d11b0c9f74754ebdbfc544b05a258611833610e4e565b6040516118409190611e9d565b60405180910390a1565b5f73ffffffffffffffffffffffffffffffffffffffff168273ffffffffffffffffffffffffffffffffffffffff16036118b8576040517f08c379a00000000000000000000000000000000000000000000000000000000081526004016118af90612840565b60405180910390fd5b6118c35f8383611a43565b8060cc5f8282546118d49190611fbc565b925050819055508060c95f8473ffffffffffffffffffffffffffffffffffffffff1673ffffffffffffffffffffffffffffffffffffffff1681526020019081526020015f205f82825401925050819055508173ffffffffffffffffffffffffffffffffffffffff165f73ffffffffffffffffffffffffffffffffffffffff167fddf252ad1be2c89b69c2b068fc378daa952ba7f163c4a11628f55a4df523b3ef836040516119829190611dc6565b60405180910390a36119955f8383611a48565b5050565b6119a1610778565b6119e0576040517f08c379a00000000000000000000000000000000000000000000000000000000081526004016119d7906128a8565b60405180910390fd5b565b6119ea611999565b5f60655f6101000a81548160ff0219169083151502179055507f5db9ee0a495bf2e6ff9c91a7834c1ba4fdd244a5e8aa4e537bd38aeae4b073aa611a2c610e4e565b604051611a399190611e9d565b60405180910390a1565b505050565b505050565b5f60019054906101000a900460ff16611a9b576040517f08c379a0000000000000000000000000000000000000000000000000000000008152600401611a92906127d8565b60405180910390fd5b8160cd9081611aaa9190612a87565b508060ce9081611aba9190612a87565b505050565b5f60019054906101000a900460ff16611b0d576040517f08c379a0000000000000000000000000000000000000000000000000000000008152600401611b04906127d8565b60405180910390fd5b611b1d611b18610e4e565b61159f565b565b5f60019054906101000a900460ff16611b6d576040517f08c379a0000000000000000000000000000000000000000000000000000000008152600401611b64906127d8565b60405180910390fd5b5f60655f6101000a81548160ff021916908315150217905550565b5f60019054906101000a900460ff16611bd6576040517f08c379a0000000000000000000000000000000000000000000000000000000008152600401611bcd906127d8565b60405180910390fd5b6001609781905550565b5f81519050919050565b5f82825260208201905092915050565b5f5b83811015611c17578082015181840152602081019050611bfc565b5f8484015250505050565b5f601f19601f8301169050919050565b5f611c3c82611be0565b611c468185611bea565b9350611c56818560208601611bfa565b611c5f81611c22565b840191505092915050565b5f6020820190508181035f830152611c828184611c32565b905092915050565b5f80fd5b5f73ffffffffffffffffffffffffffffffffffffffff82169050919050565b5f611cb782611c8e565b9050919050565b611cc781611cad565b8114611cd1575f80fd5b50565b5f81359050611ce281611cbe565b92915050565b5f819050919050565b611cfa81611ce8565b8114611d04575f80fd5b50565b5f81359050611d1581611cf1565b92915050565b5f8060408385031215611d3157611d30611c8a565b5b5f611d3e85828601611cd4565b9250506020611d4f85828601611d07565b9150509250929050565b5f8115159050919050565b611d6d81611d59565b82525050565b5f602082019050611d865f830184611d64565b92915050565b5f60208284031215611da157611da0611c8a565b5b5f611dae84828501611cd4565b91505092915050565b611dc081611ce8565b82525050565b5f602082019050611dd95f830184611db7565b92915050565b5f805f60608486031215611df657611df5611c8a565b5b5f611e0386828701611cd4565b9350506020611e1486828701611cd4565b9250506040611e2586828701611d07565b9150509250925092565b5f60ff82169050919050565b611e4481611e2f565b82525050565b5f602082019050611e5d5f830184611e3b565b92915050565b5f60208284031215611e7857611e77611c8a565b5b5f611e8584828501611d07565b91505092915050565b611e9781611cad565b82525050565b5f602082019050611eb05f830184611e8e565b92915050565b5f8060408385031215611ecc57611ecb611c8a565b5b5f611ed985828601611d07565b9250506020611eea85828601611cd4565b9150509250929050565b5f8060408385031215611f0a57611f09611c8a565b5b5f611f1785828601611cd4565b9250506020611f2885828601611cd4565b9150509250929050565b7f4e487b71000000000000000000000000000000000000000000000000000000005f52602260045260245ffd5b5f6002820490506001821680611f7657607f821691505b602082108103611f8957611f88611f32565b5b50919050565b7f4e487b71000000000000000000000000000000000000000000000000000000005f52601160045260245ffd5b5f611fc682611ce8565b9150611fd183611ce8565b9250828201905080821115611fe957611fe8611f8f565b5b92915050565b7f496e697469616c697a61626c653a20636f6e747261637420697320616c7265615f8201527f647920696e697469616c697a6564000000000000000000000000000000000000602082015250565b5f612049602e83611bea565b915061205482611fef565b604082019050919050565b5f6020820190508181035f8301526120768161203d565b9050919050565b5f819050919050565b5f819050919050565b5f6120a96120a461209f8461207d565b612086565b611e2f565b9050919050565b6120b98161208f565b82525050565b5f6020820190506120d25f8301846120b0565b92915050565b7f45524332303a2064656372656173656420616c6c6f77616e63652062656c6f775f8201527f207a65726f000000000000000000000000000000000000000000000000000000602082015250565b5f612132602583611bea565b915061213d826120d8565b604082019050919050565b5f6020820190508181035f83015261215f81612126565b9050919050565b7f4f776e61626c653a206e6577206f776e657220697320746865207a65726f20615f8201527f6464726573730000000000000000000000000000000000000000000000000000602082015250565b5f6121c0602683611bea565b91506121cb82612166565b604082019050919050565b5f6020820190508181035f8301526121ed816121b4565b9050919050565b5f6121fe82611ce8565b915061220983611ce8565b925082820390508181111561222157612220611f8f565b5b92915050565b5f60408201905061223a5f830185611e8e565b6122476020830184611db7565b9392505050565b7f45524332303a20617070726f76652066726f6d20746865207a65726f206164645f8201527f7265737300000000000000000000000000000000000000000000000000000000602082015250565b5f6122a8602483611bea565b91506122b38261224e565b604082019050919050565b5f6020820190508181035f8301526122d58161229c565b9050919050565b7f45524332303a20617070726f766520746f20746865207a65726f2061646472655f8201527f7373000000000000000000000000000000000000000000000000000000000000602082015250565b5f612336602283611bea565b9150612341826122dc565b604082019050919050565b5f6020820190508181035f8301526123638161232a565b9050919050565b7f4f776e61626c653a2063616c6c6572206973206e6f7420746865206f776e65725f82015250565b5f61239e602083611bea565b91506123a98261236a565b602082019050919050565b5f6020820190508181035f8301526123cb81612392565b9050919050565b7f5061757361626c653a20706175736564000000000000000000000000000000005f82015250565b5f612406601083611bea565b9150612411826123d2565b602082019050919050565b5f6020820190508181035f830152612433816123fa565b9050919050565b7f45524332303a20696e73756666696369656e7420616c6c6f77616e63650000005f82015250565b5f61246e601d83611bea565b91506124798261243a565b602082019050919050565b5f6020820190508181035f83015261249b81612462565b9050919050565b7f45524332303a207472616e736665722066726f6d20746865207a65726f2061645f8201527f6472657373000000000000000000000000000000000000000000000000000000602082015250565b5f6124fc602583611bea565b9150612507826124a2565b604082019050919050565b5f6020820190508181035f830152612529816124f0565b9050919050565b7f45524332303a207472616e7366657220746f20746865207a65726f20616464725f8201527f6573730000000000000000000000000000000000000000000000000000000000602082015250565b5f61258a602383611bea565b915061259582612530565b604082019050919050565b5f6020820190508181035f8301526125b78161257e565b9050919050565b7f45524332303a207472616e7366657220616d6f756e74206578636565647320625f8201527f616c616e63650000000000000000000000000000000000000000000000000000602082015250565b5f612618602683611bea565b9150612623826125be565b604082019050919050565b5f6020820190508181035f8301526126458161260c565b9050919050565b7f45524332303a206275726e2066726f6d20746865207a65726f206164647265735f8201527f7300000000000000000000000000000000000000000000000000000000000000602082015250565b5f6126a6602183611bea565b91506126b18261264c565b604082019050919050565b5f6020820190508181035f8301526126d38161269a565b9050919050565b7f45524332303a206275726e20616d6f756e7420657863656564732062616c616e5f8201527f6365000000000000000000000000000000000000000000000000000000000000602082015250565b5f612734602283611bea565b915061273f826126da565b604082019050919050565b5f6020820190508181035f83015261276181612728565b9050919050565b7f496e697469616c697a61626c653a20636f6e7472616374206973206e6f7420695f8201527f6e697469616c697a696e67000000000000000000000000000000000000000000602082015250565b5f6127c2602b83611bea565b91506127cd82612768565b604082019050919050565b5f6020820190508181035f8301526127ef816127b6565b9050919050565b7f45524332303a206d696e7420746f20746865207a65726f2061646472657373005f82015250565b5f61282a601f83611bea565b9150612835826127f6565b602082019050919050565b5f6020820190508181035f8301526128578161281e565b9050919050565b7f5061757361626c653a206e6f74207061757365640000000000000000000000005f82015250565b5f612892601483611bea565b915061289d8261285e565b602082019050919050565b5f6020820190508181035f8301526128bf81612886565b9050919050565b7f4e487b71000000000000000000000000000000000000000000000000000000005f52604160045260245ffd5b5f819050815f5260205f209050919050565b5f6020601f8301049050919050565b5f82821b905092915050565b5f6008830261294f7fffffffffffffffffffffffffffffffffffffffffffffffffffffffffffffffff82612914565b6129598683612914565b95508019841693508086168417925050509392505050565b5f61298b61298661298184611ce8565b612086565b611ce8565b9050919050565b5f819050919050565b6129a483612971565b6129b86129b082612992565b848454612920565b825550505050565b5f90565b6129cc6129c0565b6129d781848461299b565b505050565b5b818110156129fa576129ef5f826129c4565b6001810190506129dd565b5050565b601f821115612a3f57612a10816128f3565b612a1984612905565b81016020851015612a28578190505b612a3c612a3485612905565b8301826129dc565b50505b505050565b5f82821c905092915050565b5f612a5f5f1984600802612a44565b1980831691505092915050565b5f612a778383612a50565b9150826002028217905092915050565b612a9082611be0565b67ffffffffffffffff811115612aa957612aa86128c6565b5b612ab38254611f5f565b612abe8282856129fe565b5f60209050601f831160018114612aef575f8415612add578287015190505b612ae78582612a6c565b865550612b4e565b601f198416612afd866128f3565b5f5b82811015612b2457848901518255600182019150602085019450602081019050612aff565b86831015612b415784890151612b3d601f891682612a50565b8355505b6001600288020188555050505b50505050505056fea26469706673582212205ce48362568f4f5812b65fa221727fb740fdd948c630ed7a0882b498517edf5064736f6c63430008170033",
  "linkReferences": {},
  "deployedLinkReferences": {}
}