{
  "contractName": "Admin",
  "abi": [
    {
      "anonymous": false,
      "inputs": [
        {
          "indexed": true,
          "internalType": "address",
          "name": "_user",
          "type": "address"
        }
      ],
      "name": "AddedBlackList",
      "type": "event"
    },
    {
      "anonymous": false,
      "inputs": [
        {
          "indexed": false,
          "internalType": "address",
          "name": "previousAdmin",
          "type": "address"
        },
        {
          "indexed": false,
          "internalType": "address",
          "name": "newAdmin",
          "type": "address"
        }
      ],
      "name": "AdminChanged",
      "type": "event"
    },
    {
      "anonymous": false,
      "inputs": [
        {
          "indexed": true,
          "internalType": "address",
          "name": "beacon",
          "type": "address"
        }
      ],
      "name": "BeaconUpgraded",
      "type": "event"
    },
    {
      "anonymous": false,
      "inputs": [
        {
          "indexed": true,
          "internalType": "address",
          "name": "_user",
          "type": "address"
        }
      ],
      "name": "BlackListedContract",
      "type": "event"
    },
    {
      "anonymous": false,
      "inputs": [
        {
          "indexed": true,
          "internalType": "address",
          "name": "_user",
          "type": "address"
        }
      ],
      "name": "BlackListedExternalSender",
      "type": "event"
    },
    {
      "anonymous": false,
      "inputs": [
        {
          "indexed": true,
          "internalType": "address",
          "name": "_user",
          "type": "address"
        }
      ],
      "name": "BlackListedForwarder",
      "type": "event"
    },
    {
      "anonymous": false,
      "inputs": [
        {
          "indexed": true,
          "internalType": "address",
          "name": "_user",
          "type": "address"
        }
      ],
      "name": "BlackListedInternalUser",
      "type": "event"
    },
    {
      "anonymous": false,
      "inputs": [
        {
          "indexed": true,
          "internalType": "address",
          "name": "_user",
          "type": "address"
        }
      ],
      "name": "BlackListedMinter",
      "type": "event"
    },
    {
      "anonymous": false,
      "inputs": [
        {
          "indexed": false,
          "internalType": "uint8",
          "name": "version",
          "type": "uint8"
        }
      ],
      "name": "Initialized",
      "type": "event"
    },
    {
      "anonymous": false,
      "inputs": [
        {
          "indexed": true,
          "internalType": "address",
          "name": "_user",
          "type": "address"
        }
      ],
      "name": "MintAmountAdded",
      "type": "event"
    },
    {
      "anonymous": false,
      "inputs": [
        {
          "indexed": true,
          "internalType": "address",
          "name": "_user",
          "type": "address"
        }
      ],
      "name": "MintAmountRemoved",
      "type": "event"
    },
    {
      "anonymous": false,
      "inputs": [
        {
          "indexed": true,
          "internalType": "address",
          "name": "previousOwner",
          "type": "address"
        },
        {
          "indexed": true,
          "internalType": "address",
          "name": "newOwner",
          "type": "address"
        }
      ],
      "name": "OwnershipTransferred",
      "type": "event"
    },
    {
      "anonymous": false,
      "inputs": [
        {
          "indexed": true,
          "internalType": "address",
          "name": "_user",
          "type": "address"
        }
      ],
      "name": "RemovedBlackList",
      "type": "event"
    },
    {
      "anonymous": false,
      "inputs": [
        {
          "indexed": true,
          "internalType": "address",
          "name": "implementation",
          "type": "address"
        }
      ],
      "name": "Upgraded",
      "type": "event"
    },
    {
      "anonymous": false,
      "inputs": [
        {
          "indexed": true,
          "internalType": "address",
          "name": "_user",
          "type": "address"
        }
      ],
      "name": "WhitelistedContract",
      "type": "event"
    },
    {
      "anonymous": false,
      "inputs": [
        {
          "indexed": true,
          "internalType": "address",
          "name": "_user",
          "type": "address"
        }
      ],
      "name": "WhitelistedExternalSender",
      "type": "event"
    },
    {
      "anonymous": false,
      "inputs": [
        {
          "indexed": true,
          "internalType": "address",
          "name": "_user",
          "type": "address"
        }
      ],
      "name": "WhitelistedForwarder",
      "type": "event"
    },
    {
      "anonymous": false,
      "inputs": [
        {
          "indexed": true,
          "internalType": "address",
          "name": "_user",
          "type": "address"
        }
      ],
      "name": "WhitelistedInternalUser",
      "type": "event"
    },
    {
      "anonymous": false,
      "inputs": [
        {
          "indexed": true,
          "internalType": "address",
          "name": "_user",
          "type": "address"
        }
      ],
      "name": "WhitelistedMinter",
      "type": "event"
    },
    {
      "inputs": [
        {
          "internalType": "address",
          "name": "_User",
          "type": "address"
        }
      ],
      "name": "AddCanForward",
      "outputs": [
        {
          "internalType": "bool",
          "name": "",
          "type": "bool"
        }
      ],
      "stateMutability": "nonpayable",
      "type": "function"
    },
    {
      "inputs": [
        {
          "internalType": "address",
          "name": "_User",
          "type": "address"
        }
      ],
      "name": "AddCanMint",
      "outputs": [
        {
          "internalType": "bool",
          "name": "",
          "type": "bool"
        }
      ],
      "stateMutability": "nonpayable",
      "type": "function"
    },
    {
      "inputs": [
        {
          "internalType": "address",
          "name": "_User",
          "type": "address"
        }
      ],
      "name": "RemoveCanForward",
      "outputs": [
        {
          "internalType": "bool",
          "name": "",
          "type": "bool"
        }
      ],
      "stateMutability": "nonpayable",
      "type": "function"
    },
    {
      "inputs": [
        {
          "internalType": "address",
          "name": "_User",
          "type": "address"
        }
      ],
      "name": "RemoveCanMint",
      "outputs": [
        {
          "internalType": "bool",
          "name": "",
          "type": "bool"
        }
      ],
      "stateMutability": "nonpayable",
      "type": "function"
    },
    {
      "inputs": [
        {
          "internalType": "address",
          "name": "_trustedContract",
          "type": "address"
        }
      ],
      "name": "addTrustedContract",
      "outputs": [
        {
          "internalType": "bool",
          "name": "",
          "type": "bool"
        }
      ],
      "stateMutability": "nonpayable",
      "type": "function"
    },
    {
      "inputs": [
        {
          "internalType": "address",
          "name": "_User",
          "type": "address"
        }
      ],
      "name": "blacklistExternalSender",
      "outputs": [
        {
          "internalType": "bool",
          "name": "",
          "type": "bool"
        }
      ],
      "stateMutability": "nonpayable",
      "type": "function"
    },
    {
      "inputs": [
        {
          "internalType": "address",
          "name": "_User",
          "type": "address"
        }
      ],
      "name": "blacklistInternalUser",
      "outputs": [
        {
          "internalType": "bool",
          "name": "",
          "type": "bool"
        }
      ],
      "stateMutability": "nonpayable",
      "type": "function"
    },
    {
      "inputs": [
        {
          "internalType": "address",
          "name": "",
          "type": "address"
        }
      ],
      "name": "canForward",
      "outputs": [
        {
          "internalType": "bool",
          "name": "",
          "type": "bool"
        }
      ],
      "stateMutability": "view",
      "type": "function"
    },
    {
      "inputs": [
        {
          "internalType": "address",
          "name": "",
          "type": "address"
        }
      ],
      "name": "canMint",
      "outputs": [
        {
          "internalType": "bool",
          "name": "",
          "type": "bool"
        }
      ],
      "stateMutability": "view",
      "type": "function"
    },
    {
      "inputs": [],
      "name": "initialize",
      "outputs": [],
      "stateMutability": "nonpayable",
      "type": "function"
    },
    {
      "inputs": [
        {
          "internalType": "address",
          "name": "",
          "type": "address"
        }
      ],
      "name": "isBlackListed",
      "outputs": [
        {
          "internalType": "bool",
          "name": "",
          "type": "bool"
        }
      ],
      "stateMutability": "view",
      "type": "function"
    },
    {
      "inputs": [
        {
          "internalType": "address",
          "name": "",
          "type": "address"
        }
      ],
      "name": "isExternalSenderWhitelisted",
      "outputs": [
        {
          "internalType": "bool",
          "name": "",
          "type": "bool"
        }
      ],
      "stateMutability": "view",
      "type": "function"
    },
    {
      "inputs": [
        {
          "internalType": "address",
          "name": "",
          "type": "address"
        }
      ],
      "name": "isInternalUserWhitelisted",
      "outputs": [
        {
          "internalType": "bool",
          "name": "",
          "type": "bool"
        }
      ],
      "stateMutability": "view",
      "type": "function"
    },
    {
      "inputs": [
        {
          "internalType": "address",
          "name": "",
          "type": "address"
        }
      ],
      "name": "mintAmount",
      "outputs": [
        {
          "internalType": "uint256",
          "name": "",
          "type": "uint256"
        }
      ],
      "stateMutability": "view",
      "type": "function"
    },
    {
      "inputs": [],
      "name": "owner",
      "outputs": [
        {
          "internalType": "address",
          "name": "",
          "type": "address"
        }
      ],
      "stateMutability": "view",
      "type": "function"
    },
    {
      "inputs": [],
      "name": "proxiableUUID",
      "outputs": [
        {
          "internalType": "bytes32",
          "name": "",
          "type": "bytes32"
        }
      ],
      "stateMutability": "view",
      "type": "function"
    },
    {
      "inputs": [
        {
          "internalType": "address",
          "name": "_trustedContract",
          "type": "address"
        }
      ],
      "name": "removeTrustedContract",
      "outputs": [
        {
          "internalType": "bool",
          "name": "",
          "type": "bool"
        }
      ],
      "stateMutability": "nonpayable",
      "type": "function"
    },
    {
      "inputs": [],
      "name": "renounceOwnership",
      "outputs": [],
      "stateMutability": "nonpayable",
      "type": "function"
    },
    {
      "inputs": [
        {
          "internalType": "address",
          "name": "newOwner",
          "type": "address"
        }
      ],
      "name": "transferOwnership",
      "outputs": [],
      "stateMutability": "nonpayable",
      "type": "function"
    },
    {
      "inputs": [
        {
          "internalType": "address",
          "name": "",
          "type": "address"
        }
      ],
      "name": "trustedContract",
      "outputs": [
        {
          "internalType": "bool",
          "name": "",
          "type": "bool"
        }
      ],
      "stateMutability": "view",
      "type": "function"
    },
    {
      "inputs": [
        {
          "internalType": "address",
          "name": "newImplementation",
          "type": "address"
        }
      ],
      "name": "upgradeTo",
      "outputs": [],
      "stateMutability": "nonpayable",
      "type": "function"
    },
    {
      "inputs": [
        {
          "internalType": "address",
          "name": "newImplementation",
          "type": "address"
        },
        {
          "internalType": "bytes",
          "name": "data",
          "type": "bytes"
        }
      ],
      "name": "upgradeToAndCall",
      "outputs": [],
      "stateMutability": "payable",
      "type": "function"
    },
    {
      "inputs": [
        {
          "internalType": "address",
          "name": "_User",
          "type": "address"
        }
      ],
      "name": "whitelistExternalSender",
      "outputs": [
        {
          "internalType": "bool",
          "name": "",
          "type": "bool"
        }
      ],
      "stateMutability": "nonpayable",
      "type": "function"
    },
    {
      "inputs": [
        {
          "internalType": "address",
          "name": "_User",
          "type": "address"
        }
      ],
      "name": "whitelistInternalUser",
      "outputs": [
        {
          "internalType": "bool",
          "name": "",
          "type": "bool"
        }
      ],
      "stateMutability": "nonpayable",
      "type": "function"
    }
  ],
  "bytecode": "0x60a06040523060805234801561001457600080fd5b50d3801561002157600080fd5b50d2801561002e57600080fd5b50608051611e2f61006660003960008181610b4801528181610b8801528181610c2801528181610c680152610cfb0152611e2f6000f3fe60806040526004361061014b5760003560e01c80638061f132116100b6578063c2ba47441161006f578063c2ba474414610598578063e160587f146105e2578063e47d60601461061c578063ed10ed7914610667578063f0314df0146106a1578063f2fde38b146106db57600080fd5b80638061f1321461042f5780638129fc1c146104795780638da5cb5b146104a85780639e1a15f0146104ea578063b85282a314610524578063bf892eaa1461055e57600080fd5b80634f1ef286116101085780634f1ef286146102ef57806352d1902d14610302578063542f16d4146103315780635efd37651461036b57806365edf610146103b6578063715018a61461040057600080fd5b80630547369b14610150578063055d822c1461019f57806318fbf380146101f45780632be720b11461022e5780633659cfe6146102685780633fd0966e146102a4575b600080fd5b34801561015c57600080fd5b50d3801561016957600080fd5b50d2801561017657600080fd5b5061018a610185366004611af3565b610715565b60405190151581526020015b60405180910390f35b3480156101ab57600080fd5b50d380156101b857600080fd5b50d280156101c557600080fd5b506101e66101d4366004611af3565b60fd6020526000908152604090205481565b604051908152602001610196565b34801561020057600080fd5b50d3801561020d57600080fd5b50d2801561021a57600080fd5b5061018a610229366004611af3565b61084f565b34801561023a57600080fd5b50d3801561024757600080fd5b50d2801561025457600080fd5b5061018a610263366004611af3565b610a03565b34801561027457600080fd5b50d3801561028157600080fd5b50d2801561028e57600080fd5b506102a261029d366004611af3565b610b3d565b005b3480156102b057600080fd5b50d380156102bd57600080fd5b50d280156102ca57600080fd5b5061018a6102d9366004611af3565b6101016020526000908152604090205460ff1681565b6102a26102fd366004611b24565b610c1d565b34801561030e57600080fd5b50d3801561031b57600080fd5b50d2801561032857600080fd5b506101e6610cee565b34801561033d57600080fd5b50d3801561034a57600080fd5b50d2801561035757600080fd5b5061018a610366366004611af3565b610da1565b34801561037757600080fd5b50d3801561038457600080fd5b50d2801561039157600080fd5b5061018a6103a0366004611af3565b6101006020526000908152604090205460ff1681565b3480156103c257600080fd5b50d380156103cf57600080fd5b50d280156103dc57600080fd5b5061018a6103eb366004611af3565b60fb6020526000908152604090205460ff1681565b34801561040c57600080fd5b50d3801561041957600080fd5b50d2801561042657600080fd5b506102a2610e97565b34801561043b57600080fd5b50d3801561044857600080fd5b50d2801561045557600080fd5b5061018a610464366004611af3565b60fe6020526000908152604090205460ff1681565b34801561048557600080fd5b50d3801561049257600080fd5b50d2801561049f57600080fd5b506102a2610eab565b3480156104b457600080fd5b50d380156104c157600080fd5b50d280156104ce57600080fd5b506033546040516001600160a01b039091168152602001610196565b3480156104f657600080fd5b50d3801561050357600080fd5b50d2801561051057600080fd5b5061018a61051f366004611af3565b610ffd565b34801561053057600080fd5b50d3801561053d57600080fd5b50d2801561054a57600080fd5b5061018a610559366004611af3565b6110f3565b34801561056a57600080fd5b50d3801561057757600080fd5b50d2801561058457600080fd5b5061018a610593366004611af3565b6111f1565b3480156105a457600080fd5b50d380156105b157600080fd5b50d280156105be57600080fd5b5061018a6105cd366004611af3565b60fc6020526000908152604090205460ff1681565b3480156105ee57600080fd5b50d380156105fb57600080fd5b50d2801561060857600080fd5b5061018a610617366004611af3565b611220565b34801561062857600080fd5b50d3801561063557600080fd5b50d2801561064257600080fd5b5061018a610651366004611af3565b60ff602081905260009182526040909120541681565b34801561067357600080fd5b50d3801561068057600080fd5b50d2801561068d57600080fd5b5061018a61069c366004611af3565b61131e565b3480156106ad57600080fd5b50d380156106ba57600080fd5b50d280156106c757600080fd5b5061018a6106d6366004611af3565b6114c8565b3480156106e757600080fd5b50d380156106f457600080fd5b50d2801561070157600080fd5b506102a2610710366004611af3565b6114fb565b6033546000906001600160a01b0316331480610740575033600090815260fe602052604090205460ff165b6107655760405162461bcd60e51b815260040161075c90611be6565b60405180910390fd5b6001600160a01b038216600090815260ff6020819052604090912054839116156107a15760405162461bcd60e51b815260040161075c90611c0e565b6001600160a01b038316600090815260fc602052604090205460ff166108005760405162461bcd60e51b81526020600482015260146024820152732ab9b2b91034b9903737ba10309036b4b73a32b960611b604482015260640161075c565b6001600160a01b038316600081815260fc6020526040808220805460ff19169055517fb8d6072435c030a71f32e447622d98725fd3f3540e1dc57720bb54b17ca3af899190a250600192915050565b6033546000906001600160a01b031633148061087a575033600090815260fe602052604090205460ff165b6108965760405162461bcd60e51b815260040161075c90611be6565b6001600160a01b038216600090815260ff6020819052604090912054839116156108d25760405162461bcd60e51b815260040161075c90611c0e565b6001600160a01b03831660009081526101006020526040902054839060ff166109475760405162461bcd60e51b815260206004820152602160248201527f4e6f7420612077686974656c69737465642065787465726e616c2073656e64656044820152603960f91b606482015260840161075c565b6001600160a01b038416600090815260fb602052604090205460ff16156109b05760405162461bcd60e51b815260206004820152601f60248201527f5573657220616c726561647920616464656420617320666f7277617264657200604482015260640161075c565b6001600160a01b038416600081815260fb6020526040808220805460ff19166001179055517f6570102f70c9f7018c7b17caf1de30d3c3861a41bafd23f66ac943e448c50b5c9190a25060019392505050565b6033546000906001600160a01b0316331480610a2e575033600090815260fe602052604090205460ff165b610a4a5760405162461bcd60e51b815260040161075c90611be6565b6001600160a01b038216600090815260ff602081905260409091205483911615610a865760405162461bcd60e51b815260040161075c90611c0e565b6001600160a01b038316600090815260fb602052604090205460ff16610aee5760405162461bcd60e51b815260206004820152601760248201527f55736572206973206e6f74206120666f72776172646572000000000000000000604482015260640161075c565b6001600160a01b038316600081815260fb6020526040808220805460ff19169055517fa7faa16f6ece47894ac31f42e1301d11bd28001e31aaac4e028c4f80757e0dc39190a250600192915050565b306001600160a01b037f0000000000000000000000000000000000000000000000000000000000000000161415610b865760405162461bcd60e51b815260040161075c90611c3b565b7f00000000000000000000000000000000000000000000000000000000000000006001600160a01b0316610bcf600080516020611db3833981519152546001600160a01b031690565b6001600160a01b031614610bf55760405162461bcd60e51b815260040161075c90611c87565b610bfe81611571565b60408051600080825260208201909252610c1a91839190611579565b50565b306001600160a01b037f0000000000000000000000000000000000000000000000000000000000000000161415610c665760405162461bcd60e51b815260040161075c90611c3b565b7f00000000000000000000000000000000000000000000000000000000000000006001600160a01b0316610caf600080516020611db3833981519152546001600160a01b031690565b6001600160a01b031614610cd55760405162461bcd60e51b815260040161075c90611c87565b610cde82611571565b610cea82826001611579565b5050565b6000306001600160a01b037f00000000000000000000000000000000000000000000000000000000000000001614610d8e5760405162461bcd60e51b815260206004820152603860248201527f555550535570677261646561626c653a206d757374206e6f742062652063616c60448201527f6c6564207468726f7567682064656c656761746563616c6c0000000000000000606482015260840161075c565b50600080516020611db383398151915290565b6033546000906001600160a01b0316331480610dcc575033600090815260fe602052604090205460ff165b610de85760405162461bcd60e51b815260040161075c90611be6565b6001600160a01b0382166000908152610100602052604090205460ff16610e485760405162461bcd60e51b8152602060048201526014602482015273155cd95c881b9bdd081dda1a5d195b1a5cdd195960621b604482015260640161075c565b6001600160a01b03821660008181526101006020526040808220805460ff19169055517f99af21e3b1fe524ff7364b59a8df3562393f2e5eb5d1377702fe2688e075dad69190a2506001919050565b610e9f6116e9565b610ea96000611743565b565b600054610100900460ff1615808015610ecb5750600054600160ff909116105b80610ee55750303b158015610ee5575060005460ff166001145b610f485760405162461bcd60e51b815260206004820152602e60248201527f496e697469616c697a61626c653a20636f6e747261637420697320616c72656160448201526d191e481a5b9a5d1a585b1a5e995960921b606482015260840161075c565b6000805460ff191660011790558015610f6b576000805461ff0019166101001790555b610f73611795565b610f7b6117c4565b610f836117eb565b33600090815260fb602090815260408083208054600160ff19918216811790925560fc9093529220805490911690911790558015610c1a576000805461ff0019169055604051600181527f7f26b83ff96e1f2b6a682f133852f6798a09c465da95921460cefb38474024989060200160405180910390a150565b6033546000906001600160a01b0316331480611028575033600090815260fe602052604090205460ff165b6110445760405162461bcd60e51b815260040161075c90611be6565b6001600160a01b0382166000908152610101602052604090205460ff166110a45760405162461bcd60e51b8152602060048201526014602482015273155cd95c881b9bdd081dda1a5d195b1a5cdd195960621b604482015260640161075c565b6001600160a01b03821660008181526101016020526040808220805460ff19169055517f1add56ac7cce24bb03f68cc192c7e23ff52c253256412380960e1495d16351f69190a2506001919050565b6033546000906001600160a01b031633148061111e575033600090815260fe602052604090205460ff165b61113a5760405162461bcd60e51b815260040161075c90611be6565b6001600160a01b0382166000908152610100602052604090205460ff161561119f5760405162461bcd60e51b8152602060048201526018602482015277155cd95c88185b1c9958591e481dda1a5d195b1a5cdd195960421b604482015260640161075c565b6001600160a01b03821660008181526101006020526040808220805460ff19166001179055517fbfa7e9dc90e3e7bcecdb459db0f2e3ae408ffbf687e970bb4a957c11d0d79e549190a2506001919050565b60006111fb6116e9565b506001600160a01b0316600090815260fe60205260409020805460ff19169055600190565b6033546000906001600160a01b031633148061124b575033600090815260fe602052604090205460ff165b6112675760405162461bcd60e51b815260040161075c90611be6565b6001600160a01b0382166000908152610101602052604090205460ff16156112cc5760405162461bcd60e51b8152602060048201526018602482015277155cd95c88185b1c9958591e481dda1a5d195b1a5cdd195960421b604482015260640161075c565b6001600160a01b03821660008181526101016020526040808220805460ff19166001179055517f4acf47ffbc39e4e8df31ec82d5707f7aa51ce419a915f50eec70e8aa74c82f7d9190a2506001919050565b6033546000906001600160a01b0316331480611349575033600090815260fe602052604090205460ff165b6113655760405162461bcd60e51b815260040161075c90611be6565b6001600160a01b038216600090815260ff6020819052604090912054839116156113a15760405162461bcd60e51b815260040161075c90611c0e565b6001600160a01b03831660009081526101016020526040902054839060ff1661140c5760405162461bcd60e51b815260206004820152601f60248201527f4e6f7420612077686974656c697374656420696e7465726e616c207573657200604482015260640161075c565b6001600160a01b038416600090815260fc602052604090205460ff16156114755760405162461bcd60e51b815260206004820152601c60248201527f5573657220616c7265616479206164646564206173206d696e74657200000000604482015260640161075c565b6001600160a01b038416600081815260fc6020526040808220805460ff19166001179055517fa7bc6cbcc74fbb036defe7be7aa46cf2177c9dac567d24583c365e420ac5e4a49190a25060019392505050565b60006114d26116e9565b506001600160a01b0316600090815260fe60205260409020805460ff1916600190811790915590565b6115036116e9565b6001600160a01b0381166115685760405162461bcd60e51b815260206004820152602660248201527f4f776e61626c653a206e6577206f776e657220697320746865207a65726f206160448201526564647265737360d01b606482015260840161075c565b610c1a81611743565b610c1a6116e9565b7f4910fdfa16fed3260ed0e7147f7cc6da11a60208b5b9406d12a635614ffd91435460ff16156115b1576115ac8361181a565b505050565b826001600160a01b03166352d1902d6040518163ffffffff1660e01b8152600401602060405180830381865afa92505050801561160b575060408051601f3d908101601f1916820190925261160891810190611cd3565b60015b61166e5760405162461bcd60e51b815260206004820152602e60248201527f45524331393637557067726164653a206e657720696d706c656d656e7461746960448201526d6f6e206973206e6f74205555505360901b606482015260840161075c565b600080516020611db383398151915281146116dd5760405162461bcd60e51b815260206004820152602960248201527f45524331393637557067726164653a20756e737570706f727465642070726f786044820152681a58589b195555525160ba1b606482015260840161075c565b506115ac8383836118b6565b6033546001600160a01b03163314610ea95760405162461bcd60e51b815260206004820181905260248201527f4f776e61626c653a2063616c6c6572206973206e6f7420746865206f776e6572604482015260640161075c565b603380546001600160a01b038381166001600160a01b0319831681179093556040519116919082907f8be0079c531659141344cd1fd0a4f28419497f9722a3daafe3b4186f6b6457e090600090a35050565b600054610100900460ff166117bc5760405162461bcd60e51b815260040161075c90611cec565b610ea96118e1565b600054610100900460ff16610ea95760405162461bcd60e51b815260040161075c90611cec565b600054610100900460ff166118125760405162461bcd60e51b815260040161075c90611cec565b610ea9611911565b6001600160a01b0381163b6118875760405162461bcd60e51b815260206004820152602d60248201527f455243313936373a206e657720696d706c656d656e746174696f6e206973206e60448201526c1bdd08184818dbdb9d1c9858dd609a1b606482015260840161075c565b600080516020611db383398151915280546001600160a01b0319166001600160a01b0392909216919091179055565b6118bf8361193f565b6000825111806118cc5750805b156115ac576118db838361197f565b50505050565b600054610100900460ff166119085760405162461bcd60e51b815260040161075c90611cec565b610ea933611743565b600054610100900460ff166119385760405162461bcd60e51b815260040161075c90611cec565b600160c955565b6119488161181a565b6040516001600160a01b038216907fbc7cd75a20ee27fd9adebab32041f755214dbc6bffa90cc0225b39da2e5c2d3b90600090a250565b60606119a48383604051806060016040528060278152602001611dd3602791396119ab565b9392505050565b6060600080856001600160a01b0316856040516119c89190611d63565b600060405180830381855af49150503d8060008114611a03576040519150601f19603f3d011682016040523d82523d6000602084013e611a08565b606091505b5091509150611a1986838387611a23565b9695505050505050565b60608315611a8f578251611a88576001600160a01b0385163b611a885760405162461bcd60e51b815260206004820152601d60248201527f416464726573733a2063616c6c20746f206e6f6e2d636f6e7472616374000000604482015260640161075c565b5081611a99565b611a998383611aa1565b949350505050565b815115611ab15781518083602001fd5b8060405162461bcd60e51b815260040161075c9190611d7f565b600081356001600160a81b0381168114611ae457600080fd5b6001600160a01b031692915050565b600060208284031215611b0557600080fd5b6119a482611acb565b634e487b7160e01b600052604160045260246000fd5b60008060408385031215611b3757600080fd5b611b4083611acb565b9150602083013567ffffffffffffffff80821115611b5d57600080fd5b818501915085601f830112611b7157600080fd5b813581811115611b8357611b83611b0e565b604051601f8201601f19908116603f01168101908382118183101715611bab57611bab611b0e565b81604052828152886020848701011115611bc457600080fd5b8260208601602083013760006020848301015280955050505050509250929050565b6020808252600e908201526d139bdd08185d5d1a1bdc9a5e995960921b604082015260600190565b602080825260139082015272155cd95c881a5cc8189b1858dadb1a5cdd1959606a1b604082015260600190565b6020808252602c908201527f46756e6374696f6e206d7573742062652063616c6c6564207468726f7567682060408201526b19195b1959d85d1958d85b1b60a21b606082015260800190565b6020808252602c908201527f46756e6374696f6e206d7573742062652063616c6c6564207468726f7567682060408201526b6163746976652070726f787960a01b606082015260800190565b600060208284031215611ce557600080fd5b5051919050565b6020808252602b908201527f496e697469616c697a61626c653a20636f6e7472616374206973206e6f74206960408201526a6e697469616c697a696e6760a81b606082015260800190565b60005b83811015611d52578181015183820152602001611d3a565b838111156118db5750506000910152565b60008251611d75818460208701611d37565b9190910192915050565b6020815260008251806020840152611d9e816040850160208701611d37565b601f01601f1916919091016040019291505056fe360894a13ba1a3210667c828492db98dca3e2076cc3735a920a3ca505d382bbc416464726573733a206c6f772d6c6576656c2064656c65676174652063616c6c206661696c6564a26474726f6e582212203e5056246d1f966859d3e258b035c955d1048c75fb9db1dc18c5fd318f3f1dc764736f6c634300080b0033",
  "source": "// SPDX-License-Identifier: MIT\npragma solidity ^0.8.0;\n\nimport \"@openzeppelin/contracts-upgradeable/proxy/utils/Initializable.sol\";\nimport \"@openzeppelin/contracts-upgradeable/access/OwnableUpgradeable.sol\";\nimport \"@openzeppelin/contracts-upgradeable/proxy/utils/UUPSUpgradeable.sol\";\nimport \"@openzeppelin/contracts-upgradeable/security/ReentrancyGuardUpgradeable.sol\";\n\ncontract Admin is\n    Initializable,\n    OwnableUpgradeable,\n    UUPSUpgradeable,\n    ReentrancyGuardUpgradeable\n{\n    // Mappings for managing roles\n    mapping(address => bool) public canForward;\n    mapping(address => bool) public canMint;\n    mapping(address => uint256) public mintAmount;\n    mapping(address => bool) public trustedContract;\n    mapping(address => bool) public isBlackListed;\n\n    // Mappings for whitelisting external and internal users\n    mapping(address => bool) public isExternalSenderWhitelisted;\n    mapping(address => bool) public isInternalUserWhitelisted;\n\n    // Events for tracking changes\n    event AddedBlackList(address indexed _user);\n    event RemovedBlackList(address indexed _user);\n    event MintAmountAdded(address indexed _user);\n    event MintAmountRemoved(address indexed _user);\n    event WhitelistedForwarder(address indexed _user);\n    event BlackListedForwarder(address indexed _user);\n    event WhitelistedMinter(address indexed _user);\n    event BlackListedMinter(address indexed _user);\n    event WhitelistedContract(address indexed _user);\n    event BlackListedContract(address indexed _user);\n    event WhitelistedExternalSender(address indexed _user);\n    event BlackListedExternalSender(address indexed _user);\n    event WhitelistedInternalUser(address indexed _user);\n    event BlackListedInternalUser(address indexed _user);\n\n    // Initializer function for upgradeable contracts\n    function initialize() public initializer {\n        __Ownable_init();\n        __UUPSUpgradeable_init();\n        __ReentrancyGuard_init();\n\n        // Initialization logic\n        canForward[_msgSender()] = true;\n        canMint[_msgSender()] = true;\n    }\n\n    // Security Measures\n    modifier onlyOwnerOrTrustedContract() {\n        require(\n            owner() == _msgSender() || trustedContract[_msgSender()],\n            \"Not authorized\"\n        );\n        _;\n    }\n\n    modifier notBlacklisted(address _user) {\n        require(!isBlackListed[_user], \"User is blacklisted\");\n        _;\n    }\n\n    modifier onlyWhitelistedExternalSender(address _user) {\n        require(\n            isExternalSenderWhitelisted[_user],\n            \"Not a whitelisted external sender\"\n        );\n        _;\n    }\n\n    modifier onlyWhitelistedInternalUser(address _user) {\n        require(\n            isInternalUserWhitelisted[_user],\n            \"Not a whitelisted internal user\"\n        );\n        _;\n    }\n\n    // Functions for managing external user whitelist\n    function whitelistExternalSender(\n        address _User\n    ) public onlyOwnerOrTrustedContract returns (bool) {\n        require(\n            !isExternalSenderWhitelisted[_User],\n            \"User already whitelisted\"\n        );\n        isExternalSenderWhitelisted[_User] = true;\n        emit WhitelistedExternalSender(_User);\n        return true;\n    }\n\n    function blacklistExternalSender(\n        address _User\n    ) public onlyOwnerOrTrustedContract returns (bool) {\n        require(isExternalSenderWhitelisted[_User], \"User not whitelisted\");\n        isExternalSenderWhitelisted[_User] = false;\n        emit BlackListedExternalSender(_User);\n        return true;\n    }\n\n    // Functions for managing internal user whitelist\n    function whitelistInternalUser(\n        address _User\n    ) public onlyOwnerOrTrustedContract returns (bool) {\n        require(!isInternalUserWhitelisted[_User], \"User already whitelisted\");\n        isInternalUserWhitelisted[_User] = true;\n        emit WhitelistedInternalUser(_User);\n        return true;\n    }\n\n    function blacklistInternalUser(\n        address _User\n    ) public onlyOwnerOrTrustedContract returns (bool) {\n        require(isInternalUserWhitelisted[_User], \"User not whitelisted\");\n        isInternalUserWhitelisted[_User] = false;\n        emit BlackListedInternalUser(_User);\n        return true;\n    }\n\n    // Functions for managing forwarders and minters\n    function AddCanForward(\n        address _User\n    )\n        public\n        onlyOwnerOrTrustedContract\n        notBlacklisted(_User)\n        onlyWhitelistedExternalSender(_User)\n        returns (bool)\n    {\n        require(!canForward[_User], \"User already added as forwarder\");\n        canForward[_User] = true;\n        emit WhitelistedForwarder(_User);\n        return true;\n    }\n\n    function RemoveCanForward(\n        address _User\n    ) public onlyOwnerOrTrustedContract notBlacklisted(_User) returns (bool) {\n        require(canForward[_User], \"User is not a forwarder\");\n        canForward[_User] = false;\n        emit BlackListedForwarder(_User);\n        return true;\n    }\n\n    function AddCanMint(\n        address _User\n    )\n        public\n        onlyOwnerOrTrustedContract\n        notBlacklisted(_User)\n        onlyWhitelistedInternalUser(_User)\n        returns (bool)\n    {\n        require(!canMint[_User], \"User already added as minter\");\n        canMint[_User] = true;\n        emit WhitelistedMinter(_User);\n        return true;\n    }\n\n    function RemoveCanMint(\n        address _User\n    ) public onlyOwnerOrTrustedContract notBlacklisted(_User) returns (bool) {\n        require(canMint[_User], \"User is not a minter\");\n        canMint[_User] = false;\n        emit BlackListedMinter(_User);\n        return true;\n    }\n\n    // Adding trusted contracts\n    function addTrustedContract(\n        address _trustedContract\n    ) public onlyOwner returns (bool) {\n        trustedContract[_trustedContract] = true;\n        return true;\n    }\n\n    function removeTrustedContract(\n        address _trustedContract\n    ) public onlyOwner returns (bool) {\n        trustedContract[_trustedContract] = false;\n        return true;\n    }\n\n    // Authorize upgrades for UUPS proxy pattern\n    function _authorizeUpgrade(\n        address newImplementation\n    ) internal override onlyOwner {}\n}\n",
  "sourcePath": "contracts/Operations.sol",
  "compiler": {
    "name": "solc",
    "version": "0.8.11+commit.b01f3284.mod.Emscripten.clang"
  },
  "schemaVersion": "2.0.1",
  "updatedAt": "2024-11-22T02:00:08.388Z"
}