{
  "contractName": "cngn",
  "abi": [
    {
      "anonymous": false,
      "inputs": [
        {
          "indexed": false,
          "internalType": "address",
          "name": "_user",
          "type": "address"
        }
      ],
      "name": "AddedBlackList",
      "type": "event"
    },
    {
      "anonymous": false,
      "inputs": [
        {
          "indexed": false,
          "internalType": "address",
          "name": "_user",
          "type": "address"
        },
        {
          "indexed": false,
          "internalType": "uint256",
          "name": "_amount",
          "type": "uint256"
        }
      ],
      "name": "AddedMintAllow",
      "type": "event"
    },
    {
      "anonymous": false,
      "inputs": [
        {
          "indexed": false,
          "internalType": "address",
          "name": "_user",
          "type": "address"
        }
      ],
      "name": "AddedWhiteList",
      "type": "event"
    },
    {
      "anonymous": false,
      "inputs": [
        {
          "indexed": true,
          "internalType": "address",
          "name": "owner",
          "type": "address"
        },
        {
          "indexed": true,
          "internalType": "address",
          "name": "spender",
          "type": "address"
        },
        {
          "indexed": false,
          "internalType": "uint256",
          "name": "value",
          "type": "uint256"
        }
      ],
      "name": "Approval",
      "type": "event"
    },
    {
      "anonymous": false,
      "inputs": [
        {
          "indexed": false,
          "internalType": "address",
          "name": "_blackListedUser",
          "type": "address"
        },
        {
          "indexed": false,
          "internalType": "uint256",
          "name": "_balance",
          "type": "uint256"
        }
      ],
      "name": "DestroyedBlackFunds",
      "type": "event"
    },
    {
      "anonymous": false,
      "inputs": [
        {
          "indexed": false,
          "internalType": "uint8",
          "name": "version",
          "type": "uint8"
        }
      ],
      "name": "Initialized",
      "type": "event"
    },
    {
      "anonymous": false,
      "inputs": [
        {
          "indexed": true,
          "internalType": "address",
          "name": "previousOwner",
          "type": "address"
        },
        {
          "indexed": true,
          "internalType": "address",
          "name": "newOwner",
          "type": "address"
        }
      ],
      "name": "OwnershipTransferred",
      "type": "event"
    },
    {
      "anonymous": false,
      "inputs": [
        {
          "indexed": false,
          "internalType": "address",
          "name": "account",
          "type": "address"
        }
      ],
      "name": "Paused",
      "type": "event"
    },
    {
      "anonymous": false,
      "inputs": [
        {
          "indexed": false,
          "internalType": "address",
          "name": "_user",
          "type": "address"
        }
      ],
      "name": "RemovedBlackList",
      "type": "event"
    },
    {
      "anonymous": false,
      "inputs": [
        {
          "indexed": false,
          "internalType": "address",
          "name": "_user",
          "type": "address"
        }
      ],
      "name": "RemovedWhiteList",
      "type": "event"
    },
    {
      "anonymous": false,
      "inputs": [
        {
          "indexed": true,
          "internalType": "address",
          "name": "from",
          "type": "address"
        },
        {
          "indexed": true,
          "internalType": "address",
          "name": "to",
          "type": "address"
        },
        {
          "indexed": false,
          "internalType": "uint256",
          "name": "value",
          "type": "uint256"
        }
      ],
      "name": "Transfer",
      "type": "event"
    },
    {
      "anonymous": false,
      "inputs": [
        {
          "indexed": false,
          "internalType": "address",
          "name": "account",
          "type": "address"
        }
      ],
      "name": "Unpaused",
      "type": "event"
    },
    {
      "inputs": [
        {
          "internalType": "address",
          "name": "owner",
          "type": "address"
        },
        {
          "internalType": "address",
          "name": "spender",
          "type": "address"
        }
      ],
      "name": "allowance",
      "outputs": [
        {
          "internalType": "uint256",
          "name": "",
          "type": "uint256"
        }
      ],
      "stateMutability": "view",
      "type": "function"
    },
    {
      "inputs": [
        {
          "internalType": "address",
          "name": "spender",
          "type": "address"
        },
        {
          "internalType": "uint256",
          "name": "amount",
          "type": "uint256"
        }
      ],
      "name": "approve",
      "outputs": [
        {
          "internalType": "bool",
          "name": "",
          "type": "bool"
        }
      ],
      "stateMutability": "nonpayable",
      "type": "function"
    },
    {
      "inputs": [
        {
          "internalType": "address",
          "name": "account",
          "type": "address"
        }
      ],
      "name": "balanceOf",
      "outputs": [
        {
          "internalType": "uint256",
          "name": "",
          "type": "uint256"
        }
      ],
      "stateMutability": "view",
      "type": "function"
    },
    {
      "inputs": [
        {
          "internalType": "uint256",
          "name": "_amount",
          "type": "uint256"
        }
      ],
      "name": "burnByUser",
      "outputs": [
        {
          "internalType": "bool",
          "name": "",
          "type": "bool"
        }
      ],
      "stateMutability": "nonpayable",
      "type": "function"
    },
    {
      "inputs": [],
      "name": "decimals",
      "outputs": [
        {
          "internalType": "uint8",
          "name": "",
          "type": "uint8"
        }
      ],
      "stateMutability": "view",
      "type": "function"
    },
    {
      "inputs": [
        {
          "internalType": "address",
          "name": "spender",
          "type": "address"
        },
        {
          "internalType": "uint256",
          "name": "subtractedValue",
          "type": "uint256"
        }
      ],
      "name": "decreaseAllowance",
      "outputs": [
        {
          "internalType": "bool",
          "name": "",
          "type": "bool"
        }
      ],
      "stateMutability": "nonpayable",
      "type": "function"
    },
    {
      "inputs": [
        {
          "internalType": "address",
          "name": "spender",
          "type": "address"
        },
        {
          "internalType": "uint256",
          "name": "addedValue",
          "type": "uint256"
        }
      ],
      "name": "increaseAllowance",
      "outputs": [
        {
          "internalType": "bool",
          "name": "",
          "type": "bool"
        }
      ],
      "stateMutability": "nonpayable",
      "type": "function"
    },
    {
      "inputs": [
        {
          "internalType": "address",
          "name": "_trustedForwarderContract",
          "type": "address"
        },
        {
          "internalType": "address",
          "name": "_adminOperationsContract",
          "type": "address"
        }
      ],
      "name": "initialize",
      "outputs": [],
      "stateMutability": "nonpayable",
      "type": "function"
    },
    {
      "inputs": [
        {
          "internalType": "address",
          "name": "forwarder",
          "type": "address"
        }
      ],
      "name": "isTrustedForwarder",
      "outputs": [
        {
          "internalType": "bool",
          "name": "",
          "type": "bool"
        }
      ],
      "stateMutability": "view",
      "type": "function"
    },
    {
      "inputs": [
        {
          "internalType": "uint256",
          "name": "_amount",
          "type": "uint256"
        },
        {
          "internalType": "address",
          "name": "_mintTo",
          "type": "address"
        }
      ],
      "name": "mint",
      "outputs": [
        {
          "internalType": "bool",
          "name": "",
          "type": "bool"
        }
      ],
      "stateMutability": "nonpayable",
      "type": "function"
    },
    {
      "inputs": [],
      "name": "name",
      "outputs": [
        {
          "internalType": "string",
          "name": "",
          "type": "string"
        }
      ],
      "stateMutability": "view",
      "type": "function"
    },
    {
      "inputs": [],
      "name": "owner",
      "outputs": [
        {
          "internalType": "address",
          "name": "",
          "type": "address"
        }
      ],
      "stateMutability": "view",
      "type": "function"
    },
    {
      "inputs": [],
      "name": "pause",
      "outputs": [
        {
          "internalType": "bool",
          "name": "",
          "type": "bool"
        }
      ],
      "stateMutability": "nonpayable",
      "type": "function"
    },
    {
      "inputs": [],
      "name": "paused",
      "outputs": [
        {
          "internalType": "bool",
          "name": "",
          "type": "bool"
        }
      ],
      "stateMutability": "view",
      "type": "function"
    },
    {
      "inputs": [],
      "name": "renounceOwnership",
      "outputs": [],
      "stateMutability": "nonpayable",
      "type": "function"
    },
    {
      "inputs": [],
      "name": "symbol",
      "outputs": [
        {
          "internalType": "string",
          "name": "",
          "type": "string"
        }
      ],
      "stateMutability": "view",
      "type": "function"
    },
    {
      "inputs": [],
      "name": "totalSupply",
      "outputs": [
        {
          "internalType": "uint256",
          "name": "",
          "type": "uint256"
        }
      ],
      "stateMutability": "view",
      "type": "function"
    },
    {
      "inputs": [
        {
          "internalType": "address",
          "name": "to",
          "type": "address"
        },
        {
          "internalType": "uint256",
          "name": "amount",
          "type": "uint256"
        }
      ],
      "name": "transfer",
      "outputs": [
        {
          "internalType": "bool",
          "name": "",
          "type": "bool"
        }
      ],
      "stateMutability": "nonpayable",
      "type": "function"
    },
    {
      "inputs": [
        {
          "internalType": "address",
          "name": "from",
          "type": "address"
        },
        {
          "internalType": "address",
          "name": "to",
          "type": "address"
        },
        {
          "internalType": "uint256",
          "name": "amount",
          "type": "uint256"
        }
      ],
      "name": "transferFrom",
      "outputs": [
        {
          "internalType": "bool",
          "name": "",
          "type": "bool"
        }
      ],
      "stateMutability": "nonpayable",
      "type": "function"
    },
    {
      "inputs": [
        {
          "internalType": "address",
          "name": "newOwner",
          "type": "address"
        }
      ],
      "name": "transferOwnership",
      "outputs": [],
      "stateMutability": "nonpayable",
      "type": "function"
    },
    {
      "inputs": [],
      "name": "unPause",
      "outputs": [
        {
          "internalType": "bool",
          "name": "",
          "type": "bool"
        }
      ],
      "stateMutability": "nonpayable",
      "type": "function"
    },
    {
      "inputs": [
        {
          "internalType": "address",
          "name": "_newAdmin",
          "type": "address"
        }
      ],
      "name": "updateAdminOperationsAddress",
      "outputs": [
        {
          "internalType": "bool",
          "name": "",
          "type": "bool"
        }
      ],
      "stateMutability": "nonpayable",
      "type": "function"
    },
    {
      "inputs": [
        {
          "internalType": "address",
          "name": "_newForwarderContract",
          "type": "address"
        }
      ],
      "name": "updateForwarderContract",
      "outputs": [
        {
          "internalType": "bool",
          "name": "",
          "type": "bool"
        }
      ],
      "stateMutability": "nonpayable",
      "type": "function"
    }
  ],
  "bytecode": "0x608060405234801561001057600080fd5b50d3801561001d57600080fd5b50d2801561002a57600080fd5b50611b988061003a6000396000f3fe608060405234801561001057600080fd5b50d3801561001d57600080fd5b50d2801561002a57600080fd5b50600436106101675760003560e01c80637742af46116100dd578063a9059cbb11610096578063a9059cbb146102cb578063b7d5b1ef146102de578063b83fd823146102f1578063dd62ed3e14610304578063f2fde38b14610317578063f7b188a51461032a57600080fd5b80637742af46146102675780638456cb591461027a5780638da5cb5b1461028257806394bf804d1461029d57806395d89b41146102b0578063a457c2d7146102b857600080fd5b8063395093511161012f57806339509351146101e1578063485cc955146101f4578063572b6c05146102095780635c975abb1461022b57806370a0823114610236578063715018a61461025f57600080fd5b806306fdde031461016c578063095ea7b31461018a57806318160ddd146101ad57806323b872dd146101bf578063313ce567146101d2575b600080fd5b610174610332565b60405161018191906118bb565b60405180910390f35b61019d610198366004611938565b6103c4565b6040519015158152602001610181565b60ce545b604051908152602001610181565b61019d6101cd366004611962565b6103de565b60405160068152602001610181565b61019d6101ef366004611938565b610591565b61020761020236600461199e565b6105b3565b005b61019d6102173660046119d1565b60d1546001600160a01b0391821691161490565b60655460ff1661019d565b6101b16102443660046119d1565b6001600160a01b0316600090815260c9602052604090205490565b61020761074d565b61019d6102753660046119ec565b610761565b61019d6107de565b6033546040516001600160a01b039091168152602001610181565b61019d6102ab366004611a05565b6107fe565b610174610be2565b61019d6102c6366004611938565b610bf1565b61019d6102d9366004611938565b610c77565b61019d6102ec3660046119d1565b610da0565b61019d6102ff3660046119d1565b610dcf565b6101b161031236600461199e565b610dfe565b6102076103253660046119d1565b610e29565b61019d610ea2565b606060cf805461034190611a28565b80601f016020809104026020016040519081016040528092919081815260200182805461036d90611a28565b80156103ba5780601f1061038f576101008083540402835291602001916103ba565b820191906000526020600020905b81548152906001019060200180831161039d57829003601f168201915b5050505050905090565b6000336103d2818585610ebc565b60019150505b92915050565b60006103e8610fe0565b6103f0611026565b60d2546001600160a01b031663e47d6060336040516001600160e01b031960e084901b1681526001600160a01b039091166004820152602401602060405180830381865afa158015610446573d6000803e3d6000fd5b505050506040513d601f19601f8201168201806040525081019061046a9190611a63565b1561047457600080fd5b60d254604051630723eb0360e51b81526001600160a01b0386811660048301529091169063e47d606090602401602060405180830381865afa1580156104be573d6000803e3d6000fd5b505050506040513d601f19601f820116820180604052508101906104e29190611a63565b156104ec57600080fd5b60d254604051630723eb0360e51b81526001600160a01b0385811660048301529091169063e47d606090602401602060405180830381865afa158015610536573d6000803e3d6000fd5b505050506040513d601f19601f8201168201806040525081019061055a9190611a63565b1561056457600080fd5b33610570858285611080565b61057b8585856110fa565b600191505061058a6001609755565b9392505050565b6000336103d28185856105a48383610dfe565b6105ae9190611a85565b610ebc565b600054610100900460ff16158080156105d35750600054600160ff909116105b806105ed5750303b1580156105ed575060005460ff166001145b6106555760405162461bcd60e51b815260206004820152602e60248201527f496e697469616c697a61626c653a20636f6e747261637420697320616c72656160448201526d191e481a5b9a5d1a585b1a5e995960921b60648201526084015b60405180910390fd5b6000805460ff191660011790558015610678576000805461ff0019166101001790555b6106ba6040518060400160405280600481526020016331a723a760e11b8152506040518060400160405280600481526020016331a723a760e11b8152506112b7565b6106c26112ec565b6106ca61131b565b6106d261134a565b60d180546001600160a01b038086166001600160a01b03199283161790925560d28054928516929091169190911790558015610748576000805461ff0019169055604051600181527f7f26b83ff96e1f2b6a682f133852f6798a09c465da95921460cefb38474024989060200160405180910390a15b505050565b610755611379565b61075f60006113d3565b565b60006107756033546001600160a01b031690565b6001600160a01b0316336001600160a01b0316148061079e575060d1546001600160a01b031633145b6107ba5760405162461bcd60e51b815260040161064c90611aab565b6107c2611026565b6107cc3383611425565b5060016107d96001609755565b919050565b60006107e8611379565b6107f0610fe0565b6107f8611565565b50600190565b60006108126033546001600160a01b031690565b6001600160a01b0316336001600160a01b0316148061083b575060d1546001600160a01b031633145b6108575760405162461bcd60e51b815260040161064c90611aab565b61085f611026565b60006108696115bf565b60d254604051630723eb0360e51b81526001600160a01b03808416600483015292935091169063e47d606090602401602060405180830381865afa1580156108b5573d6000803e3d6000fd5b505050506040513d601f19601f820116820180604052508101906108d99190611a63565b1561091c5760405162461bcd60e51b8152602060048201526013602482015272155cd95c881a5cc8189b1858dadb1a5cdd1959606a1b604482015260640161064c565b60d254604051630723eb0360e51b81526001600160a01b0385811660048301529091169063e47d606090602401602060405180830381865afa158015610966573d6000803e3d6000fd5b505050506040513d601f19601f8201168201806040525081019061098a9190611a63565b156109d75760405162461bcd60e51b815260206004820152601760248201527f526563656976657220697320626c61636b6c6973746564000000000000000000604482015260640161064c565b60d2546040516330ae91d160e21b81526001600160a01b0383811660048301529091169063c2ba474490602401602060405180830381865afa158015610a21573d6000803e3d6000fd5b505050506040513d601f19601f82011682018060405250810190610a459190611a63565b610a915760405162461bcd60e51b815260206004820152601d60248201527f4d696e746572206e6f7420617574686f72697a656420746f207369676e000000604482015260640161064c565b60d254604051630157608b60e21b81526001600160a01b0383811660048301528692169063055d822c90602401602060405180830381865afa158015610adb573d6000803e3d6000fd5b505050506040513d601f19601f82011682018060405250810190610aff9190611afe565b14610b585760405162461bcd60e51b8152602060048201526024808201527f417474656d7074696e6720746f206d696e74206d6f7265207468616e20616c6c6044820152631bddd95960e21b606482015260840161064c565b610b6283856115f3565b60d254604051630547369b60e01b81526001600160a01b03838116600483015290911690630547369b906024016020604051808303816000875af1158015610bae573d6000803e3d6000fd5b505050506040513d601f19601f82011682018060405250810190610bd29190611a63565b5060019150506103d86001609755565b606060d0805461034190611a28565b60003381610bff8286610dfe565b905083811015610c5f5760405162461bcd60e51b815260206004820152602560248201527f45524332303a2064656372656173656420616c6c6f77616e63652062656c6f77604482015264207a65726f60d81b606482015260840161064c565b610c6c8286868403610ebc565b506001949350505050565b6000610c81610fe0565b610c89611026565b60d2546001600160a01b031663e47d6060336040516001600160e01b031960e084901b1681526001600160a01b039091166004820152602401602060405180830381865afa158015610cdf573d6000803e3d6000fd5b505050506040513d601f19601f82011682018060405250810190610d039190611a63565b15610d0d57600080fd5b60d254604051630723eb0360e51b81526001600160a01b0385811660048301529091169063e47d606090602401602060405180830381865afa158015610d57573d6000803e3d6000fd5b505050506040513d601f19601f82011682018060405250810190610d7b9190611a63565b15610d8557600080fd5b33610d918185856110fa565b60019150506103d86001609755565b6000610daa611379565b5060d180546001600160a01b0383166001600160a01b03199091161790556001919050565b6000610dd9611379565b5060d280546001600160a01b0383166001600160a01b03199091161790556001919050565b6001600160a01b03918216600090815260ca6020908152604080832093909416825291909152205490565b610e31611379565b6001600160a01b038116610e965760405162461bcd60e51b815260206004820152602660248201527f4f776e61626c653a206e6577206f776e657220697320746865207a65726f206160448201526564647265737360d01b606482015260840161064c565b610e9f816113d3565b50565b6000610eac611379565b610eb46116c0565b6107f8611709565b6001600160a01b038316610f1e5760405162461bcd60e51b8152602060048201526024808201527f45524332303a20617070726f76652066726f6d20746865207a65726f206164646044820152637265737360e01b606482015260840161064c565b6001600160a01b038216610f7f5760405162461bcd60e51b815260206004820152602260248201527f45524332303a20617070726f766520746f20746865207a65726f206164647265604482015261737360f01b606482015260840161064c565b6001600160a01b03838116600081815260ca602090815260408083209487168084529482529182902085905590518481527f8c5be1e5ebec7d5bd14f71427d1e84f3dd0314c0f7b2291e5b200ac8c7c3b925910160405180910390a3505050565b60655460ff161561075f5760405162461bcd60e51b815260206004820152601060248201526f14185d5cd8589b194e881c185d5cd95960821b604482015260640161064c565b600260975414156110795760405162461bcd60e51b815260206004820152601f60248201527f5265656e7472616e637947756172643a207265656e7472616e742063616c6c00604482015260640161064c565b6002609755565b600061108c8484610dfe565b905060001981146110f457818110156110e75760405162461bcd60e51b815260206004820152601d60248201527f45524332303a20696e73756666696369656e7420616c6c6f77616e6365000000604482015260640161064c565b6110f48484848403610ebc565b50505050565b6001600160a01b03831661115e5760405162461bcd60e51b815260206004820152602560248201527f45524332303a207472616e736665722066726f6d20746865207a65726f206164604482015264647265737360d81b606482015260840161064c565b6001600160a01b0382166111c05760405162461bcd60e51b815260206004820152602360248201527f45524332303a207472616e7366657220746f20746865207a65726f206164647260448201526265737360e81b606482015260840161064c565b6111cb838383611742565b6001600160a01b038316600090815260c96020526040902054818110156112435760405162461bcd60e51b815260206004820152602660248201527f45524332303a207472616e7366657220616d6f756e7420657863656564732062604482015265616c616e636560d01b606482015260840161064c565b6001600160a01b03808516600081815260c9602052604080822086860390559286168082529083902080548601905591517fddf252ad1be2c89b69c2b068fc378daa952ba7f163c4a11628f55a4df523b3ef906112a39086815260200190565b60405180910390a36110f4565b6001609755565b600054610100900460ff166112de5760405162461bcd60e51b815260040161064c90611b17565b6112e8828261174a565b5050565b600054610100900460ff166113135760405162461bcd60e51b815260040161064c90611b17565b61075f611798565b600054610100900460ff166113425760405162461bcd60e51b815260040161064c90611b17565b61075f6117c8565b600054610100900460ff166113715760405162461bcd60e51b815260040161064c90611b17565b61075f6117fb565b6033546001600160a01b0316331461075f5760405162461bcd60e51b815260206004820181905260248201527f4f776e61626c653a2063616c6c6572206973206e6f7420746865206f776e6572604482015260640161064c565b603380546001600160a01b038381166001600160a01b0319831681179093556040519116919082907f8be0079c531659141344cd1fd0a4f28419497f9722a3daafe3b4186f6b6457e090600090a35050565b6001600160a01b0382166114855760405162461bcd60e51b815260206004820152602160248201527f45524332303a206275726e2066726f6d20746865207a65726f206164647265736044820152607360f81b606482015260840161064c565b61149182600083611742565b6001600160a01b038216600090815260c96020526040902054818110156115055760405162461bcd60e51b815260206004820152602260248201527f45524332303a206275726e20616d6f756e7420657863656564732062616c616e604482015261636560f01b606482015260840161064c565b6001600160a01b038316600081815260c960209081526040808320868603905560ce80548790039055518581529192917fddf252ad1be2c89b69c2b068fc378daa952ba7f163c4a11628f55a4df523b3ef910160405180910390a3505050565b61156d610fe0565b6065805460ff191660011790557f62e78cea01bee320cd4e420270b5ea74000d11b0c9f74754ebdbfc544b05a2586115a23390565b6040516001600160a01b03909116815260200160405180910390a1565b6000601436108015906115dc575060d1546001600160a01b031633145b156115ee575060131936013560601c90565b503390565b6001600160a01b0382166116495760405162461bcd60e51b815260206004820152601f60248201527f45524332303a206d696e7420746f20746865207a65726f206164647265737300604482015260640161064c565b61165560008383611742565b8060ce60008282546116679190611a85565b90915550506001600160a01b038216600081815260c960209081526040808320805486019055518481527fddf252ad1be2c89b69c2b068fc378daa952ba7f163c4a11628f55a4df523b3ef910160405180910390a35050565b60655460ff1661075f5760405162461bcd60e51b815260206004820152601460248201527314185d5cd8589b194e881b9bdd081c185d5cd95960621b604482015260640161064c565b6117116116c0565b6065805460ff191690557f5db9ee0a495bf2e6ff9c91a7834c1ba4fdd244a5e8aa4e537bd38aeae4b073aa336115a2565b610748610fe0565b600054610100900460ff166117715760405162461bcd60e51b815260040161064c90611b17565b81516117849060cf906020850190611822565b5080516107489060d0906020840190611822565b600054610100900460ff166117bf5760405162461bcd60e51b815260040161064c90611b17565b61075f336113d3565b600054610100900460ff166117ef5760405162461bcd60e51b815260040161064c90611b17565b6065805460ff19169055565b600054610100900460ff166112b05760405162461bcd60e51b815260040161064c90611b17565b82805461182e90611a28565b90600052602060002090601f0160209004810192826118505760008555611896565b82601f1061186957805160ff1916838001178555611896565b82800160010185558215611896579182015b8281111561189657825182559160200191906001019061187b565b506118a29291506118a6565b5090565b5b808211156118a257600081556001016118a7565b600060208083528351808285015260005b818110156118e8578581018301518582016040015282016118cc565b818111156118fa576000604083870101525b50601f01601f1916929092016040019392505050565b600081356001600160a81b038116811461192957600080fd5b6001600160a01b031692915050565b6000806040838503121561194b57600080fd5b61195483611910565b946020939093013593505050565b60008060006060848603121561197757600080fd5b61198084611910565b925061198e60208501611910565b9150604084013590509250925092565b600080604083850312156119b157600080fd5b6119ba83611910565b91506119c860208401611910565b90509250929050565b6000602082840312156119e357600080fd5b61058a82611910565b6000602082840312156119fe57600080fd5b5035919050565b60008060408385031215611a1857600080fd5b823591506119c860208401611910565b600181811c90821680611a3c57607f821691505b60208210811415611a5d57634e487b7160e01b600052602260045260246000fd5b50919050565b600060208284031215611a7557600080fd5b8151801515811461058a57600080fd5b60008219821115611aa657634e487b7160e01b600052601160045260246000fd5b500190565b60208082526033908201527f43616c6c6572206973206e6f7420746865206465706c6f796572206f7220746860408201527232903a393ab9ba32b2103337b93bb0b93232b960691b606082015260800190565b600060208284031215611b1057600080fd5b5051919050565b6020808252602b908201527f496e697469616c697a61626c653a20636f6e7472616374206973206e6f74206960408201526a6e697469616c697a696e6760a81b60608201526080019056fea26474726f6e5822122063b2dd7bf5cb9a313a5cc27f85674ff986cffb0b2ab7e94ebf10063d92294e9164736f6c634300080b0033",
  "source": "// SPDX-License-Identifier: MIT\n// OpenZeppelin Contracts (last updated v4.8.0) (token/ERC20/ERC20.sol)\n\npragma solidity ^0.8.4;\n\nimport \"@openzeppelin/contracts-upgradeable/token/ERC20/IERC20Upgradeable.sol\";\nimport \"@openzeppelin/contracts-upgradeable/security/PausableUpgradeable.sol\";\nimport \"@openzeppelin/contracts-upgradeable/security/ReentrancyGuardUpgradeable.sol\"; // Added for reentrancy protection\nimport \"@openzeppelin/contracts-upgradeable/access/OwnableUpgradeable.sol\";\nimport \"@openzeppelin/contracts-upgradeable/proxy/utils/Initializable.sol\";\nimport \"@openzeppelin/contracts-upgradeable/token/ERC20/extensions/IERC20MetadataUpgradeable.sol\";\nimport \"./IOperations.sol\";\n\ncontract cngn is\n    Initializable,\n    OwnableUpgradeable,\n    IERC20Upgradeable,\n    IERC20MetadataUpgradeable,\n    PausableUpgradeable,\n    ReentrancyGuardUpgradeable // Added for reentrancy protection\n{\n    mapping(address => uint256) private _balances;\n    mapping(address => mapping(address => uint256)) private _allowances;\n    mapping(address => bool) private isBlackListed;\n    mapping(address => bool) private isWhiteListed;\n    mapping(address => mapping(address => uint256)) private isMintAllow;\n\n    uint256 private _totalSupply;\n    string private _name;\n    string private _symbol;\n    address trustedForwarderContract;\n    address adminOperationsContract;\n\n    event DestroyedBlackFunds(address _blackListedUser, uint256 _balance);\n    event AddedBlackList(address _user);\n    event RemovedBlackList(address _user);\n    event AddedWhiteList(address _user);\n    event RemovedWhiteList(address _user);\n    event AddedMintAllow(address _user, uint256 _amount);\n\n    // /// @custom:oz-upgrades-unsafe-allow constructor state-variable-immutable\n    /// constructor() {\n    //  _disableInitializers();\n    // }\n\n    modifier onlyDeployerOrForwarder() {\n        require(\n            msg.sender == owner() || isTrustedForwarder(msg.sender),\n            \"Caller is not the deployer or the trusted forwarder\"\n        );\n        _;\n    }\n\n    function __ERC20_init(\n        string memory name_,\n        string memory symbol_\n    ) internal onlyInitializing {\n        __ERC20_init_unchained(name_, symbol_);\n    }\n\n    function __ERC20_init_unchained(\n        string memory name_,\n        string memory symbol_\n    ) internal onlyInitializing {\n        _name = name_;\n        _symbol = symbol_;\n    }\n\n    function initialize(\n        address _trustedForwarderContract,\n        address _adminOperationsContract\n    ) public initializer {\n        __ERC20_init(\"cNGN\", \"cNGN\");\n        __Ownable_init();\n        __Pausable_init();\n        __ReentrancyGuard_init(); // Initialize ReentrancyGuardUpgradeable\n\n        // _disableInitializers();\n        trustedForwarderContract = _trustedForwarderContract;\n        adminOperationsContract = _adminOperationsContract;\n    }\n\n    function isTrustedForwarder(\n        address forwarder\n    ) public view virtual returns (bool) {\n        return forwarder == trustedForwarderContract;\n    }\n\n    function msgSender() internal view returns (address payable signer) {\n        if (msg.data.length >= 20 && isTrustedForwarder(msg.sender)) {\n            assembly {\n                signer := shr(96, calldataload(sub(calldatasize(), 20)))\n            }\n        } else {\n            signer = payable(msg.sender);\n        }\n        return signer;\n    }\n\n    function updateAdminOperationsAddress(\n        address _newAdmin\n    ) public virtual onlyOwner returns (bool) {\n        adminOperationsContract = _newAdmin;\n        return true;\n    }\n\n    function updateForwarderContract(\n        address _newForwarderContract\n    ) public virtual onlyOwner returns (bool) {\n        trustedForwarderContract = _newForwarderContract;\n        return true;\n    }\n\n    function name() public view virtual override returns (string memory) {\n        return _name;\n    }\n\n    function symbol() public view virtual override returns (string memory) {\n        return _symbol;\n    }\n\n    function decimals() public view virtual override returns (uint8) {\n        return 6;\n    }\n\n    function totalSupply() public view virtual override returns (uint256) {\n        return _totalSupply;\n    }\n\n    function balanceOf(\n        address account\n    ) public view virtual override returns (uint256) {\n        return _balances[account];\n    }\n\n    // Added nonReentrant modifier to prevent reentrancy attacks\n    function transfer(\n        address to,\n        uint256 amount\n    ) public virtual override whenNotPaused nonReentrant returns (bool) {\n        require(!IAdmin(adminOperationsContract).isBlackListed(_msgSender()));\n        require(!IAdmin(adminOperationsContract).isBlackListed(to));\n        address owner = _msgSender();\n        _transfer(owner, to, amount);\n        return true;\n    }\n\n    function allowance(\n        address owner,\n        address spender\n    ) public view virtual override returns (uint256) {\n        return _allowances[owner][spender];\n    }\n\n    function approve(\n        address spender,\n        uint256 amount\n    ) public virtual override returns (bool) {\n        address owner = _msgSender();\n        _approve(owner, spender, amount);\n        return true;\n    }\n\n    // Added nonReentrant modifier to prevent reentrancy attacks\n    function transferFrom(\n        address from,\n        address to,\n        uint256 amount\n    ) public virtual override whenNotPaused nonReentrant returns (bool) {\n        require(!IAdmin(adminOperationsContract).isBlackListed(_msgSender()));\n        require(!IAdmin(adminOperationsContract).isBlackListed(from));\n        require(!IAdmin(adminOperationsContract).isBlackListed(to));\n        address spender = _msgSender();\n        _spendAllowance(from, spender, amount);\n        _transfer(from, to, amount);\n        return true;\n    }\n\n    function increaseAllowance(\n        address spender,\n        uint256 addedValue\n    ) public virtual returns (bool) {\n        address owner = _msgSender();\n        _approve(owner, spender, allowance(owner, spender) + addedValue);\n        return true;\n    }\n\n    function decreaseAllowance(\n        address spender,\n        uint256 subtractedValue\n    ) public virtual returns (bool) {\n        address owner = _msgSender();\n        uint256 currentAllowance = allowance(owner, spender);\n\n        require(\n            currentAllowance >= subtractedValue,\n            \"ERC20: decreased allowance below zero\"\n        );\n        unchecked {\n            _approve(owner, spender, currentAllowance - subtractedValue);\n        }\n\n        return true;\n    }\n\n    function mint(\n        uint256 _amount,\n        address _mintTo\n    ) public virtual onlyDeployerOrForwarder nonReentrant returns (bool) {\n        // Added nonReentrant modifier for reentrancy protection\n        address signer = msgSender();\n        require(\n            !IAdmin(adminOperationsContract).isBlackListed(signer),\n            \"User is blacklisted\"\n        );\n        require(\n            !IAdmin(adminOperationsContract).isBlackListed(_mintTo),\n            \"Receiver is blacklisted\"\n        );\n        require(\n            IAdmin(adminOperationsContract).canMint(signer),\n            \"Minter not authorized to sign\"\n        );\n        require(\n            IAdmin(adminOperationsContract).mintAmount(signer) == _amount,\n            \"Attempting to mint more than allowed\"\n        );\n        _mint(_mintTo, _amount);\n        IAdmin(adminOperationsContract).RemoveCanMint(signer);\n        return true;\n    }\n\n    function burnByUser(\n        uint256 _amount\n    ) public virtual onlyDeployerOrForwarder nonReentrant returns (bool) {\n        // Added nonReentrant modifier for reentrancy protection\n        _burn(_msgSender(), _amount);\n        return true;\n    }\n\n    function pause() public virtual onlyOwner whenNotPaused returns (bool) {\n        _pause();\n        return true;\n    }\n\n    function unPause() public virtual onlyOwner whenPaused returns (bool) {\n        _unpause();\n        return true;\n    }\n\n    function _transfer(\n        address from,\n        address to,\n        uint256 amount\n    ) internal virtual {\n        require(from != address(0), \"ERC20: transfer from the zero address\");\n        require(to != address(0), \"ERC20: transfer to the zero address\");\n\n        _beforeTokenTransfer(from, to, amount);\n\n        uint256 fromBalance = _balances[from];\n        require(\n            fromBalance >= amount,\n            \"ERC20: transfer amount exceeds balance\"\n        );\n        unchecked {\n            _balances[from] = fromBalance - amount;\n            _balances[to] += amount;\n        }\n\n        emit Transfer(from, to, amount);\n\n        _afterTokenTransfer(from, to, amount);\n    }\n\n    function _mint(address account, uint256 amount) internal virtual {\n        require(account != address(0), \"ERC20: mint to the zero address\");\n\n        _beforeTokenTransfer(address(0), account, amount);\n\n        _totalSupply += amount;\n        unchecked {\n            _balances[account] += amount;\n        }\n        emit Transfer(address(0), account, amount);\n\n        _afterTokenTransfer(address(0), account, amount);\n    }\n\n    function _burn(address account, uint256 amount) internal virtual {\n        require(account != address(0), \"ERC20: burn from the zero address\");\n\n        _beforeTokenTransfer(account, address(0), amount);\n\n        uint256 accountBalance = _balances[account];\n        require(accountBalance >= amount, \"ERC20: burn amount exceeds balance\");\n        unchecked {\n            _balances[account] = accountBalance - amount;\n            _totalSupply -= amount;\n        }\n\n        emit Transfer(account, address(0), amount);\n\n        _afterTokenTransfer(account, address(0), amount);\n    }\n\n    function _approve(\n        address owner,\n        address spender,\n        uint256 amount\n    ) internal virtual {\n        require(owner != address(0), \"ERC20: approve from the zero address\");\n        require(spender != address(0), \"ERC20: approve to the zero address\");\n\n        _allowances[owner][spender] = amount;\n        emit Approval(owner, spender, amount);\n    }\n\n    function _spendAllowance(\n        address owner,\n        address spender,\n        uint256 amount\n    ) internal virtual {\n        uint256 currentAllowance = allowance(owner, spender);\n        if (currentAllowance != type(uint256).max) {\n            require(\n                currentAllowance >= amount,\n                \"ERC20: insufficient allowance\"\n            );\n            unchecked {\n                _approve(owner, spender, currentAllowance - amount);\n            }\n        }\n    }\n\n    function _beforeTokenTransfer(\n        address from,\n        address to,\n        uint256 amount\n    ) internal virtual whenNotPaused {}\n\n    function _afterTokenTransfer(\n        address from,\n        address to,\n        uint256 amount\n    ) internal virtual {}\n\n    uint256[45] private __gap;\n}\n",
  "sourcePath": "contracts/cngn.sol",
  "compiler": {
    "name": "solc",
    "version": "0.8.11+commit.b01f3284.mod.Emscripten.clang"
  },
  "schemaVersion": "2.0.1",
  "updatedAt": "2024-11-22T02:00:08.391Z"
}