{
  "contractName": "MinimalForwarder",
  "abi": [
    {
      "inputs": [
        {
          "internalType": "address",
          "name": "_adminOperationsContract",
          "type": "address"
        }
      ],
      "stateMutability": "nonpayable",
      "type": "constructor"
    },
    {
      "inputs": [],
      "name": "InvalidShortString",
      "type": "error"
    },
    {
      "inputs": [
        {
          "internalType": "string",
          "name": "str",
          "type": "string"
        }
      ],
      "name": "StringTooLong",
      "type": "error"
    },
    {
      "anonymous": false,
      "inputs": [
        {
          "indexed": true,
          "internalType": "address",
          "name": "newAdminAddress",
          "type": "address"
        }
      ],
      "name": "AdminOperationsAddressUpdated",
      "type": "event"
    },
    {
      "anonymous": false,
      "inputs": [
        {
          "indexed": true,
          "internalType": "address",
          "name": "bridgeAddress",
          "type": "address"
        }
      ],
      "name": "BridgeAuthorized",
      "type": "event"
    },
    {
      "anonymous": false,
      "inputs": [
        {
          "indexed": true,
          "internalType": "address",
          "name": "bridgeAddress",
          "type": "address"
        }
      ],
      "name": "BridgeDeauthorized",
      "type": "event"
    },
    {
      "anonymous": false,
      "inputs": [],
      "name": "EIP712DomainChanged",
      "type": "event"
    },
    {
      "anonymous": false,
      "inputs": [
        {
          "indexed": true,
          "internalType": "address",
          "name": "previousOwner",
          "type": "address"
        },
        {
          "indexed": true,
          "internalType": "address",
          "name": "newOwner",
          "type": "address"
        }
      ],
      "name": "OwnershipTransferred",
      "type": "event"
    },
    {
      "anonymous": false,
      "inputs": [
        {
          "indexed": false,
          "internalType": "address",
          "name": "account",
          "type": "address"
        }
      ],
      "name": "Paused",
      "type": "event"
    },
    {
      "anonymous": false,
      "inputs": [
        {
          "indexed": false,
          "internalType": "address",
          "name": "account",
          "type": "address"
        }
      ],
      "name": "Unpaused",
      "type": "event"
    },
    {
      "inputs": [],
      "name": "_TYPEHASH",
      "outputs": [
        {
          "internalType": "bytes32",
          "name": "",
          "type": "bytes32"
        }
      ],
      "stateMutability": "view",
      "type": "function"
    },
    {
      "inputs": [],
      "name": "adminOperationsContract",
      "outputs": [
        {
          "internalType": "address",
          "name": "",
          "type": "address"
        }
      ],
      "stateMutability": "view",
      "type": "function"
    },
    {
      "inputs": [
        {
          "internalType": "address",
          "name": "bridgeAddress",
          "type": "address"
        }
      ],
      "name": "authorizeBridge",
      "outputs": [],
      "stateMutability": "nonpayable",
      "type": "function"
    },
    {
      "inputs": [
        {
          "internalType": "address",
          "name": "",
          "type": "address"
        }
      ],
      "name": "authorizedBridges",
      "outputs": [
        {
          "internalType": "bool",
          "name": "",
          "type": "bool"
        }
      ],
      "stateMutability": "view",
      "type": "function"
    },
    {
      "inputs": [
        {
          "internalType": "address",
          "name": "bridgeAddress",
          "type": "address"
        }
      ],
      "name": "deauthorizeBridge",
      "outputs": [],
      "stateMutability": "nonpayable",
      "type": "function"
    },
    {
      "inputs": [],
      "name": "eip712Domain",
      "outputs": [
        {
          "internalType": "bytes1",
          "name": "fields",
          "type": "bytes1"
        },
        {
          "internalType": "string",
          "name": "name",
          "type": "string"
        },
        {
          "internalType": "string",
          "name": "version",
          "type": "string"
        },
        {
          "internalType": "uint256",
          "name": "chainId",
          "type": "uint256"
        },
        {
          "internalType": "address",
          "name": "verifyingContract",
          "type": "address"
        },
        {
          "internalType": "bytes32",
          "name": "salt",
          "type": "bytes32"
        },
        {
          "internalType": "uint256[]",
          "name": "extensions",
          "type": "uint256[]"
        }
      ],
      "stateMutability": "view",
      "type": "function"
    },
    {
      "inputs": [
        {
          "components": [
            {
              "internalType": "address",
              "name": "from",
              "type": "address"
            },
            {
              "internalType": "address",
              "name": "to",
              "type": "address"
            },
            {
              "internalType": "uint256",
              "name": "value",
              "type": "uint256"
            },
            {
              "internalType": "uint256",
              "name": "nonce",
              "type": "uint256"
            },
            {
              "internalType": "bytes",
              "name": "data",
              "type": "bytes"
            }
          ],
          "internalType": "struct MinimalForwarder.ForwardRequest",
          "name": "req",
          "type": "tuple"
        },
        {
          "internalType": "bytes",
          "name": "signature",
          "type": "bytes"
        }
      ],
      "name": "execute",
      "outputs": [
        {
          "internalType": "bool",
          "name": "",
          "type": "bool"
        },
        {
          "internalType": "bytes",
          "name": "",
          "type": "bytes"
        }
      ],
      "stateMutability": "payable",
      "type": "function"
    },
    {
      "inputs": [
        {
          "components": [
            {
              "internalType": "address",
              "name": "from",
              "type": "address"
            },
            {
              "internalType": "address",
              "name": "to",
              "type": "address"
            },
            {
              "internalType": "uint256",
              "name": "value",
              "type": "uint256"
            },
            {
              "internalType": "uint256",
              "name": "nonce",
              "type": "uint256"
            },
            {
              "internalType": "bytes",
              "name": "data",
              "type": "bytes"
            }
          ],
          "internalType": "struct MinimalForwarder.ForwardRequest",
          "name": "req",
          "type": "tuple"
        },
        {
          "internalType": "bytes",
          "name": "signature",
          "type": "bytes"
        }
      ],
      "name": "executeByBridge",
      "outputs": [
        {
          "internalType": "bool",
          "name": "",
          "type": "bool"
        },
        {
          "internalType": "bytes",
          "name": "",
          "type": "bytes"
        }
      ],
      "stateMutability": "payable",
      "type": "function"
    },
    {
      "inputs": [
        {
          "internalType": "address",
          "name": "from",
          "type": "address"
        }
      ],
      "name": "getNonce",
      "outputs": [
        {
          "internalType": "uint256",
          "name": "",
          "type": "uint256"
        }
      ],
      "stateMutability": "view",
      "type": "function"
    },
    {
      "inputs": [],
      "name": "owner",
      "outputs": [
        {
          "internalType": "address",
          "name": "",
          "type": "address"
        }
      ],
      "stateMutability": "view",
      "type": "function"
    },
    {
      "inputs": [],
      "name": "pause",
      "outputs": [],
      "stateMutability": "nonpayable",
      "type": "function"
    },
    {
      "inputs": [],
      "name": "paused",
      "outputs": [
        {
          "internalType": "bool",
          "name": "",
          "type": "bool"
        }
      ],
      "stateMutability": "view",
      "type": "function"
    },
    {
      "inputs": [
        {
          "internalType": "bytes32",
          "name": "",
          "type": "bytes32"
        }
      ],
      "name": "processedTxHashes",
      "outputs": [
        {
          "internalType": "bool",
          "name": "",
          "type": "bool"
        }
      ],
      "stateMutability": "view",
      "type": "function"
    },
    {
      "inputs": [],
      "name": "renounceOwnership",
      "outputs": [],
      "stateMutability": "nonpayable",
      "type": "function"
    },
    {
      "inputs": [
        {
          "internalType": "address",
          "name": "newOwner",
          "type": "address"
        }
      ],
      "name": "transferOwnership",
      "outputs": [],
      "stateMutability": "nonpayable",
      "type": "function"
    },
    {
      "inputs": [],
      "name": "unpause",
      "outputs": [],
      "stateMutability": "nonpayable",
      "type": "function"
    },
    {
      "inputs": [
        {
          "internalType": "address",
          "name": "_newAdmin",
          "type": "address"
        }
      ],
      "name": "updateAdminOperationsAddress",
      "outputs": [
        {
          "internalType": "bool",
          "name": "",
          "type": "bool"
        }
      ],
      "stateMutability": "nonpayable",
      "type": "function"
    },
    {
      "inputs": [
        {
          "components": [
            {
              "internalType": "address",
              "name": "from",
              "type": "address"
            },
            {
              "internalType": "address",
              "name": "to",
              "type": "address"
            },
            {
              "internalType": "uint256",
              "name": "value",
              "type": "uint256"
            },
            {
              "internalType": "uint256",
              "name": "nonce",
              "type": "uint256"
            },
            {
              "internalType": "bytes",
              "name": "data",
              "type": "bytes"
            }
          ],
          "internalType": "struct MinimalForwarder.ForwardRequest",
          "name": "req",
          "type": "tuple"
        },
        {
          "internalType": "bytes",
          "name": "signature",
          "type": "bytes"
        }
      ],
      "name": "verify",
      "outputs": [
        {
          "internalType": "bool",
          "name": "",
          "type": "bool"
        }
      ],
      "stateMutability": "view",
      "type": "function"
    },
    {
      "stateMutability": "payable",
      "type": "receive"
    }
  ],
  "bytecode": "0x6101606040523480156200001257600080fd5b50d380156200002057600080fd5b50d280156200002e57600080fd5b5060405162001dd838038062001dd8833981016040819052620000519162000345565b6040518060400160405280601081526020016f26b4b734b6b0b62337b93bb0b93232b960811b81525060405180604001604052806005815260200164302e302e3160d81b815250620000b3600083620001aa60201b620009371790919060201c565b61012052620000d0816001620001aa602090811b6200093717901c565b61014052815160208084019190912060e052815190820120610100524660a0526200015e60e05161010051604080517f8b73c3c69bb8fe3d512ecc4cf759cc79239f7b179b0ffacaa9a75d522b39400f60208201529081019290925260608201524660808201523060a082015260009060c00160405160208183030381529060405280519060200120905090565b60805250503060c0526200017233620001fe565b6002805460ff60a01b191690556001600355600480546001600160a01b0319166001600160a01b039290921691909117905562000437565b6000602083511015620001ca57620001c28362000250565b9050620001f8565b82620001e1836200029c60201b620009701760201c565b8151620001f292602001906200029f565b5060ff90505b92915050565b600280546001600160a01b038381166001600160a01b0319831681179093556040519116919082907f8be0079c531659141344cd1fd0a4f28419497f9722a3daafe3b4186f6b6457e090600090a35050565b600080829050601f8151111562000287578260405163305a27a960e01b81526004016200027e919062000380565b60405180910390fd5b80516200029482620003d8565b179392505050565b90565b828054620002ad9062000400565b90600052602060002090601f016020900481019282620002d157600085556200031c565b82601f10620002ec57805160ff19168380011785556200031c565b828001600101855582156200031c579182015b828111156200031c578251825591602001919060010190620002ff565b506200032a9291506200032e565b5090565b5b808211156200032a57600081556001016200032f565b6000602082840312156200035857600080fd5b81516001600160a81b03811681146200037057600080fd5b6001600160a01b03169392505050565b600060208083528351808285015260005b81811015620003af5785810183015185820160400152820162000391565b81811115620003c2576000604083870101525b50601f01601f1916929092016040019392505050565b80516020808301519190811015620003fa576000198160200360031b1b821691505b50919050565b600181811c908216806200041557607f821691505b60208210811415620003fa57634e487b7160e01b600052602260045260246000fd5b60805160a05160c05160e051610100516101205161014051611955620004836000396000610713015260006106e9015260005050600050506000505060005050600050506119556000f3fe60806040526004361061010d5760003560e01c80638456cb5911610095578063b0e6ff6511610064578063b0e6ff6514610459578063b83fd8231461046c578063e53595ee146104a6578063e82ed200146104e0578063f2fde38b1461051a57600080fd5b80638456cb591461036257806384b0196e146103915780638da5cb5b146103d3578063a818569a1461041f57600080fd5b80635b4dbfcc116100dc5780635b4dbfcc146102555780635c975abb1461028f5780636fc063be146102c8578063715018a6146103125780637507bd7a1461034157600080fd5b8063175c25a5146101195780632d0335ab1461017a5780632f764644146101ca5780633f4ba83a1461022457600080fd5b3661011457005b600080fd5b34801561012557600080fd5b50d3801561013257600080fd5b50d2801561013f57600080fd5b506101677f37f69988ed101a80359fd1bf023dce4ccbafcaf14b772646dec9ad4f0d6bc1e281565b6040519081526020015b60405180910390f35b34801561018657600080fd5b50d3801561019357600080fd5b50d280156101a057600080fd5b506101676101af366004611512565b6001600160a01b031660009081526007602052604090205490565b3480156101d657600080fd5b50d380156101e357600080fd5b50d280156101f057600080fd5b506102146101ff36600461154b565b60066020526000908152604090205460ff1681565b6040519015158152602001610171565b34801561023057600080fd5b50d3801561023d57600080fd5b50d2801561024a57600080fd5b50610253610554565b005b34801561026157600080fd5b50d3801561026e57600080fd5b50d2801561027b57600080fd5b5061021461028a366004611564565b610566565b34801561029b57600080fd5b50d380156102a857600080fd5b50d280156102b557600080fd5b50600254600160a01b900460ff16610214565b3480156102d457600080fd5b50d380156102e157600080fd5b50d280156102ee57600080fd5b506102146102fd366004611512565b60056020526000908152604090205460ff1681565b34801561031e57600080fd5b50d3801561032b57600080fd5b50d2801561033857600080fd5b50610253610684565b61035461034f366004611564565b610696565b60405161017192919061165f565b34801561036e57600080fd5b50d3801561037b57600080fd5b50d2801561038857600080fd5b506102536106cb565b34801561039d57600080fd5b50d380156103aa57600080fd5b50d280156103b757600080fd5b506103c06106db565b6040516101719796959493929190611682565b3480156103df57600080fd5b50d380156103ec57600080fd5b50d280156103f957600080fd5b506002546001600160a01b03165b6040516001600160a01b039091168152602001610171565b34801561042b57600080fd5b50d3801561043857600080fd5b50d2801561044557600080fd5b50610253610454366004611512565b610763565b610354610467366004611564565b6107b4565b34801561047857600080fd5b50d3801561048557600080fd5b50d2801561049257600080fd5b506102146104a1366004611512565b610811565b3480156104b257600080fd5b50d380156104bf57600080fd5b50d280156104cc57600080fd5b506102536104db366004611512565b61086a565b3480156104ec57600080fd5b50d380156104f957600080fd5b50d2801561050657600080fd5b50600454610407906001600160a01b031681565b34801561052657600080fd5b50d3801561053357600080fd5b50d2801561054057600080fd5b5061025361054f366004611512565b6108be565b61055c610973565b6105646109cd565b565b6000806105766020860186611512565b6105866040870160208801611512565b6040870135606088013561059d60808a018a611718565b6040516020016105b29695949392919061175f565b604051602081830303815290604052805190602001209050600061061785858080601f0160208091040260200160405190810160405280939291908181526020018383808284376000920191909152506106119250869150610a229050565b90610a55565b905060608601356007600061062f60208a018a611512565b6001600160a01b03166001600160a01b031681526020019081526020016000205414801561067a57506106656020870187611512565b6001600160a01b0316816001600160a01b0316145b9695505050505050565b61068c610973565b6105646000610a79565b600060606106a2610973565b6106aa610acb565b6106b5858585610b25565b915091506106c36001600355565b935093915050565b6106d3610973565b610564610f7e565b60006060808280808361070e7f000000000000000000000000000000000000000000000000000000000000000083610fc1565b6107397f00000000000000000000000000000000000000000000000000000000000000006001610fc1565b60408051600080825260208201909252600f60f81b9b939a50919850469750309650945092509050565b61076b610973565b6001600160a01b038116600081815260056020526040808220805460ff19169055517f02c2f0ba15b03f88b18f4832609a18cf35fc6b3f4546a9992076d7453d1334a89190a250565b3360009081526005602052604081205460609060ff166106a25760405162461bcd60e51b8152602060048201526013602482015272556e617574686f72697a65642062726964676560681b60448201526064015b60405180910390fd5b600061081b610973565b600480546001600160a01b0319166001600160a01b0384169081179091556040517fd86428dd4be052a5ba41b3830d40fa2dba31b44646b4f0c45e13c1f41e521ff490600090a2506001919050565b610872610973565b6001600160a01b038116600081815260056020526040808220805460ff19166001179055517f6cf28439a2daab1b265097227212a5b71e0a76f9ed85e3f815b5a6c3e218eb7f9190a250565b6108c6610973565b6001600160a01b03811661092b5760405162461bcd60e51b815260206004820152602660248201527f4f776e61626c653a206e6577206f776e657220697320746865207a65726f206160448201526564647265737360d01b6064820152608401610808565b61093481610a79565b50565b60006020835110156109535761094c83611065565b905061096a565b828281516109649260200190611479565b5060ff90505b92915050565b90565b6002546001600160a01b031633146105645760405162461bcd60e51b815260206004820181905260248201527f4f776e61626c653a2063616c6c6572206973206e6f7420746865206f776e65726044820152606401610808565b6109d56110a3565b6002805460ff60a01b191690557f5db9ee0a495bf2e6ff9c91a7834c1ba4fdd244a5e8aa4e537bd38aeae4b073aa335b6040516001600160a01b03909116815260200160405180910390a1565b7f19457468657265756d205369676e6564204d6573736167653a0a3332000000006000908152601c91909152603c902090565b6000806000610a6485856110f3565b91509150610a7181611139565b509392505050565b600280546001600160a01b038381166001600160a01b0319831681179093556040519116919082907f8be0079c531659141344cd1fd0a4f28419497f9722a3daafe3b4186f6b6457e090600090a35050565b60026003541415610b1e5760405162461bcd60e51b815260206004820152601f60248201527f5265656e7472616e637947756172643a207265656e7472616e742063616c6c006044820152606401610808565b6002600355565b6004546000906060906001600160a01b03166365edf610610b496020880188611512565b6040516001600160e01b031960e084901b1681526001600160a01b039091166004820152602401602060405180830381865afa158015610b8d573d6000803e3d6000fd5b505050506040513d601f19601f82011682018060405250810190610bb191906117aa565b610c0e5760405162461bcd60e51b815260206004820152602860248201527f596f7520617265206e6f7420616c6c6f77656420746f20757365207468697320604482015267747820726f75746560c01b6064820152608401610808565b6004546001600160a01b031663e47d6060336040516001600160e01b031960e084901b1681526001600160a01b039091166004820152602401602060405180830381865afa158015610c64573d6000803e3d6000fd5b505050506040513d601f19601f82011682018060405250810190610c8891906117aa565b15610cce5760405162461bcd60e51b815260206004820152601660248201527514995b185e595c881a5cc8189b1858dadb1a5cdd195960521b6044820152606401610808565b6004546001600160a01b031663c2ba4744610cec6020880188611512565b6040516001600160e01b031960e084901b1681526001600160a01b039091166004820152602401602060405180830381865afa158015610d30573d6000803e3d6000fd5b505050506040513d601f19601f82011682018060405250810190610d5491906117aa565b610da05760405162461bcd60e51b815260206004820152601d60248201527f4d696e746572206e6f7420617574686f72697a656420746f207369676e0000006044820152606401610808565b610dab858585610566565b610e125760405162461bcd60e51b815260206004820152603260248201527f4d696e696d616c466f727761726465723a207369676e617475726520646f6573604482015271081b9bdd081b585d18da081c995c5d595cdd60721b6064820152608401610808565b6000610e216020870187611512565b610e316040880160208901611512565b60408801356060890135610e4860808b018b611718565b604051602001610e5d969594939291906117d3565b604051602081830303815290604052805190602001209050610e7e81611287565b610e8d6060870135600161182f565b60076000610e9e60208a018a611512565b6001600160a01b03166001600160a01b0316815260200190815260200160002081905550600080876020016020810190610ed89190611512565b6001600160a01b03166040890135610ef360808b018b611718565b610f0060208d018d611512565b604051602001610f1293929190611855565b60408051601f1981840301815290829052610f2c9161187b565b60006040518083038185875af1925050503d8060008114610f69576040519150601f19603f3d011682016040523d82523d6000602084013e610f6e565b606091505b5090999098509650505050505050565b610f86611301565b6002805460ff60a01b1916600160a01b1790557f62e78cea01bee320cd4e420270b5ea74000d11b0c9f74754ebdbfc544b05a258610a053390565b606060ff8314610fd45761094c8361134e565b818054610fe090611897565b80601f016020809104026020016040519081016040528092919081815260200182805461100c90611897565b80156110595780601f1061102e57610100808354040283529160200191611059565b820191906000526020600020905b81548152906001019060200180831161103c57829003601f168201915b5050505050905061096a565b600080829050601f81511115611090578260405163305a27a960e01b815260040161080891906118d2565b805161109b826118e5565b179392505050565b600254600160a01b900460ff166105645760405162461bcd60e51b815260206004820152601460248201527314185d5cd8589b194e881b9bdd081c185d5cd95960621b6044820152606401610808565b60008082516041141561112a5760208301516040840151606085015160001a61111e8782858561138d565b94509450505050611132565b506000905060025b9250929050565b600081600481111561114d5761114d611909565b14156111565750565b600181600481111561116a5761116a611909565b14156111b85760405162461bcd60e51b815260206004820152601860248201527f45434453413a20696e76616c6964207369676e617475726500000000000000006044820152606401610808565b60028160048111156111cc576111cc611909565b141561121a5760405162461bcd60e51b815260206004820152601f60248201527f45434453413a20696e76616c6964207369676e6174757265206c656e677468006044820152606401610808565b600381600481111561122e5761122e611909565b14156109345760405162461bcd60e51b815260206004820152602260248201527f45434453413a20696e76616c6964207369676e6174757265202773272076616c604482015261756560f01b6064820152608401610808565b60008181526006602052604090205460ff16156112e65760405162461bcd60e51b815260206004820152601760248201527f5265706c61792061747461636b2070726576656e7465640000000000000000006044820152606401610808565b6000908152600660205260409020805460ff19166001179055565b600254600160a01b900460ff16156105645760405162461bcd60e51b815260206004820152601060248201526f14185d5cd8589b194e881c185d5cd95960821b6044820152606401610808565b6060600061135b83611451565b604080516020808252818301909252919250600091906020820181803683375050509182525060208101929092525090565b6000807f7fffffffffffffffffffffffffffffff5d576e7357a4501ddfe92f46681b20a08311156113c45750600090506003611448565b6040805160008082526020820180845289905260ff881692820192909252606081018690526080810185905260019060a0016020604051602081039080840390855afa158015611418573d6000803e3d6000fd5b5050604051601f1901519150506001600160a01b03811661144157600060019250925050611448565b9150600090505b94509492505050565b600060ff8216601f81111561096a57604051632cd44ac360e21b815260040160405180910390fd5b82805461148590611897565b90600052602060002090601f0160209004810192826114a757600085556114ed565b82601f106114c057805160ff19168380011785556114ed565b828001600101855582156114ed579182015b828111156114ed5782518255916020019190600101906114d2565b506114f99291506114fd565b5090565b5b808211156114f957600081556001016114fe565b60006020828403121561152457600080fd5b81356001600160a81b038116811461153b57600080fd5b6001600160a01b03169392505050565b60006020828403121561155d57600080fd5b5035919050565b60008060006040848603121561157957600080fd5b833567ffffffffffffffff8082111561159157600080fd5b9085019060a082880312156115a557600080fd5b909350602085013590808211156115bb57600080fd5b818601915086601f8301126115cf57600080fd5b8135818111156115de57600080fd5b8760208285010111156115f057600080fd5b6020830194508093505050509250925092565b60005b8381101561161e578181015183820152602001611606565b8381111561162d576000848401525b50505050565b6000815180845261164b816020860160208601611603565b601f01601f19169290920160200192915050565b821515815260406020820152600061167a6040830184611633565b949350505050565b60ff60f81b881681526000602060e0818401526116a260e084018a611633565b83810360408501526116b4818a611633565b606085018990526001600160a01b038816608086015260a0850187905284810360c0860152855180825283870192509083019060005b81811015611706578351835292840192918401916001016116ea565b50909c9b505050505050505050505050565b6000808335601e1984360301811261172f57600080fd5b83018035915067ffffffffffffffff82111561174a57600080fd5b60200191503681900382131561113257600080fd5b60006bffffffffffffffffffffffff19808960601b168352808860601b1660148401525085602883015284604883015282846068840137506000910160680190815295945050505050565b6000602082840312156117bc57600080fd5b815180151581146117cc57600080fd5b9392505050565b6001600160a01b03878116825286166020820152604081018590526060810184905260a06080820181905281018290526000828460c0840137600060c0848401015260c0601f19601f8501168301019050979650505050505050565b6000821982111561185057634e487b7160e01b600052601160045260246000fd5b500190565b8284823760609190911b6bffffffffffffffffffffffff19169101908152601401919050565b6000825161188d818460208701611603565b9190910192915050565b600181811c908216806118ab57607f821691505b602082108114156118cc57634e487b7160e01b600052602260045260246000fd5b50919050565b6020815260006117cc6020830184611633565b805160208083015191908110156118cc5760001960209190910360031b1b16919050565b634e487b7160e01b600052602160045260246000fdfea26474726f6e5822122041dad7a5136abc436321edfe2d9de99d344429cb29405b510567cf02df9ae7f764736f6c634300080b0033",
  "source": "// SPDX-License-Identifier: MIT\n// Further information: https://eips.ethereum.org/EIPS/eip-2770\npragma solidity ^0.8.0;\n\nimport \"@openzeppelin/contracts/utils/cryptography/ECDSA.sol\";\nimport \"@openzeppelin/contracts/utils/cryptography/draft-EIP712.sol\";\nimport \"@openzeppelin/contracts/access/Ownable.sol\";\nimport \"@openzeppelin/contracts/security/Pausable.sol\";\nimport \"@openzeppelin/contracts/security/ReentrancyGuard.sol\";\nimport \"./IOperations.sol\";\n\n/**\n * @title Forwarder Smart Contract\n * @dev Simple forwarder for extensible meta-transaction forwarding.\n * This contract has been updated with security improvements.\n */\ncontract MinimalForwarder is EIP712, Ownable, Pausable, ReentrancyGuard {\n    using ECDSA for bytes32;\n\n    // Declare events\n    event BridgeAuthorized(address indexed bridgeAddress);\n    event BridgeDeauthorized(address indexed bridgeAddress);\n    event AdminOperationsAddressUpdated(address indexed newAdminAddress);\n\n    struct ForwardRequest {\n        address from;\n        address to;\n        uint256 value;\n        uint256 nonce;\n        bytes data;\n    }\n\n    address public adminOperationsContract;\n    mapping(address => bool) public authorizedBridges; // Track authorized bridge contracts\n    mapping(bytes32 => bool) public processedTxHashes; // Prevent replay attacks\n\n    bytes32 public constant _TYPEHASH =\n        keccak256(\n            \"ForwardRequest(address from,address to,uint256 value,uint256 nonce,bytes data)\"\n        );\n\n    mapping(address => uint256) private _nonces;\n\n    constructor(\n        address _adminOperationsContract\n    ) EIP712(\"MinimalForwarder\", \"0.0.1\") {\n        adminOperationsContract = _adminOperationsContract;\n    }\n\n    function updateAdminOperationsAddress(\n        address _newAdmin\n    ) public virtual onlyOwner returns (bool) {\n        adminOperationsContract = _newAdmin;\n        emit AdminOperationsAddressUpdated(_newAdmin); // Emit event\n        return true;\n    }\n\n    function getNonce(address from) public view returns (uint256) {\n        return _nonces[from];\n    }\n\n    function verify(\n        ForwardRequest calldata req,\n        bytes calldata signature\n    ) public view returns (bool) {\n        bytes32 messagehash = keccak256(\n            abi.encodePacked(req.from, req.to, req.value, req.nonce, req.data)\n        );\n        address signer = messagehash.toEthSignedMessageHash().recover(\n            signature\n        );\n\n        return ((_nonces[req.from] == req.nonce && signer == req.from));\n    }\n\n    function _executeTransaction(\n        ForwardRequest calldata req,\n        bytes calldata signature\n    ) private returns (bool, bytes memory) {\n        require(\n            IAdmin(adminOperationsContract).canForward(req.from),\n            \"You are not allowed to use this tx route\"\n        );\n        require(\n            !IAdmin(adminOperationsContract).isBlackListed(_msgSender()),\n            \"Relayer is blacklisted\"\n        );\n        require(\n            IAdmin(adminOperationsContract).canMint(req.from),\n            \"Minter not authorized to sign\"\n        );\n        require(\n            verify(req, signature),\n            \"MinimalForwarder: signature does not match request\"\n        );\n\n        bytes32 txHash = keccak256(\n            abi.encode(req.from, req.to, req.value, req.nonce, req.data)\n        );\n        _preventReplay(txHash);\n        _nonces[req.from] = req.nonce + 1;\n\n        (bool success, bytes memory returndata) = req.to.call{value: req.value}(\n            abi.encodePacked(req.data, req.from)\n        );\n\n        return (success, returndata);\n    }\n\n    function execute(\n        ForwardRequest calldata req,\n        bytes calldata signature\n    ) public payable onlyOwner nonReentrant returns (bool, bytes memory) {\n        return _executeTransaction(req, signature);\n    }\n\n    function executeByBridge(\n        ForwardRequest calldata req,\n        bytes calldata signature\n    )\n        public\n        payable\n        onlyAuthorizedBridge\n        nonReentrant\n        returns (bool, bytes memory)\n    {\n        return _executeTransaction(req, signature);\n    }\n\n    function pause() external onlyOwner {\n        _pause();\n    }\n\n    function unpause() external onlyOwner {\n        _unpause();\n    }\n\n    function authorizeBridge(address bridgeAddress) external onlyOwner {\n        authorizedBridges[bridgeAddress] = true;\n        emit BridgeAuthorized(bridgeAddress); // Emit event\n    }\n\n    function deauthorizeBridge(address bridgeAddress) external onlyOwner {\n        authorizedBridges[bridgeAddress] = false;\n        emit BridgeDeauthorized(bridgeAddress); // Emit event\n    }\n\n    modifier onlyAuthorizedBridge() {\n        require(authorizedBridges[msg.sender], \"Unauthorized bridge\");\n        _;\n    }\n\n    function _preventReplay(bytes32 txHash) internal {\n        require(!processedTxHashes[txHash], \"Replay attack prevented\");\n        processedTxHashes[txHash] = true;\n    }\n\n    modifier onlyAdmin() {\n        require(msg.sender == adminOperationsContract, \"Not an admin\");\n        _;\n    }\n\n    receive() external payable {}\n}\n",
  "sourcePath": "contracts/forwarder.sol",
  "compiler": {
    "name": "solc",
    "version": "0.8.11+commit.b01f3284.mod.Emscripten.clang"
  },
  "schemaVersion": "2.0.1",
  "updatedAt": "2024-11-22T02:00:08.396Z"
}